:020000040800F2
:1000000000040020450100084D0100084F010008D0
:1000100051010008530100085501000800000000CC
:100020000000000000000000000000005701000870
:1000300059010008000000005B0100085D01000894
:100040005F0100085F0100085F0100085F01000810
:100050005F0100085F0100085F0100085F01000800
:100060005F0100085F0100088D0100085F010008C2
:100070005F0100085F0100085F0100085F010008E0
:100080005F0100085F0100085F0100085F010008D0
:100090005F0100085F0100085F0100085F010008C0
:1000A0005F0100085F0100085F0100085F010008B0
:1000B0005F0100085F0100085F0100085F010008A0
:1000C0005F0100085F0100085F0100085F01000890
:1000D0005F0100085F0100085F0100085F01000880
:1000E0005F0100085F0100085F0100085F01000870
:1000F0005F0100085F0100085F0100085F01000860
:100100005F0100085F0100085F0100085F0100084F
:100110005F0100085F0100085F0100085F0100083F
:100120005F0100085F0100085F0100085F0100082F
:10013000DFF80CD000F018F80048004771070008FD
:10014000000400200648804706480047FEE7FEE717
:10015000FEE7FEE7FEE7FEE7FEE7FEE7FEE7FEE777
:10016000F106000831010008064C074D06E0E06882
:1001700040F0010394E8070098471034AC42F6D3EE
:10018000FFF7DAFF600800087008000810B51020BB
:1001900000F022F8A8B110210A4800F0D5F868B1A3
:1001A0002021094800F0C0F808B9012000E0002033
:1001B000044622462021044800F0C1F8102000F037
:1001C00005F810BD00180140000C0140014908600D
:1001D0007047000014040140014600200022074B34
:1001E0001B6803EA0102054B14331B680B4013B173
:1001F0000AB1012000E00020704700000004014027
:100200002DE9F041024600250026002000230024AD
:10021000002791F803C00CF00F0591F803C00CF013
:10022000100CBCF1000F03D091F802C04CEA050598
:1002300091F800C0BCF1000F31D0146800202BE011
:100240004FF0010C0CFA00F3B1F800C00CEA030601
:100250009E4220D183004FF00F0C0CFA03F7BC43F1
:1002600005FA03FC4CEA040491F803C0BCF1280F22
:1002700006D14FF0010C0CFA00FCC2F814C00AE0E1
:1002800091F803C0BCF1480F05D14FF0010C0CFAF6
:1002900000FCC2F810C0401C0828D1D31460B1F88B
:1002A00000C0BCF1FF0F34DD546800202EE000F1E7
:1002B000080C4FF0010808FA0CF3B1F800C00CEA82
:1002C00003069E4221D183004FF00F0C0CFA03F776
:1002D000BC4305FA03FC4CEA040491F803C0BCF1EA
:1002E000280F05D100F1080C08FA0CF8C2F81480A8
:1002F00091F803C0BCF1480F07D100F1080C4FF092
:10030000010808FA0CF8C2F81080401C0828CED367
:100310005460BDE8F0810246002093680B400BB1A9
:10032000012000E00020704702460020D3680B4007
:100330000BB1012000E000207047416170470AB115
:10034000016100E04161704770B504460D462946E1
:100350002046FFF7E9FF012808D129462046FFF78C
:10036000DAFF08B9012070BD0020FCE729462046CD
:10037000FFF7DAFF20B929462046FFF7CCFFF2E766
:100380000020F0E708B50121402000F05BF81020C4
:10039000ADF8000048208DF8030003208DF802001E
:1003A00069461148FFF72CFF012210210E48FFF784
:1003B000C6FF0820ADF8000048208DF80300032098
:1003C0008DF8020069460848FFF71AFF0420ADF8CF
:1003D000000048208DF8030003208DF802006946D4
:1003E0000148FFF70DFF08BD0018014008B50121C5
:1003F000482000F027F82020ADF8000010208DF8EC
:10040000030003208DF8020069460C48FFF7F8FE50
:1004100020210A48FFF791FF2020ADF800001020AE
:100420008DF8030003208DF8020069460448FFF7A9
:10043000E7FE20210248FFF780FF08BD000C0140C5
:100440000018014029B1064A92690243044B9A619F
:1004500004E0034A92698243014B9A6170470000AD
:10046000001002400F48006840F001000D4908608C
:10047000084640680C4908400A4948600846006838
:100480000A490840074908600846006820F48020AF
:1004900008600846406820F4FE0048604FF41F00E2
:1004A00088607047001002400000FFF8FFFFF6FE72
:1004B00010B501460022002300204A11012A02D172
:1004C000094C236806E0022A02D1074C236A01E0A6
:1004D000054C636A01F01F02012494401C400CB1DA
:1004E000012000E0002010BD0010024002484068DA
:1004F00000F00C0070470000001002400146002090
:10050000034A506820F0F000084350607047000034
:10051000001002401149096821F480310F4A11602E
:100520001146096821F480211160B0F5803F03D0A5
:10053000B0F5802F0ED106E00849096841F48031FA
:10054000064A116007E00549096841F4A021034A01
:10055000116000E000BF00BF7047000000100240C3
:1005600001460020034A506820F4E06008435060D0
:10057000704700000010024001460020034A506806
:1005800020F4605040EAC100506070470010024003
:100590000149086670470000000042420246002000
:1005A000044B586820F47C1042EA01031843014BC5
:1005B000586070470010024001460020034A50680E
:1005C00020F0030008435060704700000010024014
:1005D00038B5002000900024002500BF3120FFF72F
:1005E00067FF05460098401C00900098B0F5A06F8A
:1005F00001D0002DF2D03120FFF75AFF08B10124BD
:1006000000E00024204638BD10B500F001F810BD10
:100610000CB50020019000903348006840F4803011
:100620003149086000BF3048006800F40030009095
:100630000198401C0190009818B90198B0F5A06F7E
:10064000F1D12948006800F4003010B10120009079
:1006500001E0002000900098012843D12348006861
:1006600040F01000214908600846006820F00300AF
:1006700008600846006840F0020008601A484068B8
:10068000194948600846406848600846406840F498
:10069000806048600846406820F47C104860084646
:1006A000406840F4E81048600846006840F08070F8
:1006B000086000BF0C48006800F000700028F9D006
:1006C0000948406820F00300074948600846406830
:1006D00040F00200486000BF0348406800F00C0092
:1006E0000828F9D10CBD0000001002400020024093
:1006F00010B51348006840F0010011490860084631
:100700004068104908400E494860084600680E4994
:1007100008400B4908600846006820F48020086003
:100720000846406820F4FE0048604FF41F008860CF
:10073000FFF76AFF4FF000600449086010BD000039
:10074000001002400000FFF8FFFFF6FE08ED00E099
:1007500002E008C8121F08C1002AFAD1704770478A
:10076000002001E001C1121F002AFBD170470000E8
:1007700000F046F8FFF73AFEFFF704FE3AE01021DA
:100780001D48FFF7E1FD70B120211C48FFF7CCFDAB
:1007900008B9012000E00020044622462021174825
:1007A000FFF7CDFD26E008211348FFF7CDFD70B11E
:1007B00020211148FFF7B8FD08B9012000E0002012
:1007C0000446224620210C48FFF7B9FD12E004211F
:1007D0000948FFF7B9FD68B120210848FFF7A4FDDB
:1007E00008B9012000E000200446224620210348E9
:1007F000FFF7A5FDC3E7000000180140000C014011
:1008000010B5FFF72FFE4FF48030FFF783FE002076
:10081000FFF774FE0020FFF7AFFE4FF48060FFF794
:100820009FFE4FF4E0114FF48030FFF7B7FE012038
:10083000FFF7AEFEFFF7CCFE012801D0002010BD6F
:1008400000BF3920FFF734FE0028FAD00220FFF75E
:10085000B3FE00BFFFF74AFE0828FBD10120EEE7F8
:100860007008000800000020000400006007000875
:0400000508000131BD
:00000001FF
