:020000040800F2
:1000000030CD002045010008D51600082D1300084A
:10001000D1160008A51000085F27000800000000A6
:10002000000000000000000000000000391C000873
:10003000A91000080000000085170008951D0008A1
:100040005F0100085F0100085F010008311C000823
:100050005F0100085F010008AB1000085F010008A5
:10006000BD100008ED100008F11000085F01000845
:100070005F0100085F0100085F0100085F010008E0
:100080005F0100085F010008D90900085F0100084E
:100090005F0100085F0100085F0100085F010008C0
:1000A0005F0100085F0100085F0100085F010008B0
:1000B0005F01000839200008812000085F01000866
:1000C0005F0100085F0100085F0100085F01000890
:1000D0005F010008112400085F0100085F010008AB
:1000E0005F0100085F0100085F0100085F01000870
:1000F0005F0100085F0100085F0100085F01000860
:100100005F0100085F0100085F0100085F0100084F
:100110005F0100085F010008D12000085F010008AE
:100120005F0100085F0100085F0100085F0100082F
:10013000DFF80CD000F00EFC004800474931000801
:1001400030CD00200648804706480047FEE7FEE71E
:10015000FEE7FEE7FEE7FEE7FEE7FEE7FEE7FEE777
:10016000991D000831010008F0B480EA0102D40FA3
:100170004200B2EB410F02D20246084611464A0045
:1001800042D0C30DDDB2C1F3C752AD1A202D35DA0E
:10019000C1F3160141F4000204B15242C5F1200638
:1001A00002FA06F12A411044B3EBD05F23D0C4B168
:1001B000012DA0EBC35009DCF0BC4FF0004202EA75
:1001C000C352DBB200F5000000F009BB400000F1B3
:1001D000807000EBC350A0F1807040EAD1704900FC
:1001E00009E0490841EAC071A0EBC35000F50000E6
:1001F000400800EBC350F0BC00F0E8BA61420122B5
:1002000002EB4101001BF6E7F0BC704781F00041B2
:10021000AAE780F00040A7E780EA010210B502F0EB
:100220000043400022D04A001FD0010E01EB1261B2
:10023000C0F35600C2F3560240F4000042F400023C
:10024000A0FB022000047F39140400D0401C50EAB7
:10025000124001D44000491EC2B20C0604EBD0107B
:10026000401C4008802A02D003E0002010BD20F08E
:100270000100002900DA0020184310BD30B480EAE4
:10028000010202F0004530F0004221F0004013D09E
:1002900090B1C30DD40DC2F31601C0F31600E41AD9
:1002A00041F4000140F400027D34914201D3641C0A
:1002B00000E04900002C02DA30BC002070474FF407
:1002C00000000023914201D3891A034340084FEAFA
:1002D0004101F7D151B1914202D14FF0004105E007
:1002E00002D24FF0010101E06FF0010103EBC450B5
:1002F000284430BC00F06ABA2DE9FE4F804681EAFE
:100300000300C00F0C46009021F0004123F000458F
:10031000B8EB0200A94105D24046214690461C4652
:100320000B46024623F00040104347D0270DC7F389
:100330000A00C3F30A510290401A019040286BDA78
:10034000C3F3130040F4801B0098924620B10023B1
:10035000D2EB030A63EB0B0B01985946C0F1400244
:10036000504600F002FA06460D4650465946019A9C
:1003700000F01AFA10EB08006141002487EA1152DC
:1003800084EAE7731A4340D0009A62B3019A012AC3
:100390004FEA075215DC001B61EB02014FF00042EF
:1003A00002EA0752CDE90042001C41F580113246B5
:1003B0002B4600F051FA03B0BDE8F08F40462146CD
:1003C000F9E7001B61EB0201001C41F580130018E6
:1003D0005B412018A2F5001747EB030140EAD570F6
:1003E000B6196D4111E06D084FEA360645EAC07551
:1003F0004FEA0752001B61EB0201001C41F580111E
:1004000049084FEA30000019514132462B4603B0EB
:10041000BDE8F04F00F011BA00980122400000231F
:10042000D0EB020263EBE073009821464FEAE074E0
:10043000B8EB000061EB0401E9E783F000435BE700
:1004400081F0004158E72DE9FE4F81EA030404F0F2
:10045000004421F0004100944FF0000B23F00043D2
:1004600050EA01045ED052EA03045BD0C3F30A549D
:10047000C1F30A552C44A4F2F3340194A0FB0254B6
:10048000C1F3130141F48011C3F3130343F4801348
:1004900001FB024400FB034E840A970A44EA81549C
:1004A00047EA8357A4FB076802958D0A05FB078579
:1004B0004FEA932C04FB0C542705029D4FEA065883
:1004C00047EA1637B5EB08056EEB070C870E920E60
:1004D00047EA811742EA8312A7FB0201B6EB0B0140
:1004E00064EB00042B0D43EA0C335E1844EB1C5004
:1004F000DA465146E7FB0201C5F313044FEA0B331A
:1005000043EA14534FEA0432019C43EA0603A4F180
:100510000C040294009CCDE900B400F09DF903B0F6
:10052000BDE8F08F00200146F9E72DE9F04D81EAA2
:10053000030404F0004B21F0004514464FF0000A7C
:1005400023F0004150EA050220D054EA01021DD0F8
:10055000C5F30A570246C5F31303C1F31300C1F3F1
:100560000A5640F4801543F48013A7EB0608101BCD
:10057000D64608F2FD3873EB050002D308F10108F6
:1005800001E092185B41B8F1000F03DA0020014648
:10059000BDE8F08D00204FF48011064684460EE041
:1005A000171B73EB050705D3121B63EB050306430B
:1005B0004CEA010C49084FEA300092185B4150EABE
:1005C0000107EDD152EA030012D082EA040083EA67
:1005D0000501084305D0101BAB4106D201220023C0
:1005E00006E000224FF0004302E06FF001025310DA
:1005F0001AEB06004CEB085110EB0A0041EB0B0123
:10060000BDE8F04D00F019B9C10F80EAE070084470
:10061000CA079623002100F0E2B896230022114673
:1006200000F0DDB800F0004220F00040C10DC0F342
:10063000160040F400007F2901DA00207047962957
:1006400003DCC1F19601C84001E096398840002AD8
:10065000F4D04042704720F00040C10DC0F31600B6
:1006600040F400007F2901DA00207047962903DC5E
:10067000C1F19601C840704796398840704700F034
:10068000004230F000400AD0C10D01F56071C0F3A6
:10069000160042EA0151C20840071143704700208A
:1006A0000146704701F0004330B421F0004150EAA8
:1006B000010206D00A0DA2F56072C1F31301002AEF
:1006C00002DC30BC00207047440F44EAC104C10082
:1006D000E01830BC00EBC25000F078B830B50B46E3
:1006E000014600202022012409E021FA02F59D4262
:1006F00005D303FA02F5491B04FA02F52844151E36
:10070000A2F10102F1DC30BD2DE9F05F05460020C9
:1007100092469B4688460646814640241BE0284672
:1007200041464746224600F02FF853465A46C01A23
:10073000914110D311461846224600F016F82D1AA2
:1007400067EB01084F4622460120002100F00DF81A
:1007500017EB00094E41201EA4F10104DFDC4846DE
:1007600031462A464346BDE8F09F202A04DB203A62
:1007700000FA02F1002070479140C2F1200320FAF4
:1007800003F3194390407047202A04DB203A21FAF2
:1007900002F00021704721FA02F3D040C2F120029A
:1007A0009140084319467047202A06DBCB17203AB0
:1007B00041FA02F043EAE07306E041FA02F3D04066
:1007C000C2F1200291400843194670470029A8BF92
:1007D0007047401C490008BF20F00100704710B46A
:1007E000B0FA80FC00FA0CF050EA010404BF10BC1F
:1007F000704749B1CCF1200421FA04F411FA0CF14C
:1008000018BF012121430843A3EB0C01CB1D4FEA84
:1008100000614FEA102042BF002010BC704700EB7F
:10082000C35010440029A4BF10BC7047401C4900AD
:1008300008BF20F0010010BC704710B5141E73F102
:10084000000408DA401C41F1000192185B411A4390
:1008500001D120F0010010BD2DE9F04D92469B46DC
:1008600011B1B1FA81F202E0B0FA80F22032904682
:10087000FFF77BFF04460F4640EA0A0041EA0B01FE
:1008800053465A46084313D0114653EA010019D083
:10089000C8F140025046FFF777FF05460E46504626
:1008A00059464246FFF761FF084305D0012004E0A6
:1008B00020463946BDE8F08D0020054346EAE07643
:1008C0002C4337430A986305E40AA0EB0800002292
:1008D000FD0A44EA47540A3002D500200146E9E700
:1008E000010510196941DDE9084500196941BDE8B4
:1008F000F04DA2E7C1F30A52C1F3130140F2FF33F6
:1009000041F480119A4202DA00200146704740F219
:1009100033439A42A2F2334202DC5242FFF734BF21
:10092000FFF723BF30B5041E71F1000404DB4FF064
:100930000044404264EB0101141E73F1000405DB26
:100940001C464FF00043524263EB0403994208BF38
:10095000904230BD064C074D06E0E06840F00103D0
:1009600094E8070098471034AC42F6D3FFF7E4FB55
:10097000803C0008A03C000870B58D1810F8014BB1
:1009800014F0030201D110F8012B231106D110F845
:10099000013B03E010F8016B01F8016B521EF9D125
:1009A000ABB110F8012B04F00C048A1A0C2C03D004
:1009B000A2EB84129B1C08E010F8014BA2EB04226E
:1009C000F8E712F8014B01F8014B5B1EF9D5A9427B
:1009D000D4D3002070BD00002DE9F0474FF408711A
:1009E000174800F047F8012828D1154800F03EF8D4
:1009F00081464846FFF711FE82464FF08B41FFF7D4
:100A00003DFC0446FFF73BFE07464FF066320D4BB8
:100A1000FFF719FD0546FFF745FE0B4908604FF447
:100A20000871074800F012F80021054800F013F89B
:100A30004FF40871024800F009F800BFBDE8F087E4
:100A40000024014066660A405043002000220A123A
:100A5000D3430360704721B1826842F00102826093
:100A600003E0826822F00102826070470146C86C90
:100A700080B2704770B502460020002300240B129C
:100A80005568CEB205EA060415681D4015B10CB1D3
:100A9000012000E0002070BD014600208A6802F4B9
:100AA00080020AB1012000E0002070470EB501214C
:100AB000042000F069FE0020ADF804004720ADF8E6
:100AC00000000020ADF802006946044801F02AFC4D
:100AD0000121024801F023FB0EBD00000008004088
:100AE00010B586B0044694B90121082000F06CFED0
:100AF0004FF48070ADF8140010208DF8170003201B
:100B00008DF8160005A91F4800F068FB37E0012C9E
:100B10002AD10121092000F057FE2002ADF814006F
:100B200018208DF8170003208DF8160005A9154828
:100B300000F054FBFFF7BAFF6020ADF8040001207D
:100B4000ADF806001E20ADF80A000220ADF80C003A
:100B500001A90D4801F060FB08210B4801F0ACFB36
:100B600001200A4908700AE00021082000F02CFE4C
:100B70000021054801F0D3FA00200449087006B0AE
:100B800010BD0000000C014000080040E4420020BD
:100B900010B5FE48007801287ED1012200210C20EA
:100BA00000F064FA012200210F2000F05FFA002219
:100BB00011460F2000F05AFA002211460E2000F0D4
:100BC00055FA00221146102000F050FA002211467A
:100BD0000F2000F04BFA002211460C2000F046FADC
:100BE000002211460A2000F041FA022200210D20C5
:100BF00000F03CFA012200210B2000F037FA00221D
:100C00001146104600F032FA002211460D2000F085
:100C10002DFA01220021102000F028FA01220021E3
:100C20000F2000F023FA002211460E2000F01EFAD9
:100C3000002211460D2000F019FA002211460C2066
:100C400000F014FA002211460B2000F00FFA0222E5
:100C500000210A2000F00AFA012200210A2000F0F7
:100C600005FA012200210C2000F000FA01220021E7
:100C70000F2000F0FBF9012200210E2000F0F6F910
:100C800000221146102000F0F1F9002211460F2039
:100C900000F0ECF9002200E0E6E111460C2000F043
:100CA000E5F9002211460A2000F0E0F902220021B5
:100CB0000D2000F0DBF9002211460B2000F0D6F9E0
:100CC000002211460D2000F0D1F90022114610201B
:100CD00000F0CCF9002211460F2000F0C7F90122E4
:100CE00000210E2000F0C2F901220021102000F0A6
:100CF000BDF901220021122000F0B8F901220021E3
:100D00000E2000F0B3F9022200210F2000F0AEF90E
:100D1000002211460F2000F0A9F9002211461046CA
:100D200000F0A4F900221146112000F09FF90022E2
:100D30001146102000F09AF9022200210E2000F046
:100D400095F9002211460D2000F090F9002211467D
:100D50000E2000F08BF9002211460F2000F086F9DA
:100D6000002211460D2000F081F9022200210E2000
:100D700000F07CF9002211460C2000F077F90022E7
:100D800011460C2000F072F9002211460B2000F0F1
:100D90006DF9002211460C2000F068F901220021B3
:100DA0000D2000F063F9012200210D2000F05EF912
:100DB00001220021102000F059F9012200210F200A
:100DC00000F054F9022200210E2000F04FF9002219
:100DD00011460E2000F04AF900221146104600F09C
:100DE00045F901220021102000F040F901220021E4
:100DF000102000F03BF9012200210E2000F036F90E
:100E0000002211460C2000F031F9002211460C207E
:100E100000F02CF9002211460B2000F027F90022E7
:100E200011460C2000F022F902220021112000F0CE
:100E30001DF9002211460F2000F018F9002211467A
:100E40000D2000F013F9002211460E2000F00EF9DB
:100E5000002211460F2000F009F9012200210E2086
:100E600000F004F901220021102000F0FFF8012217
:100E700000210F2000F0FAF8012200210D2000F0DF
:100E8000F5F8022200210C2000F0F0F800221146B3
:100E90000C2000F0EBF800221146104600F0E6F8B6
:100EA00000221146112000F0E1F800221146102026
:100EB00000F0DCF8022200210F2000F0D7F8012218
:100EC00000210C2000F0D2F8012200210A2000F0BD
:100ED000CDF8022200210D2000F0C8F800221146B2
:100EE0000B2000F0C3F800221146104600F0BEF8B7
:100EF00000221146102000F0B9F8002211460F2000
:100F000000F0B4F802220021152000F0AFF8012211
:100F100000210D2000F0AAF8012200210C2000F091
:100F2000A5F8022200210C2000F0A0F800221146B2
:100F30000C2000F09BF800221146104600F096F8B5
:100F4000012200210C2000F091F802220021112042
:100F500000F08CF801220021102000F087F8012217
:100F600000210C2000F082F8022200210F2000F066
:100F70007DF8012200210E2000F078F801220021E6
:100F80000E2000F073F80122002101E0E44200206D
:100F90000D2000F06BF8012200210C2000F066F813
:100FA000012200210D2000F061F801220021102013
:100FB00000F05CF802220021102000F057F8002217
:100FC0001146102000F052F800221146104600F0A1
:100FD0004DF800221146112000F048F80022114679
:100FE000102000F043F8022200210F2000F03EF80C
:100FF000012200210C2000F039F8012200210A20F2
:1010000000F034F8022200210D2000F02FF8002219
:1010100011460B2000F02AF800221146104600F07D
:1010200025F800221146102000F020F80022114679
:101030000F2000F01BF8022200210E2000F016F80D
:10104000012200210D2000F011F8012200210A20C8
:1010500000F00CF802220021112000F007F8022213
:101060000021112000F002F810BD000070B5044608
:101070000E4615460848007868B1084951F8240022
:1010800000F06EFE064931F8251088B202F025F80E
:10109000002000F065FE70BDE4420020E842002020
:1010A0004043002000BFFEE7704710B5012000F06C
:1010B00045F8012000F03CF810BD000010B50420F8
:1010C00000F03CF878B1042000F032F80421064822
:1010D00000F07CF938B10120FFF702FDFFF758FD61
:1010E0000220FFF7FDFC10BD001801407047000012
:1010F00010B5102000F022F8B8B1102000F018F858
:1011000010210A4800F062F978B10120FFF7E8FCED
:10111000002001F059F94FF47A7001F0DEFF002051
:1011200001F052F90220FFF7DBFC10BD001801406E
:101130000149086070470000140401400146002086
:101140000022074B1B6803EA0102054B14331B689E
:101150000B4013B10AB1012000E0002070470000ED
:101160000004014010B50121412000F02DFB0421B5
:10117000084600F013F800F0AEFA10BD10B50446B2
:10118000204601F08FF900F0A6FA012240F2255125
:10119000014801F04AFA10BD0038014030B5002284
:1011A0008B071C0F0F2303FA04F20B4B8C1053F820
:1011B00024309343084C8D1044F8253023468C107E
:1011C00053F824308C07240F00FA04F42343024C14
:1011D0008D1044F8253030BD080001402DE9F04164
:1011E000024600250026002000230024002791F855
:1011F00003C00CF00F0591F803C00CF0100CBCF10B
:10120000000F03D091F802C04CEA050591F800C028
:10121000BCF1000F31D0146800202BE04FF0010C1E
:101220000CFA00F3B1F800C00CEA03069E4220D18C
:1012300083004FF00F0C0CFA03F7BC4305FA03FCD4
:101240004CEA040491F803C0BCF1280F06D14FF01A
:10125000010C0CFA00FCC2F814C00AE091F803C0BB
:10126000BCF1480F05D14FF0010C0CFA00FCC2F89C
:1012700010C0401C0828D1D31460B1F800C0BCF1E4
:10128000FF0F34DD546800202EE000F1080C4FF011
:10129000010808FA0CF3B1F800C00CEA03069E42FC
:1012A00021D183004FF00F0C0CFA03F7BC4305FA71
:1012B00003FC4CEA040491F803C0BCF1280F05D1EB
:1012C00000F1080C08FA0CF8C2F8148091F803C079
:1012D000BCF1480F07D100F1080C4FF0010808FAE3
:1012E0000CF8C2F81080401C0828CED35460BDE82A
:1012F000F0810246002093680B400BB1012000E012
:101300000020704702460020D3680B400BB101203B
:1013100000E0002070470AB1016100E041617047C0
:1013200001480068704700005043002000BFFEE7FE
:1013300000B587B020A001F015FA0121082000F0C7
:1013400043FA0121042000F01FFA4FF40070ADF8B9
:10135000180004208DF81B0006A91A48FFF73EFF6D
:101360000020ADF80C004720ADF810000020ADF8CB
:101370001200ADF80E0003A9134800F0D3FF0121BD
:10138000114800F0CCFE0C20ADF800000A20ADF8AA
:1013900002000120ADF804000020ADF80600ADF811
:1013A00008006946084800F0D7FE012210210648CF
:1013B00000F028FF07B000BD696E69742E2E2E2E36
:1013C00000000000000C01400008004070B5044619
:1013D0000D4629462046FFF795FF01281BD10F2017
:1013E00001F07BFE29462046FFF78CFF012808D13B
:1013F00029462046FFF77DFF08B9012070BD002077
:10140000FCE729462046FFF77DFF20B92946204604
:10141000FFF76FFFF2E70020F0E70146CA1701EB84
:1014200092729210A1EB820292B9642091FBF0F2C9
:1014300000FB121050B94FF4C87091FBF0F200FBA2
:10144000121008B9012070470020FCE70120FAE7DC
:101450000020F8E770B504460D4616462B46224696
:101460002946204600F004F8304600F029F970BD06
:1014700070B504460D462A2000F016F92646E117FD
:1014800004EB1161C1F30F2000F014F9E11704EB34
:1014900011610912A4EB012188B200F00BF9164684
:1014A000D11702EB1161C1F30F2000F003F91646CA
:1014B000D11702EB11610912A2EB012188B200F0F1
:1014C000F9F82B2000F0F0F82E46E91705EB116132
:1014D000C1F30F2000F0EEF8E91705EB11610912D6
:1014E000A5EB012188B200F0E5F81E46D91703EB01
:1014F0001161C1F30F2000F0DDF81E46D91703EB90
:1015000011610912A3EB012188B200F0D3F82C205D
:1015100000F0CAF870BD00002DE9F84F80460E4675
:1015200017461C46B3462046E31704EB5373DB1003
:1015300021464FEAE47C04EB5C7C4FEAEC0CA4EB24
:10154000CC0CBCF1000F02D04FF0010C01E04FF0C9
:10155000000C6344224604EBD27C4FEA6C0C03FB84
:101560000CF3DBB20093A7F12000C7B2002556E0D0
:101570000C2C07D107EB47002B4901EB800010F83A
:10158000059013E0102C05D1284800EB071010F847
:1015900005900BE0182C07D107EBC700244901EB9D
:1015A000800010F8059001E0BDE8F88F4FF0000AC8
:1015B0002FE009F0800030B11E48028831464046D5
:1015C000FFF748FF07E00A9828B91B480288314610
:1015D0004046FFF73FFF4FEA49604FEA1069701C31
:1015E00086B216484088B04200DCDDE7A6EB0B006F
:1015F000A0420AD15E4608F101001FFA80F80F48A8
:101600000088404500DCCFE706E00AF1010000F069
:10161000FF0ABAF1080FCCDB00BF681CC5B2009806
:101620008542A5DB00BFBFE70A3800086043002001
:10163000504900202C8600202E8600203086002075
:101640002DE9F84704460D4690469946DDE90967BD
:1016500004F0FF0A08EB04001FFA80F809EB05000C
:101660001FFA80F916E0444502DB5446A81985B2FA
:101670004D4500DB14E0002000903A7833462946BF
:101680002046FFF749FF304606EBD07104EB6101BD
:101690008CB27F1C38787E2802DC38782028E2DA89
:1016A00000BFBDE8F88700000149088070470000CE
:1016B000FE07006C01490880704700000008006CBC
:1016C0000112024A1180C1B2118070470008006CFB
:1016D00000BFFEE7704708B54FF4A06000F048F87F
:1016E0001E208DF8000003208DF801008DF8020007
:1016F00001208DF80300684600F002F808BD0000E4
:1017000070B5002100230F22C47804B3154C24685F
:1017100004F4E064C4F5E064210AC1F10403CA40A2
:10172000447804FA03F184781440214309010E4CF3
:101730000678A155047804F01F050124AC40057813
:101740006D11AD0005F1E025C5F8004109E0047810
:1017500004F01F050124AC40044D0678761145F8CD
:10176000264070BD0CED00E000E400E080E100E008
:1017700002490143024A1160704700000000FA0567
:101780000CED00E07047000029B1064AD26902431F
:10179000044BDA6104E0034AD2698243014BDA6107
:1017A000704700000010024029B1064A1269024346
:1017B000044B1A6104E0034A12698243014B1A6127
:1017C000704700000010024029B1064A92690243A6
:1017D000044B9A6104E0034A92698243014B9A6187
:1017E000704700000010024029B1064AD268024347
:1017F000044BDA6004E0034AD2688243014BDA60AA
:1018000070470000001002400F48006840F00100DF
:101810000D490860084640680C4908400A4948607C
:10182000084600680A4908400749086008460068F9
:1018300020F4802008600846406820F4FE004860DC
:101840004FF41F0088607047001002400000FFF84E
:10185000FFFFF6FE30B500210022002400232D4DAD
:101860006D6805F00C0121B1042905D0082923D1A8
:1018700005E0294D056022E0274D05601FE0254D5C
:101880006D6805F47012234D6D6805F480340225EF
:1018900005EB92421CB9214D554305600BE01D4DEF
:1018A0006D6805F400351DB11C4D5543056002E01F
:1018B000194D5543056002E0174D056000BF00BF9C
:1018C000144D6D6805F0F0010909154D6B5C056854
:1018D000DD4045600F4D6D6805F4E061090A104D6B
:1018E0006B5C4568DD4085600A4D6D6805F46051AC
:1018F000C90A0B4D6B5C4568DD40C560054D6D68E0
:1019000005F44041890B074D6B5CC568B5FBF3F5E9
:10191000056130BD0010024000127A0000093D0050
:10192000000000201000002010B501460022002316
:1019300000204A11012A02D1094C236806E0022A3C
:1019400002D1074C236A01E0054C636A01F01F02D3
:10195000012494401C400CB1012000E0002010BD87
:10196000001002400248406800F00C007047000080
:101970000010024001460020034A506820F0F000A9
:101980000843506070470000001002401149096888
:1019900021F480310F4A11601146096821F4802139
:1019A0001160B0F5803F03D0B0F5802F0ED106E076
:1019B0000849096841F48031064A116007E0054989
:1019C000096841F4A021034A116000E000BF00BF94
:1019D000704700000010024001460020034A506892
:1019E00020F4E0600843506070470000001002409F
:1019F00001460020034A506820F4605040EAC100CC
:101A000050607047001002400149086670470000AE
:101A10000000424202460020044B586820F47C102B
:101A200042EA01031843014B58607047001002401E
:101A300001460020034A506820F00300084350602C
:101A4000704700000010024038B5002000900024CC
:101A5000002500BF3120FFF767FF05460098401CB6
:101A600000900098B0F5A06F01D0002DF2D0312089
:101A7000FFF75AFF08B1012400E00024204638BDDA
:101A800070B500260024002500F07AF80646384894
:101A9000B6FBF0F437480088A0423CD035490C80B2
:101AA00040F2B27510E02846FFF7B7FC40B1B4F53C
:101AB000B77F02D3A4F5B77404E0681C85B206E0D2
:101AC000A4F26D14681C85B2B4F5B67FEBD800BFE4
:101AD00029488580002516E027498888FFF79DFC66
:101AE00030B1012D04D11D2C01D31D3C09E00CE0C7
:101AF0002248405DA04203D82048405D241A00E0FF
:101B000003E0681C85B21C2CE6D200BF681C1A4991
:101B10008871601CC8711648B6FBF0F100FB1164B7
:101B20004FF46160B4FBF0F0134908704FF461604A
:101B3000B4FBF0F100FB11403C21B0FBF1F00E4989
:101B400048704FF46160B4FBF0F100FB11403C21A0
:101B5000B0FBF1F201FB1200074988700B46DA79FD
:101B60009979988800F028F803490872002070BD20
:101B700080510100E042002020C90020FD3700080C
:101B8000002103480188001F008841EA0040704797
:101B90001C28004001460020064A12880A40D0B2A4
:101BA000044A121F12880A4012B108B1012000E055
:101BB0000020704704280040F0B503460C46154647
:101BC000642093FBF0F0C6B2642093FBF0F700FBB7
:101BD0001730C1B2132E02DD01F16400C1B2084614
:101BE000CF1701EB977701EBA707BAB2072092FB5B
:101BF000F0F700FB172082B25719601EDFF82CC0E7
:101C00001CF80000384482B2CF1701EB9777BF1061
:101C1000A1EB87071FB9032C01DA501E82B20720FF
:101C200092FBF0F700FB1720C0B2F0BDF1370008BF
:101C300010B501F0CFFA10BD70470000FEB50446A4
:101C40000B4890FBF4F63046FEF7DEFC05462846CE
:101C5000FEF701FD80B2ADF804004720ADF80000AA
:101C60000020ADF802006946024800F05BFBFEBDB3
:101C700040420F000008004010B500F001F810BD10
:101C80000CB50020019000903348006840F480308B
:101C90003149086000BF3048006800F4003000900F
:101CA0000198401C0190009818B90198B0F5A06FF8
:101CB000F1D12948006800F4003010B101200090F3
:101CC00001E0002000900098012843D123480068DB
:101CD00040F01000214908600846006820F0030029
:101CE00008600846006840F0020008601A48406832
:101CF000194948600846406848600846406840F412
:101D0000806048600846406820F47C1048600846BF
:101D1000406840F4E81048600846006840F0807071
:101D2000086000BF0C48006800F000700028F9D07F
:101D30000948406820F003000749486008464068A9
:101D400040F00200486000BF0348406800F00C000B
:101D50000828F9D10CBD000000100240002002400C
:101D600010B504462046FFF769FF10BD042808D1CE
:101D70004FF0E021096941F004014FF0E0221161C8
:101D800007E04FF0E021096921F004014FF0E02263
:101D9000116170477047000010B51348006840F0AB
:101DA00001001149086008464068104908400E4982
:101DB0004860084600680E4908400B49086008461C
:101DC000006820F4802008600846406820F4FE0087
:101DD00048604FF41F008860FFF74EFF4FF000602F
:101DE0000449086010BD0000001002400000FFF828
:101DF000FFFFF6FE08ED00E0F0B50C4615460022A8
:101E00000021068C4FF6FE773E400684028B018C43
:101E10004FF60C7632407E1C06EA03162E43324300
:101E2000104EB0420ED0104EB0420BD0B0F1804FE9
:101E300008D00E4EB04205D00D4EB04202D00D4E2D
:101E4000B04206D14FF6FD76314044F001063143F1
:101E500005E04FF6F576314044F001063143028348
:101E60000184F0BD002C014000340140000400401A
:101E700000080040000C0040F0B50C46154600225A
:101E800000210026078C4FF6EF7C07EA0C07078439
:101E9000028B018C4FF6FF7707EA041640F6FF47E6
:101EA0003A404FF6FF7707EA03373A434FF6FF779A
:101EB00007EA05273A43114FB8420ED0104FB842F7
:101EC0000BD0B0F1804F08D00E4FB84205D00E4F66
:101ED000B84202D00D4FB84206D14FF6DF773940F5
:101EE00046F01007394305E04FF65F77394044F07C
:101EF0001007394302830184F0BD0000002C01402B
:101F0000003401400004004000080040000C004084
:101F1000F0B50C461546002200210026078C4FF62E
:101F2000FF6C07EA0C070784828B018C4FF6FF7762
:101F300007EA04264FF60C773A404FF6FF7707EA98
:101F400003172F433A43114FB8420ED0104FB842F7
:101F50000BD0B0F1804F08D00E4FB84205D00E4FD5
:101F6000B84202D00D4FB84206D14FF6FF57394064
:101F700046F48077394305E04FF2FF57394044F487
:101F80008077394382830184F0BD0000002C01403A
:101F9000003401400004004000080040000C0040F4
:101FA000F0B50C461546002200210026078C4EF69F
:101FB000FF7C07EA0C070784828B018C4FF6FF77C2
:101FC00007EA043640F6FF473A404FF6FF7707EA44
:101FD00005273A434FF6FF7707EA03373A43114F95
:101FE000B8420ED0104FB8420BD0B0F1804F08D09D
:101FF0000E4FB84205D00E4FB84202D00D4FB84236
:1020000006D14DF6FF77394046F48057394305E055
:1020100047F6FF57394044F480573943828301849F
:10202000F0BD0000002C01400034014000040040DD
:1020300000080040000C004010B501210E4800F0DF
:102040007AF898B101F05EF90C48FEF725FD0128F9
:1020500004D100210948FEF7FEFC07E00748FEF71F
:102060001BFD18B901210548FEF7F5FC01210248C6
:1020700000F052F810BD00000010004000240140A4
:1020800010B501210E4800F056F840B10D48006827
:10209000401C0C4908600121094800F03DF810215E
:1020A000074800F048F850B14FF400710648FFF7B8
:1020B00020F9064908701021014800F02DF810BDE4
:1020C0000008004058430020000C01405643002007
:1020D00010B501210E4800F02EF898B101F012F968
:1020E0000C48FEF7D9FC012804D100210948FEF76D
:1020F000B2FC07E00748FEF7CFFC18B901210548FC
:10210000FEF7A9FC0121024800F006F810BD00000E
:102110000010004000240140CA430282704721B1F0
:10212000028842F00102028004E002884FF6FE734A
:102130001A400280704730B5024600200023002478
:10214000158A05EA0103958905EA010413B10CB16A
:10215000012000E0002030BD70B505460C46244843
:1021600085420ED0234885420BD0B5F1804F08D070
:102170002148854205D02148854202D02048854229
:1021800000D100E000BF208850B92389A28861886F
:102190002846FFF731FEE188284600F096F825E052
:1021A000208804280AD12389A28861882846FFF75D
:1021B00063FEE188284600F091F817E0208808289F
:1021C0000AD12389A28861882846FFF7A1FEE18809
:1021D000284600F090F809E02389A2886188284603
:1021E000FFF7DEFEE188284600F08EF870BD0000A3
:1021F000002C014000340140000400400008004071
:10220000000C00401AB183890B43838102E083896B
:102210008B4383817047000070B5002400220023A7
:10222000058C4FF6FF6635400584028C8388848BCD
:102230004FF68F752C404FF6FC752C400D882C43C3
:102240004FF6FF552A400D894FF6FF7606EA052521
:102250002A434D8806EA05252A43154DA84202D097
:10226000144DA8421DD14FF2FF752A404D894FF6FB
:10227000FF7606EA05252A434FF6FF352A408D886A
:1022800006EA05252A434EF6FF752B404DF6FF75ED
:102290002B408D8906EA05152B43CD8906EA0515E5
:1022A0002B4383808483CD888587028470BD0000A2
:1022B000002C0140003401400A460021818B4FF67A
:1022C000F7731940114381837047028B4FF6F37304
:1022D0001A400283028B0A4302837047028B4FF23B
:1022E000FF331A400283028B4FF6FF7303EA012388
:1022F0001A4302837047828B4FF6F3731A4082832E
:10230000828B0A4382837047828B4FF2FF331A40DD
:102310008283828B4FF6FF7303EA01231A43828381
:1023200070470000002202881D4B98420ED01D4BC2
:1023300098420BD0B0F1804F08D01B4B984205D08B
:102340001A4B984202D01A4B984204D14FF68F7321
:102350001A404B881A43174B984207D0164B9842A5
:1023600004D04FF6FF431A40CB881A4302808B8873
:1023700083850B8803850A4B98420BD0094B984202
:1023800008D00E4B984205D00D4B984202D00D4B11
:10239000984201D10B7A03860123838270470000A3
:1023A000002C0140003401400004004000080040BF
:1023B000000C0040001000400014004000400140AC
:1023C00000440140004801402DE9F041064616B1A5
:1023D000012E06D102E00C4C202504E00B4C2025F8
:1023E00001E0BDE8F08100BF29462046FEF78AFFE4
:1023F00008B9012000E0002007463A462946204659
:10240000FEF789FF00BFECE7000C01400018014017
:102410002DE9F04708211D4800F0FAF8002832D0D5
:102420001A4800F093F9012828D1FEF779FF0746F2
:102430003846FEF7F7F880464046FEF7E5F8814655
:102440003946FDF7E6FE05461149FDF7E5FE04466F
:10245000FEF7E8F806463846FEF711F9044622462C
:102460000B460CA000F07EF900210D48FEF7F3FAB0
:102470004FF408710A48FEF7E9FA00BF40F225510F
:10248000024800F05CF8BDE8F08700000038014029
:102490000000C842646174613D25660D0A000000B9
:1024A0000024014010B586B004461E4800F062F8D2
:1024B000012144F20400FFF787F94FF40070ADF8F2
:1024C000140003208DF8160018208DF8170005A9B8
:1024D0001548FEF783FE4FF48060ADF81400042029
:1024E0008DF8170005A91048FEF778FE019400202A
:1024F000ADF80800ADF80A00ADF80C00ADF810001A
:102500000C20ADF80E0001A9064800F0B3F8012137
:10251000044800F023F84021024800F007F806B014
:1025200010BD0000003801400008014001F40072B5
:10253000B2F5007F00D100BFCA430280704710B5DA
:102540000022002340F66A14A14200D100BF0A1203
:1025500001249440A3B2DC43048010BD21B18289E0
:1025600042F40052828104E082894DF6FF731A40E2
:102570008281704710B504462048844209D1012168
:102580008803FFF731F900214FF48040FFF72CF961
:1025900032E01B48844209D101214804FFF704F9C5
:1025A00000214FF40030FFF7FFF825E01548844282
:1025B00009D101218804FFF7F7F800214FF48020AA
:1025C000FFF7F2F818E01048844209D10121C8044D
:1025D000FFF7EAF800214FF40020FFF7E5F80BE0E1
:1025E0000A48844208D101210805FFF7DDF80021DF
:1025F0004FF48010FFF7D8F810BD000000380140FC
:102600000044004000480040004C004000500040A2
:1026100002460020B1F5007F00D100BF13880B40B7
:102620000BB1012000E000207047F0B50346002404
:1026300000260025002040F66A17B94200D100BFED
:102640001846C1F3421401F01F06012707FA06F5E8
:10265000012C01D10C3004E0022C01D1103000E03B
:1026600014301AB107682F43076002E00768AF43D0
:102670000760F0BD2DE9F04786B005460E46002400
:10268000A24600BFA1460027B08900B100BF2F4677
:102690002C8A4CF6FF700440F08804432C82AC89ED
:1026A0004EF6F3100440B08831890843718908431D
:1026B0000443AC81AC8A4FF6FF400440B089044328
:1026C000AC8201A8FFF7C6F81F48874202D1DDF8A7
:1026D00010A001E0DDF80CA0A88900F4004040B192
:1026E0000AEBCA0000EB0A1031684900B0FBF1F8B0
:1026F00007E00AEBCA0000EB0A1031688900B0FB62
:10270000F1F86420B8FBF0F004012009642101FB1A
:102710001089A88900F4004040B1322000EBC900C4
:10272000B0FBF1F000F00700044308E0322000EBBA
:1027300009106421B0FBF1F000F00F0004432C817C
:1027400006B0BDE8F08700000038014001468888E7
:10275000C0F308007047C1F308028280704700BFD1
:10276000FEE700000FB4054B10B503A9044A029818
:1027700000F006F910BC5DF814FB000025310008DC
:102780001CC900200FB41CB50246002007AC00296C
:102790000BD0491ECDE90021054B6A46214606981B
:1027A00000F0EEF8009A002111701CBC5DF814FBDB
:1027B000AF3000080FB4084B10B504A902AA039863
:1027C00000F0DEF8044602A9002000F07BFC204661
:1027D00010BC5DF814FB0000C530000802E008C81A
:1027E000121F08C1002AFAD170477047002001E08B
:1027F00001C1121F002AFBD1704700002DE9FF5FC5
:1028000082B00021DDE90430020DDDF840B0034361
:1028100018D044F61050A2F2FF324243151411981A
:1028200001281FD0A5EB0B00401C5FEA000A4FF007
:1028300000064E4FDFF83891B046504615D5CAF124
:10284000000413E0119801244AA3012801D16FEA82
:102850000B010298119AC0E90031C0E9024206B0AA
:10286000BDE8F09FCBF10000DFE704460021404ABD
:10287000491842EB0450CDE9001012E0E00707D000
:1028800032463B4640464946FDF7DDFD80468946D7
:1028900032463B4610461946FDF7D5FD06460F4623
:1028A0006410002CEAD1DDE90401DDE90023BAF16E
:1028B000000F06DAFDF7C7FD42464B46FDF7C3FDA4
:1028C00005E0FDF732FE42464B46FDF72EFE04467C
:1028D0000E460022284BFEF725F803D84FF0FF30B4
:1028E000014607E00022254B20463146FDF704FD56
:1028F000FEF700F8102409E0002C0ADB0A2200236E
:10290000FDF702FF039B30321A55641E50EA0102A4
:10291000F2D1641C039AC4F111031444119A012AE0
:1029200003D0012208430DD10AE0084304D000205F
:102930004FF0110B119072E7A3EB0B056D1E0DE02C
:102940005B4504DD4FF0000205F1010504E003DA08
:102950004FF00002A5F10105002AECD00298119970
:10296000C0E90231C0E9004579E7000000001440E9
:102970000000F03F300000000000F0430000E03FA6
:102980002DE9FF4F95B09B468946064600250FE28C
:10299000252877D100242746F84A0121059400E034
:1029A000044316F8013F203B01FA03F01042F7D12F
:1029B00030782A2811D06FF02F033078A0F1300240
:1029C000092A16D8059A44F0020402EB820203EBAE
:1029D00042021044761C0590EFE759F8042B05924B
:1029E000002A03DA504244F40054059044F00204F3
:1029F000761C30782E2816D116F8010F44F0040406
:102A00002A280DD06FF02F023078A0F13003092B67
:102A100009D807EB870302EB4303C718761CF3E7DB
:102A200059F8047B761C30786C280FD006DC4C28D3
:102A300017D068280DD06A2814D104E0742810D06B
:102A40007A280FD10DE044F400140AE044F4801415
:102A500001E044F440147278824202D104F58014FB
:102A6000761C761C307866280BD013DC582877D07B
:102A700009DC002875D04528F6D04628F4D0472830
:102A80001AD19DE118E0632835D0642879D06528F3
:102A900012D195E1702873D008DC6728F1D069283D
:102AA0006FD06E280DD06F2806D1B5E073282CD0DA
:102AB000752875D0782874D05A46179990476D1CA0
:102AC00075E1C4F30250022809D003280DD0D9F8CB
:102AD000001004280DD00D6009F1040967E1D9F850
:102AE0000010EA17C1E90052F6E7D9F800100D808E
:102AF000F2E70D70F0E719F8041B8DF800100020C4
:102B00008DF80100EA46012003E059F804AB4FF0CC
:102B1000FF3061074FF0000102D40DE008F1010120
:102B20008846B9420FDA8045F8DB1AF80810002908
:102B3000F4D108E008F1010188468142FADB1AF875
:102B400008100029F6D105985B46A0EB080721463E
:102B50003846179A00F094FA284400EB080507E07D
:102B60004DE029E10DE01AF8010B5A4617999047FC
:102B7000B8F10108F7D25B4621463846179A13E1AF
:102B800042E00A220092C4F302524FF0000A022AE5
:102B900008D059F804CB032A4FEAEC710AD00DE0B3
:102BA00029E02AE009F1070121F00702F2E802C159
:102BB000914609E00FFA8CFC4FEAEC71042A03D12C
:102BC0004FFA8CFC4FEAEC71002907DA0A46002123
:102BD000DCF1000C61EB02012D2202E0220504D59C
:102BE0002B228DF80420012203E0E20701D02022ED
:102BF000F7E7904659E00A2102E010220DE010218B
:102C00004FF0000A00910BE010224FF0000A44F050
:102C100004040827009203E008224FF0000A009203
:102C2000C4F30252022A05D059F804CB0021032A2A
:102C300008D009E009F1070121F00702F2E802C11A
:102C4000914605E01FFA8CFC042A01D10CF0FF0C20
:102C50004FF00008220728D5702806D0009B83F08B
:102C6000100353EA0A0305D00EE040228DF8042039
:102C7000012208E05CEA010206D030228DF804202F
:102C80008DF8050002229046009B83F0080353EA6A
:102C90000A030AD15CEA010201D1620705D530229C
:102CA0008DF804204FF001087F1E582804D034A06E
:102CB00003900EA802900DE036A0F9E75346604657
:102CC000009AFDF721FD84460398825C0298401E1D
:102CD000029002705CEA0100F0D1029806A9081A7D
:102CE00000F1200A600702D524F4803400E00127B7
:102CF000574502DDA7EB0A0000E0002000EB0A01C7
:102D0000009005984144401A0590E00306D45B46C4
:102D10002146179A059800F0B3F90544002706E00C
:102D200001A85A46C05D179990476D1C7F1C474506
:102D3000F6DBE0030CD55B462146179A059800F0B8
:102D40009FF9054404E030205A46179990476D1CBE
:102D50000099481E00900029F5DC08E002980299CD
:102D60005A460078491C0291179990476D1CBAF198
:102D70000001AAF1010AF1DC65E100000928010067
:102D800030313233343536373839616263646566E1
:102D900000000000303132333435363738394142A3
:102DA000434445460000000000F058F90544761CF5
:102DB000307800287FF4ECAD19B02846BDE8F08FDC
:102DC000620700D4062709F1070222F0070CFCE88D
:102DD0000223E14603F000485FEA080C02D00FF23C
:102DE000702C0DE05FEA045C02D50FF2682C07E05E
:102DF0005FEAC47C02D00FF2602C01E0AFF2700CED
:102E00004FF0FF3823F00043CDF850C065280CD0B8
:102E100006DC452809D046281DD047283DD13DE095
:102E2000662818D067287ED138E00021112F01DBF9
:102E3000112000E0781CCDE9000106A90EA8FFF7DB
:102E4000DDFCDDE90F010E9A03910021009207F1EC
:102E5000010A04914DE04FF000400097CDE90110C8
:102E600006A90EA8FFF7CAFCDDE90F0203920E9B2C
:102E700011990022DDF80CA00093049211B9791C7D
:102E800000EB010AB7EB0A0004D4C0F1FF3007F1F0
:102E9000010A0490AAEB0700019044E0012F00DA38
:102EA00001270021112F01DD112000E03846CDE976
:102EB000000106A90EA8FFF7A1FCDDE90F010E9A9B
:102EC0000391002104910092BA4621070CD4039982
:102ED000514500DA8A46BAF1010F05DD009AAAF1E0
:102EE0000101515C302908D0B84202DA10F1040F18
:102EF00006DA0121CDE9011015E0AAF10101E9E7A7
:102F0000002805DC049901440491AAEB000102E0C9
:102F1000411C514500DD8A460499401A401C01902D
:102F20004FF000400290200704D40198504501DB87
:102F3000CDF8048000208DF84F0002980DF14F0766
:102F4000B0F1004F25D02B200E9002984FF00208D0
:102F500000280CDA404202902D200E9007E00A2152
:102F60000298FDF7BBFB3031029007F8011DB8F164
:102F70000001A8F10108F2DC02980028EFD1791EC7
:102F80000E980870307800F0200040F0450007F8F7
:102F9000020D12A8C01B00F107081498007800B1B8
:102FA000012000EB0A01019801EBE0710598414412
:102FB000401A401E0590E00306D45B462146179A4E
:102FC000059800F05DF805441498007818B15A4649
:102FD000179990476D1CE00324D55B462146179A4C
:102FE000059800F04DF805441CE00498002807DB24
:102FF000DDE90301884203DD0098405C179901E098
:10300000179930205A469047049805F10105401C55
:1030100004900198401E019004D12E205A46179921
:1030200090476D1CBAF10001AAF1010ADDDC05E050
:1030300017F8010B5A46179990476D1CB8F100011B
:10304000A8F10108F4DC5B462146179A0598ABE627
:103050002D0000002B000000200000002DE9F041B1
:10306000044600251E461746880404D405E0394668
:103070002020B0476D1C641EF9D52846BDE8F081BC
:103080002DE9F041044600251E469046C80301D5AF
:10309000302700E02027880404D505E04146384663
:1030A000B0476D1C641EF9D52846BDE8F0814A681A
:1030B000002A06D00A68531C0B6010704868401E36
:1030C000486070470A68531C0B601070704710B559
:1030D0006FF00400FEF74AFE10BD014642F22832AE
:1030E0004A434FF0E0235A6100229A611A4612695E
:1030F00042F001021A6100BF4FF0E022106900F0B7
:1031000001021AB100F48032002AF5D04FF0E0221B
:10311000126922F001024FF0E0231A6100229A6145
:103120007047000070B504460D46E1B20548FFF750
:1031300012FB00BF80210348FFF76AFA0028F9D08C
:10314000204670BD0038014000F014F8FEF70AF880
:103150004FF4E130FEF712F8FEF7EAF8FFF7B7FF99
:1031600002A0FFF7FFFA00BFFEE70000776F726B67
:10317000210D0A0010B5FEF747FB4FF48030FEF733
:1031800005FC0020FEF7F6FB4FF48060FEF724FC00
:103190000020FEF72DFC4FF4E0114FF48030FEF7D5
:1031A00039FC0120FEF730FCFEF74EFC012801D06F
:1031B000002010BD00BF3920FEF7B6FB0028FAD072
:1031C0000220FEF735FC00BFFEF7CCFB0828FBD140
:1031D0000120EEE700B589B00120FEF7DBFC88B1E5
:1031E000FEF74EFC3B4880783A494978394A1278D4
:1031F000CDE9002102903748C3798279818836A0D1
:10320000FFF7B0FA334882883BA104A8FFF7D2FA4F
:1032100004A810210B466422CDE900104FF49671EA
:103220001E20FEF70DFA2B48827933A104A8FFF780
:10323000C1FA04A810210B466422CDE900104FF416
:1032400096715020FEF7FCF92248C2792BA104A800
:10325000FFF7B0FA04A810210B466422CDE9001054
:103260004FF496718220FEF7EBF91A48027824A1F8
:1032700004A8FFF79FFA04A810210B466422CDE9A9
:1032800000104FF4AA711E20FEF7DAF911484278B7
:103290001BA104A8FFF78EFA04A810210B46642294
:1032A000CDE900104FF4AA715020FEF7C9F9094882
:1032B000827812A104A8FFF77DFA04A810210B461A
:1032C0006422CDE900104FF4AA718220FEF7B8F90C
:1032D00009B000BD20C900205254432054696D65D7
:1032E0003A25642D25642D25642025643A25643A09
:1032F00025640D0A0000000025642F0025640000ED
:1033000025643A002DE9F04387B0FEF709F8074637
:103310003846FDF787F980464046FDF775F9814646
:103320003946FCF776FF06460F49FCF775FF054660
:10333000FDF778F9044643460CA2142102A8009434
:10334000FFF720FA02A81021CDE9001009480088F3
:10335000103881B21023642207480088FEF770F904
:1033600007B0BDE8F08300000000C84225642E25A8
:103370003032640014C9002012C90020000000008F
:10338000000000000000000000000000003F4000BE
:10339000000000000000003000400030004000004D
:1033A0000009000BC03D000BC03D00090018C024FF
:1033B000407FE0224031800000180024C01B000D37
:1033C000803240018003801C4027401C8007400061
:1033D000401000600000000000000000000000003D
:1033E0000000001F80204040200000402020401F9F
:1033F0008000000000090006001F80060009000090
:1034000000040004003F80040004000000001000DD
:10341000600000000000000000040004000400043C
:103420000004000000000000400000000000000058
:1034300000002001C006003800400000001F80206E
:1034400040204020401F800000000010403FC0008E
:10345000400000000018C0214022402440184000D5
:103460000010802040244024401B80000002000DFA
:103470000011003FC0014000003C80244024402453
:1034800040238000001F80244024403440038000FB
:10349000003000200027C03800200000001B8024DE
:1034A00040244024401B8000001C0022C0224022F7
:1034B000401F8000000000000008400000000000E5
:1034C0000000000000046000000000000000000494
:1034D000000A00110020804040090009000900098D
:1034E000000900000000004040208011000A000494
:1034F000001800200023402400180000001F802036
:1035000040274029401F400000004007C039000FFD
:103510000001C0004020403FC0244024401B8000E8
:10352000001F802040204020403080000020403F8D
:10353000C0204020401F80000020403FC024402E7B
:103540004030C0000020403FC024402E003000002A
:10355000000F001080204022403380020020403FB6
:10356000C0040004003FC02040204020403FC02055
:1035700040204000000060202020203FC02000208C
:103580000020403FC024400B0030C0204020403F7E
:10359000C020400040004000C03FC03C0003C03C91
:1035A000003FC0000020403FC00C4023003FC0202F
:1035B000001F802040204020401F80000020403F0E
:1035C000C024402400180000001F8021402140201A
:1035D000E01FA0000020403FC02440260019C0008A
:1035E0004018C02440244022403180000030002098
:1035F000403FC020403000000020003F80004000DD
:10360000403F80200020003E0001C007003800201D
:1036100000380007C03C0007C038000000204039D7
:10362000C0060039C0204000002000384007C038E4
:103630004020000000304021C02640384020C0001B
:1036400000000000007FE0402040200000000070EB
:10365000000C000380004000000000402040207F5C
:10366000E0000000000000200040002000000000FA
:1036700000001000100010001000100010000000EA
:10368000004000000000000000000002800540052E
:103690004003C0004020003FC004400440038000BD
:1036A00000000003800440044006400000000003C6
:1036B00080044024403FC0004000000380054005D6
:1036C0004003400000000004401FC024402440206C
:1036D00000000002E0055005500650042020403F45
:1036E000C00440040003C000400000044027C000A4
:1036F000400000000000100010041027E00000004F
:103700000020403FC00140070004C004402040208A
:10371000403FC000400040000007C0040007C00454
:103720000003C00000044007C00440040003C000C0
:1037300040000003800440044003800000041007A0
:10374000F0045004400380000000000380044004A3
:103750005007F00010044007C002400400040000BD
:1037600000000006400540054004C00000000004C1
:10377000001F800440004000000400078000400457
:103780004007C000400400070004C0018006000498
:1037900000060001C0070001C0060000000440064A
:1037A000C0010006C0044000000410071004E0013E
:1037B00080060004000000044005C00640044000EC
:1037C000000000000004007BE0402000000000003A
:1037D000000000FFF000000000000040207BE0043B
:1037E0000000000000400080004000200020004059
:1037F000000003030601040602050003051F1C1F49
:103800001E1F1E1F1F1E1F1E1F00000000000000A5
:10381000000000000000000000003F400000000029
:1038200000000000300040003000400000000900AF
:103830000BC03D000BC03D00090018C024407FE0D4
:10384000224031800000180024C01B000D8032404F
:10385000018003801C4027401C800740004010006E
:1038600060000000000000000000000000000000F8
:103870001F80204040200000402020401F8000008A
:103880000000090006001F80060009000000040077
:1038900004003F80040004000000001000600000ED
:1038A0000000000000000400040004000400040004
:1038B00000000000004000000000000000000020A8
:1038C00001C006003800400000001F80204020405A
:1038D00020401F800000000010403FC0004000005A
:1038E000000018C0214022402440184000001080F1
:1038F0002040244024401B80000002000D001100E5
:103900003FC0014000003C802440244024402380EC
:1039100000001F8024402440344003800000300019
:10392000200027C03800200000001B8024402440D5
:1039300024401B8000001C0022C0224022401F8027
:10394000000000000000084000000000000000002F
:1039500000000460000000000000000004000A00F5
:1039600011002080404009000900090009000900F9
:10397000000000004040208011000A0004001800F0
:10398000200023402400180000001F802040274012
:1039900029401F400000004007C039000F0001C04F
:1039A000004020403FC0244024401B8000001F8076
:1039B0002040204020403080000020403FC0204078
:1039C00020401F80000020403FC024402E4030C0D7
:1039D000000020403FC024402E00300000000F00B7
:1039E0001080204022403380020020403FC004006D
:1039F00004003FC02040204020403FC020402040E5
:103A000000000060202020203FC020002000204037
:103A10003FC024400B0030C0204020403FC0204029
:103A20000040004000C03FC03C0003C03C003FC01D
:103A3000000020403FC00C4023003FC020001F80FA
:103A40002040204020401F80000020403FC02440F4
:103A50002400180000001F802140214020E01FA00A
:103A6000000020403FC02440260019C0004018C07C
:103A700024402440224031800000300020403FC0DC
:103A800020403000000020003F80004000403F8088
:103A9000200020003E0001C0070038002000380050
:103AA00007C03C0007C038000000204039C00600B5
:103AB00039C0204000002000384007C038402000B6
:103AC0000000304021C02640384020C000000000E7
:103AD00000007FE0402040200000000070000C004B
:103AE0000380004000000000402040207FE00000F4
:103AF0000000000020004000200000000000001036
:103B00000010001000100010001000000000400025
:103B1000000000000000000002800540054003C0D6
:103B2000004020003FC0044004400380000000002B
:103B3000038004400440064000000000038004406D
:103B400024403FC000400000038005400540034082
:103B50000000000004401FC024402440200000005A
:103B600002E0055005500650042020403FC00440AC
:103B7000040003C000400000044027C000400000D3
:103B8000000000100010041027E00000000020409A
:103B90003FC00140070004C00440204020403FC017
:103BA00000400040000007C0040007C0040003C03C
:103BB0000000044007C00440040003C000400000AF
:103BC00003800440044003800000041007F0045008
:103BD000044003800000000003800440045007F00C
:103BE0000010044007C00240040004000000000070
:103BF00006400540054004C00000000004001F808E
:103C0000044000400000040007800040044007C05A
:103C100000400400070004C0018006000400060004
:103C200001C0070001C006000000044006C00100FA
:103C300006C0044000000410071004E001800600E4
:103C400004000000044005C00640044000000000DD
:103C5000000004007BE040200000000000000000A5
:103C6000FFF000000000000040207BE004000000A6
:103C700000004000800040002000200040000000C4
:103C8000A03C00080000002020C9000078090008BE
:103C9000C453000820C9002010040000EC270008CD
:103CA00012000120050102030404000A130607089C
:103CB0000902040608000160051FCC000C0C500628
:103CC00008003000600660090000022003FC1E208E
:103CD00006212C200B0E1811043FFF10840C783A9B
:103CE000200E0F0010840F3800C0077818840012CF
:103CF000F015780F8410C411240E9800E40084009D
:103D000008080068007070200907E01818200440B7
:103D1000027C400940022004181807E01A200B0218
:103D200040024001800FF001800A115022800243BE
:103D30000FF80821D1B005000D000EBDB2800212AF
:103D400000CAB20C6D20080600180060018007212F
:103D5000C1300D07F0080810041004080807F0F03F
:103D600010080408041FFC000402350C340C0E0C6F
:103D700010141024104411840E1410060C18100492
:103D80001102400412880CC91008E0032004240822
:103D9000243436243C2004981084203004108810E9
:103DA000201160228830431888F930081C00100068
:103DB00010FC1308354010063811441084343404C4
:103DC000440E380C400A00088C10441044088890B7
:103DD00021B3A004030C03C4A004010106F02601D2
:103DE000332210C625A0A102217021DA3407041065
:103DF0000220014030152D200A1200100C106C100A
:103E0000800F5A140EE00C1813E4142417C4082869
:103E100007D01E140A04003C03C41C400740B0171E
:103E20001C0018231FFCEE300411040EC0213025A5
:103E30002E110213081CC12120411045406130138E
:103E400017C41272181018050017C0104491405082
:103E500006441C780040402684D42310844A215212
:103E6000615441FB10040001100234041FFE1030A5
:103E70004150400703801464181C2E313641024221
:103E80000C8010041F000004614E14061FFC0C047B
:103E900003A61310186075EEA1B0157E22800246AD
:103EA0000FAE1618EE800824101C080A07F2C0187E
:103EB0000511C011300011A0170E1CDC15B011C285
:103EC00015B02618CE41B0110C156E4004001FF835
:103ED00090117A22F8B414051E0011E0F524047044
:103EE0001380FA10071FC0103C00E0A22006E0106B
:103EF0003C1FC0A0200D180C163401C001C01634A0
:103F0000180C4648091C00130400FC13042015BBC0
:103F100010061C10641084106804041018E31F7F3E
:103F2000FE17034E0230031A30E11F0380A303166D
:103F30001C2C3D400321028F7FFE110316206921B6
:103F4000023DAF03D20102811A6950200698012474
:103F50000144021E00060311D05809FC0088010428
:103F6000010400C019063110311291103F110836BA
:103F70000340040000F83E11403EC87204111C4A80
:103F80000F443522300500D60129022AC9C625A0D2
:103F90003300849511F625609C06010419041980EC
:103FA00003290230060101190119D23130380924E0
:103FB000004001B4010C012249306DB003118A1296
:103FC000FC9C42000622000CD16011A05204C02EBD
:103FD000F84B0300051301FF0085E012051A3201BA
:103FE0000A21A221543D40031700CC2041026698CB
:103FF00051320754510E4AF88E1301087A31361F98
:10400000017084041F10017404111E1008F0010CCB
:10401000003001C004120C0C41B220088C00740165
:1040200070018CD011901C04810171A503421830DD
:10403000151012842A16345411089D0304680400D4
:104040003EFC022D85046BFFFF1C291A7C043EFCFC
:10405000010F053E602B05490003312000011007C8
:104060000F80380FFE380601101B193F15C41D774D
:10407000031D0A0392310C7E308D052009618000FA
:1040800067F807F98009710371127DD1045C17C0CC
:10409000E003E0F00630080418081FFFFE040E08D5
:1040A0000787F0038104061C0501F000067B032C42
:1040B000090408060C7001F9C0EF051C073BE0007D
:1040C000EC1807D9041F0C18930431251EE0CA050B
:1040D0001C1803F818041C0804170807E1D003C0D3
:1040E000E00023B0003C08002079047210B111A850
:1040F0002E3286050124FD54117F0001FFC0078088
:10410000F00C00181000042000711109110F111596
:10411000111B1121112701113C30054200006603DB
:104120002E3C280412032732180C41155E425E070C
:10413000A103214BC1120126B6021B080381946220
:1041400038030116493206662A70ED320E2F1EC062
:104150009206211385D41C097F8001FFE003807043
:1041600049071E042F0713000809110F1115111B11
:1041700099A242080300071003FFF807FFF88E1406
:104180001601C03802C0580400980401180402182F
:10419000040418061C18C2B80401E0F81923C0F082
:1041A0006615EC240C080806180803F41801E7F05B
:1041B000EF71B31DDE0518050D0000116D1008002C
:1041C0000081080301086F120F72160151716F1000
:1041D00006E007FCD0064262100384091838060F77
:1041E000F00607C0B0323FD81C0684300208184FD2
:1041F0000741039008071810030FF000273603113A
:1042000019EB500C0600F80607F806180006E01235
:1042100059AF1C08E1E003F7F00634DB0529D02391
:10422000040C03600906161803F3F001C1B7500C23
:10423000F80003FC300306380402080308051804DC
:104240001003084C537038030919AC080617301ACC
:1042500000301C1F1C081400002200004130081D03
:1042600087041D6B09740620040010088F021B21AF
:10427000038D0C0A15EF12103C11421148214E32E9
:10428000225A86081D1204032D360A1C0D38080F09
:10429000380808380810000C30E109211B75683A0D
:1042A00000403019020F1006708804C0880483088B
:1042B000047F8802C09003012000FE40AF2E184901
:1042C000051C0D3E0801C20007020007E20000FFC6
:1042D000052F1FC85E052D610429763A0758491934
:1042E00009171F45D4116C69AC39B22007100600BC
:1042F000200780918148811EA80518020010D00176
:10430000136C5B043EFA3E01180BC1245200034AB1
:104310003E286D3A0691905D3C0335FE2C07020362
:10432000F00783F05B04B20248AD1A042D5F096107
:10433000A84DA90371B1D1C0CDCC0319991DA9070E
:10434000410314080307FFFE07FFFC9E6103654459
:104350002F0C089B0418093E0004C7800503C8D928
:10436000140404003808B5680D116304113491FC7D
:104370001C05800807FC9B082C05C00003F83003CF
:1043800023780012955C21241D0E041DF5083EE0E3
:104390002506421E9E3005C00400F0D80D185C04AE
:1043A0001D310705108C1DA70B1D660961031D211A
:1043B0000611770F1001F0A4041E88DA0713040019
:1043C000D5040B113C03003E01FFE6007F84B01DC5
:1043D00060065C0E0F00040BC00610F003F03801FD
:1043E000E07D051D8C04BC0603F0300630CC033C98
:1043F000080206180207F0079F061D27050610068B
:104400005025892D060345FB1D0F03440707FFE0D8
:1044100007FFF053ADF2051D8403111B712D1D27FD
:1044200003580707FE00041FE0E81B01E043154C9A
:10443000716321211FFFC05A0A156212070520056A
:10444000FF80043F0C1604735E00B20C4D910514FE
:104450000707C07805F1C8D4440A001F800463E848
:104460000780F85372006C1E80770D1C0508047CD1
:1044700008B20A1DC1081E00AD044FE008DA046E40
:1044800004C1052A06072007F80403E8040F2A10D0
:104490000605F00807C02419BB0E1060EF061C04C7
:1044A0003FFFFE1707A103AD9E0619891D4B062D80
:1044B000BC0325153EC050063E0E42087DA60AB13B
:1044C0003C114E0D16CA0432103D322006BE10E0DB
:1044D0000602210103716F21037E101A08EDF9070E
:1044E0001010F00019F8001B180022080026080020
:1044F00024031710006B6B1FF8FA45D71D69061CC3
:1045000004F00018060C3D670811036C0830180011
:104510001FF0000FED041D0903110F5318301E1179
:10452000211D91082D390D954141247338182450CF
:10453000040410105AA19E414B30051230002296FF
:10454000119990093208001E10000E20D3213F1C43
:104550000401FFF8740712064831034F0720190CB5
:104560005DCF0E300C000E6E001FF30031B1002045
:10457000034C0C3191001F13002E1E00200EE40787
:104580004D17042D410721D5615781FC7D570C51F2
:10459000AE1004063FF8030D136E083D9C072E0372
:1045A0002F062103AC0803063FFE063FFC6E088180
:1045B0006C2F0188C8073C092FC00038F80020384C
:1045C000B409A208277DEC040E100F4C08419F622D
:1045D0003FB101100C4D3405A127021510D8156507
:1045E000360FB07630D11D1C05AF300004081DFE1B
:1045F00006233FFF0364061011002009F806113856
:10460000F885D422092D321F3649F4791041931DC3
:104610001911594339DD8D410B1D7110100D7800B2
:104620001E1800330800230800210310078800210A
:104630009800305DBA60CB11F917FFF0F8896AA1D4
:1046400046250B7C06F0007FF80083043A20D09AC0
:104650007F64417B3E3CA1071E23CC0F1DBF112070
:10466000057000238012623063211E1D580B1D9EB1
:10467000042C04E000273306210F1E217A0522E0D6
:104680000C9A2019200F3838003E6800278000035C
:10469000C8002CF80F3A20E2816C140403003C4A55
:1046A0008005830023EC69BF20008D0E3B38080D88
:1046B0001C08F80023E8002F88100831121D780626
:1046C0000E1670E508AC071FF7FC3000067D04DD10
:1046D000D9038EFF2B0DBD3E091D74041139113F06
:1046E000ADD008AD15134DEE063240036E207A04AE
:1046F0004D97050E170C47040182011D98113C08C7
:10470000C007FFE1E007F01709025FC0714E20E229
:10471000051D62061E00EA102DE9070312001C1495
:1047200001527C53180C042F0FE0BB10900403F8C7
:104730000C1401191C054C721C0480007803091C20
:1047400006FC0640010EF8041C1A07002002038034
:10475000200FFFFFFC0201C0200200E0600130706A
:104760004001F00A0B0748F01F781D230B1DB41001
:104770001F000374081C0B02008060030181C0014C
:10478000FFBE0D2EFE9A121D75091F03BF4E041D9C
:10479000AE0E1C0671806001C190051B0180D11D09
:1047A000730E0745003FF925EE1D010A13FCC07882
:1047B00011801C0B03E0200202782002061E301636
:1047C0001207F01DA8121E01230C1C04011C605AC4
:1047D000091E20C5102104AE40200B09427C115E49
:1047E0001F001CA5031A1F6C0E870F85031D3305C0
:1047F0002DFD0519181DFE111EE092142E30270DF7
:104800002D43041DC4080A4602FF214C2154215C9B
:104810002164216C398C217C036407F8EC1D95110F
:104820001DD71641041E06E8091A03671F6143F6E7
:104830000D1EFFF611424310211861240F4D0C1874
:1048400081040214800403187FFF1C0D48FD032D12
:10485000B51312E3041DB40E1D72143D4707096A17
:104860006902358004054B813EC091130E650070CE
:1048700006D97E4DE7123DF1043E80650C011D0F07
:10488000094E7E1E009F1A396C1C04F007804713E6
:104890001EC07E181E60DD0F622004211021181D2D
:1048A0003A1A3280280E510F98031E80F7178104A0
:1048B0001C046001FFDB1211043D11164DA90961B2
:1048C000040950831E7874041E98C016130002F861
:1048D0001204041208041210041220041C04406084
:1048E000039C061301839412FE280B4F7C077D3531
:1048F000781EF068052D4D1C25748201041E038866
:10490000071C060186804001A4062F0078DF110AEB
:104910004D1E7F5A08611E48F1081D21192D631D87
:104920001E0C05131230041404400810881DA50B3A
:1049300041041DFF058210040D4D800810061F86DE
:104940004003E1F01DE913D30304041C09060040F1
:10495000030301C003A5070C045103007EEC064EBF
:10496000FCEC061C0970C380008180C00123132168
:1049700088A202041E03C4191EC183131EC014069C
:10498000014E843EF089143DE0032D131B1E03E904
:10499000101E03B70C11F31200FC4C040003188323
:1049A0000661200D4CFD0A1DDC1B1E78E214200B55
:1049B000FC60C0018EC040030780EC197C5280046B
:1049C0001EC078091C06E04001867028091D000AF7
:1049D0000F4C781F7C032DCB091EFFF8091FC0C1A7
:1049E00000031E606C0AA220042D800311182C06FF
:1049F000C18000C18F471C1DEB1F0E60F0810C2E83
:104A00000345181D2F1321040E6F0310062DAA173E
:104A10001E66AE170E6B7884072DED0C6DE8082D21
:104A200010092D940C1E305D191DFE043F00C0DAE4
:104A30001B3D9C040E4E043A0E2D4E0A0132040119
:104A40004A831D75202DF0063D5D1E11EC31F421C9
:104A5000FC2D6C0D2D1C0A6D140A25240D507C08AC
:104A60003DB9102D28184F0238590B1D27201D6500
:104A7000161E7967151F81E01B1E2EC00F201D8C8E
:104A8000043D0C041DA41D2D8D190D4CFC071E3F6B
:104A900058031E70040E1DDE041C040101F80404FA
:104AA0001C0AFC20021E04200230083A231C0A3093
:104AB00020023FFC20013F04D8221E0C04081E31B6
:104AC000AC050E49C27A0F2DA5102D131D1E3EF701
:104AD000131D640D51071DF7061D97052D06122D98
:104AE000080E52FE093DA0090D4B08087DE4085D43
:104AF0007008AD7C078D84071D411A1E86840E2D1B
:104B000084075FF87F12100D4D680D65801D11211F
:104B10009E037C0961042D1C083D9C0929A0040406
:104B20005730060000D17C3DFC09517C2D200A3D08
:104B300084050D49000A0522802D8C103C04020FCB
:104B4000E0880A1DCE1C3EE0A003016080B2000494
:104B50001DB3221E0387113DA0070C0412C00000E4
:104B600051180938004D80032D56230912001D8B62
:104B70001621041C044003C080071E30ED140D45AF
:104B800003030510FC1DF4071104AD840E6114E944
:104B9000200D4E7307F9780915900D5182132D538E
:104BA0000D520F04830102041D030A1F0006FC0AB4
:104BB00012FC0443F802A471040D5880033AC0802B
:104BC0003D791419701C040030F8960C1C063E2028
:104BD00003800F00032E03A0030F49E00204050524
:104BE0001670021400045E608A0E0D507C0422E0F0
:104BF000081DF3232DE0091DE80B41FD5E1E1B0679
:104C0000111C0B4FE00084B1801D780E1F03F07C57
:104C10000E5EFC17142D3E193D9F1D1E7C04031FC4
:104C20001F80D41F6D0003094B007D80075D7C0F42
:104C30007D040E0D11FC052E0090140E5D3F8005C5
:104C40005DF0034E02FC0371042DA4151D040F3DFD
:104C5000B41515130D517C101E037C102D00051E7C
:104C600006EC211D7C0831041206081F03E01827FA
:104C70001EF896091E5C80101E8CB61D0C06600C7A
:104C8000000FFC1800081D94161DA4251E021527F0
:104C90001F030396211C048607E058271EE0092302
:104CA0000D5088101E78680B1C06FE01E00186E09E
:104CB000071D680EED800D2D14042E0184170C07BE
:104CC0004C8070C003E03F80089D580E0E1C0210FF
:104CD000083D9C0A2D840E0F4700E0F40541541D49
:104CE0000D281DEC114FC002640CEDF0115220187C
:104CF0002280280D51800541842D800F1D0710232F
:104D0000023F092DD1252D6C112DD62D2D161A1EE1
:104D10007800084C05C000023CA80F0D460406713F
:104D2000781D67161E0204041C0402007FF4041E92
:104D30000F0C195005F00003EF182E0F71032D050D
:104D40000B2C041F0002962486F8AC0D4B84051E24
:104D5000805E034C0BF0032002FC0C20021F30008D
:104D6000051D891B1F021800051F601F80060D50BE
:104D70007C06750465802D040D1DEC051C04020FD6
:104D8000C068192DFC1315102DFC09121C144E704F
:104D900000110D4F80052D6F2C2E60DA141E037448
:104DA000111C040FA002880C1C040200F8001B1D3B
:104DB0000C1A120F7C21903E7880062660240E513A
:104DC000028211FDCE301D74080D1AFE0E0D5374B3
:104DD0001D6DD80A5E78ED1C310D5EF0FA1C3DF4B5
:104DE000142D0D079F3C0039280D49041A0D170694
:104DF00010250C0D6677115D7C0F3D12154D1C2F93
:104E000041085D3D23094E786D7C19013A04054A3D
:104E10008471045618040E6304ED122D641D1E8F58
:104E200085271C078C6000061820C23151042220FF
:104E3000041E4003083E408B2C3D10047D880A0E62
:104E40004FC000061D00081E0784061DFF2E1DE929
:104E5000051D41341D352A1D5C3281041D84163D1B
:104E600018143D9C0A0E4DFE041B4E7EF40A2303CB
:104E7000817C11F4F17C1D15111FC0405E2C0D5377
:104E8000021681801DE0161E063D3591F81F0204B2
:104E900090083E027C0745203D4F2231040151809D
:104EA0001E1165071B1040008A6008190C12060CC1
:104EB0001203181F01F08D290E507170152DF50386
:104EC000A5EC2C047FFFE0801A5E018818820204A2
:104ED0003D80062D2B150E4C0196221DC32E1FE37F
:104EE0003E09091C06C200020CC33B30B2C1041CBF
:104EF00004060CC119221C06C30005F062C62D1A57
:104F00007E8C0E523C000B1D00033EE0E42029FC89
:104F10007606188A008421200F53FFE08C1BCE04F4
:104F200070031F0387140E4E8F980D0D5F001C7DBC
:104F30007E2C3D07074D94057204041E03BB2C1202
:104F4000069012FC900C0454F80380F81075802F22
:104F50000008E7294D2D2A2D8F1F1F058E7F071C66
:104F60000507A0000631321E04C5260E5404081D94
:104F70000D1280114190055D802D70031D532C137F
:104F8000000F044D74058114021503140D4A800DA1
:104F90006DF40361846D00030E6A0200032D501C42
:104FA0000D1D0006211821200E4D01801C69E81DF1
:104FB000DD0515841D42361F00C10007EE41900338
:104FC0004D000702500180ED8006CE0280063104BC
:104FD00021901203982D290E21A80D4A0009E1E81D
:104FE0005A0F081D740F9D0C0569845D290B0D4F28
:104FF00004091D412F1DFF351F03E0F0081E30F886
:105000000821049218041E0CC0351F0C6011311DBC
:10501000981C0F55838000074DFD0A2D8E221E1F00
:10502000F8242D0C09F6048C0D4CFC26A17C1D1BCC
:105030003015780E11C0F02141781E0422224DA4B3
:10504000030D4C840871802DEF0F1DE3201E0460BA
:10505000132E04EA3A5E0390231D4B36430460206E
:105060000E4D06150B6E0476064EC084202E04DC11
:10507000111D0A151F040FA63142F0902518430494
:105080000F8C4F043C980F014C8865DC1E60CB3DB3
:105090001D95381E83791B16E6084EF8EF0D6C0738
:1050A000045E2000058780060E4F6080064D7C0957
:1050B0001DF3203DF7201D700712F804471F021151
:1050C0002D7A332D2832C238F80D4E020F1E0758A4
:1050D0002A2E065C07257C1D6C071E04A3301304D2
:1050E0003C041270FC1D941C1D1421151C2D180B62
:1050F0005D86250D6918271D073F6C0507FE3FF8E3
:1051000078290E5310870E0D177A2E0E62FF022893
:1051100061D82D5C2A21EC21F40D55E8270D1225CC
:105120002F3D6A099240045220149E08F80F6D2802
:105130000E0E4D0C80276DF83C1E06EA3B1E26E93C
:10514000161E4AED161E5DF1161E88F5161EB8F9DC
:105150001612EE181E0B15151E4B7D131E93811390
:105160001EBA051B1E1093211E7023401EDC291C35
:105170001E162D2012970410062705000075041E28
:10518000204B1612E0041EB8472D1232481E64B59B
:105190001312C8240F272C077E120DFF4C430DFF5E
:1051A0004C430DFF4C430DFF4C430DFF4C430DFF93
:1051B0004C430DFF4C430DFF4C430DFF4C430DFF83
:1051C0004C430DFF4C430DFF4C430DFF4C430DFF73
:1051D0004C430DFF4C430DFF4C430DFF4C430DFF63
:1051E0004C430DFF4C430DFF4C430DFF4C430DFF53
:1051F0004C430DFF4C430DFF4C430DFF4C430DFF43
:105200004C430DFF4C430DFF4C430DFF4C430DFF32
:105210004C430DFF4C430DFF4C430DFF4C430DFF22
:105220004C430DFF4C430DFF4C430DFF4C430DFF12
:105230004C430DFF4C430DFF4C430DFF4C430DFF02
:105240004C430DFF4C430DFF4C430DFF4C430DFFF2
:105250004C430DFF4C430DFF4C430DFF4C430DFFE2
:105260004C430DFF4C430DFF4C430DFF4C430DFFD2
:105270004C430DFF4C430DFF4C430DFF4C430DFFC2
:105280004C430DFF4C430DFF4C430DFF4C430DFFB2
:105290004C430DFF4C430DFF4C430DFF4C430DFFA2
:1052A0004C430D734C430D1EAC440DFFD8420DFF13
:1052B000D8420DFFD8420DFFD8420DFFD8420DFF56
:1052C000D8420DFFD8420DFFD8420DFFD8420DFF46
:1052D000D8420DFFD8420DFFD8420DFFD8420DFF36
:1052E000D8420DFFD8420DFFD8420DFFD8420DFF26
:1052F000D8420DFFD8420DFFD8420DFFD8420DFF16
:10530000D8420DFFD8420DFFD8420DFFD8420DFF05
:10531000D8420DFFD8420DFFD8420DFFD8420DFFF5
:10532000D8420DFFD8420DFFD8420DFFD8420DFFE5
:10533000D8420DFFD8420DFFD8420DFFD8420DFFD5
:10534000D8420DFFD8420DFFD8420DFFD8420DFFC5
:10535000D8420DFFD8420DFFD8420DFFD8420DFFB5
:10536000D8420DFFD8420DFFD8420DFFD8420DFFA5
:10537000D8420DFFD8420DFFD8420DFFD8420DFF95
:10538000D8420DFFD8420DFFD8420DFFD8420DFF85
:10539000D8420DFFD8420DFFD8420DFFD8420DFF75
:1053A000D8420DFFD8420DFFD8420DFFD8420DFF65
:1053B000D8420D7624868D0E399C042F0023F42BC1
:0453C00000000000E9
:0400000508000131BD
:00000001FF
