:020000040800F2
:10000000E0D0002045010008811E0008AD16000860
:100010007D1E000851120008892F00080000000012
:10002000000000000000000000000000F1240008B3
:100030005512000800000000F51F00084D260008BA
:100040005F0100085F0100085F010008E924000863
:100050005F0100085F010008851200085F010008C9
:1000600095120008B9120008E51200085F010008A7
:100070005F0100085F0100085F0100085F010008E0
:100080005F0100085F010008990900085F0100088E
:100090005F0100085F0100085F0100085F010008C0
:1000A0005F0100085F0100085F0100085F010008B0
:1000B0005F0100085F0100085F0100085F010008A0
:1000C0005F0100085F0100085F0100085F01000890
:1000D0005F010008F52B0008212C00085F010008D3
:1000E0005F0100085F0100085F0100085F01000870
:1000F0005F0100085F0100085F0100085F01000860
:100100005F0100085F0100085F0100085F0100084F
:100110005F0100085F010008CD2900085F010008A9
:100120005F0100085F0100085F0100085F0100082F
:10013000DFF80CD000F0EEFB00480047C93500089E
:10014000E0D000200648804706480047FEE7FEE76B
:10015000FEE7FEE7FEE7FEE7FEE7FEE7FEE7FEE777
:100160005126000831010008F0B480EA0102D40FE2
:100170004200B2EB410F02D20246084611464A0045
:1001800042D0C30DDDB2C1F3C752AD1A202D35DA0E
:10019000C1F3160141F4000204B15242C5F1200638
:1001A00002FA06F12A411044B3EBD05F23D0C4B168
:1001B000012DA0EBC35009DCF0BC4FF0004202EA75
:1001C000C352DBB200F5000000F019BB400000F1A3
:1001D000807000EBC350A0F1807040EAD1704900FC
:1001E00009E0490841EAC071A0EBC35000F50000E6
:1001F000400800EBC350F0BC00F0F8BA61420122A5
:1002000002EB4101001BF6E7F0BC704781F00041B2
:10021000AAE780F00040A7E780EA010210B502F0EB
:100220000043400022D04A001FD0010E01EB1261B2
:10023000C0F35600C2F3560240F4000042F400023C
:10024000A0FB022000047F39140400D0401C50EAB7
:10025000124001D44000491EC2B20C0604EBD0107B
:10026000401C4008802A02D003E0002010BD20F08E
:100270000100002900DA0020184310BD30B480EAE4
:10028000010202F0004530F0004221F0004013D09E
:1002900090B1C30DD40DC2F31601C0F31600E41AD9
:1002A00041F4000140F400027D34914201D3641C0A
:1002B00000E04900002C02DA30BC002070474FF407
:1002C00000000023914201D3891A034340084FEAFA
:1002D0004101F7D151B1914202D14FF0004105E007
:1002E00002D24FF0010101E06FF0010103EBC450B5
:1002F000284430BC00F07ABA2DE9FE4F804681EAEE
:100300000300C00F0C46009021F0004123F000458F
:10031000B8EB0200A94105D24046214690461C4652
:100320000B46024623F00040104347D0270DC7F389
:100330000A00C3F30A510290401A019040286BDA78
:10034000C3F3130040F4801B0098924620B10023B1
:10035000D2EB030A63EB0B0B01985946C0F1400244
:10036000504600F012FA06460D4650465946019A8C
:1003700000F02AFA10EB08006141002487EA1152CC
:1003800084EAE7731A4340D0009A62B3019A012AC3
:100390004FEA075215DC001B61EB02014FF00042EF
:1003A00002EA0752CDE90042001C41F580113246B5
:1003B0002B4600F061FA03B0BDE8F08F40462146BD
:1003C000F9E7001B61EB0201001C41F580130018E6
:1003D0005B412018A2F5001747EB030140EAD570F6
:1003E000B6196D4111E06D084FEA360645EAC07551
:1003F0004FEA0752001B61EB0201001C41F580111E
:1004000049084FEA30000019514132462B4603B0EB
:10041000BDE8F04F00F021BA00980122400000230F
:10042000D0EB020263EBE073009821464FEAE074E0
:10043000B8EB000061EB0401E9E783F000435BE700
:1004400081F0004158E72DE9FE4F81EA030404F0F2
:10045000004421F0004100944FF0000B23F00043D2
:1004600050EA01045ED052EA03045BD0C3F30A549D
:10047000C1F30A552C44A4F2F3340194A0FB0254B6
:10048000C1F3130141F48011C3F3130343F4801348
:1004900001FB024400FB034E840A970A44EA81549C
:1004A00047EA8357A4FB076802958D0A05FB078579
:1004B0004FEA932C04FB0C542705029D4FEA065883
:1004C00047EA1637B5EB08056EEB070C870E920E60
:1004D00047EA811742EA8312A7FB0201B6EB0B0140
:1004E00064EB00042B0D43EA0C335E1844EB1C5004
:1004F000DA465146E7FB0201C5F313044FEA0B331A
:1005000043EA14534FEA0432019C43EA0603A4F180
:100510000C040294009CCDE900B400F0ADF903B0E6
:10052000BDE8F08F00200146F9E72DE9F04D81EAA2
:10053000030404F0004B21F0004514464FF0000A7C
:1005400023F0004150EA050220D054EA01021DD0F8
:10055000C5F30A570246C5F31303C1F31300C1F3F1
:100560000A5640F4801543F48013A7EB0608101BCD
:10057000D64608F2FD3873EB050002D308F10108F6
:1005800001E092185B41B8F1000F03DA0020014648
:10059000BDE8F08D00204FF48011064684460EE041
:1005A000171B73EB050705D3121B63EB050306430B
:1005B0004CEA010C49084FEA300092185B4150EABE
:1005C0000107EDD152EA030012D082EA040083EA67
:1005D0000501084305D0101BAB4106D201220023C0
:1005E00006E000224FF0004302E06FF001025310DA
:1005F0001AEB06004CEB085110EB0A0041EB0B0123
:10060000BDE8F04D00F029B9C10F80EAE070084460
:10061000CA079623002100F0F2B896230022114663
:1006200000F0EDB80EB540F2334102910021CDE962
:1006300000110A460B4600F01FF903B000BD00F0A0
:10064000004220F00040C10DC0F3160040F400004D
:100650007F2901DA00207047962903DCC1F1960159
:10066000C84001E096398840002AF4D040427047E3
:1006700020F00040C10DC0F3160040F400007F29B7
:1006800001DA00207047962903DCC1F19601C840C9
:100690007047963988407047C1F30A5210B5C1F3CC
:1006A000130140F2FF3341F480119A4201DA002035
:1006B00010BD40F233439A42A2F2334203DC52426D
:1006C00000F072F810BD904010BD00F0004230F014
:1006D00000400AD0C10D01F56071C0F3160042EA76
:1006E0000151C2084007114370470020014670477E
:1006F00001F0004330B421F0004150EA010206D07D
:100700000A0DA2F56072C1F31301002A02DC30BCAD
:1007100000207047440F44EAC104C100E01830BC17
:1007200000EBC25000F062B82DE9F05F05460020F2
:1007300092469B4688460646814640241BE0284652
:1007400041464746224600F02FF853465A46C01A03
:10075000914110D311461846224600F016F82D1A82
:1007600067EB01084F4622460120002100F00DF8FA
:1007700017EB00094E41201EA4F10104DFDC4846BE
:1007800031462A464346BDE8F09F202A04DB203A42
:1007900000FA02F1002070479140C2F1200320FAD4
:1007A00003F3194390407047202A04DB203A21FAD2
:1007B00002F00021704721FA02F3D040C2F120027A
:1007C0009140084319467047202A06DBCB17203A90
:1007D00041FA02F043EAE07306E041FA02F3D04046
:1007E000C2F1200291400843194670470029A8BF72
:1007F0007047401C490008BF20F00100704710B44A
:10080000B0FA80FC00FA0CF050EA010404BF10BCFE
:10081000704749B1CCF1200421FA04F411FA0CF12B
:1008200018BF012121430843A3EB0C01CB1D4FEA64
:1008300000614FEA102042BF002010BC704700EB5F
:10084000C35010440029A4BF10BC7047401C49008D
:1008500008BF20F0010010BC704710B5141E73F1E2
:10086000000408DA401C41F1000192185B411A4370
:1008700001D120F0010010BD2DE9F04D92469B46BC
:1008800011B1B1FA81F202E0B0FA80F22032904662
:10089000FFF77BFF04460F4640EA0A0041EA0B01DE
:1008A00053465A46084313D0114653EA010019D063
:1008B000C8F140025046FFF777FF05460E46504606
:1008C00059464246FFF761FF084305D0012004E086
:1008D00020463946BDE8F08D0020054346EAE07623
:1008E0002C4337430A986305E40AA0EB0800002272
:1008F000FD0A44EA47540A3002D500200146E9E7E0
:10090000010510196941DDE9084500196941BDE893
:10091000F04DA2E7064C074D06E0E06840F0010309
:1009200094E8070098471034AC42F6D3FFF704FC74
:10093000684400088844000870B58D1810F8014B11
:1009400014F0030201D110F8012B231106D110F885
:10095000013B03E010F8016B01F8016B521EF9D165
:10096000ABB110F8012B04F00C048A1A0C2C03D044
:10097000A2EB84129B1C08E010F8014BA2EB0422AE
:10098000F8E712F8014B01F8014B5B1EF9D5A942BB
:10099000D4D3002070BD00002DE9F0474FF408715A
:1009A000174800F051F8012828D1154800F048F800
:1009B00081464846FFF731FE82464FF08B41FFF7F4
:1009C0005DFC0446FFF781FE07464FF066320D4B93
:1009D000FFF739FD0546FFF78BFE0B4908604FF422
:1009E0000871074800F012F80021054800F013F8DC
:1009F0004FF40871024800F009F800BFBDE8F08725
:100A00000024014066660A404C43002000220A127E
:100A1000D3430360704721B1826842F001028260D3
:100A200003E0826822F001028260704701460020E4
:100A30008A6802F004020AB1012000E00020704739
:100A40000146C86C80B2704770B502460020002392
:100A500000240B125568CEB205EA060415681D4045
:100A600015B10CB1012000E0002070BD014600204E
:100A70008A6802F008020AB1012000E000207047F5
:100A8000014600208A6802F480020AB1012000E0D9
:100A90000020704710B50023CBB21AB144681C4344
:100AA000446002E044689C43446010BD30B5024697
:100AB0000020002350680F4C20400D790C6844EA58
:100AC00005242043506090680B4C2040D1E902542B
:100AD0002C434D7944EA450420439060D06A20F4C9
:100AE00070000C7C641EE4B2234340EA0350D062E1
:100AF00030BD0000FFFEF0FFFDF7F1FFF0B504464A
:100B00000D4600200021092D11DDE068A5F10A063F
:100B100006EB4607072606FA07F18843A5F10A0601
:100B200006EB460603FA06F10843E0600CE0206994
:100B300005EB4507072606FA07F1884305EB45064E
:100B400003FA06F108432061072A0FDA606B561E8C
:100B500006EB86071F2606FA07F18843561E06EBAA
:100B6000860605FA06F10843606322E00D2A0FDAD3
:100B7000206BD61F06EB86071F2606FA07F188436F
:100B8000D61F06EB860605FA06F10843206310E03F
:100B9000E06AA2F10D0606EB86071F2606FA07F1AA
:100BA0008843A2F10D0606EB860605FA06F1084316
:100BB000E062F0BD816841F008018160704721B1B9
:100BC000826842F4A002826003E0826822F4A002FC
:100BD00082607047816841F00401816070470000C5
:100BE00008B50121042001F043FA0220ADF800000D
:100BF00000208DF803006946014800F0ABFC08BDF9
:100C00000008014000B585B0FFF7EAFF0121480266
:100C100001F02EFA002000908DF8040001208DF8DC
:100C200005004FF4602002900020039001208DF811
:100C3000100069461748FFF739FF4FF4404001F0B4
:100C4000DBF90523012211461248FFF757FF012265
:100C50004FF408710F48FFF71DFF01210D48FFF702
:100C6000DAFE0C48FFF7A6FF00BF0A48FFF7FEFEBA
:100C70000028FAD10748FFF7ADFF00BF0548FFF78E
:100C8000D5FE0028FAD101210248FFF798FF05B0F0
:100C900000BD0000002401400EB50121042001F038
:100CA000C7F90020ADF80400ADF80000ADF802006F
:100CB0006946044801F028FF0121024801F0ADFE19
:100CC0000EBD00000008004010B586B0044694B97F
:100CD0000121082001F0CCF94FF48070ADF8140028
:100CE00010208DF8170003208DF8160005A918486C
:100CF00000F030FC29E0012C27D10121092001F06E
:100D0000B7F92002ADF8140018208DF81700032061
:100D10008DF8160005A90E4800F01CFCFFF7BCFF7B
:100D20006020ADF804000120ADF806001E20ADF8EB
:100D30000A000220ADF80C0001A9064801F08AFE65
:100D40000821044801F0D6FE00BF06B010BD000027
:100D5000000C01400008004010B5012200210C20C9
:100D600000F05EFA012200210F2000F059FA002263
:100D700011460F2000F054FA002211460E2000F018
:100D80004FFA00221146102000F04AFA00221146C4
:100D90000F2000F045FA002211460C2000F040FA26
:100DA000002211460A2000F03BFA022200210D2009
:100DB00000F036FA012200210B2000F031FA002267
:100DC0001146104600F02CFA002211460D2000F0CA
:100DD00027FA01220021102000F022FA012200212E
:100DE0000F2000F01DFA002211460E2000F018FA24
:100DF000002211460D2000F013FA002211460C20AB
:100E000000F00EFA002211460B2000F009FA02222F
:100E100000210A2000F004FA012200210A2000F03B
:100E2000FFF9012200210C2000F0FAF90122002133
:100E30000F2000F0F5F9012200210E2000F0F0F95A
:100E400000221146102000F0EBF9002211460F207D
:100E500000F0E6F9002211460C2000F0E1F9002232
:100E600011460A2000F0DCF9022200210D2000F0DA
:100E7000D7F9002211460B2000F0D2F900221146CA
:100E80000D2000F0CDF900221146102000F0C8F925
:100E9000002211460F2000F0C3F9012200210E208C
:100EA00000F0BEF901220021102000F0B9F9012262
:100EB0000021122000F0B4F9012200210E2000F0E0
:100EC000AFF9022200210F2000F0AAF900221146FA
:100ED0000F2000F0A5F900221146104600F0A0F9FD
:100EE00000221146112000F09BF90022114610202B
:100EF00000F096F9022200210E2000F091F9002264
:100F000011460D2000F08CF9002211460E2000F051
:100F100087F9002211460F2000F082F900221146C5
:100F20000D2000F07DF9022200210E2000F078F95A
:100F3000002211460C2000F073F9002211460C200B
:100F400000F06EF9002211460B2000F069F9002232
:100F500011460C2000F064F9012200210D2000F060
:100F60005FF9012200210D2000F05AF90122002131
:100F7000102000F055F9012200210F2000F050F957
:100F8000022200210E2000F04BF9002211460E2013
:100F900000F046F900221146104600F041F9012206
:100FA0000021102000F03CF901220021102000F067
:100FB00037F9012200210E2000F032F900221146FB
:100FC0000C2000F02DF9002211460C2000F028F929
:100FD000002211460B2000F023F9002211460C20BC
:100FE00000F01EF902220021112000F019F9002260
:100FF00011460F2000F014F9002211460D2000F0D8
:101000000FF9002211460E2000F00AF900221146C5
:101010000F2000F005F9012200210E2000F000F958
:1010200001220021102000F0FBF8012200210F20F6
:1010300000F0F6F8012200210D2000F0F1F8022264
:1010400000210C2000F0ECF8002211460C2000F0EA
:10105000E7F800221146104600F0E2F8002211469F
:10106000112000F0DDF800221146102000F0D8F821
:10107000022200210F2000F0D3F8012200210C20D1
:1010800000F0CEF8012200210A2000F0C9F8022267
:1010900000210D2000F0C4F8002211460B2000F0C2
:1010A000BFF800221146104600F0BAF8002211469F
:1010B000102000F0B5F8002211460F2000F0B0F823
:1010C00002220021152000F0ABF8012200210D20A2
:1010D00000F0A6F8012200210C2000F0A1F8022265
:1010E00000210C2000F09CF8002211460C2000F09A
:1010F00097F800221146104600F092F801220021D4
:101100000C2000F08DF802220021112000F088F858
:1011100001220021102000F083F8012200210C2080
:1011200000F07EF8022200210F2000F079F8012261
:1011300000210E2000F074F8012200210E2000F0A2
:101140006FF8012200210D2000F06AF80122002131
:101150000C2000F065F8012200210D2000F060F85D
:1011600001220021102000F05BF802220021102053
:1011700000F056F800221146102000F051F800222D
:101180001146104600F04CF800221146112000F0E4
:1011900047F800221146102000F042F802220021F8
:1011A0000F2000F03DF8012200210C2000F038F85B
:1011B000012200210A2000F033F8022200210D2034
:1011C00000F02EF8002211460B2000F029F8002232
:1011D0001146104600F024F800221146102000F0BD
:1011E0001FF8002211460F2000F01AF802220021F9
:1011F0000E2000F015F8012200210D2000F010F85B
:10120000012200210A2000F00BF802220021112007
:1012100000F006F802220021112000F001F810BDB4
:1012200070B504460E461546074951F8240001F0F2
:10123000F3F9064931F8251088B202F03AF9002096
:1012400001F0EAF970BD0000E44200203C430020B8
:1012500000BFFEE77047000008B50121092000F03B
:1012600007FFC020ADF8000003208DF802001C200D
:101270008DF803006946024800F06CF908BD0000D3
:10128000000C014010B5012000F042F8012000F0F0
:1012900039F810BD10B5042000F03AF848B1042127
:1012A000044800F0C9FA08B1FFF756FD042000F029
:1012B00029F810BD0018014010B5082000F028F8EA
:1012C00060B10821064800F0B7FA20B101220021E0
:1012D0000C20FFF7A5FF082000F014F810BD000057
:1012E0000018014010B5102000F012F830B11021A4
:1012F000034800F0A1FA102000F004F810BD00002F
:1013000000180140014908607047000014040140C2
:10131000014600200022074B1B6803EA0102054B2F
:1013200014331B680B4013B10AB1012000E0002008
:101330007047000000040140002123498279002AFF
:101340003AD00A46126803689A430B461A600A1D8F
:10135000126803689A430B1D1A60027911440A68E7
:1013600003681A430A60184A0832126803689A43ED
:10137000154B08331A601A1D126803689A43124B02
:101380000C331A604279102A0ED11A1F12680368B2
:101390001A430D4B08331A601A1D126803681A436A
:1013A000094B0C331A600DE00749427911440A6871
:1013B00003681A430A6005E0027911440A68036869
:1013C0009A430A60704700000004014010B50121F3
:1013D000412000F04DFE0421084600F09BF800F08B
:1013E00050FD10BD70B504460D462946204601F05B
:1013F00023FD00F046FD70BD51B18200A2F1C04254
:10140000126842F001038200A2F1C042136009E0B9
:101410008200A2F1C0421268034B1A408300A3F17C
:10142000C0431A6070470000FEFF0F00D0E90112B0
:101430001143C26811430269114342691143826931
:101440001143C2691143026A1143426A1143826A1D
:101450001143C26A1143026B114302689200A2F168
:10146000C0421160816808290BD101688900A1F18F
:10147000C041096841F0400201688900A1F1C04102
:101480000A60416B0968426B526841EA0211426B83
:10149000926841EA0221426B928941EA0241426B21
:1014A000128A41EA0251426B127D41EA0261426BAB
:1014B000926911430268521C9200A2F1C04211606D
:1014C000C16AB1F5804F1BD1816B0968826B52688C
:1014D00041EA0211826B926841EA0221826B128A10
:1014E00041EA0251826B127D41EA0261826B92698C
:1014F000114302689200A2F1C042C2F8041107E051
:101500006FF0704201688900A1F1C041C1F8042167
:101510007047000030B500228B071C0F0F2303FA21
:1015200004F20B4B8C1053F824309343084C8D106D
:1015300044F8253023468C1053F824308C07240FB0
:1015400000FA04F42343024C8D1044F8253030BDDA
:10155000080001402DE9F041024600250026002048
:1015600000230024002791F803C00CF00F0591F828
:1015700003C00CF0100CBCF1000F03D091F802C0B6
:101580004CEA050591F800C0BCF1000F31D0146899
:1015900000202BE04FF0010C0CFA00F3B1F800C072
:1015A0000CEA03069E4220D183004FF00F0C0CFA88
:1015B00003F7BC4305FA03FC4CEA040491F803C0AA
:1015C000BCF1280F06D14FF0010C0CFA00FCC2F858
:1015D00014C00AE091F803C0BCF1480F05D14FF0E8
:1015E000010C0CFA00FCC2F810C0401C0828D1D332
:1015F0001460B1F800C0BCF1FF0F34DD5468002066
:101600002EE000F1080C4FF0010808FA0CF3B1F8D5
:1016100000C00CEA03069E4221D183004FF00F0C5C
:101620000CFA03F7BC4305FA03FC4CEA040491F8F6
:1016300003C0BCF1280F05D100F1080C08FA0CF822
:10164000C2F8148091F803C0BCF1480F07D100F133
:10165000080C4FF0010808FA0CF8C2F81080401C82
:101660000828CED35460BDE8F0810246002093687C
:101670000B400BB1012000E0002070470246002023
:10168000D3680B400BB1012000E00020704741619E
:101690007047016170470AB1016100E04161704724
:1016A00001480068704700004C43002000BFFEE77F
:1016B00021B1028842F00102028004E002884FF664
:1016C000FE731A40028070471FB504460121480589
:1016D00000F0AEFC0D4800F01DF80020ADF804004D
:1016E0004FF48040ADF80600ADF80C00ADF80840AE
:1016F0000011ADF80A00064800906946034800F062
:1017000025F801210148FFF7D3FF1FBD0054004019
:10171000801A060010B504460B48844209D1012105
:10172000480500F095FC00214FF4001000F090FCFB
:1017300008E00121880500F08BFC00214FF48000B7
:1017400000F086FC10BD0000005400402DE9F0437D
:1017500085B004460D460026B1460427DFF8CC804C
:10176000A6884FF6C0700640684600F0C7FCDDF85A
:1017700008802F48B8FBF0F01FFA80F946EA090606
:10178000A68020884FF6FE71084020800026294957
:10179000286888420CD828684000B8FBF0F087B26F
:1017A000042F00DA04273E4309F10100208427E0DA
:1017B000E8884BF6FF71884206D1286800EB4000AC
:1017C000B8FBF0F087B209E0286800EBC00101EB3C
:1017D0000010B8FBF0F087B247F48047C7F30B0066
:1017E00008B947F0010747F4004006434FF49670EC
:1017F00009FB00F04FF47A7190FBF1F0401C20845B
:10180000A683208840F00100208026884FF6F5301E
:101810000640A8886989084306432680A889298943
:101820000843208105B0BDE8F083000000127A0073
:1018300040420F00A086010070B504460D462946BF
:101840002046FFF71BFF01281BD10F2001F031FEBE
:1018500029462046FFF712FF012808D129462046D5
:10186000FFF703FF08B9012070BD0020FCE72946FF
:101870002046FFF703FF20B929462046FFF7F5FE73
:10188000F2E70020F0E70146CA1701EB92729210CE
:10189000A1EB820292B9642091FBF0F200FB1210DE
:1018A00050B94FF4C87091FBF0F200FB121008B968
:1018B000012070470020FCE70120FAE70020F8E74C
:1018C0000EB50121452000F0D3FB1020ADF8080033
:1018D00048208DF80B0003208DF80A0002A941482A
:1018E000FFF738FE012210213E48FFF7D4FE042105
:1018F0000846FFF70FFE1020009000208DF804002E
:101900000C208DF8050001208DF806006846FFF7D1
:1019100013FD0820ADF8080048208DF80B000320C7
:101920008DF80A0002A92F48FFF714FE01220821B2
:101930002C48FFF7B0FE03210420FFF7EBFD082041
:10194000009000208DF804000C208DF80500012087
:101950008DF806006846FFF7EFFC0420ADF808009C
:1019600048208DF80B0003208DF80A0002A91D48BD
:10197000FFF7F0FD012204211A48FFF78CFE022137
:101980000420FFF7C7FD0420009000208DF804001C
:101990000C208DF8050001208DF806006846FFF741
:1019A000CBFC0120ADF8080028208DF80B000320A7
:1019B0008DF80A0002A90C48FFF7CCFD002108466B
:1019C000FFF7A8FD0120009000208DF804000820FA
:1019D0008DF8050001208DF806006846FFF7ACFC85
:1019E0000EBD0000001801400008014070B5064619
:1019F0000F484088401E83B20D480088401E82B2C6
:101A00000021084600F0D4F800240CE0002504E092
:101A1000304600F0FFF9681C85B205484088A842AE
:101A2000F6DC601C84B202480088A042EEDC70BD87
:101A30002086002010B50446134884715CB9082143
:101A4000362000F0D7F94FF4F0700F4948804FF47A
:101A5000A070088016E02821362000F0CBF9B620CF
:101A600000F0C2F9002000F0CFF9022000F0CCF91C
:101A70003B2000F0C9F94FF4A070034948804FF4AF
:101A8000F070088010BD00002086002070B504466C
:101A90000D4616462B4622462946204600F088F879
:101AA000304600F0B7F970BD2DE9FF4F84B0814694
:101AB0008A460020029083460698A0EB0905079805
:101AC000A0EB0A06CDF80490CDF800A0002D01DDB2
:101AD000012705E00DB9002702E04FF0FF376D4206
:101AE000002E02DD4FF0010806E016B94FF00008A5
:101AF00002E04FF0FF387642B54201DD2C4600E0AF
:101B00003446002003901EE0009A91B2019A90B2F0
:101B1000119AFFF7BBFF029828440290B344029841
:101B2000A04205DD0298001B029001983844019004
:101B3000A34504DDABEB040B0098404400900398F0
:101B4000401C80B20390611C03988842DCDD08B021
:101B5000BDE8F08F2DE9F04304460D4616461F46BA
:101B6000DDF81C80B44201DCBD4201DDBDE8F0833C
:101B70003B4632462946204600F01AF8301B401CEE
:101B800084B2781B401C85B20BE0A94602E04046B7
:101B900000F040F9B9F10000A9F101011FFA81F943
:101BA000F5D1201EA4F101018CB2EED100BFDDE71A
:101BB00070B504460D462A2000F016F92646E117B6
:101BC00004EB1161C1F30F2000F01EF9E11704EBE3
:101BD00011610912A4EB012188B200F015F9164633
:101BE000D11702EB1161C1F30F2000F00DF9164679
:101BF000D11702EB11610912A2EB012188B200F0AA
:101C000003F92B2000F0F0F82E46E91705EB1161DF
:101C1000C1F30F2000F0F8F8E91705EB1161091284
:101C2000A5EB012188B200F0EFF81E46D91703EBAF
:101C30001161C1F30F2000F0E7F81E46D91703EB3E
:101C400011610912A3EB012188B200F0DDF82C200C
:101C500000F0CAF870BD00002DE9F84F80460E462E
:101C600017461C46B3462046E31704EB5373DB10BC
:101C700021464FEAE47C04EB5C7C4FEAEC0CA4EBDD
:101C8000CC0CBCF1000F02D04FF0010C01E04FF082
:101C9000000C6344224604EBD27C4FEA6C0C03FB3D
:101CA0000CF3DBB20093A7F12000C7B2002556E089
:101CB0000C2C07D107EB47002B4901EB800010F8F3
:101CC000059013E0102C05D1284800EB071010F800
:101CD00005900BE0182C07D107EBC700244901EB56
:101CE000800010F8059001E0BDE8F88F4FF0000A81
:101CF0002FE009F0800030B11E480288314640468E
:101D0000FFF7C4FE07E00A9828B91B48028831464D
:101D10004046FFF7BBFE4FEA49604FEA1069701C6E
:101D200086B216484088B04200DCDDE7A6EB0B0027
:101D3000A0420AD15E4608F101001FFA80F80F4860
:101D40000088404500DCCFE706E00AF1010000F022
:101D5000FF0ABAF1080FCCDB00BF681CC5B20098BF
:101D60008542A5DB00BFBFE7F23F000850430020DB
:101D7000404900201C8600201E860020208600206E
:101D80002DE9F84704460D4690469946DDE9096776
:101D900004F0FF0A08EB04001FFA80F809EB0500C5
:101DA0001FFA80F916E0444502DB5446A81985B2B3
:101DB0004D4500DB14E0002000903A783346294678
:101DC0002046FFF749FF304606EBD07104EB610176
:101DD0008CB27F1C38787E2802DC38782028E2DA42
:101DE00000BFBDE8F8870000014908807047000087
:101DF000FE07006C00B503460A461846FFF7F4FFDD
:101E0000104600F001F800BD01490880704700004D
:101E10000008006C0112024A1180C1B211807047A3
:101E20000008006C08B50121482000F021F92020AD
:101E3000ADF8000010208DF8030003208DF802009B
:101E400069460C48FFF786FB20210A48FFF71FFC74
:101E50002020ADF8000010208DF8030003208DF83D
:101E6000020069460448FFF775FB20210248FFF78E
:101E70000EFC08BD000C01400018014000BFFEE749
:101E8000704708B54FF4A06000F0AAF80A208DF85A
:101E9000000002208DF801008DF8020001208DF86D
:101EA0000300684600F064F809208DF80000022065
:101EB0008DF801008DF8020001208DF803006846BE
:101EC00000F056F808208DF8000002208DF801007F
:101ED0008DF8020001208DF80300684600F048F8F4
:101EE00006208DF8000002208DF801008DF8020018
:101EF00001208DF80300684600F03AF825208DF89F
:101F0000000003208DF801008DF8020001208DF8FB
:101F10000300684600F02CF826208DF8000003200E
:101F20008DF801008DF8020001208DF8030068464D
:101F300000F01EF836208DF8000002208DF8010018
:101F400003208DF8020001208DF80300684600F0A0
:101F50000FF812208DF8000002208DF801000120FA
:101F60008DF802008DF80300684600F001F808BD06
:101F700070B5002100230F22C47804B3154C2468E7
:101F800004F4E064C4F5E064210AC1F10403CA402A
:101F9000447804FA03F184781440214309010E4C7B
:101FA0000678A155047804F01F050124AC4005789B
:101FB0006D11AD0005F1E025C5F8004109E0047898
:101FC00004F01F050124AC40044D0678761145F855
:101FD000264070BD0CED00E000E400E080E100E090
:101FE00002490143024A1160704700000000FA05EF
:101FF0000CED00E07047000001460020034A5068E5
:1020000020F4404008435060704700000010024038
:1020100029B1064A52690243044B5A6104E0034A5B
:1020200052698243014B5A61704700000010024020
:1020300029B1064AD2690243044BDA6104E0034A3B
:10204000D2698243014BDA61704700000010024000
:1020500029B1064A12690243044B1A6104E0034A9B
:1020600012698243014B1A61704700000010024060
:1020700029B1064A92690243044B9A6104E0034A7B
:1020800092698243014B9A61704700000010024040
:1020900029B1064AD2680243044BDA6004E0034ADD
:1020A000D2688243014BDA607047000000100240A2
:1020B0000F48006840F001000D490860084640687C
:1020C0000C4908400A494860084600680A49084027
:1020D000074908600846006820F480200860084628
:1020E000406820F4FE0048604FF41F00886070478D
:1020F000001002400000FFF8FFFFF6FE30B500219F
:102100000022002400232D4D6D6805F00C0121B143
:10211000042905D0082923D105E0294D056022E0D6
:10212000274D05601FE0254D6D6805F47012234DA5
:102130006D6805F48034022505EB92421CB9214DEF
:10214000554305600BE01D4D6D6805F400351DB16C
:102150001C4D5543056002E0194D5543056002E0F2
:10216000174D056000BF00BF144D6D6805F0F0010C
:102170000909154D6B5C0568DD4045600F4D6D68C4
:1021800005F4E061090A104D6B5C4568DD4085602F
:102190000A4D6D6805F46051C90A0B4D6B5C4568CA
:1021A000DD40C560054D6D6805F44041890B074D64
:1021B0006B5CC568B5FBF3F5056130BD00100240EE
:1021C00000127A0000093D000000002010000020ED
:1021D00010B501460022002300204A11012A02D135
:1021E000094C236806E0022A02D1074C236A01E069
:1021F000054C636A01F01F02012494401C400CB19D
:10220000012000E0002010BD00100240024840689C
:1022100000F00C0070470000001002400146002052
:10222000034A506820F0F0000843506070470000F7
:10223000001002401149096821F480310F4A1160F1
:102240001146096821F480211160B0F5803F03D068
:10225000B0F5802F0ED106E00849096841F48031BD
:10226000064A116007E00549096841F4A021034AC4
:10227000116000E000BF00BF704700000010024086
:1022800001460020034A506820F4E0600843506093
:10229000704700000010024001460020034A5068C9
:1022A00020F4605040EAC1005060704700100240C6
:1022B00001490866704700000000424202460020C3
:1022C000044B586820F47C1042EA01031843014B88
:1022D000586070470010024001460020034A5068D1
:1022E00020F00300084350607047000000100240D7
:1022F00038B5002000900024002500BF3120FFF7F2
:1023000067FF05460098401C00900098B0F5A06F4C
:1023100001D0002DF2D03120FFF75AFF08B101247F
:1023200000E00024204638BD10B580210148FFF7A9
:10233000B0F910BD0014014070B50026002400253E
:1023400000F07AF806463848B6FBF0F437480088C3
:10235000A0423CD035490C8040F2B27510E02846CE
:10236000FFF791FA40B1B4F5B77F02D3A4F5B77483
:1023700004E0681C85B206E0A4F26D14681C85B206
:10238000B4F5B67FEBD800BF29488580002516E05C
:1023900027498888FFF777FA30B1012D04D11D2C29
:1023A00001D31D3C09E00CE02248405DA04203D867
:1023B0002048405D241A00E003E0681C85B21C2C14
:1023C000E6D200BF681C1A498871601CC8711648A3
:1023D000B6FBF0F100FB11644FF46160B4FBF0F068
:1023E000134908704FF46160B4FBF0F100FB114039
:1023F0003C21B0FBF1F00E4948704FF46160B4FB32
:10240000F0F100FB11403C21B0FBF1F201FB1200A6
:10241000074988700B46DA799979988800F028F88E
:1024200003490872002070BD80510100E042002085
:1024300010C90020E53F0008002103480188001F63
:10244000008841EA004070471C28004001460020F7
:10245000064A12880A40D0B2044A121F12880A4063
:1024600012B108B1012000E00020704704280040AC
:10247000F0B503460C461546642093FBF0F0C6B257
:10248000642093FBF0F700FB1730C1B2132E02DD7E
:1024900001F16400C1B20846CF1701EB977701EB59
:1024A000A707BAB2072092FBF0F700FB172082B211
:1024B0005719601EDFF82CC01CF80000384482B2A7
:1024C000CF1701EB9777BF10A1EB87071FB9032C3C
:1024D00001DA501E82B2072092FBF0F700FB1720B2
:1024E000C0B2F0BDD93F000810B501F067FA10BDC9
:1024F00070470000FEB504460B4890FBF4F63046EA
:10250000FEF782F805462846FEF7B2F880B2ADF82D
:1025100004004720ADF800000020ADF80200694635
:10252000024800F0F1FAFEBD40420F0000080040F2
:1025300010B500F001F810BD0CB50020019000901E
:102540003348006840F480303149086000BF3048AB
:10255000006800F4003000900198401C0190009841
:1025600018B90198B0F5A06FF1D12948006800F4BE
:10257000003010B10120009001E000200090009890
:10258000012843D12348006840F010002149086029
:102590000846006820F0030008600846006840F024
:1025A000020008601A4840681949486008464068B7
:1025B00048600846406840F48060486008464068CB
:1025C00020F47C1048600846406840F4E8104860F9
:1025D0000846006840F08070086000BF0C48006842
:1025E00000F000700028F9D00948406820F003008E
:1025F000074948600846406840F00200486000BF54
:102600000348406800F00C000828F9D10CBD000018
:10261000001002400020024010B504462046FFF79B
:1026200069FF10BD042808D14FF0E021096941F08D
:1026300004014FF0E022116107E04FF0E021096949
:1026400021F004014FF0E022116170477047000053
:1026500010B51348006840F00100114908600846B1
:102660004068104908400E494860084600680E4915
:1026700008400B4908600846006820F48020086084
:102680000846406820F4FE0048604FF41F00886050
:10269000FFF74EFF4FF000600449086010BD0000D6
:1026A000001002400000FFF8FFFFF6FE08ED00E01A
:1026B00000B59DB001210802FFF7AAFC0120079098
:1026C000002008900F20099000200A900B900C9099
:1026D0000D9015200090019005200290002003909D
:1026E00004900590069006200E9000200F90109008
:1026F00010201190002012901490139015901690B5
:102700004FF480501790002018904FF4804019909B
:1027100000201A9007A81B90CDF870D00EA8FEF7E5
:1027200085FE01210620FEF767FE1DB000BD0000FA
:1027300008B501214FF4B470FFF79AFC4CF23370E6
:10274000ADF8000018208DF8030003208DF802007A
:1027500069461648FEF7FEFE4FF68070ADF80000A1
:1027600018208DF8030003208DF8020069461048F8
:10277000FEF7F0FE41F20100ADF8000018208DF8E0
:10278000030003208DF8020069460A48FEF7E2FEC6
:102790000120ADF8000010208DF8030003208DF813
:1027A000020069460448FEF7D5FE08BD001401404A
:1027B0000018014000200140000C014010B5FFF757
:1027C000B7FFFFF775FF322000F073FEDA20FFF746
:1027D0000BFB7848008878498880764800884FF657
:1027E000FF7101EA002074498880DB20FFF7FCFAC2
:1027F000714880886F49098808436F498880084676
:1028000080886C49098808436B498880084681881C
:102810006AA000F0BBFBE020FFF7E6FA0020FFF71C
:10282000F3FA1320FFF7F0FA1820FFF7EDFA04206F
:10283000FFF7EAFA0F20FFF7E7FA0620FFF7E4FABE
:102840003A20FFF7E1FA5620FFF7DEFA4D20FFF7B6
:10285000DBFA0320FFF7D8FA0A20FFF7D5FA0620A3
:10286000FFF7D2FA3020FFF7CFFA3E20FFF7CCFA7D
:102870000F20FFF7C9FAE120FFF7B6FA0020FFF7B3
:10288000C3FA1320FFF7C0FA1820FFF7BDFA0120A2
:10289000FFF7BAFA1120FFF7B7FA0620FFF7B4FAEC
:1028A0003820FFF7B1FA3420FFF7AEFA4D20FFF7DA
:1028B000ABFA0620FFF7A8FA0D20FFF7A5FA0B20C8
:1028C000FFF7A2FA3120FFF79FFA3720FFF79CFAB3
:1028D0000F20FFF799FAC020FFF786FA1820FFF7BC
:1028E00093FA1720FFF790FAC120FFF77DFA4120F5
:1028F000FFF78AFAC520FFF777FA0020FFF784FA7E
:102900001A20FFF781FA8020FFF77EFA3620FFF7C2
:102910006BFA0820FFF778FA3A20FFF765FA55209E
:10292000FFF772FAB020FFF75FFA0020FFF76CFAAA
:10293000B120FFF759FAA020FFF766FAB420FFF79D
:1029400053FA0220FFF760FAB620FFF74DFA002095
:10295000FFF75AFA2220FFF757FA3B20FFF754FA05
:10296000E920FFF741FA0020FFF74EFAF720FFF7C2
:102970003BFAA920FFF748FA5120FFF745FA2C202F
:10298000FFF742FA8220FFF73FFA1120FFF72CFAF7
:10299000782000F08EFD2920FFF726FA2C20FFF783
:1029A00023FA0020FFF746F84FF6FF70FFF71EF8F6
:1029B00010BD00000008006C20860020204C43441D
:1029C0002049443A25780D0A0000000010B5012185
:1029D0000E4800F02EF898B101F088F80C48FEF788
:1029E0004FF8012804D100210948FEF714F807E048
:1029F0000748FEF745F818B901210548FEF70BF81E
:102A00000121024800F006F810BD0000001000404F
:102A100000240140CA430282704721B1028842F07B
:102A20000102028004E002884FF6FE731A40028021
:102A3000704730B50246002000230024158A05EABD
:102A40000103958905EA010413B10CB1012000E0EE
:102A5000002030BD70B5002400220023058C4FF605
:102A6000FF6635400584028C8388848B4FF68F7512
:102A70002C404FF6FC752C400D882C434FF6FF552B
:102A80002A400D894FF6FF7606EA05252A434D8830
:102A900006EA05252A43154DA84202D0144DA84246
:102AA0001DD14FF2FF752A404D894FF6FF7606EA99
:102AB00005252A434FF6FF352A408D8806EA05256D
:102AC0002A434EF6FF752B404DF6FF752B408D893E
:102AD00006EA05152B43CD8906EA05152B438380AD
:102AE0008483CD888587028470BD0000002C01405E
:102AF000003401400A460021818B4FF6F7731940DC
:102B00001143818370470000002202881D4B9842C8
:102B10000ED01D4B98420BD0B0F1804F08D01B4B0C
:102B2000984205D01A4B984202D01A4B984204D1D1
:102B30004FF68F731A404B881A43174B984207D0B1
:102B4000164B984204D04FF6FF431A40CB881A43E5
:102B500002808B8883850B8803850A4B98420BD0B3
:102B6000094B984208D00E4B984205D00D4B984225
:102B700002D00D4B984201D10B7A03860123838248
:102B800070470000002C0140003401400004004068
:102B900000080040000C00400010004000140040FD
:102BA0000040014000440140004801402DE9F0414F
:102BB000064616B1012E06D102E00C4C202504E099
:102BC0000B4C202501E0BDE8F08100BF29462046DE
:102BD000FEF754FD08B9012000E0002007463A4600
:102BE00029462046FEF757FD00BFECE7000C0140E8
:102BF0000018014010B50821084800F099F860B1AC
:102C0000064800F00FF9012802D10020FFF7CEFF9F
:102C100040F22551014800F022F810BD0038014073
:102C200010B50821084800F083F858B1064800F0B4
:102C3000F9F8012801D1FFF7B9FF40F22551024808
:102C400000F00DF810BD00000044004001F40072D7
:102C5000B2F5007F00D100BFCA430280704710B5B3
:102C60000022002340F66A14A14200D100BF0A12DC
:102C700001249440A3B2DC43048010BD21B18289B9
:102C800042F40052828104E082894DF6FF731A40BB
:102C90008281704710B504462048844209D1012141
:102CA0008803FFF7F5F900214FF48040FFF7F0F9B2
:102CB00032E01B48844209D101214804FFF7C8F9DA
:102CC00000214FF40030FFF7C3F925E01548844296
:102CD00009D101218804FFF7BBF900214FF48020BE
:102CE000FFF7B6F918E01048844209D10121C80461
:102CF000FFF7AEF900214FF40020FFF7A9F90BE030
:102D00000A48844208D101210805FFF7A1F90021F2
:102D10004FF48010FFF79CF910BD0000003801400F
:102D20000044004000480040004C0040005000407B
:102D300002460020B1F5007F00D100BF13880B4090
:102D40000BB1012000E00020704700002DE9F047A2
:102D500086B005460E460024A24600BFA1460027C5
:102D6000B08900B100BF2F462C8A4CF6FF7004409A
:102D7000F08804432C82AC894EF6F3100440B088EE
:102D800031890843718908430443AC81AC8A4FF60A
:102D9000FF400440B0890443AC8201A8FFF7AEF9BC
:102DA0001F48874202D1DDF810A001E0DDF80CA039
:102DB000A88900F4004040B10AEBCA0000EB0A10F9
:102DC00031684900B0FBF1F807E00AEBCA0000EBFC
:102DD0000A1031688900B0FBF1F86420B8FBF0F00C
:102DE00004012009642101FB1089A88900F4004036
:102DF00040B1322000EBC900B0FBF1F000F0070059
:102E0000044308E0322000EB09106421B0FBF1F02C
:102E100000F00F0004432C8106B0BDE8F0870000ED
:102E20000038014001468888C0F308007047C1F3AC
:102E3000080282807047000030B585B005460C4618
:102E40004A48FFF727FF4A48FFF724FF012D35D1F5
:102E5000012144F20400FFF70BF96802ADF81000FD
:102E600003208DF8120018208DF8130004A94148A2
:102E7000FEF770FBA802ADF8100004208DF81300D7
:102E800004A93C48FEF766FB00940020ADF804005E
:102E9000ADF80600ADF80800ADF80C000C20ADF858
:102EA0000A0069463148FFF751FF01212F48FFF71B
:102EB000E5FE40212D48FFF7C9FE55E0022D53D114
:102EC00001214804FFF7B4F801214804FFF7B0F8E6
:102ED00001210420FFF7CCF801212020FFF7C8F8DA
:102EE00025A000F053F80420ADF8100003208DF861
:102EF000120018208DF8130004A91E48FEF72AFBC3
:102F00000820ADF8100004208DF8130004A919481A
:102F1000FEF720FB8020ADF8100003208DF8120092
:102F200010208DF8130004A91448FEF713FB14A019
:102F300000F02CF800940020ADF80400ADF8060075
:102F4000ADF80800ADF80C000C20ADF80A00694699
:102F50000748FFF7FBFE01210548FFF78FFE4021E0
:102F60000348FFF773FE00BF05B030BD00380140D5
:102F70000044004000080140636C6B0000140140F5
:102F80006770696F0000000000BFFEE70FB4054BDB
:102F900010B503A9044A029800F044F810BC5DF88B
:102FA00014FB0000A53500080CC900200FB41CB5A7
:102FB0000246002007AC00290BD0491ECDE90021B4
:102FC000054B6A462146069800F02CF8009A00212D
:102FD00011701CBC5DF814FB873400080FB4084B5B
:102FE00010B504A902AA039800F01CF8044602A92F
:102FF000002000F053FA204610BC5DF814FB0000DE
:103000009D34000802E008C8121F08C1002AFAD146
:1030100070477047002001E001C1121F002AFBD158
:10302000704700002DE9FF4F8DB00F460546002682
:1030300006E025280BD0DDE90F1290476D1C761CA9
:1030400028780028F5D111B03046BDE8F08F002473
:10305000A246A1460122EC4900E0044315F8013FD5
:10306000203B02FA03F00842F7D128782A2810D032
:103070006FF02F022878A0F13001092914D80AEB4B
:103080008A0102EB410144F0020400EB010A6D1CCD
:10309000F0E701CF5FEA000A03D544F40054CAF117
:1030A000000A44F002046D1C28782E2817D115F868
:1030B000010F44F004042A280ED06FF02F02287864
:1030C000A0F1300109290AD809EB890102EB41017D
:1030D00000EB01096D1CF2E757F8049B6D1C287882
:1030E0006C280FD006DC4C2817D068280DD06A2831
:1030F00014D104E0742810D07A280FD10DE044F4E4
:1031000000140AE044F4801401E044F440146978A7
:10311000814202D104F580146D1C6D1C2A786E2A40
:103120001FD00CDC632A31D004DC002A8BD0582A53
:1031300011D1A3E0642A68D0692A0CD165E0732A12
:103140002ED004DC6F2A73D0702A04D19BE0752A3C
:103150006FD0782A6ED01046DDE90F129047761CAA
:1031600050E1C4F30250022806D0032809D00428F5
:1031700001CF09D0066045E101CFF117C0E9006138
:1031800040E101CF06803DE106703BE117F8040BFA
:103190008DF8000000208DF80100EB46012003E0CF
:1031A00057F804BB4FF0FF3061074FF0000102D425
:1031B0000DE008F10101884649450FDA8045F8DB4A
:1031C0001BF808100029F4D108E008F10101884635
:1031D0008142FADB1BF808100029F6D1DDE90F2344
:1031E000AAEB08008146214600F036F9304400EB96
:1031F000080604E0DDE90F121BF8010B9047B8F157
:103200000108F7D221464846F7E00A21C4F30253E9
:103210004FF0000B0891022B04D001CFC117032BF4
:1032200009D00AE0FF1D27F00707F7E8020108E0D0
:1032300032E01FE020E000B2C117042B01D140B200
:10324000C117031E71F1000307DA4FF0000CD0EB39
:103250000C006CEB01012D2302E0230504D52B2388
:103260008DF82430012303E0E30701D02023F7E7A2
:10327000984658E00A2110E010210EE010204FF08F
:10328000000B08900CE010214FF0000B44F00404F8
:103290004FF00809089103E008214FF0000B089156
:1032A000C4F30253022B04D001CF0021032B06D01C
:1032B00006E0FF1D27F00707F7E8020103E080B2F0
:1032C000042B00D1C0B24FF0000823072BD5702A81
:1032D00007D0DDF820C08CF0100C5CEA0B0C05D098
:1032E0000EE040238DF82430012308E050EA01036A
:1032F00006D030238DF824308DF8252002239846FF
:10330000DDF820C08CF0080C5CEA0B0C0BD150EA05
:10331000010301D1630706D530238DF824304FF027
:103320000108A9F10109582A04D038A20B9208AA71
:103330000A920BE03AA2F9E75B46089AFDF7F4F926
:103340000B9B9B5C0A9A521E0A92137050EA010270
:10335000F2D10A98ADEB000000F1200B600702D516
:1033600024F4803401E04FF00109D94502DDA9EBD6
:103370000B0000E0002000EB0B0141440890AAEB99
:10338000010AE00306D4DDE90F232146504600F090
:1033900063F806444FF0000908E009A911F8090094
:1033A000DDE90F12904709F10109761CC145F4DBF4
:1033B000E0030CD5DDE90F232146504600F04CF820
:1033C000064404E0DDE90F1230209047761C08998E
:1033D000481E08900029F5DC08E00A980A99007850
:1033E000491C0A91DDE90F129047761CBBF10001E0
:1033F000ABF1010BF1DC21465046DDE90F2300F073
:1034000019F806446D1C1BE60928010030313233DF
:103410003435363738396162636465660000000010
:1034200030313233343536373839414243444546FA
:10343000000000002DE9F041044600251E46174615
:10344000880404D405E039462020B0476D1C641E72
:10345000F9D52846BDE8F0812DE9F0410446002564
:103460001E469046C80301D5302700E02027880477
:1034700004D505E041463846B0476D1C641EF9D5B9
:103480002846BDE8F0814A68002A06D00A68531C25
:103490000B6010704868401E486070470A68531CF3
:1034A0000B601070704710B56FF00400FFF7BAF8AA
:1034B00010BD014642F228324A434FF0E0235A61E0
:1034C00000229A611A46126942F001021A6100BF95
:1034D0004FF0E022106900F001021AB100F48032CE
:1034E000002AF5D04FF0E022126922F001024FF0DD
:1034F000E0231A6100229A61704708B50020B423C6
:103500004FF49672052100900846FEF723FB08BD94
:1035100008B51948008819490880A0201849088072
:103520004FF6E0700090084603881448028815485A
:10353000018811480088FEF7B7FA10480088124940
:1035400008800F480088114908800F480088F03033
:103550000A4908800A480088094908804FF6E07047
:1035600000900846038805480288084801880648F4
:103570000088FEF799FA08BD02C9002006C900209C
:1035800008C9002004C90020FAC80020FCC8002097
:1035900008B50020C8234FF4A07201460090FEF742
:1035A000D9FA08BD70B504460D46E1B20548FFF7EB
:1035B0003EFC00BF80210348FFF7BAFB0028F9D08A
:1035C000204670BD0038014000F0C8F9FEF72AFC23
:1035D000FEF776F90120FDF777FBFDF73DFEFFF7DB
:1035E00062FFFDF7F3FE4FF4E1310120FDF7FAFE33
:1035F00011A0FFF7CBFC4FF4E1310220FDF7F2FE02
:10360000FEF792FE0FA0FFF7C1FCFDF7FBFAFFF7F4
:10361000D5F8A120FEF758F84FF6FF70FEF7E6F94F
:10362000FFF7B6FFFFF769FFFFF772FF03E000F057
:103630000FF800F05BFAFAE77573617274315F6935
:103640006E6974007573617274325F696E697400BB
:103650002DE9F04F87B00121B348FDF7DCF9B348FD
:10366000007800287ED1B2480068002837D1B148E0
:103670000088401CB0490880B0480088FCF7D2FFA1
:1036800004460D46FEF70CF80190FDF71EF8824641
:103690004FF06632AA4BFCF748FF0022A94BCDE958
:1036A0000201FCF7CDFE80460022A74BFCF7CBFEC3
:1036B000064622462B46FCF71FFECDE90401FCF727
:1036C000EBFFA24908809C480088A14908809F48D8
:1036D0000088A049088001209549086020E19448AD
:1036E0000068EE2856DA94480088401C9249088009
:1036F00092480088FCF796FF04460D46FDF7D0FF80
:103700000190FCF7E2FF82464FF066328C4BFCF7EB
:103710000CFF00228B4BCDE90201FCF791FE8046A5
:103720000022894BFCF78FFE064622462B46FCF70B
:10373000E3FDCDE90401FCF7AFFF844908807E4832
:10374000008883497A4A126821F812007F4800886D
:103750008049774A126821F812004FF47840744A81
:10376000009000E070E01268521E0B4633F8121011
:103770006F4A1268521E764B33F81200734A138850
:103780006D4A1288FEF790F969480068401C684944
:103790000860C5E066480068EE289FD1664800884A
:1037A000401C6549088065480088FCF73BFF0446DB
:1037B0000D46FDF775FF0190FCF787FF82464FF03D
:1037C00066325F4BFCF7B1FE00225E4BCDE9020191
:1037D000FCF736FE064600225B4BFCF734FE224621
:1037E0002B46CDE90401FCF787FD8046FCF754FF2A
:1037F000564908805048018855484D4A126820F8BB
:103800001210524800885349494A126821F81200A0
:103810004FF47840464A00901268521E0B4633F827
:103820001210434A1268521E494B33F81200474A9D
:103830001388414A1288FEF737F901203B49087086
:1038400000203B4908606BE043480088401C3A492F
:1038500008803A480088FCF7E5FE06460F46FDF76B
:103860001FFF0190FCF731FF82464FF06632344B68
:10387000FCF75BFE0022334BCDE90201FCF7E0FDD3
:103880000022314BCDE90401FCF7DDFD80463246D4
:103890003B46FCF731FD0446FCF7FEFE2B49088051
:1038A000254800882A49A1F8DE01284800882949CE
:1038B000A1F8DE0101242BE00020264D009035F810
:1038C0001430234D35F81420651E224E36F815109D
:1038D0001F4E36F81500FEF7E7F84FF478401D4EFE
:1038E000651C009036F81530194D35F81420354612
:1038F00035F81410651E164E36F81500FEF7D4F88C
:10390000144830F81410601E124A22F81010641C7B
:10391000EF2CD1DB0F48B0F8DE010E49A1F8DC0135
:1039200007B0BDE8F08F000000240140F8C8002077
:10393000F4C80020FAC80020FEC8002004C90020F6
:1039400066660A400000F03F00C05E4000C90020EB
:103950001AC90020FACA002006C9002010B5FEF7D7
:10396000A7FB4FF48030FEF765FC0020FEF756FC05
:103970000020FEF791FC4FF48060FEF781FC4FF4CD
:10398000E0114FF48030FEF799FC0120FEF790FC27
:10399000FEF7AEFC012801D0002010BD00BF392089
:1039A000FEF716FC0028FAD00220FEF795FC00BFB7
:1039B000FEF72CFC0828FBD10120EEE700B589B00A
:1039C0000120FEF743FD88B1FEF7B6FC3B48807846
:1039D0003A494978394A1278CDE9002102903748AE
:1039E000C3798279818836A0FFF7D0FA334882887C
:1039F0003BA104A8FFF7F2FA04A810210B466422A9
:103A0000CDE900104FF496711E20FEF7B9F92B484E
:103A1000827933A104A8FFF7E1FA04A810210B462C
:103A20006422CDE900104FF496715020FEF7A8F9FA
:103A30002248C2792BA104A8FFF7D0FA04A81021CC
:103A40000B466422CDE900104FF496718220FEF7F8
:103A500097F91A48027824A104A8FFF7BFFA04A82E
:103A600010210B466422CDE900104FF4AA711E20EC
:103A7000FEF786F9114842781BA104A8FFF7AEFAB9
:103A800004A810210B466422CDE900104FF4AA715E
:103A90005020FEF775F90948827812A104A8FFF7B3
:103AA0009DFA04A810210B466422CDE900104FF4C2
:103AB000AA718220FEF764F909B000BD10C9002088
:103AC0005254432054696D653A25642D25642D2593
:103AD000642025643A25643A25640D0A000000003C
:103AE00025642F002564000025643A002DE9F04389
:103AF00087B0FDF7D5FD07463846FCF7A0FD8046A8
:103B00004046FCF781FD81463946FCF782FB0646BC
:103B10000F49FCF781FB0546FCF791FD044643463F
:103B20000CA2142102A80094FFF740FA02A8102169
:103B3000CDE9001009480088103881B210236422B2
:103B400007480088FEF71CF907B0BDE8F0830000C5
:103B50000000C84225642E253032640004C90020CC
:103B600002C900200000000000000000000000006A
:103B700000000000003F4000000000000000003096
:103B800000400030004000000009000BC03D000B69
:103B9000C03D00090018C024407FE0224031800071
:103BA00000180024C01B000D803240018003801CDF
:103BB0004027401C800740004010006000000000CB
:103BC00000000000000000000000001F80204040B6
:103BD000200000402020401F800000000009000657
:103BE000001F80060009000000040004003F80045C
:103BF0000004000000001000600000000000000051
:103C000000040004000400040004000000000000A0
:103C1000400000000000000000002001C006003845
:103C200000400000001F802040204020401F8000F6
:103C300000000010403FC000400000000018C021FC
:103C4000402240244018400000108020402440249E
:103C5000401B80000002000D0011003FC001400029
:103C6000003C80244024402440238000001F802406
:103C70004024403440038000003000200027C0383A
:103C800000200000001B802440244024401B8000B2
:103C9000001C0022C0224022401F800000000000C3
:103CA0000008400000000000000000000004600068
:103CB0000000000000000004000A00110020804005
:103CC0004009000900090009000900000000004047
:103CD00040208011000A0004001800200023402426
:103CE00000180000001F802040274029401F40008E
:103CF00000004007C039000F0001C0004020403FD5
:103D0000C0244024401B8000001F80204020402011
:103D1000403080000020403FC0204020401F8000F5
:103D20000020403FC024402E4030C0000020403FD3
:103D3000C024402E00300000000F001080204022E0
:103D4000403380020020403FC0040004003FC020F8
:103D500040204020403FC020402040000000602024
:103D60002020203FC02000200020403FC024400BE6
:103D70000030C0204020403FC020400040004000B4
:103D8000C03FC03C0003C03C003FC0000020403F9B
:103D9000C00C4023003FC020001F80204020402056
:103DA000401F80000020403FC02440240018000035
:103DB000001F802140214020E01FA0000020403F44
:103DC000C02440260019C0004018C02440244022CE
:103DD0004031800000300020403FC02040300000D3
:103DE0000020003F80004000403F80200020003E37
:103DF0000001C0070038002000380007C03C000761
:103E0000C038000000204039C0060039C020400002
:103E1000002000384007C03840200000003040211A
:103E2000C02640384020C00000000000007FE04075
:103E30002040200000000070000C000380004000C3
:103E4000000000402040207FE00000000000002033
:103E500000400020000000000000100010001000D2
:103E600010001000100000000040000000000000E2
:103E700000000002800540054003C0004020003FD4
:103E8000C00440044003800000000003800440049C
:103E9000400640000000000380044024403FC00072
:103EA000400000038005400540034000000000047E
:103EB000401FC0244024402000000002E0055005BF
:103EC000500650042020403FC00440040003C000BE
:103ED000400000044027C000400000000000100027
:103EE00010041027E00000000020403FC001400700
:103EF0000004C00440204020403FC000400040007B
:103F00000007C0040007C0040003C000000440070D
:103F1000C00440040003C0004000000380044004CB
:103F20004003800000041007F004500440038000A8
:103F300000000003800440045007F0001004400714
:103F4000C0024004000400000000000640054005D7
:103F50004004C00000000004001F80044000400036
:103F600000040007800040044007C0004004000730
:103F70000004C0018006000400060001C007000123
:103F8000C006000000044006C0010006C004400056
:103F9000000410071004E001800600040000000483
:103FA0004005C00640044000000000000004007B03
:103FB000E040200000000000000000FFF0000000D2
:103FC00000000040207BE004000000000040008072
:103FD000004000200020004000000303060104060A
:103FE00002050003051F1C1F1E1F1E1F1F1E1F1E74
:103FF0001F000000000000000000000000000000A2
:1040000000003F40000000000000000030004000C1
:1040100030004000000009000BC03D000BC03D0017
:10402000090018C024407FE02240318000001800C1
:1040300024C01B000D803240018003801C402740BB
:104040001C800740004010006000000000000000DD
:1040500000000000000000001F8020404020000001
:10406000402020401F8000000000090006001F8043
:10407000060009000000040004003F800400040062
:1040800000000010006000000000000000000400BC
:1040900004000400040004000000000000400000D0
:1040A000000000000000002001C0060038004000B1
:1040B00000001F802040204020401F8000000000A2
:1040C00010403FC000400000000018C021402240C6
:1040D00024401840000010802040244024401B80D1
:1040E000000002000D0011003FC0014000003C80B4
:1040F000244024402440238000001F80244024408A
:104100003440038000003000200027C03800200029
:1041100000001B802440244024401B8000001C0021
:1041200022C0224022401F80000000000000084002
:10413000000000000000000000000460000000001B
:104140000000000004000A00110020804040090027
:10415000090009000900090000000000404020801B
:1041600011000A0004001800200023402400180059
:1041700000001F802040274029401F4000000040D1
:1041800007C039000F0001C0004020403FC024405C
:1041900024401B8000001F802040204020403080B1
:1041A000000020403FC0204020401F8000002040F1
:1041B0003FC024402E4030C0000020403FC024407B
:1041C0002E00300000000F0010802040224033807D
:1041D000020020403FC0040004003FC020402040B7
:1041E00020403FC0204020400000006020202020D0
:1041F0003FC02000200020403FC024400B0030C0C2
:10420000204020403FC020400040004000C03FC050
:104210003C0003C03C003FC0000020403FC00C40B9
:1042200023003FC020001F802040204020401F80EE
:10423000000020403FC024402400180000001F80E0
:104240002140214020E01FA0000020403FC024402A
:10425000260019C0004018C024402440224031806C
:104260000000300020403FC020403000000020000F
:104270003F80004000403F80200020003E0001C001
:10428000070038002000380007C03C0007C0380095
:104290000000204039C0060039C020400000200046
:1042A000384007C0384020000000304021C0264080
:1042B000384020C00000000000007FE04020402087
:1042C0000000000070000C000380004000000000AF
:1042D000402040207FE0000000000000200040005F
:1042E000200000000000001000100010001000105E
:1042F000001000000000400000000000000000006E
:1043000002800540054003C0004020003FC004403B
:104310000440038000000000038004400440064085
:10432000000000000380044024403FC00040000023
:1043300003800540054003400000000004401FC00A
:10434000244024402000000002E0055005500650A3
:10435000042020403FC00440040003C0004000008F
:10436000044027C0004000000000001000100410AE
:1043700027E00000000020403FC00140070004C0CB
:104380000440204020403FC000400040000007C0E3
:10439000040007C0040003C00000044007C004403C
:1043A000040003C000400000038004400440038078
:1043B0000000041007F004500440038000000000D7
:1043C00003800440045007F00010044007C002407E
:1043D000040004000000000006400540054004C041
:1043E0000000000004001F800440004000000400A2
:1043F00007800040044007C000400400070004C0DC
:10440000018006000400060001C0070001C006008C
:104410000000044006C0010006C004400000041073
:10442000071004E00180060004000000044005C0FD
:104430000640044000000000000004007BE0402033
:104440000000000000000000FFF00000000000007D
:1044500040207BE00400000000004000800040009D
:1044600020002000400000008844000800000020D8
:1044700010C9000038090008A85B000810C9002016
:10448000D0070000143000081200012005010203CB
:104490000404000A13060708090204060800016064
:1044A000051FCC000C0C50060800300060066009A7
:1044B0000000022003FC1E2006212C200B0E1811E8
:1044C000043FFF10840C783A200E0F0010840F3840
:1044D00000C0077818840012F015780F8410C411FA
:1044E000240E9800E4008400080800680070702022
:1044F0000907E01818200440027C4009400220040B
:10450000181807E01A200B0240024001800FF0014A
:10451000800A1150228002430FF80821D1B0050013
:104520000D000EBDB280021200CAB20C6D2008064A
:104530000018006001800721C1300D07F008081045
:10454000041004080807F0F010080408041FFC0019
:104550000402350C340C0E0C101410241044118479
:104560000E1410060C1810041102400412880CC915
:104570001008E00320042408243436243C20049846
:1045800010842030041088102011602288304318D5
:1045900088F930081C00100010FC13083540100684
:1045A0003811441084343404440E380C400A000896
:1045B0008C1044104408889021B3A004030C03C459
:1045C000A004010106F02601332210C625A0A10295
:1045D000217021DA340704100220014030152D200B
:1045E0000A1200100C106C10800F5A140EE00C18F8
:1045F00013E4142417C4082807D01E140A04003C2E
:1046000003C41C400740B0171C0018231FFCEE30E9
:104610000411040EC02130252E110213081CC121E3
:10462000204110454061301317C41272181018054C
:104630000017C0104491405006441C7800404026AA
:1046400084D42310844A2152615441FB1004000198
:10465000100234041FFE10304150400703801464E0
:10466000181C2E31364102420C8010041F00000439
:10467000614E14061FFC0C0403A61310186075EE9F
:10468000A1B0157E228002460FAE1618EE800824D7
:10469000101C080A07F2C0180511C011300011A043
:1046A000170E1CDC15B011C215B02618CE41B01182
:1046B0000C156E4004001FF890117A22F8B414050E
:1046C0001E0011E0F52404701380FA10071FC010BB
:1046D0003C00E0A22006E0103C1FC0A0200D180CFA
:1046E000163401C001C01634180C4648091C0013CA
:1046F0000400FC13042015BB10061C106410841069
:104700006804041018E31F7FFE17034E0230031ADB
:1047100030E11F0380A303161C2C3D400321028FB0
:104720007FFE110316206921023DAF03D2010281F1
:104730001A695020069801240144021E0006031144
:10474000D05809FC00880104010400C0190631108A
:10475000311291103F1108360340040000F83E1159
:10476000403EC87204111C4A0F443522300500D661
:104770000129022AC9C625A03300849511F62560B7
:104780009C0601041904198003290230060101194D
:104790000119D23130380924004001B4010C012242
:1047A00049306DB003118A12FC9C42000622000CB5
:1047B000D16011A05204C02EF84B0300051301FF75
:1047C0000085E012051A32010A21A221543D40035E
:1047D0001700CC204102669851320754510E4AF816
:1047E0008E1301087A31361F017084041F10017482
:1047F00004111E1008F0010C003001C004120C0C52
:1048000041B220088C00740170018CD011901C04FE
:10481000810171A503421830151012842A163454F0
:1048200011089D03046804003EFC022D85046BFF03
:10483000FF1C291A7C043EFC010F053E602B054934
:1048400000033120000110070F80380FFE380601E9
:10485000101B193F15C41D77031D0A0392310C7EEE
:10486000308D05200961800067F807F98009710320
:1048700071127DD1045C17C0E003E0F0063008043B
:1048800018081FFFFE040E080787F0038104061CAA
:104890000501F000067B032C090408060C7001F9E1
:1048A000C0EF051C073BE000EC1807D9041F0C18EB
:1048B000930431251EE0CA051C1803F818041C08CF
:1048C00004170807E1D003C0E00023B0003C080053
:1048D0002079047210B111A82E3286050124FD54EE
:1048E000117F0001FFC00780F00C001810000420A9
:1048F00000711109110F1115111B1121112701113F
:104900003C300542000066032E3C28041203273287
:10491000180C41155E425E07A103214BC11201260E
:10492000B6021B08038194623803011649320666F9
:104930002A70ED320E2F1EC09206211385D41C0959
:104940007F8001FFE003807049071E042F071300DA
:104950000809110F1115111B99A242080300071035
:1049600003FFF807FFF88E141601C03802C0580480
:104970000098040118040218040418061C18C2B890
:104980000401E0F81923C0F06615EC240C080806B1
:10499000180803F41801E7F0EF71B31DDE051805E0
:1049A0000D0000116D1008000081080301086F124E
:1049B0000F72160151716F1006E007FCD0064262BB
:1049C000100384091838060FF00607C0B0323FD82C
:1049D0001C0684300208184F07410390080718107E
:1049E000030FF0002736031119EB500C0600F806F0
:1049F00007F806180006E01259AF1C08E1E003F7BB
:104A0000F00634DB0529D023040C036009061618D0
:104A100003F3F001C1B7500CF80003FC3003063873
:104A200004020803080518041003084C53703803E7
:104A30000919AC080617301A00301C1F1C08140096
:104A4000002200004130081D87041D6B09740620F8
:104A5000040010088F021B21038D0C0A15EF1210A1
:104A60003C11421148214E32225A86081D1204037D
:104A70002D360A1C0D38080F380808380810000CAD
:104A800030E109211B75683A00403019020F100609
:104A9000708804C088048308047F8802C0900301E2
:104AA0002000FE40AF2E1849051C0D3E0801C20033
:104AB00007020007E20000FF052F1FC85E052D61F9
:104AC0000429763A0758491909171F45D4116C690A
:104AD000AC39B22007100600200780918148811E62
:104AE000A80518020010D001136C5B043EFA3E01C9
:104AF000180BC1245200034A3E286D3A0691905D7E
:104B00003C0335FE2C070203F00783F05B04B2027E
:104B100048AD1A042D5F0961A84DA90371B1D1C038
:104B2000CDCC0319991DA907410314080307FFFE03
:104B300007FFFC9E610365442F0C089B0418093E87
:104B40000004C7800503C8D9140404003808B568F8
:104B50000D116304113491FC1C05800807FC9B08AF
:104B60002C05C00003F8300323780012955C212443
:104B70001D0E041DF5083EE02506421E9E3005C0B0
:104B80000400F0D80D185C041D310705108C1DA71A
:104B90000B1D660961031D210611770F1001F0A49A
:104BA000041E88DA07130400D5040B113C03003EF1
:104BB00001FFE6007F84B01D60065C0E0F00040B51
:104BC000C00610F003F03801E07D051D8C04BC0622
:104BD00003F0300630CC033C080206180207F00749
:104BE0009F061D27050610065025892D060345FB47
:104BF0001D0F03440707FFE007FFF053ADF2051D4B
:104C00008403111B712D1D2703580707FE00041F85
:104C1000E0E81B01E043154C716321211FFFC05ADE
:104C20000A15621207052005FF80043F0C16047365
:104C30005E00B20C4D9105140707C07805F1C8D489
:104C4000440A001F800463E80780F85372006C1E5A
:104C500080770D1C0508047C08B20A1DC1081E00DF
:104C6000AD044FE008DA046E04C1052A06072007E8
:104C7000F80403E8040F2A100605F00807C02419F9
:104C8000BB0E1060EF061C043FFFFE1707A103AD2B
:104C90009E0619891D4B062DBC0325153EC05006E6
:104CA0003E0E42087DA60AB13C114E0D16CA0432D2
:104CB000103D322006BE10E00602210103716F2173
:104CC000037E101A08EDF9071010F00019F8001B08
:104CD000180022080026080024031710006B6B1F21
:104CE000F8FA45D71D69061C04F00018060C3D674C
:104CF0000811036C083018001FF0000FED041D09A7
:104D000003110F5318301E11211D91082D390D95D7
:104D10004141247338182450040410105AA19E41B4
:104D20004B30051230002296119990093208001E6E
:104D300010000E20D3213F1C0401FFF87407120657
:104D40004831034F0720190C5DCF0E300C000E6E5A
:104D5000001FF30031B10020034C0C3191001F13F0
:104D6000002E1E00200EE4074D17042D410721D50B
:104D7000615781FC7D570C51AE1004063FF8030DBE
:104D8000136E083D9C072E032F062103AC08030673
:104D90003FFE063FFC6E08816C2F0188C8073C0966
:104DA0002FC00038F8002038B409A208277DEC0491
:104DB0000E100F4C08419F623FB101100C4D34059D
:104DC000A127021510D81565360FB07630D11D1CFD
:104DD00005AF300004081DFE06233FFF03640610E4
:104DE00011002009F8061138F885D422092D321F48
:104DF0003649F4791041931D1911594339DD8D411C
:104E00000B1D7110100D78001E18003308002308C8
:104E100000210310078800219800305DBA60CB1193
:104E2000F917FFF0F8896AA146250B7C06F0007F90
:104E3000F80083043A20D09A7F64417B3E3CA1076E
:104E40001E23CC0F1DBF112005700023801262307D
:104E500063211E1D580B1D9E042C04E00027330601
:104E6000210F1E217A0522E00C9A2019200F3838D4
:104E7000003E680027800003C8002CF80F3A20E2AB
:104E8000816C140403003C4A8005830023EC69BF55
:104E900020008D0E3B38080D1C08F80023E8002F79
:104EA00088100831121D78060E1670E508AC071F31
:104EB000F7FC3000067D04DDD9038EFF2B0DBD3ECF
:104EC000091D74041139113FADD008AD15134DEE15
:104ED000063240036E207A044D97050E170C4704E6
:104EE0000182011D98113C08C007FFE1E007F0179F
:104EF00009025FC0714E20E2051D62061E00EA1025
:104F00002DE9070312001C1401527C53180C042FC6
:104F10000FE0BB10900403F80C1401191C054C722F
:104F20001C0480007803091C06FC0640010EF804EE
:104F30001C1A070020020380200FFFFFFC0201C0A3
:104F4000200200E0600130704001F00A0B0748F0D9
:104F50001F781D230B1DB4101F000374081C0B02C7
:104F6000008060030181C001FFBE0D2EFE9A121D5C
:104F700075091F03BF4E041DAE0E1C067180600133
:104F8000C190051B0180D11D730E0745003FF92517
:104F9000EE1D010A13FCC07811801C0B03E02002F7
:104FA00002782002061E30161207F01DA8121E01FC
:104FB000230C1C04011C605A091E20C5102104AEDC
:104FC00040200B09427C115E1F001CA5031A1F6CB8
:104FD0000E870F85031D33052DFD0519181DFE11C4
:104FE0001EE092142E30270D2D43041DC4080A46DE
:104FF00002FF214C2154215C2164216C398C217CDD
:10500000036407F8EC1D95111DD71641041E06E830
:10501000091A03671F6143F60D1EFFF61142431084
:10502000211861240F4D0C18810402148004031808
:105030007FFF1C0D48FD032DB51312E3041DB40EB4
:105040001D72143D4707096A6902358004054B81CA
:105050003EC091130E65007006D97E4DE7123DF1FA
:10506000043E80650C011D0F094E7E1E009F1A39FB
:105070006C1C04F0078047131EC07E181E60DD0FF5
:10508000622004211021181D3A1A3280280E510F77
:1050900098031E80F71781041C046001FFDB1211C6
:1050A000043D11164DA90961040950831E7874044A
:1050B0001E98C016130002F81204041208041210FD
:1050C000041220041C044060039C06130183941204
:1050D000FE280B4F7C077D35781EF068052D4D1C92
:1050E00025748201041E0388071C06018680400186
:1050F000A4062F0078DF110A4D1E7F5A08611E4852
:10510000F1081D21192D631D1E0C05131230041406
:1051100004400810881DA50B41041DFF05821004E2
:105120000D4D800810061F864003E1F01DE913D3E2
:105130000304041C09060040030301C003A5070C77
:10514000045103007EEC064EFCEC061C0970C38083
:10515000008180C00123132188A202041E03C41908
:105160001EC183131EC01406014E843EF089143DF7
:10517000E0032D131B1E03E9101E03B70C11F312DD
:1051800000FC4C04000318830661200D4CFD0A1D31
:10519000DC1B1E78E214200BFC60C0018EC04003B3
:1051A0000780EC197C5280041EC078091C06E04080
:1051B00001867028091D000A0F4C781F7C032DCB37
:1051C000091EFFF8091FC0C100031E606C0AA2205F
:1051D000042D800311182C06C18000C18F471C1DAF
:1051E000EB1F0E60F0810C2E0345181D2F132104B8
:1051F0000E6F0310062DAA171E66AE170E6B78846D
:10520000072DED0C6DE8082D10092D940C1E305D56
:10521000191DFE043F00C0DA1B3D9C040E4E043AEB
:105220000E2D4E0A013204014A831D75202DF00611
:105230003D5D1E11EC31F421FC2D6C0D2D1C0A6D11
:10524000140A25240D507C083DB9102D28184F0252
:1052500038590B1D27201D65161E7967151F81E023
:105260001B1E2EC00F201D8C043D0C041DA41D2DE3
:105270008D190D4CFC071E3F58031E70040E1DDED9
:10528000041C040101F804041C0AFC20021E042072
:105290000230083A231C0A3020023FFC20013F0460
:1052A000D8221E0C04081E31AC050E49C27A0F2DFF
:1052B000A5102D131D1E3EF7131D640D51071DF77C
:1052C000061D97052D06122D080E52FE093DA00958
:1052D0000D4B08087DE4085D7008AD7C078D8407E0
:1052E0001D411A1E86840E2D84075FF87F12100D53
:1052F0004D680D65801D11219E037C0961042D1CE4
:10530000083D9C0929A004045730060000D17C3DCB
:10531000FC09517C2D200A3D84050D49000A052217
:10532000802D8C103C04020FE0880A1DCE1C3EE04C
:10533000A003016080B200041DB3221E0387113D4B
:10534000A0070C0412C0000051180938004D80035A
:105350002D56230912001D8B1621041C044003C086
:1053600080071E30ED140D4503030510FC1DF407E6
:105370001104AD840E6114E9200D4E7307F978090C
:1053800015900D5182132D530D520F048301020409
:105390001D030A1F0006FC0A12FC0443F802A47154
:1053A000040D5880033AC0803D791419701C040024
:1053B00030F8960C1C063E2003800F00032E03A03D
:1053C000030F49E0020405051670021400045E6034
:1053D0008A0E0D507C0422E0081DF3232DE0091DE8
:1053E000E80B41FD5E1E1B06111C0B4FE00084B153
:1053F000801D780E1F03F07C0E5EFC17142D3E19E5
:105400003D9F1D1E7C04031F1F80D41F6D000309D8
:105410004B007D80075D7C0F7D040E0D11FC052E79
:105420000090140E5D3F80055DF0034E02FC037199
:10543000042DA4151D040F3DB41515130D517C103A
:105440001E037C102D00051E06EC211D7C08310476
:105450001206081F03E018271EF896091E5C80102C
:105460001E8CB61D0C06600C000FFC1800081D9465
:10547000161DA4251E0215271F030396211C048652
:1054800007E058271EE009230D5088101E78680B8E
:105490001C06FE01E00186E0071D680EED800D2D63
:1054A00014042E0184170C074C8070C003E03F8069
:1054B000089D580E0E1C0210083D9C0A2D840E0FEC
:1054C0004700E0F40541541D0D281DEC114FC002AA
:1054D000640CEDF0115220182280280D51800541F6
:1054E000842D800F1D071023023F092DD1252D6C1F
:1054F000112DD62D2D161A1E7800084C05C000025D
:105500003CA80F0D46040671781D67161E020404A0
:105510001C0402007FF4041E0F0C195005F0000358
:10552000EF182E0F71032D050B2C041F000296247B
:1055300086F8AC0D4B84051E805E034C0BF00320F7
:1055400002FC0C20021F3000051D891B1F021800E1
:10555000051F601F80060D507C06750465802D04B4
:105560000D1DEC051C04020FC068192DFC1315104D
:105570002DFC09121C144E7000110D4F80052D6F6B
:105580002C2E60DA141E0374111C040FA002880C68
:105590001C040200F8001B1D0C1A120F7C21903E07
:1055A0007880062660240E51028211FDCE301D74D3
:1055B000080D1AFE0E0D53741D6DD80A5E78ED1C91
:1055C000310D5EF0FA1C3DF4142D0D079F3C00399F
:1055D000280D49041A0D170610250C0D6677115D6C
:1055E0007C0F3D12154D1C2F41085D3D23094E785F
:1055F0006D7C19013A04054A8471045618040E633F
:1056000004ED122D641D1E8F85271C078C6000067B
:105610001820C23151042220041E4003083E408B52
:105620002C3D10047D880A0E4FC000061D00081E88
:105630000784061DFF2E1DE9051D41341D352A1D59
:105640005C3281041D84163D18143D9C0A0E4DFEEB
:10565000041B4E7EF40A2303817C11F4F17C1D159A
:10566000111FC0405E2C0D53021681801DE0161ED6
:10567000063D3591F81F020490083E027C07452044
:105680003D4F2231040151801E1165071B1040005F
:105690008A6008190C12060C1203181F01F08D29DC
:1056A0000E507170152DF503A5EC2C047FFFE080E2
:1056B0001A5E0188188202043D80062D2B150E4CBF
:1056C0000196221DC32E1FE33E09091C06C20002DB
:1056D0000CC33B30B2C1041C04060CC119221C06C9
:1056E000C30005F062C62D1A7E8C0E523C000B1DC5
:1056F00000033EE0E42029FC7606188A008421207D
:105700000F53FFE08C1BCE0470031F0387140E4E53
:105710008F980D0D5F001C7D7E2C3D07074D940575
:105720007204041E03BB2C12069012FC900C04544D
:10573000F80380F81075802F0008E7294D2D2A2DD9
:105740008F1F1F058E7F071C0507A0000631321E24
:1057500004C5260E5404081D0D1280114190055DEC
:10576000802D70031D532C13000F044D74058114FC
:10577000021503140D4A800D6DF40361846D00035E
:105780000E6A0200032D501C0D1D00062118212059
:105790000E4D01801C69E81DDD0515841D42361F74
:1057A00000C10007EE4190034D000702500180ED5B
:1057B0008006CE028006310421901203982D290E16
:1057C00021A80D4A0009E1E85A0F081D740F9D0C2D
:1057D0000569845D290B0D4F04091D412F1DFF35FF
:1057E0001F03E0F0081E30F80821049218041E0C74
:1057F000C0351F0C6011311D981C0F5583800007A8
:105800004DFD0A2D8E221E1FF8242D0C09F6048C46
:105810000D4CFC26A17C1D1B3015780E11C0F0210B
:1058200041781E0422224DA4030D4C840871802D62
:10583000EF0F1DE3201E0460132E04EA3A5E03906E
:10584000231D4B36430460200E4D06150B6E047667
:10585000064EC084202E04DC111D0A151F040FA65D
:105860003142F090251843040F8C4F043C980F01EF
:105870004C8865DC1E60CB3D1D95381E83791B1658
:10588000E6084EF8EF0D6C07045E200005878006E1
:105890000E4F6080064D7C091DF3203DF7201D70E2
:1058A0000712F804471F02112D7A332D2832C2380F
:1058B000F80D4E020F1E07582A2E065C07257C1D88
:1058C0006C071E04A33013043C041270FC1D941CCE
:1058D0001D1421151C2D180B5D86250D6918271D1B
:1058E000073F6C0507FE3FF878290E5310870E0D11
:1058F000177A2E0E62FF022861D82D5C2A21EC2136
:10590000F40D55E8270D12252F3D6A0992400452E7
:1059100020149E08F80F6D280E0E510C80271E06CD
:10592000E63B1E26E5161E4AE9161E5DED161E888C
:10593000F1161EB8F51612EE181E0B11151E4B7936
:10594000131E937D131EBA011B1E108F211E701F84
:10595000401EDC251C1E1629201297041006270560
:10596000000075041E20471612E0041EB8432D12D5
:1059700032481E64B11312C8240F1B2C076E120D7F
:10598000FF3C430DFF3C430DFF3C430DFF3C430DEB
:10599000FF3C430DFF3C430DFF3C430DFF3C430DDB
:1059A000FF3C430DFF3C430DFF3C430DFF3C430DCB
:1059B000FF3C430DFF3C430DFF3C430DFF3C430DBB
:1059C000FF3C430DFF3C430DFF3C430DFF3C430DAB
:1059D000FF3C430DFF3C430DFF3C430DFF3C430D9B
:1059E000FF3C430DFF3C430DFF3C430DFF3C430D8B
:1059F000FF3C430DFF3C430DFF3C430DFF3C430D7B
:105A0000FF3C430DFF3C430DFF3C430DFF3C430D6A
:105A1000FF3C430DFF3C430DFF3C430DFF3C430D5A
:105A2000FF3C430DFF3C430DFF3C430DFF3C430D4A
:105A3000FF3C430DFF3C430DFF3C430DFF3C430D3A
:105A4000FF3C430DFF3C430DFF3C430DFF3C430D2A
:105A5000FF3C430DFF3C430DFF3C430DFF3C430D1A
:105A6000FF3C430DFF3C430DFF3C430DFF3C430D0A
:105A7000FF3C430DFF3C430DFF3C430DFF3C430DFA
:105A8000FF3C430DFF3C430D733C430D1E9C440DF6
:105A9000FFD8420DFFD8420DFFD8420DFFD8420D6E
:105AA000FFD8420DFFD8420DFFD8420DFFD8420D5E
:105AB000FFD8420DFFD8420DFFD8420DFFD8420D4E
:105AC000FFD8420DFFD8420DFFD8420DFFD8420D3E
:105AD000FFD8420DFFD8420DFFD8420DFFD8420D2E
