:020000040800F2
:10000000F804002045010008AD100008D10E0008DA
:10001000A9100008BD0B00089D1800080000000092
:10002000000000000000000000000000ED130008C8
:10003000C10B000800000000051200084915000867
:100040005F0100085F0100085F0100085F01000810
:100050005F0100085F010008C30B00085F01000892
:10006000D50B0008F90B0008190C00085F01000807
:100070005F0100085F0100085F0100085F010008E0
:100080005F0100085F010008F50400085F01000837
:100090005F0100085F0100085F0100085F010008C0
:1000A0005F0100085F0100085F0100085F010008B0
:1000B0005F0100085F0100085F0100085F010008A0
:1000C0005F0100085F0100085F0100085F01000890
:1000D0005F010008D51700085F0100085F010008F4
:1000E0005F0100085F0100085F0100085F01000870
:1000F0005F0100085F0100085F0100085F01000860
:100100005F0100085F0100085F0100085F0100084F
:100110005F0100085F010008AD1500085F010008DD
:100120005F0100085F0100085F0100085F0100082F
:10013000DFF80CD000F0CCF9004800471319000894
:10014000F80400200648804706480047FEE7FEE71F
:10015000FEE7FEE7FEE7FEE7FEE7FEE7FEE7FEE777
:100160004D1500083101000830B480EA010202F0A8
:10017000004530F0004221F0004013D090B1C30D93
:10018000D40DC2F31601C0F31600E41A41F40001C5
:1001900040F400027D34914201D3641C00E0490028
:1001A000002C02DA30BC002070474FF4000000231E
:1001B000914201D3891A034340084FEA4101F7D124
:1001C00051B1914202D14FF0004105E002D24FF00F
:1001D000010101E06FF0010103EBC450284430BC81
:1001E00000F0E2B82DE9FE4F81EA030404F0004478
:1001F00021F0004100944FF0000B23F0004350EA3F
:1002000001045ED052EA03045BD0C3F30A54C1F385
:100210000A552C44A4F2F3340194A0FB0254C1F318
:10022000130141F48011C3F3130343F4801301FB62
:10023000024400FB034E840A970A44EA815447EAC9
:100240008357A4FB076802958D0A05FB07854FEAD3
:10025000932C04FB0C542705029D4FEA065847EAED
:100260001637B5EB08056EEB070C870E920E47EAC2
:10027000811742EA8312A7FB0201B6EB0B0164EB84
:1002800000042B0D43EA0C335E1844EB1C50DA4695
:100290005146E7FB0201C5F313044FEA0B3343EA6F
:1002A00014534FEA0432019C43EA0603A4F10C0400
:1002B0000294009CCDE900B400F0BCF803B0BDE8A6
:1002C000F08F00200146F9E7C10F80EAE070084492
:1002D000CA079623002100F070B896230022114629
:1002E00000F06BB820F00040C10DC0F3160040F4E0
:1002F00000007F2901DA00207047962903DCC1F154
:100300009601C840704796398840704700F0004217
:1003100030F000400AD0C10D01F56071C0F3160045
:1003200042EA0151C20840071143704700200146CC
:10033000704701F0004330B421F0004150EA01025F
:1003400006D00A0DA2F56072C1F31301002A02DC87
:1003500030BC00207047440F44EAC104C100E018DB
:1003600030BC00EBC25000F01FB8202A04DB203A5A
:1003700000FA02F1002070479140C2F1200320FAF8
:1003800003F3194390407047202A04DB203A21FAF6
:1003900002F00021704721FA02F3D040C2F120029E
:1003A00091400843194670470029A8BF7047401C78
:1003B000490008BF20F00100704710B4B0FA80FC7B
:1003C00000FA0CF050EA010404BF10BC704749B1B8
:1003D000CCF1200421FA04F411FA0CF118BF012128
:1003E00021430843A3EB0C01CB1D4FEA00614FEA08
:1003F000102042BF002010BC704700EBC3501044D7
:100400000029A4BF10BC7047401C490008BF20F061
:10041000010010BC704710B5141E73F1000408DA17
:10042000401C41F1000192185B411A4301D120F0B8
:10043000010010BD2DE9F04D92469B4611B1B1FA75
:1004400081F202E0B0FA80F220329046FFF78DFF91
:1004500004460F4640EA0A0041EA0B0153465A4659
:10046000084313D0114653EA010019D0C8F14002E5
:100470005046FFF789FF05460E465046594642460C
:10048000FFF773FF084305D0012004E020463946FA
:10049000BDE8F08D0020054346EAE0762C43374363
:1004A0000A986305E40AA0EB08000022FD0A44EA6A
:1004B00047540A3002D500200146E9E7010510192A
:1004C0006941DDE9084500196941BDE8F04DA2E741
:1004D000064C074D06E0E06840F0010394E8070091
:1004E00098471034AC42F6D3FFF726FE9C1900085B
:1004F000BC1900082DE9F0474FF40871134800F0CB
:1005000034F801281AD1114800F02BF881464846EA
:10051000FFF7E3FE82464FF08B41FFF725FE0446CE
:10052000FFF7F4FE07464FF06632094BFFF75AFE1D
:100530000546FFF7FEFE0749086000BF4FF408714B
:10054000024800F009F8BDE8F087000000240140EF
:1005500066660A407400002000220A12D34303603A
:1005600070470146C86C80B2704770B502460020E3
:10057000002300240B125568CEB205EA0604156864
:100580001D4015B10CB1012000E0002070BD00003D
:100590000EB50121022000F037FE40F2E730ADF841
:1005A00004004720ADF800000020ADF802006946C5
:1005B000034801F099F80021014801F026F80EBD2A
:1005C000000800400EB50121042000F01DFE0020AF
:1005D000ADF80400ADF80000ADF80200694604482B
:1005E00001F082F80121024801F00FF80EBD000071
:1005F000000800400EB50121102000F005FE40F279
:10060000E730ADF804004720ADF80000694608481F
:1006100001F06AF801221146054801F002F80121B3
:10062000034800F0EFFF0121014800F0EEFF0EBD8E
:100630000010004010B586B0044694B9012108208E
:1006400000F0F2FD4FF48070ADF8140010208DF82A
:10065000170003208DF8160005A9184800F094FB38
:1006600029E0012C27D10121092000F0DDFD200225
:10067000ADF8140018208DF8170003208DF816002F
:1006800005A90E4800F080FBFFF79CFF6020ADF845
:1006900004000120ADF806001E20ADF80A0002207B
:1006A000ADF80C0001A9064800F0C4FF0821044879
:1006B00001F010F800BF06B010BD0000000C0140B2
:1006C0000008004010B5012200210C2000F05EFA65
:1006D000012200210F2000F059FA002211460F20BC
:1006E00000F054FA002211460E2000F04FFA0022CA
:1006F0001146102000F04AFA002211460F2000F0A7
:1007000045FA002211460C2000F040FA0022114662
:100710000A2000F03BFA022200210D2000F036FAF8
:10072000012200210B2000F031FA00221146104670
:1007300000F02CFA002211460D2000F027FA0122C9
:100740000021102000F022FA012200210F2000F0E9
:100750001DFA002211460E2000F018FA0022114660
:100760000D2000F013FA002211460C2000F00EFAC2
:10077000002211460B2000F009FA022200210A2073
:1007800000F004FA012200210A2000F0FFF9012202
:1007900000210C2000F0FAF9012200210F2000F0C6
:1007A000F5F9012200210E2000F0F0F90022114697
:1007B000102000F0EBF9002211460F2000F0E6F9BE
:1007C000002211460C2000F0E1F9002211460A2017
:1007D00000F0DCF9022200210D2000F0D7F9002200
:1007E00011460B2000F0D2F9002211460D2000F036
:1007F000CDF900221146102000F0C8F90022114660
:100800000F2000F0C3F9012200210E2000F0BEF9F4
:1008100001220021102000F0B9F90122002112204C
:1008200000F0B4F9012200210E2000F0AFF90222FD
:1008300000210F2000F0AAF9002211460F2000F03D
:10084000A5F900221146104600F0A0F90022114639
:10085000112000F09BF900221146102000F096F9BB
:10086000022200210E2000F091F9002211460D20F5
:1008700000F08CF9002211460E2000F087F90022CA
:1008800011460F2000F082F9002211460D2000F0E1
:100890007DF9022200210E2000F078F90022114695
:1008A0000C2000F073F9002211460C2000F06EF9C4
:1008B000002211460B2000F069F9002211460C209D
:1008C00000F064F9012200210D2000F05FF90122FF
:1008D00000210D2000F05AF901220021102000F023
:1008E00055F9012200210F2000F050F902220021C9
:1008F0000E2000F04BF9002211460E2000F046F9C0
:1009000000221146104600F041F90122002110207A
:1009100000F03CF901220021102000F037F90122FB
:1009200000210E2000F032F9002211460C2000F0C8
:100930002DF9002211460C2000F028F90022114662
:100940000B2000F023F9002211460C2000F01EF9C4
:1009500002220021112000F019F9002211460F2077
:1009600000F014F9002211460D2000F00FF90022CA
:1009700011460E2000F00AF9002211460F2000F067
:1009800005F9012200210E2000F000F901220021CA
:10099000102000F0FBF8012200210F2000F0F6F8F3
:1009A000012200210D2000F0F1F8022200210C208C
:1009B00000F0ECF8002211460C2000F0E7F80022CD
:1009C0001146104600F0E2F800221146112000F016
:1009D000DDF800221146102000F0D8F80222002194
:1009E0000F2000F0D3F8012200210C2000F0CEF8F7
:1009F000012200210A2000F0C9F8022200210D2066
:100A000000F0C4F8002211460B2000F0BFF80022CD
:100A10001146104600F0BAF800221146102000F0EE
:100A2000B5F8002211460F2000F0B0F80222002194
:100A3000152000F0ABF8012200210D2000F0A6F8EF
:100A4000012200210C2000F0A1F8022200210C203C
:100A500000F09CF8002211460C2000F097F80022CC
:100A60001146104600F092F8012200210C2000F0FF
:100A70008DF802220021112000F088F801220021C7
:100A8000102000F083F8012200210C2000F07EF8F5
:100A9000022200210F2000F079F8012200210E200F
:100AA00000F074F8012200210E2000F06FF80122FE
:100AB00000210D2000F06AF8012200210C2000F036
:100AC00065F8012200210D2000F060F801220021CC
:100AD000102000F05BF802220021102000F056F8F0
:100AE00000221146102000F051F800221146104655
:100AF00000F04CF800221146112000F047F80022C7
:100B00001146102000F042F8022200210F2000F0D0
:100B10003DF8012200210C2000F038F801220021CC
:100B20000A2000F033F8022200210D2000F02EF8F8
:100B3000002211460B2000F029F800221146104631
:100B400000F024F800221146102000F01FF80022C7
:100B500011460F2000F01AF8022200210E2000F0AA
:100B600015F8012200210D2000F010F801220021CB
:100B70000A2000F00BF802220021112000F006F8F4
:100B800002220021112000F001F810BD70B50446CA
:100B90000E461546074951F8240000F0BBFC0649F3
:100BA00031F8251088B200F090FE002000F0B2FC71
:100BB00070BD0000040000205C00002000BFFEE7C4
:100BC000704710B5012000F055F8012000F04CF8F6
:100BD00010BD000010B5042000F04CF848B104210D
:100BE000044800F077F908B1FFF76CFD042000F02D
:100BF0003BF810BD0018014010B5082000F03AF88D
:100C000030B10821034800F065F9082000F02CF805
:100C100010BD00000018014010B5102000F02AF8A7
:100C2000E0B10F48006820B901210E4800F0EDFC4A
:100C300011E00B480068B0F5FA7F0CDC002000F0F2
:100C4000A5FD012000F0A2FD0021064800F0DDFC1A
:100C5000002003490860102000F006F810BD0000D5
:100C60006C0000200010004001490860704700003F
:100C700014040140014600200022074B1B6803EAD0
:100C80000102054B14331B680B4013B10AB101205C
:100C900000E00020704700000004014000212349CB
:100CA0008279002A3AD00A46126803689A430B46B2
:100CB0001A600A1D126803689A430B1D1A600279B4
:100CC00011440A6803681A430A60184A0832126815
:100CD00003689A43154B08331A601A1D126803689B
:100CE0009A43124B0C331A604279102A0ED11A1F04
:100CF000126803681A430D4B08331A601A1D1268F4
:100D000003681A43094B0C331A600DE00749427916
:100D100011440A6803681A430A6005E00279114425
:100D20000A6803689A430A607047000000040140A3
:100D300010B50121412000F077FA0421084600F0A7
:100D400003F800F0B4F910BD30B500228B071C0F7A
:100D50000F2303FA04F20B4B8C1053F82430934307
:100D6000084C8D1044F8253023468C1053F824305D
:100D70008C07240F00FA04F42343024C8D1044F82E
:100D8000253030BD080001402DE9F0410246002524
:100D90000026002000230024002791F803C00CF057
:100DA0000F0591F803C00CF0100CBCF1000F03D03C
:100DB00091F802C04CEA050591F800C0BCF1000FA3
:100DC00031D0146800202BE04FF0010C0CFA00F336
:100DD000B1F800C00CEA03069E4220D183004FF018
:100DE0000F0C0CFA03F7BC4305FA03FC4CEA0404AD
:100DF00091F803C0BCF1280F06D14FF0010C0CFA9A
:100E000000FCC2F814C00AE091F803C0BCF1480F1E
:100E100005D14FF0010C0CFA00FCC2F810C0401CC8
:100E20000828D1D31460B1F800C0BCF1FF0F34DD45
:100E3000546800202EE000F1080C4FF0010808FA79
:100E40000CF3B1F800C00CEA03069E4221D18300E6
:100E50004FF00F0C0CFA03F7BC4305FA03FC4CEA05
:100E6000040491F803C0BCF1280F05D100F1080C6F
:100E700008FA0CF8C2F8148091F803C0BCF1480FCE
:100E800007D100F1080C4FF0010808FA0CF8C2F87D
:100E90001080401C0828CED35460BDE8F081024683
:100EA000002093680B400BB1012000E00020704748
:100EB00002460020D3680B400BB1012000E0002067
:100EC0007047416170470AB1016100E041617047BC
:100ED00000BFFEE770B504460D4629462046FFF7E1
:100EE000E7FF01281BD1072000F0EFFC2946204630
:100EF000FFF7DEFF012808D129462046FFF7CFFF84
:100F000008B9012070BD0020FCE729462046FFF704
:100F1000CFFF20B929462046FFF7C1FFF2E70020A6
:100F2000F0E700000EB50121452000F07DF910200A
:100F3000ADF8080048208DF80B0003208DF80A005A
:100F400002A94148FFF720FF012210213E48FFF788
:100F5000BAFF04210846FFF7F7FE1020009000209A
:100F60008DF8040010208DF8050001208DF8060092
:100F70006846FFF793FE0820ADF8080048208DF87A
:100F80000B0003208DF80A0002A92F48FFF7FCFE92
:100F9000012208212C48FFF796FF03210420FFF7C8
:100FA000D3FE0820009000208DF804000C208DF85E
:100FB000050001208DF806006846FFF76FFE04204B
:100FC000ADF8080048208DF80B0003208DF80A00CA
:100FD00002A91D48FFF7D8FE012204211A48FFF795
:100FE00072FF02210420FFF7AFFE042000900020D2
:100FF0008DF804000C208DF8050001208DF8060006
:101000006846FFF74BFE0120ADF8080028208DF858
:101010000B0003208DF80A0002A90C48FFF7B4FE6C
:1010200000210846FFF790FE0120009000208DF877
:10103000040008208DF8050001208DF806006846A0
:10104000FFF72CFE0EBD0000001801400008014013
:1010500008B50121482000F0E7F82020ADF8000095
:1010600010208DF8030003208DF8020069460C481B
:10107000FFF78AFE20210A48FFF723FF2020ADF862
:10108000000010208DF8030003208DF8020069464F
:101090000448FFF779FE20210248FFF712FF08BD40
:1010A000000C01400018014000BFFEE7704708B582
:1010B0004FF4A06000F09CF80A208DF80000022098
:1010C0008DF801008DF8020001208DF803006846BC
:1010D00000F056F809208DF8000002208DF801007C
:1010E0008DF8020001208DF80300684600F048F8F2
:1010F00008208DF8000002208DF801008DF8020014
:1011000001208DF80300684600F03AF806208DF8BB
:10111000000002208DF801008DF8020001208DF8FA
:101120000300684600F02CF825208DF8000003200D
:101130008DF801008DF8020001208DF8030068464B
:1011400000F01EF836208DF8000002208DF8010016
:1011500003208DF8020001208DF80300684600F09E
:101160000FF812208DF8000001208DF801008DF895
:1011700002008DF80300684600F002F808BD000088
:1011800070B5002100230F22C47804B3154C2468E5
:1011900004F4E064C4F5E064210AC1F10403CA4028
:1011A000447804FA03F184781440214309010E4C79
:1011B0000678A155047804F01F050124AC40057899
:1011C0006D11AD0005F1E025C5F8004109E0047896
:1011D00004F01F050124AC40044D0678761145F853
:1011E000264070BD0CED00E000E400E080E100E08E
:1011F00002490143024A1160704700000000FA05ED
:101200000CED00E07047000029B1064AD2690243A4
:10121000044BDA6104E0034AD2698243014BDA618C
:10122000704700000010024029B1064A926902434B
:10123000044B9A6104E0034A92698243014B9A612C
:1012400070470000001002400F48006840F00100A5
:101250000D490860084640680C4908400A49486042
:10126000084600680A4908400749086008460068BF
:1012700020F4802008600846406820F4FE004860A2
:101280004FF41F0088607047001002400000FFF814
:10129000FFFFF6FE10B501460022002300204A1190
:1012A000012A02D1094C236806E0022A02D1074C28
:1012B000236A01E0054C636A01F01F020124944097
:1012C0001C400CB1012000E0002010BD00100240C5
:1012D0000248406800F00C00704700000010024017
:1012E00001460020034A506820F0F0000843506097
:1012F00070470000001002401149096821F4803154
:101300000F4A11601146096821F480211160B0F57F
:10131000803F03D0B0F5802F0ED106E00849096860
:1013200041F48031064A116007E00549096841F43B
:10133000A021034A116000E000BF00BF7047000019
:101340000010024001460020034A506820F4E0608B
:101350000843506070470000001002400146002022
:10136000034A506820F4605040EAC1005060704762
:101370000010024001490866704700000000424228
:1013800002460020044B586820F47C1042EA010316
:101390001843014B5860704700100240014600207E
:1013A000034A506820F00300084350607047000073
:1013B0000010024038B5002000900024002500BF36
:1013C0003120FFF767FF05460098401C0090009809
:1013D000B0F5A06F01D0002DF2D03120FFF75AFFF9
:1013E00008B1012400E00024204638BD7047000009
:1013F000FEB504460B4890FBF4F63046FEF764FF5A
:1014000005462846FEF76EFF80B2ADF8040047207F
:10141000ADF800000020ADF802006946024800F077
:1014200063F9FEBD40420F000008004010B500F017
:1014300001F810BD0CB50020019000903348006801
:1014400040F480303149086000BF3048006800F443
:10145000003000900198401C0190009818B9019844
:10146000B0F5A06FF1D12948006800F4003010B148
:101470000120009001E0002000900098012843D155
:101480002348006840F010002149086008460068C1
:1014900020F0030008600846006840F00200086081
:1014A0001A4840681949486008464068486008463C
:1014B000406840F4806048600846406820F47C1032
:1014C00048600846406840F4E810486008460068F4
:1014D00040F08070086000BF0C48006800F00070A9
:1014E0000028F9D00948406820F003000749486007
:1014F0000846406840F00200486000BF034840686A
:1015000000F00C000828F9D10CBD000000100240CA
:101510000020024010B504462046FFF769FF10BDC9
:10152000042808D14FF0E021096941F004014FF08F
:10153000E022116107E04FF0E021096921F0040188
:101540004FF0E022116170477047000010B513485A
:10155000006840F0010011490860084640681049E1
:1015600008400E494860084600680E4908400B498B
:1015700008600846006820F480200860084640683B
:1015800020F4FE0048604FF41F008860FFF74EFF14
:101590004FF000600449086010BD000000100240D8
:1015A0000000FFF8FFFFF6FE08ED00E010B512485E
:1015B0000068401C1049086008460068B0F5167FB6
:1015C00019DD10210D48FFF785FC50B1012000F016
:1015D000DDF800210A4800F018F8002006490860EC
:1015E00009E0002000F0D2F80021054800F00DF8D5
:1015F00000200149086010BD6C0000200018014067
:1016000000100040CA430282704721B1028842F0B4
:101610000102028004E002884FF6FE731A40028045
:1016200070471AB183890B43838102E083898B431E
:101630008381704770B5002400220023058C4FF68B
:10164000FF6635400584028C8388848B4FF68F7546
:101650002C404FF6FC752C400D882C434FF6FF555F
:101660002A400D894FF6FF7606EA05252A434D8864
:1016700006EA05252A43154DA84202D0144DA8427A
:101680001DD14FF2FF752A404D894FF6FF7606EACD
:1016900005252A434FF6FF352A408D8806EA0525A1
:1016A0002A434EF6FF752B404DF6FF752B408D8972
:1016B00006EA05152B43CD8906EA05152B438380E1
:1016C0008483CD888587028470BD0000002C014092
:1016D000003401400A460021818B4FF6F773194010
:1016E0001143818370470000002202881D4B9842FD
:1016F0000ED01D4B98420BD0B0F1804F08D01B4B41
:10170000984205D01A4B984202D01A4B984204D105
:101710004FF68F731A404B881A43174B984207D0E5
:10172000164B984204D04FF6FF431A40CB881A4319
:1017300002808B8883850B8803850A4B98420BD0E7
:10174000094B984208D00E4B984205D00D4B984259
:1017500002D00D4B984201D10B7A0386012383827C
:1017600070470000002C014000340140000400409C
:1017700000080040000C0040001000400014004031
:101780000040014000440140004801402DE9F04183
:10179000064616B1012E06D102E00C4C202504E0CD
:1017A0000B4C202501E0BDE8F08100BF2946204612
:1017B000FFF77EFB08B9012000E0002007463A460B
:1017C00029462046FFF77FFB00BFECE7000C0140F5
:1017D0000018014010B540F225510E4800F02FF8D6
:1017E000B8B10C4800F055F8C1B20B480288008827
:1017F000401C094B18800948815440F22551054886
:1018000000F00EF804480088802802DB002002491E
:10181000088010BD00380140000000207800002042
:1018200010B50022002340F66A14A14200D100BF87
:101830000A1201249440A3B2DC43048010BD70B5A9
:101840000246002400230025002040F66A16B1421B
:1018500000D100BFC1F3421501F01F03012606FAB3
:1018600003F3012D02D19689334006E0022D02D107
:10187000168A334001E0968A33400C12012606FA9C
:1018800004F41688344013B10CB1012000E00020AC
:1018900070BD01468888C0F30800704700BFFEE7AE
:1018A00002E008C8121F08C1002AFAD17047704729
:1018B000002001E001C1121F002AFBD1704710B5C2
:1018C0006FF00400FFF72CFE10BD014642F22832F3
:1018D0004A434FF0E0235A6100229A611A46126986
:1018E00042F001021A6100BF4FF0E022106900F0DF
:1018F00001021AB100F48032002AF5D04FF0E02244
:10190000126922F001024FF0E0231A6100229A616D
:10191000704700F013F8FFF79BFBFFF703FB012074
:10192000FEF788FEFFF7CBFFFEF732FEFEF74AFE1A
:10193000FEF760FEFFF7FCF900BFFEE710B5FFF70A
:1019400083FC4FF48030FFF7D7FC0020FFF7C8FC82
:101950000020FFF703FD4FF48060FFF7F3FC4FF426
:10196000E0114FF48030FFF70BFD0120FFF702FD7F
:10197000FFF720FD012801D0002010BD00BF392055
:10198000FFF788FC0028FAD00220FFF707FD00BF10
:10199000FFF79EFC0828FBD10120EEE7BC190008E8
:1019A0000000002078000000A0180008341A000889
:1019B0007800002080040000B0180008000000003B
:1019C0000000000006010000260100004A0100009E
:1019D0005D01000088010000B8010000EE01000078
:1019E0000B0200004B02000093020000BA0200004C
:1019F0001003000070030000DC0300001604000068
:101A0000970400002705000075050000200600006F
:101A1000E0060000B8070000320100006402000088
:101A2000C80400002C0700000000000000000000B7
:041A300000000000B2
:0400000508000131BD
:00000001FF
