:020000040800F2
:10000000088E002045010008DD1F00084118000887
:10001000D91F00089D130008B72E0008000000003B
:10002000000000000000000000000000672400083D
:10003000A11300080000000031210008C1250008BC
:100040005F0100085F0100085F01000865240008E7
:100050005F0100085F010008D11300085F0100087C
:10006000E113000811140008511400085F01000892
:100070005F0100085F0100085F0100085F010008E0
:100080005F0100085F010008A50A00085F01000881
:100090005F0100085F0100085F0100085F010008C0
:1000A0005F0100085F0100085F0100085F010008B0
:1000B0005F0100085F0100085F0100085F010008A0
:1000C0005F0100085F0100085F0100085F01000890
:1000D0005F010008692B00085F0100085F0100084C
:1000E0005F0100085F0100085F0100085F01000870
:1000F0005F0100085F0100085F0100085F01000860
:100100005F0100085F0100085F0100085F0100084F
:100110005F0100085F010008412900085F01000835
:100120005F0100085F0100085F0100085F0100082F
:10013000DFF80CD000F074FC00480047B53D000823
:10014000088E00200648804706480047FEE7FEE785
:10015000FEE7FEE7FEE7FEE7FEE7FEE7FEE7FEE777
:10016000C525000831010008F0B480EA0102D40F6F
:100170004200B2EB410F02D20246084611464A0045
:1001800042D0C30DDDB2C1F3C752AD1A202D35DA0E
:10019000C1F3160141F4000204B15242C5F1200638
:1001A00002FA06F12A411044B3EBD05F23D0C4B168
:1001B000012DA0EBC35009DCF0BC4FF0004202EA75
:1001C000C352DBB200F5000000F02FBB400000F18D
:1001D000807000EBC350A0F1807040EAD1704900FC
:1001E00009E0490841EAC071A0EBC35000F50000E6
:1001F000400800EBC350F0BC00F00EBB614201228E
:1002000002EB4101001BF6E7F0BC704781F00041B2
:10021000AAE780F00040A7E780EA010210B502F0EB
:100220000043400022D04A001FD0010E01EB1261B2
:10023000C0F35600C2F3560240F4000042F400023C
:10024000A0FB022000047F39140400D0401C50EAB7
:10025000124001D44000491EC2B20C0604EBD0107B
:10026000401C4008802A02D003E0002010BD20F08E
:100270000100002900DA0020184310BD30B480EAE4
:10028000010202F0004530F0004221F0004013D09E
:1002900090B1C30DD40DC2F31601C0F31600E41AD9
:1002A00041F4000140F400027D34914201D3641C0A
:1002B00000E04900002C02DA30BC002070474FF407
:1002C00000000023914201D3891A034340084FEAFA
:1002D0004101F7D151B1914202D14FF0004105E007
:1002E00002D24FF0010101E06FF0010103EBC450B5
:1002F000284430BC00F090BA2DE9FE4F804681EAD8
:100300000300C00F0C46009021F0004123F000458F
:10031000B8EB0200A94105D24046214690461C4652
:100320000B46024623F00040104347D0270DC7F389
:100330000A00C3F30A510290401A019040286BDA78
:10034000C3F3130040F4801B0098924620B10023B1
:10035000D2EB030A63EB0B0B01985946C0F1400244
:10036000504600F028FA06460D4650465946019A76
:1003700000F040FA10EB08006141002487EA1152B6
:1003800084EAE7731A4340D0009A62B3019A012AC3
:100390004FEA075215DC001B61EB02014FF00042EF
:1003A00002EA0752CDE90042001C41F580113246B5
:1003B0002B4600F077FA03B0BDE8F08F40462146A7
:1003C000F9E7001B61EB0201001C41F580130018E6
:1003D0005B412018A2F5001747EB030140EAD570F6
:1003E000B6196D4111E06D084FEA360645EAC07551
:1003F0004FEA0752001B61EB0201001C41F580111E
:1004000049084FEA30000019514132462B4603B0EB
:10041000BDE8F04F00F037BA0098012240000023F9
:10042000D0EB020263EBE073009821464FEAE074E0
:10043000B8EB000061EB0401E9E783F000435BE700
:1004400081F0004158E72DE9FE4F81EA030404F0F2
:10045000004421F0004100944FF0000B23F00043D2
:1004600050EA01045ED052EA03045BD0C3F30A549D
:10047000C1F30A552C44A4F2F3340194A0FB0254B6
:10048000C1F3130141F48011C3F3130343F4801348
:1004900001FB024400FB034E840A970A44EA81549C
:1004A00047EA8357A4FB076802958D0A05FB078579
:1004B0004FEA932C04FB0C542705029D4FEA065883
:1004C00047EA1637B5EB08056EEB070C870E920E60
:1004D00047EA811742EA8312A7FB0201B6EB0B0140
:1004E00064EB00042B0D43EA0C335E1844EB1C5004
:1004F000DA465146E7FB0201C5F313044FEA0B331A
:1005000043EA14534FEA0432019C43EA0603A4F180
:100510000C040294009CCDE900B400F0C3F903B0D0
:10052000BDE8F08F00200146F9E72DE9F04D81EAA2
:10053000030404F0004B21F0004514464FF0000A7C
:1005400023F0004150EA050220D054EA01021DD0F8
:10055000C5F30A570246C5F31303C1F31300C1F3F1
:100560000A5640F4801543F48013A7EB0608101BCD
:10057000D64608F2FD3873EB050002D308F10108F6
:1005800001E092185B41B8F1000F03DA0020014648
:10059000BDE8F08D00204FF48011064684460EE041
:1005A000171B73EB050705D3121B63EB050306430B
:1005B0004CEA010C49084FEA300092185B4150EABE
:1005C0000107EDD152EA030012D082EA040083EA67
:1005D0000501084305D0101BAB4106D201220023C0
:1005E00006E000224FF0004302E06FF001025310DA
:1005F0001AEB06004CEB085110EB0A0041EB0B0123
:10060000BDE8F04D00F03FB9C10F80EAE07008444A
:10061000CA079623002100F008B99623002211464C
:1006200000F003B90EB540F2334102910021CDE94B
:1006300000110A460B4600F035F903B000BD00F08A
:10064000004220F00040C10DC0F3160040F400004D
:100650007F2901DA00207047962903DCC1F1960159
:10066000C84001E096398840002AF4D040427047E3
:1006700020F00040C10DC0F3160040F400007F29B7
:1006800001DA00207047962903DCC1F19601C840C9
:100690007047963988407047C1F30A5210B5C1F3CC
:1006A000130140F2FF3341F480119A4201DA002035
:1006B00010BD40F233439A42A2F2334203DC52426D
:1006C00000F088F810BD904010BD00F0004230F0FE
:1006D00000400AD0C10D01F56071C0F3160042EA76
:1006E0000151C2084007114370470020014670477E
:1006F00001F0004330B421F0004150EA010206D07D
:100700000A0DA2F56072C1F31301002A02DC30BCAD
:1007100000207047440F44EAC104C100E01830BC17
:1007200000EBC25000F078B830B50B46014600200F
:100730002022012409E021FA02F59D4205D303FAA3
:1007400002F5491B04FA02F52844151EA2F1010224
:10075000F1DC30BD2DE9F05F0546002092469B4656
:1007600088460646814640241BE0284641464746C7
:10077000224600F02FF853465A46C01A914110D332
:1007800011461846224600F016F82D1A67EB0108AC
:100790004F4622460120002100F00DF817EB00091A
:1007A0004E41201EA4F10104DFDC484631462A46B2
:1007B0004346BDE8F09F202A04DB203A00FA02F10C
:1007C000002070479140C2F1200320FA03F319433F
:1007D00090407047202A04DB203A21FA02F00021E1
:1007E000704721FA02F3D040C2F120029140084341
:1007F00019467047202A06DBCB17203A41FA02F04F
:1008000043EAE07306E041FA02F3D040C2F120026D
:1008100091400843194670470029A8BF7047401C03
:10082000490008BF20F00100704710B4B0FA80FC06
:1008300000FA0CF050EA010404BF10BC704749B143
:10084000CCF1200421FA04F411FA0CF118BF0121B3
:1008500021430843A3EB0C01CB1D4FEA00614FEA93
:10086000102042BF002010BC704700EBC350104462
:100870000029A4BF10BC7047401C490008BF20F0ED
:10088000010010BC704710B5141E73F1000408DAA3
:10089000401C41F1000192185B411A4301D120F044
:1008A000010010BD2DE9F04D92469B4611B1B1FA01
:1008B00081F202E0B0FA80F220329046FFF77BFF2F
:1008C00004460F4640EA0A0041EA0B0153465A46E5
:1008D000084313D0114653EA010019D0C8F1400271
:1008E0005046FFF777FF05460E46504659464246AA
:1008F000FFF761FF084305D0012004E02046394698
:10090000BDE8F08D0020054346EAE0762C433743EE
:100910000A986305E40AA0EB08000022FD0A44EAF5
:1009200047540A3002D500200146E9E701051019B5
:100930006941DDE9084500196941BDE8F04DA2E7CC
:1009400070B521F0004303430CD0C1F30A550024D5
:10095000D5EB040564EB0403D617AD1AB34102DBF3
:100960000020014670BD201841EB025170BD0EB54C
:10097000C10F80EAE0700844CA07002140F2334307
:100980008DE80E000A460B46FFF78CFF03B000BD52
:10099000C1F30A52C1F3130140F2FF3341F4801155
:1009A0009A4202DA00200146704740F233439A42ED
:1009B000A2F2334202DC5242FFF70CBFFFF7FBBE4C
:1009C00030B5041E71F1000404DB4FF000444042D6
:1009D00064EB0101141E73F1000405DB1C464FF0AB
:1009E0000043524263EB04038B4208BF824230BD96
:1009F00030B5041E71F1000404DB4FF000444042A6
:100A000064EB0101141E73F1000405DB1C464FF07A
:100A10000043524263EB0403994208BF904230BD49
:100A2000064C074D06E0E06840F0010394E807003B
:100A300098471034AC42F6D3FFF77EFB004700081E
:100A40002047000870B58D1810F8014B14F0030210
:100A500001D110F8012B231106D110F8013B03E05E
:100A600010F8016B01F8016B521EF9D1ABB110F80F
:100A7000012B04F00C048A1A0C2C03D0A2EB841274
:100A80009B1C08E010F8014BA2EB0422F8E712F8D7
:100A9000014B01F8014B5B1EF9D5A942D4D30020CC
:100AA00070BD00002DE9F0474FF40871184800F0C0
:100AB00053F801282AD1164800F04AF881464846E2
:100AC000FFF7ABFD82464FF08B41FFF7D7FB0446A3
:100AD000FFF7FBFD07464FF066320E4BFFF7B3FC06
:100AE0000546FFF705FE0C4908604FF408710848F9
:100AF00000F014F800224FF40871054800F052F895
:100B00004FF40871024800F009F800BFBDE8F08713
:100B10000024014066660A408000002000220A127C
:100B2000D3430360704721B1826842F001028260C2
:100B300003E0826822F001028260704701460020D3
:100B40008A6802F004020AB1012000E00020704728
:100B50000146C86C80B2704770B502460020002381
:100B600000240B125568CEB205EA060415681D4034
:100B700015B10CB1012000E0002070BD014600203D
:100B80008A6802F008020AB1012000E000207047E4
:100B9000014600208A6802F480020AB1012000E0C8
:100BA0000020704710B50023CBB21AB144681C4333
:100BB000446002E044689C43446010BD30B5024686
:100BC0000020002350680F4C20400D790C6844EA47
:100BD00005242043506090680B4C2040D1E902541A
:100BE0002C434D7944EA450420439060D06A20F4B8
:100BF00070000C7C641EE4B2234340EA0350D062D0
:100C000030BD0000FFFEF0FFFDF7F1FFF0B5044638
:100C10000D4600200021092D11DDE068A5F10A062E
:100C200006EB4607072606FA07F18843A5F10A06F0
:100C300006EB460603FA06F10843E0600CE0206983
:100C400005EB4507072606FA07F1884305EB45063D
:100C500003FA06F108432061072A0FDA606B561E7B
:100C600006EB86071F2606FA07F18843561E06EB99
:100C7000860605FA06F10843606322E00D2A0FDAC2
:100C8000206BD61F06EB86071F2606FA07F188435E
:100C9000D61F06EB860605FA06F10843206310E02E
:100CA000E06AA2F10D0606EB86071F2606FA07F199
:100CB0008843A2F10D0606EB860605FA06F1084305
:100CC000E062F0BD816841F008018160704721B1A8
:100CD000826842F4A002826003E0826822F4A002EB
:100CE00082607047816841F00401816070470000B4
:100CF00008B50121042001F059FA0220ADF80000E6
:100D000000208DF803006946014800F0EFFC08BDA3
:100D10000008014000B585B0FFF7EAFF0121480255
:100D200001F044FA002000908DF8040001208DF8B5
:100D300005004FF4602002900020039001208DF800
:100D4000100069461748FFF739FF4FF4404001F0A3
:100D5000F1F90523012211461248FFF757FF01223E
:100D60004FF408710F48FFF71DFF01210D48FFF7F1
:100D7000DAFE0C48FFF7A6FF00BF0A48FFF7FEFEA9
:100D80000028FAD10748FFF7ADFF00BF0548FFF77D
:100D9000D5FE0028FAD101210248FFF798FF05B0DF
:100DA00000BD0000002401400EB50121042001F027
:100DB000DDF90020ADF80400ADF80000ADF8020048
:100DC0006946044801F05AFE0121024801F0DFFDA6
:100DD0000EBD00000008004010B586B0044694B96E
:100DE0000121082001F0E2F94FF48070ADF8140001
:100DF00010208DF8170003208DF8160005A91F4854
:100E000000F074FC37E0012C2AD10121092001F007
:100E1000CDF92002ADF8140018208DF8170003203A
:100E20008DF8160005A9154800F060FCFFF7BCFF1F
:100E30006020ADF804000120ADF806001E20ADF8DA
:100E40000A000220ADF80C0001A90D4801F0BCFD1C
:100E500008210B4801F008FE01200A4908700AE049
:100E60000021082001F0A2F90021054801F08FFDC2
:100E700000200449087006B010BD0000000C0140BD
:100E8000000800401400002010B5FE48007801283A
:100E90007ED1012200210C2000F064FA0122002101
:100EA0000F2000F05FFA002211460F2000F05AFADE
:100EB000002211460E2000F055FA002211461020A3
:100EC00000F050FA002211460F2000F04BFA0022E9
:100ED00011460C2000F046FA002211460A2000F0CC
:100EE00041FA022200210D2000F03CFA01220021EB
:100EF0000B2000F037FA00221146104600F032FABB
:100F0000002211460D2000F02DFA012200211020B0
:100F100000F028FA012200210F2000F023FA00221D
:100F200011460E2000F01EFA002211460D2000F09E
:100F300019FA002211460C2000F014FA0022114682
:100F40000B2000F00FFA022200210A2000F00AFA1A
:100F5000012200210A2000F005FA012200210C20C4
:100F600000F000FA012200210F2000F0FBF901221D
:100F700000210E2000F0F6F900221146102000F0AA
:100F8000F1F9002211460F2000F0ECF9002200E0F8
:100F9000E6E111460C2000F0E5F9002211460A2096
:100FA00000F0E0F9022200210D2000F0DBF9002220
:100FB00011460B2000F0D6F9002211460D2000F05A
:100FC000D1F900221146102000F0CCF90022114680
:100FD0000F2000F0C7F9012200210E2000F0C2F915
:100FE00001220021102000F0BDF901220021122071
:100FF00000F0B8F9012200210E2000F0B3F902221E
:1010000000210F2000F0AEF9002211460F2000F061
:10101000A9F900221146104600F0A4F90022114659
:10102000112000F09FF900221146102000F09AF9DB
:10103000022200210E2000F095F9002211460D2019
:1010400000F090F9002211460E2000F08BF90022EA
:1010500011460F2000F086F9002211460D2000F005
:1010600081F9022200210E2000F07CF900221146B5
:101070000C2000F077F9002211460C2000F072F9E4
:10108000002211460B2000F06DF9002211460C20C1
:1010900000F068F9012200210D2000F063F901221F
:1010A00000210D2000F05EF901220021102000F047
:1010B00059F9012200210F2000F054F902220021E9
:1010C0000E2000F04FF9002211460E2000F04AF9E0
:1010D00000221146104600F045F90122002110209F
:1010E00000F040F901220021102000F03BF901221C
:1010F00000210E2000F036F9002211460C2000F0ED
:1011000031F9002211460C2000F02CF90022114682
:101110000B2000F027F9002211460C2000F022F9E4
:1011200002220021112000F01DF9002211460F209B
:1011300000F018F9002211460D2000F013F90022EA
:1011400011460E2000F00EF9002211460F2000F08B
:1011500009F9012200210E2000F004F901220021EA
:10116000102000F0FFF8012200210F2000F0FAF813
:10117000012200210D2000F0F5F8022200210C20B0
:1011800000F0F0F8002211460C2000F0EBF80022ED
:101190001146104600F0E6F800221146112000F03A
:1011A000E1F800221146102000F0DCF802220021B4
:1011B0000F2000F0D7F8012200210C2000F0D2F817
:1011C000012200210A2000F0CDF8022200210D208A
:1011D00000F0C8F8002211460B2000F0C3F80022EE
:1011E0001146104600F0BEF800221146102000F013
:1011F000B9F8002211460F2000F0B4F802220021B5
:10120000152000F0AFF8012200210D2000F0AAF80F
:10121000012200210C2000F0A5F8022200210C2060
:1012200000F0A0F8002211460C2000F09BF80022EC
:101230001146104600F096F8012200210C2000F023
:1012400091F802220021112000F08CF801220021E7
:10125000102000F087F8012200210C2000F082F815
:10126000022200210F2000F07DF8012200210E2033
:1012700000F078F8012200210E2000F073F801221E
:10128000002101E0140000200D2000F06BF8012285
:1012900000210C2000F066F8012200210D2000F052
:1012A00061F801220021102000F05CF802220021E8
:1012B000102000F057F800221146102000F052F8DC
:1012C00000221146104600F04DF800221146112070
:1012D00000F048F800221146102000F043F80222E6
:1012E00000210F2000F03EF8012200210C2000F028
:1012F00039F8012200210A2000F034F802220021EE
:101300000D2000F02FF8002211460B2000F02AF8E3
:1013100000221146104600F025F800221146102048
:1013200000F020F8002211460F2000F01BF80222E6
:1013300000210E2000F016F8012200210D2000F0FF
:1013400011F8012200210A2000F00CF802220021ED
:10135000112000F007F802220021112000F002F80D
:1013600010BD000070B504460E46154608480078CA
:1013700068B1084951F8240001F008F9064931F82C
:10138000251088B202F0A8FA002001F0FFF870BD25
:1013900014000020180000207000002000BFFEE7AD
:1013A0007047000008B50121092000F0FFFEC020B1
:1013B000ADF8000003208DF802001C208DF803001A
:1013C0006946024800F092F908BD0000000C014097
:1013D00010B5012000F062F8012000F059F810BDAE
:1013E00010B5042000F05AF878B1042000F050F84D
:1013F0000421064800F0EAFA38B10120FFF7ECFCBE
:10140000FFF742FD0220FFF7E7FC10BD0018014086
:1014100010B5082000F042F8B8B1082000F038F804
:1014200008210A4800F0D2FA78B10120FFF7D4FC75
:10143000012001F075FB4FF47A7002F04DFA0120A3
:1014400001F06EFB0220FFF7C7FC10BD0018014041
:1014500010B5102000F022F8B8B1102000F018F8F4
:1014600010210A4800F0B2FA78B10120FFF7B4FC6D
:10147000002001F055FB4FF47A7002F02DFA0020A5
:1014800001F04EFB0220FFF7A7FC10BD0018014041
:101490000149086070470000140401400146002023
:1014A0000022074B1B6803EA0102054B14331B683B
:1014B0000B4013B10AB1012000E00020704700008A
:1014C00000040140002123498279002A3AD00A46CB
:1014D000126803689A430B461A600A1D1268036873
:1014E0009A430B1D1A60027911440A6803681A4373
:1014F0000A60184A0832126803689A43154B083389
:101500001A601A1D126803689A43124B0C331A6052
:101510004279102A0ED11A1F126803681A430D4B24
:1015200008331A601A1D126803681A43094B0C33FA
:101530001A600DE00749427911440A6803681A43AA
:101540000A6005E0027911440A6803689A430A6058
:10155000704700000004014010B50121412000F057
:1015600025FE0421084600F0A1F800F038FD10BD6A
:1015700010B50446204601F041FB00F030FD012289
:1015800040F22551014801F0FCFB10BD003801403C
:1015900051B18200A2F1C042126842F00103820000
:1015A000A2F1C042136009E08200A2F1C0421268B9
:1015B000034B1A408300A3F1C0431A607047000038
:1015C000FEFF0F00D0E901121143C2681143026906
:1015D00011434269114382691143C2691143026A8E
:1015E0001143426A1143826A1143C26A1143026B7A
:1015F000114302689200A2F1C0421160816808297B
:101600000BD101688900A1F1C041096841F0400295
:1016100001688900A1F1C0410A60416B0968426B11
:10162000526841EA0211426B926841EA0221426B20
:10163000928941EA0241426B128A41EA0251426BAD
:10164000127D41EA0261426B926911430268521CA9
:101650009200A2F1C0421160C16AB1F5804F1BD166
:10166000816B0968826B526841EA0211826B926851
:1016700041EA0221826B128A41EA0251826B127D99
:1016800041EA0261826B9269114302689200A2F101
:10169000C042C2F8041107E06FF07042016889008F
:1016A000A1F1C041C1F804217047000030B500220B
:1016B0008B071C0F0F2303FA04F20B4B8C1053F80B
:1016C00024309343084C8D1044F8253023468C1069
:1016D00053F824308C07240F00FA04F42343024CFF
:1016E0008D1044F8253030BD080001402DE9F0414F
:1016F000024600250026002000230024002791F840
:1017000003C00CF00F0591F803C00CF0100CBCF1F5
:10171000000F03D091F802C04CEA050591F800C013
:10172000BCF1000F31D0146800202BE04FF0010C09
:101730000CFA00F3B1F800C00CEA03069E4220D177
:1017400083004FF00F0C0CFA03F7BC4305FA03FCBF
:101750004CEA040491F803C0BCF1280F06D14FF005
:10176000010C0CFA00FCC2F814C00AE091F803C0A6
:10177000BCF1480F05D14FF0010C0CFA00FCC2F887
:1017800010C0401C0828D1D31460B1F800C0BCF1CF
:10179000FF0F34DD546800202EE000F1080C4FF0FC
:1017A000010808FA0CF3B1F800C00CEA03069E42E7
:1017B00021D183004FF00F0C0CFA03F7BC4305FA5C
:1017C00003FC4CEA040491F803C0BCF1280F05D1D6
:1017D00000F1080C08FA0CF8C2F8148091F803C064
:1017E000BCF1480F07D100F1080C4FF0010808FACE
:1017F0000CF8C2F81080401C0828CED35460BDE815
:10180000F0810246002093680B400BB1012000E0FC
:101810000020704702460020D3680B400BB1012026
:1018200000E000207047416170470AB1016100E0AB
:101830004161704701480068704700008000002047
:1018400000BFFEE721B1028842F00102028004E0FD
:1018500002884FF6FE731A40028070471FB5044697
:101860000121480500F082FC0D4800F01DF8002021
:10187000ADF804004FF48040ADF80600ADF80C0060
:10188000ADF808400011ADF80A000648009069461E
:10189000034800F025F801210148FFF7D3FF1FBDE1
:1018A00000540040801A060010B504460B488442DC
:1018B00009D10121480500F069FC00214FF4001016
:1018C00000F064FC08E00121880500F05FFC0021C5
:1018D0004FF4800000F05AFC10BD0000005400409E
:1018E0002DE9F04385B004460D460026B146042795
:1018F000DFF8CC80A6884FF6C0700640684600F03E
:101900009BFCDDF808802F48B8FBF0F01FFA80F947
:1019100046EA0906A68020884FF6FE71084020801E
:1019200000262949286888420CD828684000B8FB5E
:10193000F0F087B2042F00DA04273E4309F10100DA
:10194000208427E0E8884BF6FF71884206D128689A
:1019500000EB4000B8FBF0F087B209E0286800EB2C
:10196000C00101EB0010B8FBF0F087B247F48047EC
:10197000C7F30B0008B947F0010747F400400643DE
:101980004FF4967009FB00F04FF47A7190FBF1F080
:10199000401C2084A683208840F0010020802688F7
:1019A0004FF6F5300640A88869890843064326802B
:1019B000A88929890843208105B0BDE8F08300008B
:1019C00000127A0040420F00A086010070B5044664
:1019D0000D4629462046FFF71DFF01281BD10F2089
:1019E00001F07AFF29462046FFF714FF012808D1AD
:1019F00029462046FFF705FF08B9012070BD0020E9
:101A0000FCE729462046FFF705FF20B92946204676
:101A1000FFF7F7FEF2E70020F0E700000EB5012126
:101A2000452000F0C3FB1020ADF8080048208DF8D9
:101A30000B0003208DF80A0002A94148FFF756FE6B
:101A4000012210213E48FFF7F0FE04210846FFF76F
:101A50002DFE1020009000208DF804000C208DF841
:101A6000050001208DF806006846FFF72BFD0820D1
:101A7000ADF8080048208DF80B0003208DF80A000F
:101A800002A92F48FFF732FE012208212C48FFF758
:101A9000CCFE03210420FFF709FE0820009000205F
:101AA0008DF804000C208DF8050001208DF806004B
:101AB0006846FFF707FD0420ADF8080048208DF8C0
:101AC0000B0003208DF80A0002A91D48FFF70EFE47
:101AD000012204211A48FFF7A8FE02210420FFF783
:101AE000E5FD0420009000208DF804000C208DF806
:101AF000050001208DF806006846FFF7E3FC012091
:101B0000ADF8080028208DF80B0003208DF80A009E
:101B100002A90C48FFF7EAFD00210846FFF7C6FDC1
:101B20000120009000208DF8040008208DF80500A9
:101B300001208DF806006846FFF7C4FC0EBD0000CA
:101B4000001801400008014070B506460F48408863
:101B5000401E83B20D480088401E82B20021084614
:101B600000F0D4F800240CE0002504E0304600F03A
:101B7000FFF9681C85B205484088A842F6DC601C65
:101B800084B202480088A042EEDC70BD54430020BD
:101B900010B50446134884715CB90821362000F062
:101BA000D7F94FF4F0700F4948804FF4A0700880C7
:101BB00016E02821362000F0CBF9B62000F0C2F95B
:101BC000002000F0CFF9022000F0CCF93B2000F01B
:101BD000C9F94FF4A070034948804FF4F0700880B1
:101BE00010BD00005443002070B504460D46164653
:101BF0002B4622462946204600F088F8304600F061
:101C0000B7F970BD2DE9FF4F84B081468A460020A8
:101C1000029083460698A0EB09050798A0EB0A06F8
:101C2000CDF80490CDF800A0002D01DD012705E0DE
:101C30000DB9002702E04FF0FF376D42002E02DDA4
:101C40004FF0010806E016B94FF0000802E04FF02F
:101C5000FF387642B54201DD2C4600E034460020D4
:101C600003901EE0009A91B2019A90B2119AFFF788
:101C7000BBFF029828440290B3440298A04205DDBD
:101C80000298001B0290019838440190A34504DD9E
:101C9000ABEB040B0098404400900398401C80B2CA
:101CA0000390611C03988842DCDD08B0BDE8F08F2A
:101CB0002DE9F04304460D4616461F46DDF81C800C
:101CC000B44201DCBD4201DDBDE8F0833B46324653
:101CD0002946204600F01AF8301B401C84B2781BBD
:101CE000401C85B20BE0A94602E0404600F040F9F6
:101CF000B9F10000A9F101011FFA81F9F5D1201E07
:101D0000A4F101018CB2EED100BFDDE770B504464D
:101D10000D462A2000F016F92646E11704EB116162
:101D2000C1F30F2000F01EF9E11704EB1161091255
:101D3000A4EB012188B200F015F91646D11702EB89
:101D40001161C1F30F2000F00DF91646D11702EB17
:101D500011610912A2EB012188B200F003F92B20D6
:101D600000F0F0F82E46E91705EB1161C1F30F20E2
:101D700000F0F8F8E91705EB11610912A5EB012154
:101D800088B200F0EFF81E46D91703EB1161C1F3DA
:101D90000F2000F0E7F81E46D91703EB1161091276
:101DA000A3EB012188B200F0DDF82C2000F0CAF886
:101DB00070BD00002DE9F84F80460E4617461C46C0
:101DC000B3462046E31704EB5373DB1021464FEA7A
:101DD000E47C04EB5C7C4FEAEC0CA4EBCC0CBCF197
:101DE000000F02D04FF0010C01E04FF0000C6344F3
:101DF000224604EBD27C4FEA6C0C03FB0CF3DBB203
:101E00000093A7F12000C7B2002556E00C2C07D1A3
:101E100007EB47002B4901EB800010F8059013E019
:101E2000102C05D1284800EB071010F805900BE0A6
:101E3000182C07D107EBC700244901EB800010F8EC
:101E4000059001E0BDE8F88F4FF0000A2FE009F09F
:101E5000800030B11E48028831464046FFF7C4FE7C
:101E600007E00A9828B91B48028831464046FFF728
:101E7000BBFE4FEA49604FEA1069701C86B21648F3
:101E80004088B04200DCDDE7A6EB0B00A0420AD19F
:101E90005E4608F101001FFA80F80F4800884045AF
:101EA00000DCCFE706E00AF1010000F0FF0ABAF11A
:101EB000080FCCDB00BF681CC5B200988542A5DBCB
:101EC00000BFBFE7494200088400002074060020DC
:101ED0005043002052430020544300202DE9F8478E
:101EE00004460D4690469946DDE9096704F0FF0A6D
:101EF00008EB04001FFA80F809EB05001FFA80F9CF
:101F000016E0444502DB5446A81985B24D4500DB76
:101F100014E0002000903A78334629462046FFF727
:101F200049FF304606EBD07104EB61018CB27F1C97
:101F300038787E2802DC38782028E2DA00BFBDE855
:101F4000F88700000149088070470000FE07006C18
:101F500000B503460A461846FFF7F4FF104600F0A6
:101F600001F800BD01490880704700000008006CBE
:101F70000112024A1180C1B2118070470008006C42
:101F800008B50121482000F011F92020ADF800002B
:101F900010208DF8030003208DF8020069460C48DC
:101FA000FFF7A4FB20210A48FFF73DFC2020ADF8F5
:101FB000000010208DF8030003208DF80200694610
:101FC0000448FFF793FB20210248FFF72CFC08BDD3
:101FD000000C01400018014000BFFEE7704708B543
:101FE0004FF4A06000F09AF80A208DF8000001205C
:101FF0008DF801008DF802008DF80300684600F0AE
:1020000055F809208DF8000000208DF8010001200E
:102010008DF802008DF80300684600F047F80820AC
:102020008DF8000002208DF8010001208DF80200DB
:102030008DF80300684600F039F806208DF800009E
:1020400003208DF8010001208DF802008DF80300B7
:10205000684600F02BF825208DF8000003208DF84D
:1020600001008DF8020001208DF80300684600F0A1
:102070001DF836208DF8000003208DF801008DF842
:10208000020001208DF80300684600F00FF81220CE
:102090008DF8000003208DF801008DF8020001206A
:1020A0008DF80300684600F001F808BD70B5002106
:1020B00000230F22C47804B3154C246804F4E064B0
:1020C000C4F5E064210AC1F10403CA40447804FA6B
:1020D00003F184781440214309010E4C0678A15580
:1020E000047804F01F050124AC4005786D11AD00A3
:1020F00005F1E025C5F8004109E0047804F01F056A
:102100000124AC40044D0678761145F8264070BD98
:102110000CED00E000E400E080E100E00249014352
:10212000024A1160704700000000FA050CED00E063
:102130007047000001460020034A506820F44040E8
:1021400008435060704700000010024029B1064A61
:1021500052690243044B5A6104E0034A52698243C4
:10216000014B5A61704700000010024029B1064A35
:10217000D2690243044BDA6104E0034AD269824324
:10218000014BDA61704700000010024029B1064A95
:1021900012690243044B1A6104E0034A1269824344
:1021A000014B1A61704700000010024029B1064A35
:1021B00092690243044B9A6104E0034A92698243A4
:1021C000014B9A61704700000010024029B1064A95
:1021D000D2680243044BDA6004E0034AD2688243C7
:1021E000014BDA6070470000001002400F480068A1
:1021F00040F001000D490860084640680C4908405D
:102200000A494860084600680A49084007490860CA
:102210000846006820F4802008600846406820F4E2
:10222000FE0048604FF41F008860704700100240B5
:102230000000FFF8FFFFF6FE30B500210022002469
:1022400000232D4D6D6805F00C0121B1042905D046
:10225000082923D105E0294D056022E0274D0560BE
:102260001FE0254D6D6805F47012234D6D6805F46F
:102270008034022505EB92421CB9214D554305607F
:102280000BE01D4D6D6805F400351DB11C4D554327
:10229000056002E0194D5543056002E0174D0560E9
:1022A00000BF00BF144D6D6805F0F0010909154D20
:1022B0006B5C0568DD4045600F4D6D6805F4E061BD
:1022C000090A104D6B5C4568DD4085600A4D6D68FC
:1022D00005F46051C90A0B4D6B5C4568DD40C56073
:1022E000054D6D6805F44041890B074D6B5CC56871
:1022F000B5FBF3F5056130BD0010024000127A0015
:1023000000093D00000000201000002010B501462B
:102310000022002300204A11012A02D1094C23681F
:1023200006E0022A02D1074C236A01E0054C636AE9
:1023300001F01F02012494401C400CB1012000E078
:10234000002010BD001002400248406800F00C0060
:10235000704700000010024001460020034A506808
:1023600020F0F00008435060704700000010024069
:102370001149096821F480310F4A1160114609683A
:1023800021F480211160B0F5803F03D0B0F5802F9B
:102390000ED106E00849096841F48031064A11600F
:1023A00007E00549096841F4A021034A116000E0F3
:1023B00000BF00BF7047000000100240014600202F
:1023C000034A506820F4E060084350607047000002
:1023D0000010024001460020034A506820F460507B
:1023E00040EAC10050607047001002400149086691
:1023F000704700000000424202460020044B58682B
:1024000020F47C1042EA01031843014B58607047E6
:102410000010024001460020034A506820F00300EB
:1024200008435060704700000010024038B500209B
:1024300000900024002500BF3120FFF767FF05460C
:102440000098401C00900098B0F5A06F01D0002DBE
:10245000F2D03120FFF75AFF08B1012400E0002438
:10246000204638BD70477047FEB504460B4890FBC8
:10247000F4F63046FEF7C8F805462846FEF7F8F8A9
:1024800080B2ADF804004720ADF800000020ADF8A0
:1024900002006946024800F0F1FAFEBD40420F001A
:1024A0000008004010B500F001F810BD0CB5002088
:1024B000019000903348006840F480303149086052
:1024C00000BF3048006800F4003000900198401CC4
:1024D0000190009818B90198B0F5A06FF1D1294882
:1024E000006800F4003010B10120009001E00020ED
:1024F00000900098012843D12348006840F0100064
:10250000214908600846006820F00300086008467A
:10251000006840F0020008601A48406819494860A5
:102520000846406848600846406840F4806048605B
:102530000846406820F47C1048600846406840F433
:10254000E81048600846006840F08070086000BFEE
:102550000C48006800F000700028F9D00948406875
:1025600020F00300074948600846406840F0020038
:10257000486000BF0348406800F00C000828F9D10B
:102580000CBD0000001002400020024010B50446BF
:102590002046FFF769FF10BD042808D14FF0E02165
:1025A000096941F004014FF0E022116107E04FF0AA
:1025B000E021096921F004014FF0E0221161704728
:1025C0007047000010B51348006840F00100114941
:1025D000086008464068104908400E4948600846AF
:1025E00000680E4908400B4908600846006820F45E
:1025F000802008600846406820F4FE0048604FF4E0
:102600001F008860FFF74EFF4FF00060044908602C
:1026100010BD0000001002400000FFF8FFFFF6FEB2
:1026200008ED00E000B59DB001210802FFF78EFD26
:1026300001200790002008900F20099000200A90A8
:102640000B900C900D9015200090019005200290A9
:102650000020039004900590069006200E90002024
:102660000F90109010201190002012901490139051
:10267000159016904FF480501790002018904FF44A
:102680008040199000201A9007A81B90CDF870D0B8
:102690000EA8FEF797FF01210620FEF779FF1DB077
:1026A00000BD000008B501214FF4B470FFF77EFDB6
:1026B0004CF23370ADF8000018208DF803000320B1
:1026C0008DF8020069461648FFF710F84FF6807043
:1026D000ADF8000018208DF8030003208DF80200EB
:1026E00069461048FFF702F841F20100ADF800001A
:1026F00018208DF8030003208DF8020069460A486F
:10270000FEF7F4FF0120ADF8000010208DF8030063
:1027100003208DF8020069460448FEF7E7FF08BD74
:10272000001401400018014000200140000C01404D
:1027300010B5FFF7B7FFFFF775FF322001F0CCF8B7
:10274000DA20FFF7FFFB78480088784988807648D0
:1027500000884FF6FF7101EA002074498880DB2071
:10276000FFF7F0FB714880886F49098808436F497B
:102770008880084680886C49098808436B498880AE
:10278000084681886AA000F099FBE020FFF7DAFB99
:102790000020FFF7E7FB1320FFF7E4FB1820FFF70B
:1027A000E1FB0420FFF7DEFB0F20FFF7DBFB062039
:1027B000FFF7D8FB3A20FFF7D5FB5620FFF7D2FBF7
:1027C0004D20FFF7CFFB0320FFF7CCFB0A20FFF7DC
:1027D000C9FB0620FFF7C6FB3020FFF7C3FB3E20F6
:1027E000FFF7C0FB0F20FFF7BDFBE120FFF7AAFBBF
:1027F0000020FFF7B7FB1320FFF7B4FB1820FFF70B
:10280000B1FB0120FFF7AEFB1120FFF7ABFB062069
:10281000FFF7A8FB3820FFF7A5FB3420FFF7A2FB4A
:102820004D20FFF79FFB0620FFF79CFB0D20FFF7D5
:1028300099FB0B20FFF796FB3120FFF793FB372026
:10284000FFF790FB0F20FFF78DFBC020FFF77AFB0F
:102850001820FFF787FB1720FFF784FBC120FFF745
:1028600071FB4120FFF77EFBC520FFF76BFB0020CB
:10287000FFF778FB1A20FFF775FB8020FFF772FB4C
:102880003620FFF75FFB0820FFF76CFB3A20FFF7CD
:1028900059FB5520FFF766FBB020FFF753FB0020E4
:1028A000FFF760FBB120FFF74DFBA020FFF75AFBBD
:1028B000B420FFF747FB0220FFF754FBB620FFF7D9
:1028C00041FB0020FFF74EFB2220FFF74BFB3B2094
:1028D000FFF748FBE920FFF735FB0020FFF742FB3D
:1028E000F720FFF72FFBA920FFF73CFB5120FFF754
:1028F00039FB2C20FFF736FB8220FFF733FB11203A
:10290000FFF720FB782000F0E7FF2920FFF71AFBF4
:102910002C20FFF717FB0020FFF73AF94FF6FF7066
:10292000FFF712F910BD00000008006C54430020AE
:10293000204C43442049443A25780D0A0000000009
:1029400010B501210E4800F02EF898B101F040FCBE
:102950000C48FEF71DF9012804D100210948FEF7B3
:10296000E2F807E00748FEF713F918B90121054816
:10297000FEF7D9F80121024800F006F810BD00006A
:102980000010004000240140CA430282704721B178
:10299000028842F00102028004E002884FF6FE73D2
:1029A0001A400280704730B5024600200023002400
:1029B000158A05EA0103958905EA010413B10CB1F2
:1029C000012000E0002030BD70B50024002200236B
:1029D000058C4FF6FF6635400584028C8388848B16
:1029E0004FF68F752C404FF6FC752C400D882C430C
:1029F0004FF6FF552A400D894FF6FF7606EA05256A
:102A00002A434D8806EA05252A43154DA84202D0DF
:102A1000144DA8421DD14FF2FF752A404D894FF643
:102A2000FF7606EA05252A434FF6FF352A408D88B2
:102A300006EA05252A434EF6FF752B404DF6FF7535
:102A40002B408D8906EA05152B43CD8906EA05152D
:102A50002B4383808483CD888587028470BD0000EA
:102A6000002C0140003401400A460021818B4FF6C2
:102A7000F7731940114381837047000000220288D8
:102A80001D4B98420ED01D4B98420BD0B0F1804F99
:102A900008D01B4B984205D01A4B984202D01A4BD3
:102AA000984204D14FF68F731A404B881A43174B44
:102AB000984207D0164B984204D04FF6FF431A4075
:102AC000CB881A4302808B8883850B8803850A4B49
:102AD00098420BD0094B984208D00E4B984205D033
:102AE0000D4B984202D00D4B984201D10B7A0386D0
:102AF0000123838270470000002C01400034014014
:102B00000004004000080040000C0040001000409D
:102B100000140040004001400044014000480140D2
:102B20002DE9F041064616B1012E06D102E00C4C0B
:102B3000202504E00B4C202501E0BDE8F08100BF1A
:102B400029462046FEF766FE08B9012000E0002075
:102B500007463A4629462046FEF767FE00BFECE7E7
:102B6000000C0140001801402DE9F04708211D48E4
:102B700000F0FAF8002832D01A4800F093F9012842
:102B800028D1FEF757FE07463846FDF758FD804628
:102B90004046FDF739FD81463946FDF73AFB0546CB
:102BA0001149FDF739FB0446FDF749FD0646384655
:102BB000FDF78BFD044622460B460CA000F07EF983
:102BC00000210D48FDF7AFFF4FF408710A48FDF7EB
:102BD000A5FF00BF40F22551024800F05CF8BDE8B7
:102BE000F0870000003801400000C8426461746151
:102BF0003D25660D0A0000000024014010B586B096
:102C000004461E4800F062F8012144F20400FFF778
:102C1000CDFA4FF40070ADF8140003208DF81600C3
:102C200018208DF8170005A91548FEF75FFD4FF431
:102C30008060ADF8140004208DF8170005A9104835
:102C4000FEF754FD01940020ADF80800ADF80A002D
:102C5000ADF80C00ADF810000C20ADF80E0001A985
:102C6000064800F0B3F80121044800F023F84021A1
:102C7000024800F007F806B010BD0000003801401F
:102C80000008014001F40072B2F5007F00D100BFDE
:102C9000CA430280704710B50022002340F66A1430
:102CA000A14200D100BF0A1201249440A3B2DC4328
:102CB000048010BD21B1828942F40052828104E077
:102CC00082894DF6FF731A408281704710B5044621
:102CD0002048844209D101218803FFF777FA0021B7
:102CE0004FF48040FFF772FA32E01B48844209D16A
:102CF00001214804FFF74AFA00214FF40030FFF7A2
:102D000045FA25E01548844209D101218804FFF7DE
:102D10003DFA00214FF48020FFF738FA18E0104800
:102D2000844209D10121C804FFF730FA00214FF491
:102D30000020FFF72BFA0BE00A48844208D101215A
:102D40000805FFF723FA00214FF48010FFF71EFA61
:102D500010BD000000380140004400400048004021
:102D6000004C00400050004002460020B1F5007FBA
:102D700000D100BF13880B400BB1012000E0002000
:102D80007047F0B50346002400260025002040F6D9
:102D90006A17B94200D100BF1846C1F3421401F0CE
:102DA0001F06012707FA06F5012C01D10C3004E0BB
:102DB000022C01D1103000E014301AB107682F4303
:102DC000076002E00768AF430760F0BD2DE9F047F8
:102DD00086B005460E460024A24600BFA146002745
:102DE000B08900B100BF2F462C8A4CF6FF7004401A
:102DF000F08804432C82AC894EF6F3100440B0886E
:102E000031890843718908430443AC81AC8A4FF689
:102E1000FF400440B0890443AC8201A8FFF70CFADC
:102E20001F48874202D1DDF810A001E0DDF80CA0B8
:102E3000A88900F4004040B10AEBCA0000EB0A1078
:102E400031684900B0FBF1F807E00AEBCA0000EB7B
:102E50000A1031688900B0FBF1F86420B8FBF0F08B
:102E600004012009642101FB1089A88900F40040B5
:102E700040B1322000EBC900B0FBF1F000F00700D8
:102E8000044308E0322000EB09106421B0FBF1F0AC
:102E900000F00F0004432C8106B0BDE8F08700006D
:102EA0000038014001468888C0F308007047C1F32C
:102EB00008028280704700BFFEE700000FB4054B98
:102EC00010B503A9044A029800F05EF910BC5DF841
:102ED00014FB0000CD390008408600200FB41CB55B
:102EE0000246002007AC00290BD0491ECDE9002185
:102EF000054B6A462146069800F046F9009A0021E3
:102F000011701CBC5DF814FBB73800082DE9F041C6
:102F10004F1E00EBC7010446D1E9000115461E46CD
:102F200037F006020DD02A463346FDF78CFA7F1E95
:102F300004EBC703D3E90023FDF7DEF937F00602FF
:102F4000F1D1022F25D0042F13D0062F18BFBDE8D2
:102F5000F0812A463346FDF776FAD4E90A23FDF7D5
:102F6000CBF92A463346FDF76EFAD4E90823FDF77C
:102F7000C3F92A463346FDF766FAD4E90623FDF77E
:102F8000BBF92A463346FDF75EFAD4E90423FDF780
:102F9000B3F92A463346FDF756FAD4E90223FDF782
:102FA000ABF92A463346FDF74EFAD4E90023BDE8D3
:102FB000F041FDF7A1B90000002213461046014977
:102FC000FDF7B3BA0000F03F0122FDF7B9BC0022C3
:102FD000134610461146FDF7A8BA02E008C8121FB2
:102FE00008C1002AFAD170477047002001E001C1F2
:102FF000121F002AFBD1704701490860704700008A
:10300000448600202DE9FF5F82B00021DDE9043015
:10301000020DDDF840B0034318D044F61050A2F280
:10302000FF3242431514119801281FD0A5EB0B0065
:10303000401C5FEA000A4FF000064E4FDFF838915F
:10304000B046504615D5CAF1000413E0119801248A
:103050004AA3012801D16FEA0B010298119AC0E935
:103060000031C0E9024206B0BDE8F09FCBF100009C
:10307000DFE704460021404A491842EB0450CDE9FD
:10308000001012E0E00707D032463B464046494672
:10309000FDF7D9F98046894632463B461046194627
:1030A000FDF7D1F906460F466410002CEAD1DDE9A0
:1030B0000401DDE90023BAF1000F06DAFDF7C3F9D8
:1030C00042464B46FDF7BFF905E0FDF72EFA4246B2
:1030D0004B46FDF72AFA04460E460022284BFDF720
:1030E00087FC03D84FF0FF30014607E00022254B54
:1030F00020463146FDF700F9FDF74AFC102409E0AF
:10310000002C0ADB0A220023FDF724FB039B30324C
:103110001A55641E50EA0102F2D1641C039AC4F1EC
:1031200011031444119A012A03D0012208430DD13E
:103130000AE0084304D000204FF0110B119072E711
:10314000A3EB0B056D1E0DE05B4504DD4FF00002A7
:1031500005F1010504E003DA4FF00002A5F10105D5
:10316000002AECD002981199C0E90231C0E900456B
:1031700079E70000000014400000F03F300000003C
:103180000000F0430000E03F2DE9FF4F95B09B4663
:103190008946064600250FE2252877D100242746D8
:1031A000F84A0121059400E0044316F8013F203B52
:1031B00001FA03F01042F7D130782A2811D06FF0CD
:1031C0002F033078A0F13002092A16D8059A44F06E
:1031D000020402EB820203EB42021044761C0590CB
:1031E000EFE759F8042B0592002A03DA504244F421
:1031F0000054059044F00204761C30782E2816D135
:1032000016F8010F44F004042A280DD06FF02F02A5
:103210003078A0F13003092B09D807EB870302EBC4
:103220004303C718761CF3E759F8047B761C307803
:103230006C280FD006DC4C2817D068280DD06A28DF
:1032400014D104E0742810D07A280FD10DE044F492
:1032500000140AE044F4801401E044F4401472784D
:10326000824202D104F58014761C761C30786628E0
:103270000BD013DC582877D009DC002875D04528FE
:10328000F6D04628F4D047281AD19DE118E06328EB
:1032900035D0642879D0652812D195E1702873D093
:1032A00008DC6728F1D069286FD06E280DD06F2810
:1032B00006D1B5E073282CD0752875D0782874D045
:1032C0005A46179990476D1C75E1C4F302500228C5
:1032D00009D003280DD0D9F8001004280DD00D60B6
:1032E00009F1040967E1D9F80010EA17C1E90052B1
:1032F000F6E7D9F800100D80F2E70D70F0E719F845
:10330000041B8DF8001000208DF80100EA46012012
:1033100003E059F804AB4FF0FF3061074FF00001B4
:1033200002D40DE008F101018846B9420FDA804568
:10333000F8DB1AF808100029F4D108E008F10101BF
:1033400088468142FADB1AF808100029F6D1059860
:103350005B46A0EB080721463846179A00F094FA1E
:10336000284400EB080507E04DE029E10DE01AF8DC
:10337000010B5A4617999047B8F10108F7D25B46FE
:1033800021463846179A13E142E00A220092C4F31C
:1033900002524FF0000A022A08D059F804CB032A3F
:1033A0004FEAEC710AD00DE029E02AE009F10701AB
:1033B00021F00702F2E802C1914609E00FFA8CFC05
:1033C0004FEAEC71042A03D14FFA8CFC4FEAEC71FE
:1033D000002907DA0A460021DCF1000C61EB02014A
:1033E0002D2202E0220504D52B228DF80420012293
:1033F00003E0E20701D02022F7E7904659E00A21D6
:1034000002E010220DE010214FF0000A00910BE0C5
:1034100010224FF0000A44F004040827009203E051
:1034200008224FF0000A0092C4F30252022A05D08B
:1034300059F804CB0021032A08D009E009F107015B
:1034400021F00702F2E802C1914605E01FFA8CFC68
:10345000042A01D10CF0FF0C4FF00008220728D5F8
:10346000702806D0009B83F0100353EA0A0305D0AE
:103470000EE040228DF80420012208E05CEA0102FF
:1034800006D030228DF804208DF8050002229046E7
:10349000009B83F0080353EA0A030AD15CEA0102A5
:1034A00001D1620705D530228DF804204FF00108C4
:1034B0007F1E582804D034A003900EA802900DE07F
:1034C00036A0F9E753466046009AFDF743F9844673
:1034D0000398825C0298401E029002705CEA010030
:1034E000F0D1029806A9081A00F1200A600702D557
:1034F00024F4803400E00127574502DDA7EB0A00E1
:1035000000E0002000EB0A01009005984144401AB9
:103510000590E00306D45B462146179A059800F013
:10352000B3F90544002706E001A85A46C05D179983
:1035300090476D1C7F1C4745F6DBE0030CD55B46CE
:103540002146179A059800F09FF9054404E03020C1
:103550005A46179990476D1C0099481E0090002903
:10356000F5DC08E0029802995A460078491C02915D
:10357000179990476D1CBAF10001AAF1010AF1DC1C
:1035800065E1000009280100303132333435363727
:10359000383961626364656600000000303132339F
:1035A000343536373839414243444546000000003F
:1035B00000F058F90544761C307800287FF4ECAD13
:1035C00019B02846BDE8F08F620700D4062709F13C
:1035D000070222F0070CFCE80223E14603F0004852
:1035E0005FEA080C02D00FF2702C0DE05FEA045C79
:1035F00002D50FF2682C07E05FEAC47C02D00FF21C
:10360000602C01E0AFF2700C4FF0FF3823F0004364
:10361000CDF850C065280CD006DC452809D04628D6
:103620001DD047283DD13DE0662818D067287ED1BF
:1036300038E00021112F01DB112000E0781CCDE9DA
:10364000000106A90EA8FFF7DDFCDDE90F010E9AC7
:1036500003910021009207F1010A04914DE04FF01F
:1036600000400097CDE9011006A90EA8FFF7CAFC9B
:10367000DDE90F0203920E9B11990022DDF80CA0E8
:103680000093049211B9791C00EB010AB7EB0A0010
:1036900004D4C0F1FF3007F1010A0490AAEB07003F
:1036A000019044E0012F00DA01270021112F01DDF4
:1036B000112000E03846CDE9000106A90EA8FFF769
:1036C000A1FCDDE90F010E9A039100210491009203
:1036D000BA4621070CD40399514500DA8A46BAF15B
:1036E000010F05DD009AAAF10101515C302908D0D3
:1036F000B84202DA10F1040F06DA0121CDE9011017
:1037000015E0AAF10101E9E7002805DC049901446C
:103710000491AAEB000102E0411C514500DD8A46FC
:103720000499401A401C01904FF00040029020077D
:1037300004D40198504501DBCDF8048000208DF8B9
:103740004F0002980DF14F07B0F1004F25D02B200C
:103750000E9002984FF0020800280CDA40420290C6
:103760002D200E9007E00A210298FCF7DDFF303192
:10377000029007F8011DB8F10001A8F10108F2DC80
:1037800002980028EFD1791E0E980870307800F06A
:10379000200040F0450007F8020D12A8C01B00F100
:1037A00007081498007800B1012000EB0A01019885
:1037B00001EBE07105984144401A401E0590E0037A
:1037C00006D45B462146179A059800F05DF805443B
:1037D0001498007818B15A46179990476D1CE00369
:1037E00024D55B462146179A059800F04DF805440C
:1037F0001CE00498002807DBDDE90301884203DDB3
:103800000098405C179901E0179930205A4690477C
:10381000049805F10105401C04900198401E019098
:1038200004D12E205A46179990476D1CBAF1000119
:10383000AAF1010ADDDC05E017F8010B5A461799D9
:1038400090476D1CB8F10001A8F10108F4DC5B465B
:103850002146179A0598ABE62D0000002B000000CA
:10386000200000002DE9F041044600251E461746C1
:10387000880404D405E039462020B0476D1C641E3E
:10388000F9D52846BDE8F0812DE9F0410446002530
:103890001E469046C80301D5302700E02027880443
:1038A00004D505E041463846B0476D1C641EF9D585
:1038B0002846BDE8F0814A68002A06D00A68531CF1
:1038C0000B6010704868401E4860704710B56FF07C
:1038D0000400FEF761FE10BD014642F228324A4361
:1038E0004FF0E0235A6100229A611A46126942F0B1
:1038F00001021A6100BF4FF0E022106900F00102DE
:103900001AB100F48032002AF5D04FF0E02212699B
:1039100022F001024FF0E0231A6100229A61704701
:1039200008B50020B4234FF4967205210090084694
:10393000FEF7BEF908BD000008B51948008819490E
:103940000880A020184908804FF6E07000900846D3
:103950000388144802881548018811480088FEF73A
:1039600051F910480088124908800F480088114911
:1039700008800F480088F0300A4908800A4800880B
:10398000094908804FF6E070009008460388054812
:1039900002880848018806480088FEF733F908BD08
:1039A000368600203A8600203C860020388600209B
:1039B0002E8600203086002008B50020C8234FF452
:1039C000A07201460090FEF773F908BD70B5044679
:1039D0000D46E1B20548FFF76AFA00BF80210348AF
:1039E000FFF7C2F90028F9D0204670BD0038014029
:1039F0002DE9F047FDF71EFF814613494846FCF7C5
:103A00003DFC04462046FCF760FE074600F024F823
:103A10000546FCF76DFE04460C492046FCF72EFCDB
:103A200004460B492046FCF79FFB044621464FF015
:103A30007E50FCF723FC044606492046FCF7E6FBD3
:103A400004462046BDE8F08700401C4600E076456D
:103A50000FCF5B3B339388432DE9F04DC84A0024D8
:103A600090B0914205DA21F00043934201D805D18C
:103A700020B110B0BDE8F04DFFF7A6BAB1F5801F38
:103A80001BDA53EA000209D0002911DA0120FFF7FE
:103A9000B3FA10B0BDE8F04DFFF799BA0220FFF776
:103AA000ABFAFFF789FA10B081F00041BDE8F08D64
:103AB0006FF035043622FCF743FF04EB2152C1F3CB
:103AC0001308B049A2F2FF33414401F4801282F09E
:103AD0007F6103EB225281F04051009241EA0801DC
:103AE0000022A94BFCF7A9FC044608F10200A74EEE
:103AF000C0F313000D467E44032867D2D6E90023A5
:103B00002046FCF75DFF1ED10098002802BFD6E9D1
:103B1000000110B0BDE8F08DFCF729FF07460C4608
:103B20009B4A9C4BFCF78FFC06460D469A4A9B4BE2
:103B300038462146FCF787FC10B032462B46BDE8DC
:103B4000F04DFCF7D9BB4FF05532954B2046294636
:103B5000FCF779FC0022934BFCF772FC06460F46FB
:103B600022462B4610461946FCF76DFC32463B4672
:103B7000FCF769FC064600980F46F0B1FCF7F7FE2B
:103B800080468A46824A834BFCF75DFC32463B46C0
:103B9000FCF756FC22462B46FCF74FFC05460C462C
:103BA0007D4A7E4B40465146FCF74DFC10B02A46FC
:103BB0002346BDE8F04DFCF740BC0B4610B0324642
:103BC00020462946BDE8F04DFCF737BC00224FF0F7
:103BD00080432046FCF790FB02460B4620462946D0
:103BE000FCF7A3FC06460F460098FCF7C0FECDE9A3
:103BF000040132463B4610463946FCF724FC0C9043
:103C000069480C9A4044019009910B461046FCF714
:103C10001AFC8246024665488B46C8F151080B469D
:103C200008F5D72803217844FFF770F952465B4620
:103C3000FCF709FC0A905E480D9152465B46042150
:103C40007844FFF763F9099B0C9AFCF7FCFB844668
:103C500001980D9B40EA080860460A9AFCF74CFB65
:103C600083460891B8F1000F4EDD4FF0FF32204639
:103C70002946FCF765FE22462B46FCF7E4FB80460E
:103C800000988A4660B3DDE90401414A414BFCF7E4
:103C9000DAFB099100905A4640465146089BFCF7D2
:103CA0002BFB32463B46FCF7CEFB099B009AFCF708
:103CB00023FB42465346FCF7C3FB22462B46FCF748
:103CC000BCFB04460D46DDE90401334A334BFCF7E7
:103CD000BAFB10B022462B46BDE8F04DFCF7ADBB59
:103CE0005A464046089BFCF707FB32463B46FCF72A
:103CF000AAFB42465346FCF7A3FB10B022462B46D4
:103D0000BDE8F04DFCF79CBB009840B3DDE9040131
:103D10001F4A204BFCF797FB80468A465A462046AE
:103D20002946089BFCF789FB32463B46FCF78BFB98
:103D300042465346FCF781FB22462B46FCF77DFBAF
:103D400004460D46DDE90401134A144BFCF77BFBE6
:103D500010B022462B46BDE8F04DFCF76EBB0B467B
:103D60005A4620462946FCF768FB32463B46FCF79C
:103D70006AFB10B022462B46BDE8F04DFCF760BB55
:103D80000000F07F645F09000000F03FFE0B0000C0
:103D9000763C7935EF39EA3D0000E0FE422EE63F01
:103DA0005555D53F0000E03F86EBF9FF960A00002D
:103DB000940A000000F0B2F9FEF7E2F8FDF72EFEDB
:103DC0000120FDF709F8FDF7EDFAFFF77FFDFDF79C
:103DD000C3FB4FF4E130FDF7CBFBFCF79BFFFEF795
:103DE000A7FCA120FDF73AFD4FF6FF70FDF7ACFEF2
:103DF000FFF7E2FDFFF794FDFFF79EFD05E000F001
:103E000005F800F0E5F900F0B9F9F8E72DE9F04F11
:103E100087B0B548007800287ED1B44800680028F3
:103E200037D1B3480088401CB2490880B2480088A6
:103E3000FCF7F8FB04460D46FDF7FCFC0190FCF78F
:103E400044FC82464FF06632AC4BFCF76EFB00221E
:103E5000AB4BCDE90201FCF7F3FA80460022A94BF7
:103E6000FCF7F1FA064622462B46FCF745FACDE967
:103E70000401FCF711FCA44908809E480088A3496E
:103E80000880A1480088A24908800120974908605D
:103E900020E196480068EE2856DA96480088401CD3
:103EA0009449088094480088FCF7BCFB04460D4602
:103EB000FDF7C0FC0190FCF708FC82464FF066322B
:103EC0008E4BFCF732FB00228D4BCDE90201FCF753
:103ED000B7FA804600228B4BFCF7B5FA064622461D
:103EE0002B46FCF709FACDE90401FCF7D5FB86491E
:103EF00008808048008885497C4A126821F81200B1
:103F0000814800888249794A126821F812004FF4EA
:103F10007840764A009000E070E01268521E0B462E
:103F200033F81210714A1268521E784B33F812009F
:103F3000754A13886F4A1288FDF764FE6B48006863
:103F4000401C6A490860C5E068480068EE289FD1B7
:103F500068480088401C6749088067480088FCF76B
:103F600061FB04460D46FDF765FC0190FCF7ADFBD7
:103F700082464FF06632614BFCF7D7FA0022604B65
:103F8000CDE90201FCF75CFA064600225D4BFCF726
:103F90005AFA22462B46CDE90401FCF7ADF98046DA
:103FA000FCF77AFB584908805248018857484F4A25
:103FB000126820F812105448008855494B4A12687C
:103FC00021F812004FF47840484A00901268521EBF
:103FD0000B4633F81210454A1268521E4B4B33F809
:103FE0001200494A1388434A1288FDF70BFE01204C
:103FF0003D49087000203D4908606BE04548008855
:10400000401C3C4908803C480088FCF70BFB0646F6
:104010000F46FDF70FFC0190FCF757FB82464FF06F
:104020006632364BFCF781FA0022354BCDE90201AE
:10403000FCF706FA0022334BCDE90401FCF703FA42
:10404000804632463B46FCF757F90446FCF724FB12
:104050002D490880274800882C49A1F8DE012A480C
:1040600000882B49A1F8DE0101242BE00020284D17
:10407000009035F81430254D35F81420651E244E77
:1040800036F81510214E36F81500FDF7BBFD4FF43C
:1040900078401F4E651C009036F815301B4D35F8E2
:1040A0001420354635F81410651E184E36F81500E4
:1040B000FDF7A8FD164830F81410601E144A22F8C7
:1040C0001010641CEF2CD1DB1148B0F8DE01104950
:1040D000A1F8DC0101224FF408710F48FCF762FDE2
:1040E00007B0BDE8F08F00002C8600202886002055
:1040F0002E860020328600203886002066660A4020
:104100000000F03F00C05E4034860020488600205A
:10411000288800203A8600200024014010B5FEF7D0
:1041200065F84FF48030FEF723F90020FEF714F90C
:104130000020FEF74FF94FF48060FEF73FF94FF48F
:10414000E0114FF48030FEF757F90120FEF74EF9E9
:10415000FEF76CF9012801D0002010BD00BF392006
:10416000FEF7D4F80028FAD00220FEF753F900BF7A
:10417000FEF7EAF80828FBD10120EEE770B588B019
:10418000FFF736FC06463046FCF759FA044625464A
:1041900023460BA2142103A80095FEF79FFE03A857
:1041A0001021CDE9001008480088203881B2102382
:1041B000642206480088FDF791FE08B070BD00003B
:1041C00025642E2530326400388600203686002093
:1041D0002DE9F04387B0FDF72DFB07463846FCF785
:1041E0002EFA80464046FCF70FFA81463946FCF726
:1041F00010F806460F49FCF70FF80546FCF71FFAC2
:10420000044643460CA2142102A80094FEF766FE61
:1042100002A81021CDE9001009480088103881B2A9
:104220001023642207480088FDF758FE07B0BDE858
:10423000F08300000000C84225642E25303264005F
:1042400038860020368600200000000000000000B4
:104250000000000000000000003F400000000000DF
:104260000000003000400030004000000009000B5A
:10427000C03D000BC03D00090018C024407FE02273
:104280004031800000180024C01B000D8032400126
:104290008003801C4027401C8007400040100060C5
:1042A0000000000000000000000000000000001FEF
:1042B00080204040200000402020401F800000005F
:1042C00000090006001F8006000900000004000429
:1042D000003F8004000400000000100060000000A7
:1042E00000000000000400040004000400040000BA
:1042F000000000004000000000000000000020015D
:10430000C006003800400000001F802040204020F0
:10431000401F800000000010403FC000400000002F
:104320000018C02140224024401840000010802086
:1043300040244024401B80000002000D0011003F7B
:10434000C0014000003C80244024402440238000E1
:10435000001F8024402440344003800000300020AF
:104360000027C03800200000001B80244024402487
:10437000401B8000001C0022C0224022401F800001
:1043800000000000000840000000000000000000E5
:10439000000460000000000000000004000A00119A
:1043A00000208040400900090009000900090000C0
:1043B0000000004040208011000A00040018002086
:1043C0000023402400180000001F802040274029BF
:1043D000401F400000004007C039000F0001C0002E
:1043E0004020403FC0244024401B8000001F80200C
:1043F00040204020403080000020403FC02040202E
:10440000401F80000020403FC024402E4030C000AC
:104410000020403FC024402E00300000000F00105C
:1044200080204022403380020020403FC00400042E
:10443000003FC02040204020403FC020402040009E
:10444000000060202020203FC02000200020403FAE
:10445000C024400B0030C0204020403FC02040001E
:1044600040004000C03FC03C0003C03C003FC000D3
:104470000020403FC00C4023003FC020001F802090
:1044800040204020401F80000020403FC0244024A6
:1044900000180000001F802140214020E01FA000E4
:1044A0000020403FC02440260019C0004018C0240E
:1044B000402440224031800000300020403FC02096
:1044C000403000000020003F80004000403F80203E
:1044D0000020003E0001C00700380020003800071F
:1044E000C03C0007C038000000204039C006003939
:1044F000C0204000002000384007C03840200000A5
:1045000000304021C02640384020C000000000009C
:10451000007FE0402040200000000070000C0003FD
:1045200080004000000000402040207FE0000000AC
:1045300000000020004000200000000000001000EB
:1045400010001000100010001000000000400000DB
:104550000000000000000002800540054003C0008C
:104560004020003FC00440044003800000000003DE
:104570008004400440064000000000038004402402
:10458000403FC0004000000380054005400340005C
:1045900000000004401FC02440244020000000020E
:1045A000E0055005500650042020403FC004400460
:1045B0000003C000400000044027C000400000008D
:1045C0000000100010041027E00000000020403F11
:1045D000C00140070004C00440204020403FC0000C
:1045E000400040000007C0040007C0040003C000F2
:1045F00000044007C00440040003C0004000000362
:10460000800440044003800000041007F0045004BC
:104610004003800000000003800440045007F000C5
:1046200010044007C002400400040000000000061F
:10463000400540054004C00000000004001F800445
:104640004000400000040007800040044007C00014
:10465000400400070004C0018006000400060001B9
:10466000C0070001C006000000044006C0010006AB
:10467000C0044000000410071004E001800600049C
:10468000000000044005C006400440000000000097
:104690000004007BE040200000000000000000FF5C
:1046A000F000000000000040207BE004000000005B
:1046B000004000800040002000200040000000007A
:1046C00004FA97999999D93FAF788E1DC571CC3F5F
:1046D0009FC678D0099AC33F935555555555E53F28
:1046E000599322942449D23FDE03CB966446C73FB8
:1046F00044523EDF12F1C23F000000000000000003
:10470000204700080000002048860000440A0008F6
:10471000305D000848860020C0070000EA2F00082E
:1047200012000120050102030404400B06070809DA
:1047300002040608010001120609122604124A04A6
:10474000125D0412880412B80412EE1810060B024F
:1047500000004B0412930412BA0C10061003000060
:10476000700412DC081006160400009704100627D7
:104770000500007504100620060000E0041006B8CD
:10478000070000324812643412C8240004192C07B0
:10479000000160051FCC000C0C50060800300060C2
:1047A0000660090000022003FC1E2006212C200BBD
:1047B0000E1811043FFF10840C783A200E0F0010E1
:1047C000840F3800C0077818840012F015780F8421
:1047D00010C411240E9800E400840008080068004A
:1047E0007070100807E01818200440CC440B00003B
:1047F00040022004181807E008200B024002400184
:10480000800FF001800A1150228002430FF8082522
:1048100041B005000D000EBDB280021200CAB20CFC
:104820006D2008060018006001800721C1300D07C7
:10483000F0080810041004080807F0F01008040835
:10484000041FFC000402350C340C0E0C1014102450
:10485000104411840E1410060C18100411024004A8
:1048600012880CC91008E0032004240824343624DC
:104870003C200498108420300410881020116022FD
:104880008830431888F930081C00100010FC130809
:10489000354010063811441084343404440E380C6A
:1048A000400A00088C1044104408889021B3A004EA
:1048B000030C03C4A004010106F02601332210C634
:1048C00025A0A102217021DA340704100220014042
:1048D00030152D200A1200100C106C10800F5A1485
:1048E0000EE00C1813E4142417C4082807D01E1473
:1048F0000A04003C03C41C400740B0171C001823E6
:104900001FFCEE300411040EC02130252E110213BD
:10491000081CC121204110454061301317C4127298
:10492000181018050017C0104491405006441C7818
:104930000040402684D42310844A2152615441FB14
:1049400010040001100234041FFE103041504007D3
:1049500003801464181C2E31364102420C8010046E
:104960001F000004614E1C051FFC0C041D031004F5
:10497000E010186075EEA1B0157E228002460FAEE1
:104980001618EE800824101C080A07F2C01805113A
:10499000C011300011A0170E1CDC15B011C215B0EB
:1049A0002618CE41B0110C1D8C034004001FF89056
:1049B000117A22F8B414051E0011E0F524047013D6
:1049C00080FA10071FC0103C00E0A22006E0103C57
:1049D0001FC0A0200D180C163401C001C0163418D9
:1049E0000C4648091C00130400FC13042015BB10DE
:1049F000061C10641084106804041018E31F7FFE66
:104A000017034E0230031A30E11F0380A303161C64
:104A10002C3D400321028F7FFE11031620692102E5
:104A20003DAF03D20102811A69502006980124018A
:104A300044021E00060311D01EFC7D04580504012B
:104A40000400C019063110311291103F11083603CD
:104A500040040000F83E11403EC8E204111C4A0F19
:104A6000443522300500D60129022AC9C625A033C3
:104A700000849511F625609C060104190419800331
:104A8000290230060101190119D2313038092400F8
:104A90004001B4010C012249306DB003118A12FCAF
:104AA0009C42000622000CD16011A05204C02EF8D6
:104AB0004B0300051301FF0085E012051A32010ABD
:104AC00021A221543D40031700CC20410266985199
:104AD000320754510E4AF88E1301087A31361F01FD
:104AE0007084041F10017404111E1008F0010C00E2
:104AF0003001C004120C0C41B220088C007401700B
:104B0000018CD011901C04810171A503421830154D
:104B10001012842A16345411089D03046804003EC0
:104B2000FC022D85046BFFFF1C291A6F3EFC480612
:104B30001A00192D2B054900033120000110070F21
:104B400080380FFE380601101B1D8D0615C41D7719
:104B5000031D0A0392310C7E308D0520096180000F
:104B600067F807F98009710371127DD1045C17C0E1
:104B7000E003E0F00630080418081FFFFE040E08EA
:104B80000787F0038104061C0501F000067B032C57
:104B9000090408060C7001F9C0EF051C073BE00092
:104BA000EC1807D9041F0C18930431251EE0CA0520
:104BB0001C1803F818041C0804170807E1D003C0E8
:104BC000E00023B0003C08002079047210B111A865
:104BD0002E3286050124FD54117F0001FFC007809D
:104BE000F00C00181000042000711109110F1115AC
:104BF000111B1121112701113C30054200006603F1
:104C00002E3C280412032732180C41155E425E0721
:104C1000A103214BC1120126B6021B080381946235
:104C200038030116493206662A70ED320E2F1EC077
:104C30009206211385D41C097F8001FFE003807058
:104C400049071E042F0713000809110F1115111B26
:104C500099A242080300071003FFF807FFF88E141B
:104C60001601C03802C05804009804011804021844
:104C7000040418061C18C2B80401E0F81923C0F097
:104C80006615EC240C080806180803F41801E7F070
:104C9000EF71B31DF70818050D0000116D10080025
:104CA0000081080301086F120F72160151716F1015
:104CB00006E007FCD0064262100384091838060F8C
:104CC000F00607C0B0323FD81C0684300208184FE7
:104CD0000741039008071810030FF000273603114F
:104CE00019EB500C0600F80607F806180006E0124B
:104CF00059AF1C08E1E003F7F00634DB0529D023A7
:104D0000040C03600906161803F3F001C1B7500C38
:104D1000F80003FC300306380402080308051804F1
:104D20001003084C537038030919AC080617301AE1
:104D300000301C1F1C081400002200004130081D18
:104D400087041D6B09740620040010088F021B21C4
:104D5000038D0C0A15EF12103C11421148214E32FE
:104D6000225A86081D1204032D360A1C0D38080F1E
:104D7000380808380810000C30E109211B75683A22
:104D800000403019020F1006708804C088048308A0
:104D9000047F8802C09003012000FE40AF2E184916
:104DA000051C0D3E0801C20007020007E20000FFDB
:104DB000052F1FC85E052D610429763A0758491949
:104DC00009171F45D4116C69AC39B22007100600D1
:104DD000200780918148811E1F1802530B99D00132
:104DE000136C5B043EFA3E01180BC1245200034AC7
:104DF0003E286D3A0691905D3C0335FE2C07020378
:104E0000F00783F05B04B20248AD1A042D5F09611C
:104E1000A84DA90371B1D1C0CDCC0319991DA90723
:104E2000410314080307FFFE07FFFC9E610365446E
:104E30002F0C089B0418093E0004C7800503C8D93D
:104E4000140404003808B5680D116304113491FC92
:104E50001C05800807FC9B082C05C00003F83003E4
:104E600023780012955C21241D0E041DF5083EE0F8
:104E70002506421E9E3005C00400F0D80D185C04C3
:104E80001D310705108C1DA70B1D660961031D212F
:104E90000611770F1001F0A4041E88DA071304002E
:104EA000D5040B113C03003E01FFE6007F84B01DDA
:104EB00060065C0E0F00040BC00610F003F0380112
:104EC000E07D051D8C04BC0603F0300630CC033CAD
:104ED000080206180207F0079F061D2705061006A0
:104EE0005025892D060345FB1D0F03440707FFE0EE
:104EF00007FFF053ADF2051D8403111B712D1D2713
:104F000003580707FE00041FE0E81B01E043154CAF
:104F1000716321211FFFC05A0A156212070520057F
:104F2000FF80043F0C1604735E00B20C4D91051413
:104F30000707C07805F1C8D4440A001F800463E85D
:104F40000780F85372006C1E80770D1C0508047CE6
:104F500008B20A1DC1081E00AD044FE008DA046E55
:104F600004C1052A06072007F80403E8040F2A10E5
:104F70000605F00807C02419BB0E1060EF061C04DC
:104F80003FFFFE1707A103AD9E062D700E3EC0BC6D
:104F90000325153EC050063E0E42087DA60AB13CD0
:104FA000114E0D16CA0432103D322006BE10E00626
:104FB00002210103716F21037E101A08EDF9071019
:104FC00010F00019F8001B18002208002608002421
:104FD000031710006B6B1FF8FA45D71D69061C04F8
:104FE000F00018060C3D670811036C083018001F0C
:104FF000F0000FED041D0903110F5318301E11218D
:105000001D91082D390D9541412473381824500401
:105010000410105AA19E414B300512300022961107
:105020009990093208001E10000E20D3213F1C0465
:1050300001FFF8740712064831034F0720190C5D71
:10504000CF0E300C000E6E001FF30031B1002003B4
:105050004C0C3191001F13002E1E00200EE4074D52
:1050600017042D410721D5615781FC7D570C51AEA6
:105070001004063FF8030D136E083D9C072E032F06
:10508000062103AC0803063FFE063FFC6E08816C58
:105090002F0188C8073C092FC00038F8002038B419
:1050A00009A208277DEC040E100F4C08419F623FB7
:1050B000B101100C4D3405A127021510D815653625
:1050C0000FB07630D11D1C05AF300004081DFE0660
:1050D000233FFF0364061011002009F8061138F879
:1050E00085D422092D321F3649F4791041931D19B8
:1050F00011594339DD8D410B1D7110100D78001EC3
:1051000018003308002308002103100788002198A5
:1051100000305DBA60CB11F917FFF0F8896AA1463B
:10512000250B7C06F0007FF80083043A20D09A7F9C
:1051300064417B3E3CA1071E23CC0F1DBF112005FF
:105140007000238012623063211E1D580B1D9E04C7
:105150002C04E000273306210F1E217A0522E00CE3
:105160009A2019200F3838003E680027800003C8B5
:10517000002CF80F3A20E2816C140403003C4A80B2
:1051800005830023EC69BF20008D0E3B38080D1C01
:1051900008F80023E8002F88100831121D78060E49
:1051A0001670E508AC071FF7FC3000067D04DDD95A
:1051B000038EFF2B0DBD3E091D74041139113FAD47
:1051C000D008AD15134DEE063240036E207A044D23
:1051D00097050E170C47040182011D98113C08C069
:1051E00007FFE1E007F01709025FC0714E20E205FA
:1051F0001D62061E00EA102DE9070312001C1401AF
:10520000527C53180C042F0FE0BB10900403F80CD1
:105210001401191C054C721C0480007803091C063B
:10522000FC0640010EF8041C1A070020020380202F
:105230000FFFFFFC0201C0200200E060013070405F
:1052400001F00A0B0748F01F781D230B1DB4101F37
:10525000000374081C0B02008060030181C001FF81
:10526000F9152EFE9A121D75091F03BF4E041DAEBF
:105270000E1C0671806001C190051B0180D11D7359
:105280000E0745003FF925EE1D010A13FCC07811F9
:10529000801C0B03E0200202782002061E3016124A
:1052A00007F01DA8121E01230C1C04011C605A09E2
:1052B0001E20C5102104AE40200B09427C115E1F48
:1052C000001CA5031A1F6C0E870F85031D33052DC7
:1052D000FD0519181DFE111EE0B3172E30270D2DE8
:1052E00043041DC4080A4602FF214C2154215C21BD
:1052F00064216C398C217C036407F8EC1D95111D29
:10530000D71641041E06E8091A03671F6143F60D0C
:105310001EFFF611424310211861240F4D0C188115
:10532000040214800403187FFF1C0D48FD032DB5F3
:105330001312E3041DB40E1D72143D4707096A6978
:1053400002358004054B813EC091130E6500700646
:10535000D97E4DE7123DF1043E80650C011D0F0919
:105360004E7E1E009F1A396C1C04F0078047131EE6
:10537000C09F1B1E60B31B622004211021181D3A20
:105380001A3280280E510F98031E80F71781041CD3
:10539000046001FFDB1211043D11164DA9096104DF
:1053A0000950831E7874041E98C016130002F81268
:1053B00004041208041210041220041C04406003A8
:1053C0009C061301839412FE280B4F7C077D3578D1
:1053D0001EF068052D4D1C25748201041E038807EC
:1053E0001C060186804001A4062F0078DF110A4DBB
:1053F0001E7F5A08611E48F1081D21191E067D16E0
:105400001E0C05131230041404400810881DA50B4F
:1054100041041DFF058210040D4D800810061F86F3
:105420004003E1F01DE913D30304041C0906004006
:10543000030301C003A5070C045103007EEC064ED4
:10544000FCEC061C0970C380008180C0012313217D
:1054500088A202041E03C4191EC183131EC01406B1
:10546000014E843EF089143DE0032D131B1E03E919
:10547000101E03B70C11F31200FC4C040003188338
:105480000661200D4CFD0A1DDC1B1E78E214200B6A
:10549000FC60C0018EC040030780EC197C52800480
:1054A0001EC078091C06E04001867028091D000A0C
:1054B0000F4C781F7C032DCB091EFFF8091FC0C1BC
:1054C00000031E606C0AA220042D800311182C0614
:1054D000C18000C18F471C1DEB1F0E60F0810C2E98
:1054E0000345181D2F1321040E6F0310062DAA1754
:1054F0001E66AE170E6B7884072DED0C6DE8082D37
:1055000010092D940C1E3089211DFE043F00C0DAC5
:105510001B3D9C040E4E043A0E2D4E0A013204012E
:105520004A831D93222DF0063D5D1E11EC31F421BE
:10553000FC2D6C0D2D1C0A6D140A25240D507C08C1
:105540003DB9102D28184F0238590B1D13231D6526
:10555000161E7967151F81E01B1E2EC00F201D8CA3
:10556000043D0C041DA41D2D8D190D4CFC071E3F80
:1055700058031E70040E1DDE041C040101F804040F
:105580001C0AFC20021E04200230083A231C0A30A8
:1055900020023FFC20013F04D8221E0C04081E31CB
:1055A000AC050E49C27A0F2DA5102D131D1E3EF716
:1055B000131D640D51071DF7061D97052D06122DAD
:1055C000080E52FE093DA0090D4B08087DE4085D58
:1055D0007008AD7C078D84071D411A1E86840E2D30
:1055E00084075FF87F12100D4D680D65801D112135
:1055F0009E037C0961042D1C083D9C0929A004041C
:105600005730060000D17C3DFC09517C2D200A3D1D
:1056100084050D49000A0522802D8C103C04020FE0
:10562000E0880A1DCE1C3EE0A003016080B20004A9
:105630001DB3221E0387113DA0070C0412C00000F9
:1056400051180938004D80032D56230912001D8B77
:105650001621041C044003C080071E30ED140D45C4
:1056600003030510FC1DF4071104AD840E6114E959
:10567000200D4E7307F9780915900D5182132D53A3
:105680000D520F04830102041D030A1F0006FC0AC9
:1056900012FC0443F802A471040D5880033AC08040
:1056A0003D791419701C040030F8960C1C063E203D
:1056B00003800F00032E03A0030F49E00204050539
:1056C0001670021400045E608A0E0D507C0422E005
:1056D000081DF3232DE0091DE80B41FD5E1E1B068E
:1056E000111C0B4FE00084B1801D780E1F03F07C6D
:1056F0000E5EFC17142D3E193D9F1D1E7C04031FDA
:105700001F80D41F6D0003094B007D80075D7C0F57
:105710007D040E0D11FC052E0090140E5D3F8005DA
:105720005DF0034E02FC0371042DA4151D040F3D12
:10573000B41515130D517C101E037C102D00051E91
:1057400006EC211D7C0831041206081F03E018270F
:105750001EF896091E5C80101E8CB61D0C06600C8F
:10576000000FFC1800081D94161DA4251E02152705
:105770001F030396211C048607E058271EE0092317
:105780000D5088101E78F52C1C06FE01E00186E005
:10579000071D680EED800D2D14042E0184170C07D3
:1057A0004C8070C003E03F80089D580E0E1C021014
:1057B000083D9C0A2D840E0F4700E0F40541541D5E
:1057C0000D281DEC114FC002640CEDF01152201891
:1057D0002280280D51800541842D800F1D07102344
:1057E000023F092DD1252D6C112DD62D2D161A1EF7
:1057F0007800084C05C000023CA80F0D4604067155
:10580000781D67161E0204041C0402007FF4041EA7
:105810000F0C195005F00003EF182E0F71032D0522
:105820000B2C041F0002962486F8AC0D4B84051E39
:10583000805E034C0BF0032002FC0C20021F3000A2
:10584000051D891B1F021800051F601F80060D50D3
:105850007C06750465802D040D1DEC051C04020FEB
:10586000C068192DFC1315102DFC09121C144E7064
:1058700000110D4F80052D6F2C2E60DA141E03745D
:10588000111C040FA002880C1C040200F8001B1D50
:105890000C1A120F7C21903E7880062660240E514F
:1058A000028211FDCE301D74080D1AFE0E0D5374C8
:1058B0001D6DD80A5E78ED1C310D5EF0FA1C3DF4CA
:1058C000142D0D079F3C0039280D49041A0D1706A9
:1058D00010250C0D6677115D7C0F3D12154D1C2FA8
:1058E00041085D3D23094E786D7C19013A04054A53
:1058F0008471045618040E6304ED122D641D1E8F6E
:1059000085271C078C6000061820C2315104222014
:10591000041E4003083E408B2C3D10047D880A0E77
:105920004FC000061D00081E0784061DFF2E1DE93E
:10593000051D41341D352A1D5C3281041D84163D30
:1059400018143D9C0A0E4DFE041B4E7EF40A2303E0
:10595000817C11F4F17C1D15111FC0405E2C0D538C
:10596000021681801DE0161E063D3591F81F0204C7
:1059700090083E027C0745203D4F223104015180B2
:105980001E1165071B1040008A6008190C12060CD6
:105990001203181F01F08D290E507170152DF5039B
:1059A000A5EC2C047FFFE0801A5E018818820204B7
:1059B0003D80062D2B150E4C0196221DC32E1FE394
:1059C0003E09091C06C200020CC33B30B2C1041CD4
:1059D00004060CC119221C06C30005F062C62D1A6C
:1059E0007E8C0E523C000B1D00033EE0E42029FC9F
:1059F0007606188A008421200F53FFE08C1BCE040A
:105A000070031F0387140E4E8F980D0D5F001C7DD1
:105A10007E2C3D07074D94057204041E03BB2C1217
:105A2000069012FC900C0454F80380F81075802F37
:105A30000008E7294D2D2A2D8F1F1F058E7F071F78
:105A400007A061391EE0EC3621040D53081D0D122C
:105A500080114190055D802D70031D532C13000FA4
:105A6000044D74058114021503140D4A800D6DF464
:105A70000361846D00030E6A0200032D501C0D1D8E
:105A80000006211821200E4D01801C69E81DDD054E
:105A900015841D42361F00C10007EE4190034D00E2
:105AA0000702500180ED8006CE028006310421906D
:105AB0001203982D290E21A80D4A0009E1E85A0F7A
:105AC000081D740F9D0C0569845D290B0D4F040999
:105AD0001D412F1DFF351F03E0F0081E30F808217F
