:020000040800F2
:10000000688A0020450100086D0E0008DD0900081F
:10001000690E000889060008CD1A000800000000DB
:10002000000000000000000000000000A114000813
:100030008D06000800000000C90F0008B515000873
:100040005F0100085F0100085F01000899140008C3
:100050005F0100085F0100088F0600085F010008CB
:10006000A1060008DD060008450700085F0100083A
:100070005F0100085F0100085F0100085F010008E0
:100080005F0100085F0100087D0500085F010008AE
:100090005F0100085F0100085F0100085F010008C0
:1000A0005F0100085F0100085F0100085F010008B0
:1000B0005F0100085F0100085F0100085F010008A0
:1000C0005F0100085F0100085F0100085F01000890
:1000D0005F010008B1170008DD1700085F01000884
:1000E0005F0100085F0100085F0100085F01000870
:1000F0005F0100085F0100085F0100085F01000860
:100100005F0100085F0100085F0100085F0100084F
:100110005F0100085F010008191600085F01000870
:100120005F0100085F0100085F0100085F0100082F
:10013000DFF80CD000F0E0F9004800471D2000086F
:10014000688A00200648804706480047FEE7FEE729
:10015000FEE7FEE7FEE7FEE7FEE7FEE7FEE7FEE777
:10016000B91500083101000830B480EA010202F03C
:10017000004530F0004221F0004013D090B1C30D93
:10018000D40DC2F31601C0F31600E41A41F40001C5
:1001900040F400027D34914201D3641C00E0490028
:1001A000002C02DA30BC002070474FF4000000231E
:1001B000914201D3891A034340084FEA4101F7D124
:1001C00051B1914202D14FF0004105E002D24FF00F
:1001D000010101E06FF0010103EBC450284430BC81
:1001E00000F0F6B82DE9FE4F81EA030404F0004464
:1001F00021F0004100944FF0000B23F0004350EA3F
:1002000001045ED052EA03045BD0C3F30A54C1F385
:100210000A552C44A4F2F3340194A0FB0254C1F318
:10022000130141F48011C3F3130343F4801301FB62
:10023000024400FB034E840A970A44EA815447EAC9
:100240008357A4FB076802958D0A05FB07854FEAD3
:10025000932C04FB0C542705029D4FEA065847EAED
:100260001637B5EB08056EEB070C870E920E47EAC2
:10027000811742EA8312A7FB0201B6EB0B0164EB84
:1002800000042B0D43EA0C335E1844EB1C50DA4695
:100290005146E7FB0201C5F313044FEA0B3343EA6F
:1002A00014534FEA0432019C43EA0603A4F10C0400
:1002B0000294009CCDE900B400F0D0F803B0BDE892
:1002C000F08F00200146F9E796230022114600F046
:1002D00088B800F0004230F000400AD0C10D01F5AE
:1002E0006071C0F3160042EA0151C2084007114391
:1002F000704700200146704701F0004330B421F000
:10030000004150EA010206D00A0DA2F56072C1F365
:100310001301002A02DC30BC00207047440F44EA7D
:10032000C104C100E01830BC00EBC25000F050B86E
:100330002DE9F05F0546002092469B46884606461A
:10034000814640241BE0284641464746224600F0AD
:100350002FF853465A46C01A914110D311461846F9
:10036000224600F016F82D1A67EB01084F46224688
:100370000120002100F00DF817EB00094E41201E6E
:10038000A4F10104DFDC484631462A464346BDE875
:10039000F09F202A04DB203A00FA02F10020704787
:1003A0009140C2F1200320FA03F3194390407047B3
:1003B000202A04DB203A21FA02F00021704721FABA
:1003C00002F3D040C2F12002914008431946704721
:1003D0000029A8BF7047401C490008BF20F0010059
:1003E000704710B4B0FA80FC00FA0CF050EA010437
:1003F00004BF10BC704749B1CCF1200421FA04F4C9
:1004000011FA0CF118BF012121430843A3EB0C01A1
:10041000CB1D4FEA00614FEA102042BF002010BC04
:10042000704700EBC35010440029A4BF10BC7047B4
:10043000401C490008BF20F0010010BC704710B5F7
:10044000141E73F1000408DA401C41F100019218F7
:100450005B411A4301D120F0010010BD2DE9F04DA0
:1004600092469B4611B1B1FA81F202E0B0FA80F2F5
:1004700020329046FFF78DFF04460F4640EA0A00FF
:1004800041EA0B0153465A46084313D0114653EA3A
:10049000010019D0C8F140025046FFF789FF054618
:1004A0000E46504659464246FFF773FF084305D0B3
:1004B000012004E020463946BDE8F08D00200543C8
:1004C00046EAE0762C4337430A986305E40AA0EB3A
:1004D00008000022FD0A44EA47540A3002D50020F1
:1004E0000146E9E7010510196941DDE908450019F0
:1004F0006941BDE8F04DA2E7064C074D06E0E06813
:1005000040F0010394E8070098471034AC42F6D35A
:10051000FFF712FE0C2B00082C2B000870B58D186D
:1005200010F8014B14F0030201D110F8012B231134
:1005300006D110F8013B03E010F8016B01F8016BE4
:10054000521EF9D1ABB110F8012B04F00C048A1A39
:100550000C2C03D0A2EB84129B1C08E010F8014B7A
:10056000A2EB0422F8E712F8014B01F8014B5B1EE5
:10057000F9D5A942D4D3002070BD00002DE9F04781
:100580004FF40871174800F047F8012828D11548A2
:1005900000F03EF881464846FFF796FE82464FF04F
:1005A0008B41FFF7E1FD0446FFF793FE07464FF04E
:1005B00066320D4BFFF716FE0546FFF79DFE0B4911
:1005C00008604FF40871074800F012F80021054850
:1005D00000F013F84FF40871024800F009F800BF6A
:1005E000BDE8F0870024014066660A40F84200201A
:1005F00000220A12D3430360704721B1826842F09F
:100600000102826003E0826822F00102826070478A
:100610000146C86C80B2704770B5024600200023C6
:1006200000240B125568CEB205EA060415681D4079
:1006300015B10CB1012000E0002070BD0EB5012104
:10064000102000F0C3FC42F20F70ADF8040040F23D
:10065000CF20ADF8000069460A4801F033F80122C6
:100660001146084801F023F80121064800F0FCFF7C
:100670000121044800F0FEFF0021024800F0FAFFCB
:100680000EBD00000010004000BFFEE7704710B52F
:10069000012000F06DF810B1012000F063F810BDEA
:1006A00010B5042000F064F890B10421094800F06E
:1006B00097F950B1262000F01F0201219140064A0F
:1006C000430942F8231000BF00BF042000F04AF89D
:1006D00010BD00000018014000E200E010B5082045
:1006E00000F046F8F0B108210F4800F079F9C8B1E0
:1006F0000EA001F0EDF900200F49087000210F480D
:1007000000F0DEFF012211460C4800F0D0FF01216D
:100710000A4800F0AFFF1221094800F0B3FD08209D
:1007200000F020F810BD0000001801404B45593181
:1007300020505553480D0A002700002000100040AB
:100740001500002010B5102000F012F830B1102173
:10075000034800F045F9102000F004F810BD000037
:10076000001801400149086070470000140401406E
:10077000014600200022074B1B6803EA0102054BDB
:1007800014331B680B4013B10AB1012000E00020B4
:100790007047000000040140002123498279002AAB
:1007A0003AD00A46126803689A430B461A600A1D3B
:1007B000126803689A430B1D1A60027911440A6893
:1007C00003681A430A60184A0832126803689A4399
:1007D000154B08331A601A1D126803689A43124BAE
:1007E0000C331A604279102A0ED11A1F126803685E
:1007F0001A430D4B08331A601A1D126803681A4316
:10080000094B0C331A600DE00749427911440A681C
:1008100003681A430A6005E0027911440A68036814
:100820009A430A60704700000004014010B501219E
:10083000412000F0DBFB0421084600F00BF800F03B
:1008400016FB10BD70B504460D462946204601F042
:10085000ADF870BD30B500228B071C0F0F2303FAD3
:1008600004F20B4B8C1053F824309343084C8D103A
:1008700044F8253023468C1053F824308C07240F7D
:1008800000FA04F42343024C8D1044F8253030BDA7
:10089000080001402DE9F041024600250026002015
:1008A00000230024002791F803C00CF00F0591F8F5
:1008B00003C00CF0100CBCF1000F03D091F802C083
:1008C0004CEA050591F800C0BCF1000F31D0146866
:1008D00000202BE04FF0010C0CFA00F3B1F800C03F
:1008E0000CEA03069E4220D183004FF00F0C0CFA55
:1008F00003F7BC4305FA03FC4CEA040491F803C077
:10090000BCF1280F06D14FF0010C0CFA00FCC2F824
:1009100014C00AE091F803C0BCF1480F05D14FF0B4
:10092000010C0CFA00FCC2F810C0401C0828D1D3FE
:100930001460B1F800C0BCF1FF0F34DD5468002032
:100940002EE000F1080C4FF0010808FA0CF3B1F8A2
:1009500000C00CEA03069E4221D183004FF00F0C29
:100960000CFA03F7BC4305FA03FC4CEA040491F8C3
:1009700003C0BCF1280F05D100F1080C08FA0CF8EF
:10098000C2F8148091F803C0BCF1480F07D100F100
:10099000080C4FF0010808FA0CF8C2F81080401C4F
:1009A0000828CED35460BDE8F08102460020936849
:1009B0000B400BB1012000E00020704702460020F0
:1009C000D3680B400BB1012000E00020704741616B
:1009D00070470AB1016100E04161704700BFFEE766
:1009E00070B504460D4629462046FFF7E7FF01286B
:1009F0001BD10F2001F0DCFA29462046FFF7DEFF6D
:100A0000012808D129462046FFF7CFFF08B9012069
:100A100070BD0020FCE729462046FFF7CFFF20B934
:100A200029462046FFF7C1FFF2E70020F0E7014624
:100A3000CA1701EB92729210A1EB820292B9642064
:100A400091FBF0F200FB121050B94FF4C87091FB0B
:100A5000F0F200FB121008B9012070470020FCE7FB
:100A60000120FAE70020F8E70EB50121452000F04B
:100A7000BDFA1020ADF8080048208DF80B000320C7
:100A80008DF80A0002A94148FFF704FF0122102156
:100A90003E48FFF79EFF04210846FFF7DBFE1020CB
:100AA000009000208DF804000C208DF80500012036
:100AB0008DF806006846FFF76FFE0820ADF80800C5
:100AC00048208DF80B0003208DF80A0002A92F485A
:100AD000FFF7E0FE012208212C48FFF77AFF0321EF
:100AE0000420FFF7B7FE0820009000208DF80400D6
:100AF0000C208DF8050001208DF806006846FFF7F0
:100B00004BFE0420ADF8080048208DF80B000320B0
:100B10008DF80A0002A91D48FFF7BCFE012204213E
:100B20001A48FFF756FF02210420FFF793FE042026
:100B3000009000208DF804000C208DF805000120A5
:100B40008DF806006846FFF727FE0120ADF8080083
:100B500028208DF80B0003208DF80A0002A90C480C
:100B6000FFF798FE00210846FFF774FE0120009071
:100B700000208DF8040008208DF8050001208DF874
:100B800006006846FFF708FE0EBD00000018014091
:100B90000008014070B504460D4616462B46224615
:100BA0002946204600F004F8304600F029F970BDCF
:100BB00070B504460D462A2000F016F92646E117C6
:100BC00004EB1161C1F30F2000F014F9E11704EBFD
:100BD00011610912A4EB012188B200F00BF916464D
:100BE000D11702EB1161C1F30F2000F003F9164693
:100BF000D11702EB11610912A2EB012188B200F0BA
:100C0000F9F82B2000F0F0F82E46E91705EB1161FA
:100C1000C1F30F2000F0EEF8E91705EB116109129E
:100C2000A5EB012188B200F0E5F81E46D91703EBC9
:100C30001161C1F30F2000F0DDF81E46D91703EB58
:100C400011610912A3EB012188B200F0D3F82C2026
:100C500000F0CAF870BD00002DE9F84F80460E463E
:100C600017461C46B3462046E31704EB5373DB10CC
:100C700021464FEAE47C04EB5C7C4FEAEC0CA4EBED
:100C8000CC0CBCF1000F02D04FF0010C01E04FF092
:100C9000000C6344224604EBD27C4FEA6C0C03FB4D
:100CA0000CF3DBB20093A7F12000C7B2002556E099
:100CB0000C2C07D107EB47002B4901EB800010F803
:100CC000059013E0102C05D1284800EB071010F810
:100CD00005900BE0182C07D107EBC700244901EB66
:100CE000800010F8059001E0BDE8F88F4FF0000A91
:100CF0002FE009F0800030B11E480288314640469E
:100D0000FFF748FF07E00A9828B91B4802883146D8
:100D10004046FFF73FFF4FEA49604FEA1069701CF9
:100D200086B216484088B04200DCDDE7A6EB0B0037
:100D3000A0420AD15E4608F101001FFA80F80F4870
:100D40000088404500DCCFE706E00AF1010000F032
:100D5000FF0ABAF1080FCCDB00BF681CC5B20098CF
:100D60008542A5DB00BFBFE796260008FC420020B5
:100D7000EC480020C8850020CA850020CC850020D2
:100D80002DE9F84704460D4690469946DDE9096786
:100D900004F0FF0A08EB04001FFA80F809EB0500D5
:100DA0001FFA80F916E0444502DB5446A81985B2C3
:100DB0004D4500DB14E0002000903A783346294688
:100DC0002046FFF749FF304606EBD07104EB610186
:100DD0008CB27F1C38787E2802DC38782028E2DA52
:100DE00000BFBDE8F8870000014908807047000097
:100DF000FE07006C01490880704700000008006C85
:100E00000112024A1180C1B2118070470008006CC3
:100E100008B50121482000F0E9F82020ADF80000D5
:100E200010208DF8030003208DF8020069460C485D
:100E3000FFF730FD20210A48FFF7C9FD2020ADF85B
:100E4000000010208DF8030003208DF80200694691
:100E50000448FFF71FFD20210248FFF7B8FD08BD39
:100E6000000C01400018014000BFFEE7704708B5C4
:100E70004FF4A06000F09EF80A208DF800000220D8
:100E80008DF801008DF8020001208DF803006846FE
:100E900000F058F809208DF8000002208DF80100BC
:100EA0008DF8020001208DF80300684600F04AF832
:100EB00008208DF8000002208DF801008DF8020056
:100EC00001208DF80300684600F03CF806208DF8FC
:100ED000000002208DF801008DF8020001208DF83D
:100EE0000300684600F02EF825208DF8000003204E
:100EF0008DF801008DF8020001208DF8030068468E
:100F000000F020F826208DF8000002208DF8010066
:100F100003208DF8020001208DF80300684600F0E0
:100F200011F836208DF8000002208DF80100032012
:100F30008DF8020001208DF80300684600F002F8E9
:100F400008BD000070B5002100230F22C47804B34F
:100F5000154C246804F4E064C4F5E064210AC1F18E
:100F60000403CA40447804FA03F18478144021430E
:100F700009010E4C0678A155047804F01F050124E0
:100F8000AC4005786D11AD0005F1E025C5F80041D4
:100F900009E0047804F01F050124AC40044D0678F4
:100FA000761145F8264070BD0CED00E000E400E04D
:100FB00080E100E002490143024A116070470000ED
:100FC0000000FA050CED00E07047000029B1064A68
:100FD000D2690243044BDA6104E0034AD2698243D6
:100FE000014BDA61704700000010024029B1064A47
:100FF00092690243044B9A6104E0034A9269824376
:10100000014B9A6170470000001002400F480068D1
:1010100040F001000D490860084640680C4908404E
:101020000A494860084600680A49084007490860BC
:101030000846006820F4802008600846406820F4D4
:10104000FE0048604FF41F008860704700100240A7
:101050000000FFF8FFFFF6FE30B50021002200245B
:1010600000232D4D6D6805F00C0121B1042905D038
:10107000082923D105E0294D056022E0274D0560B0
:101080001FE0254D6D6805F47012234D6D6805F461
:101090008034022505EB92421CB9214D5543056071
:1010A0000BE01D4D6D6805F400351DB11C4D554319
:1010B000056002E0194D5543056002E0174D0560DB
:1010C00000BF00BF144D6D6805F0F0010909154D12
:1010D0006B5C0568DD4045600F4D6D6805F4E061AF
:1010E000090A104D6B5C4568DD4085600A4D6D68EE
:1010F00005F46051C90A0B4D6B5C4568DD40C56065
:10110000054D6D6805F44041890B074D6B5CC56862
:10111000B5FBF3F5056130BD0010024000127A0006
:1011200000093D00000000201000002010B501461D
:101130000022002300204A11012A02D1094C236811
:1011400006E0022A02D1074C236A01E0054C636ADB
:1011500001F01F02012494401C400CB1012000E06A
:10116000002010BD001002400248406800F00C0052
:10117000704700000010024001460020034A5068FA
:1011800020F0F0000843506070470000001002405B
:101190001149096821F480310F4A1160114609682C
:1011A00021F480211160B0F5803F03D0B0F5802F8D
:1011B0000ED106E00849096841F48031064A116001
:1011C00007E00549096841F4A021034A116000E0E5
:1011D00000BF00BF70470000001002400146002021
:1011E000034A506820F4E0600843506070470000F4
:1011F0000010024001460020034A506820F460506D
:1012000040EAC10050607047001002400149086682
:10121000704700000000424202460020044B58681C
:1012200020F47C1042EA01031843014B58607047D8
:101230000010024001460020034A506820F00300DD
:1012400008435060704700000010024038B500208D
:1012500000900024002500BF3120FFF767FF0546FE
:101260000098401C00900098B0F5A06F01D0002DB0
:10127000F2D03120FFF75AFF08B1012400E000242A
:10128000204638BD70B505460E460AA000F020FC89
:10129000002408E0295D09A000F01AFC285D00F098
:1012A00013F8601CC4B2B442F4DB06A000F010FCDA
:1012B00070BD000073656E643A0000002532782D21
:1012C000000000000D0A000010B504462146054844
:1012D00000F067FB00BF4021024800F0E3FA00285D
:1012E000F9D010BD0044004070B500260024002550
:1012F00000F07AF806463848B6FBF0F43748008824
:10130000A0423CD035490C8040F2B27510E028462E
:10131000FFF78DFB40B1B4F5B77F02D3A4F5B774E6
:1013200004E0681C85B206E0A4F26D14681C85B266
:10133000B4F5B67FEBD800BF29488580002516E0BC
:1013400027498888FFF773FB30B1012D04D11D2C8C
:1013500001D31D3C09E00CE02248405DA04203D8C7
:101360002048405D241A00E003E0681C85B21C2C74
:10137000E6D200BF681C1A498871601CC871164803
:10138000B6FBF0F100FB11644FF46160B4FBF0F0C8
:10139000134908704FF46160B4FBF0F100FB114099
:1013A0003C21B0FBF1F00E4948704FF46160B4FB92
:1013B000F0F100FB11403C21B0FBF1F201FB120007
:1013C000074988700B46DA799979988800F028F8EF
:1013D00003490872002070BD80510100F4420020D2
:1013E0005886002089260008002103480188001F34
:1013F000008841EA004070471C2800400146002058
:10140000064A12880A40D0B2044A121F12880A40C3
:1014100012B108B1012000E000207047042800400C
:10142000F0B503460C461546642093FBF0F0C6B2B7
:10143000642093FBF0F700FB1730C1B2132E02DDDE
:1014400001F16400C1B20846CF1701EB977701EBB9
:10145000A707BAB2072092FBF0F700FB172082B271
:101460005719601EDFF82CC01CF80000384482B207
:10147000CF1701EB9777BF10A1EB87071FB9032C9C
:1014800001DA501E82B2072092FBF0F700FB172012
:10149000C0B2F0BD7D26000810B500F01DFE10BDE5
:1014A000704710B500F002F810BD00000CB5002028
:1014B000019000903348006840F480303149086062
:1014C00000BF3048006800F4003000900198401CD4
:1014D0000190009818B90198B0F5A06FF1D1294892
:1014E000006800F4003010B10120009001E00020FD
:1014F00000900098012843D12348006840F0100074
:10150000214908600846006820F00300086008468A
:10151000006840F0020008601A48406819494860B5
:101520000846406848600846406840F4806048606B
:101530000846406820F47C1048600846406840F443
:10154000E81048600846006840F08070086000BFFE
:101550000C48006800F000700028F9D00948406885
:1015600020F00300074948600846406840F0020048
:10157000486000BF0348406800F00C000828F9D11B
:101580000CBD00000010024000200240042808D1D9
:101590004FF0E021096941F004014FF0E0221161B0
:1015A00007E04FF0E021096921F004014FF0E0224B
:1015B000116170477047000010B51348006840F093
:1015C00001001149086008464068104908400E496A
:1015D0004860084600680E4908400B490860084604
:1015E000006820F4802008600846406820F4FE006F
:1015F00048604FF41F008860FFF753FF4FF0006012
:101600000449086010BD0000001002400000FFF80F
:10161000FFFFF6FE08ED00E010B501210D4800F0D7
:1016200035F890B10C480078401C0B49087008460A
:101630000078052809DB09A000F04AFA00210548D6
:1016400000F018F80020044908700121014800F05A
:101650000EF810BD00100040270000206E6F2065BE
:1016600063686F0D0A000000CA4302827047CA43D4
:101670000282704721B1028842F00102028004E038
:1016800002884FF6FE731A400280704730B502465A
:10169000002000230024158A05EA0103958905EA44
:1016A000010413B10CB1012000E0002030BD1AB1DB
:1016B00083890B43838102E083898B438381704755
:1016C00081847047002202881D4B98420ED01D4B2A
:1016D00098420BD0B0F1804F08D01B4B984205D0F8
:1016E0001A4B984202D01A4B984204D14FF68F738E
:1016F0001A404B881A43174B984207D0164B984212
:1017000004D04FF6FF431A40CB881A4302808B88DF
:1017100083850B8803850A4B98420BD0094B98426E
:1017200008D00E4B984205D00D4B984202D00D4B7D
:10173000984201D10B7A038601238382704700000F
:10174000002C01400034014000040040000800402B
:10175000000C004000100040001400400040014018
:1017600000440140004801402DE9F041064616B111
:10177000012E06D102E00C4C202504E00B4C202564
:1017800001E0BDE8F08100BF29462046FFF716F9C9
:1017900008B9012000E0002007463A4629462046C5
:1017A000FFF717F900BFECE7000C014000180140FB
:1017B00010B50821084800F075F860B1064800F03F
:1017C000EBF8012802D10020FFF7CEFF40F22551AF
:1017D000014800F04CF810BD0038014010B540F24F
:1017E00025511A4800F05EF800282DD0174800F067
:1017F000D3F8C1B2164802780078401C144B187018
:101800001448815418460078802802DB00201946CD
:1018100008700F48017810A000F05AF90C480078C1
:101820001D280CD1002405E00A48015D0AA000F043
:101830004FF9641C1E2CF7DB00200549087040F2AC
:101840002551024800F013F810BD0000004400408C
:1018500014000020D88500202563000001F40072E8
:10186000B2F5007F00D100BFCA430280704710B5B7
:101870000022002340F66A14A14200D100BF0A12E0
:1018800001249440A3B2DC43048010BD21B18289BD
:1018900042F40052828104E082894DF6FF731A40BF
:1018A0008281704702460020B1F5007F00D100BF61
:1018B00013880B400BB1012000E0002070470000AE
:1018C0002DE9F04786B005460E460024A24600BF2B
:1018D000A1460027B08900B100BF2F462C8A4CF6E4
:1018E000FF700440F08804432C82AC894EF6F3105C
:1018F0000440B08831890843718908430443AC81AE
:10190000AC8A4FF6FF400440B0890443AC8201A882
:10191000FFF7A2FB1F48874202D1DDF810A001E0CB
:10192000DDF80CA0A88900F4004040B10AEBCA0021
:1019300000EB0A1031684900B0FBF1F807E00AEB50
:10194000CA0000EB0A1031688900B0FBF1F864208E
:10195000B8FBF0F004012009642101FB1089A8897B
:1019600000F4004040B1322000EBC900B0FBF1F0C0
:1019700000F00700044308E0322000EB0910642166
:10198000B0FBF1F000F00F0004432C8106B0BDE87D
:10199000F08700000038014001468888C0F3080045
:1019A0007047C1F3080282807047000030B585B0EF
:1019B00005460C46012D35D1012144F20400FFF704
:1019C00015FB6802ADF8100003208DF812001820F6
:1019D0008DF8130004A93948FEF75CFFA802ADF8A2
:1019E000100004208DF8130004A93448FEF752FFBC
:1019F00000940020ADF80400ADF80600ADF8080032
:101A0000ADF80C000C20ADF80A0069462C48FFF731
:101A100057FF01212A48FFF739FF40212848FFF7E7
:101A20001DFF48E0022D46D101214804FFF7CEFA00
:101A300001210420FFF7DAFA01212020FFF7D6FA6E
:101A40000420ADF8100003208DF8120018208DF846
:101A5000130004A91948FEF71DFF0820ADF8100077
:101A600004208DF8130004A91448FEF713FF80200A
:101A7000ADF8100010208DF8130004A91148FEF7EE
:101A800009FF00940020ADF80400ADF80600ADF8A1
:101A90000800ADF80C000C20ADF80A0069460A48B1
:101AA000FFF70EFF01210848FFF7F0FE402106482E
:101AB000FFF7D4FE00BF05B030BD000000080140B4
:101AC00000380140001401400044004000BFFEE720
:101AD0000FB4054B10B503A9044A029800F02CF886
:101AE00010BC5DF814FB0000F91F0008D48500202D
:101AF0000FB4084B10B504A902AA039800F01CF813
:101B0000044602A9002000F048FA204610BC5DF807
:101B100014FB00009B1F000802E008C8121F08C148
:101B2000002AFAD170477047002001E001C1121F5E
:101B3000002AFBD1704700002DE9FF4F8DB00F4602
:101B40000546002606E025280BD0DDE90F12904758
:101B50006D1C761C28780028F5D111B03046BDE800
:101B6000F08F0024A246A1460122EC4900E0044384
:101B700015F8013F203B02FA03F00842F7D128781C
:101B80002A2810D06FF02F022878A0F130010929FF
:101B900014D80AEB8A0102EB410144F0020400EB85
:101BA000010A6D1CF0E701CF5FEA000A03D544F497
:101BB0000054CAF1000A44F002046D1C28782E2853
:101BC00017D115F8010F44F004042A280ED06FF045
:101BD0002F022878A0F1300109290AD809EB8901E0
:101BE00002EB410100EB01096D1CF2E757F8049B81
:101BF0006D1C28786C280FD006DC4C2817D068287C
:101C00000DD06A2814D104E0742810D07A280FD19E
:101C10000DE044F400140AE044F4801401E044F4BC
:101C200040146978814202D104F580146D1C6D1C4A
:101C30002A786E2A1FD00CDC632A31D004DC002AFB
:101C40008BD0582A11D1A3E0642A68D0692A0CD11C
:101C500065E0732A2ED004DC6F2A73D0702A04D179
:101C60009BE0752A6FD0782A6ED01046DDE90F12FE
:101C70009047761C50E1C4F30250022806D0032896
:101C800009D0042801CF09D0066045E101CFF11742
:101C9000C0E9006140E101CF06803DE106703BE113
:101CA00017F8040B8DF8000000208DF80100EB46BA
:101CB000012003E057F804BB4FF0FF3061074FF0FD
:101CC000000102D40DE008F10101884649450FDA10
:101CD0008045F8DB1BF808100029F4D108E008F172
:101CE000010188468142FADB1BF808100029F6D171
:101CF000DDE90F23AAEB08008146214600F036F902
:101D0000304400EB080604E0DDE90F121BF8010B7C
:101D10009047B8F10108F7D221464846F7E00A217A
:101D2000C4F302534FF0000B0891022B04D001CFF3
:101D3000C117032B09D00AE0FF1D27F00707F7E8BA
:101D4000020108E032E01FE020E000B2C117042BDE
:101D500001D140B2C117031E71F1000307DA4FF041
:101D6000000CD0EB0C006CEB01012D2302E02305ED
:101D700004D52B238DF82430012303E0E30701D0A1
:101D80002023F7E7984658E00A2110E010210EE0E2
:101D900010204FF0000B08900CE010214FF0000BCA
:101DA00044F004044FF00809089103E008214FF0C3
:101DB000000B0891C4F30253022B04D001CF002181
:101DC000032B06D006E0FF1D27F00707F7E8020106
:101DD00003E080B2042B00D1C0B24FF0000823070B
:101DE0002BD5702A07D0DDF820C08CF0100C5CEAEF
:101DF0000B0C05D00EE040238DF82430012308E0C1
:101E000050EA010306D030238DF824308DF82520C8
:101E100002239846DDF820C08CF0080C5CEA0B0C1D
:101E20000BD150EA010301D1630706D530238DF8A9
:101E300024304FF00108A9F10109582A04D038A232
:101E40000B9208AA0A920BE03AA2F9E75B46089ABD
:101E5000FEF76EFA0B9B9B5C0A9A521E0A92137055
:101E600050EA0102F2D10A98ADEB000000F1200B1C
:101E7000600702D524F4803401E04FF00109D94510
:101E800002DDA9EB0B0000E0002000EB0B01414458
:101E90000890AAEB010AE00306D4DDE90F232146EE
:101EA000504600F063F806444FF0000908E009A925
:101EB00011F80900DDE90F12904709F10109761CBC
:101EC000C145F4DBE0030CD5DDE90F232146504684
:101ED00000F04CF8064404E0DDE90F123020904792
:101EE000761C0899481E08900029F5DC08E00A983D
:101EF0000A990078491C0A91DDE90F129047761C77
:101F0000BBF10001ABF1010BF1DC21465046DDE9EC
:101F10000F2300F019F806446D1C1BE60928010088
:101F2000303132333435363738396162636465664F
:101F30000000000030313233343536373839414211
:101F400043444546000000002DE9F04104460025C9
:101F50001E461746880404D405E039462020B047C1
:101F60006D1C641EF9D52846BDE8F0812DE9F041CD
:101F7000044600251E469046C80301D5302700E0E0
:101F80002027880404D505E041463846B0476D1C3B
:101F9000641EF9D52846BDE8F0810A68531C0B6021
:101FA0001070704710B56FF00400FFF7EFFA10BD26
:101FB000014642F228324A434FF0E0235A610022A0
:101FC0009A611A46126942F001021A6100BF4FF08D
:101FD000E022106900F001021AB100F48032002AF8
:101FE000F5D04FF0E022126922F001024FF0E02319
:101FF0001A6100229A61704770B504460D46E1B23D
:102000000548FFF7CEFC00BF80210348FFF74AFCDC
:102010000028F9D0204670BD0038014000F02CF8AF
:10202000FEF7F6FEFEF720FDFFF7BCFFFEF7FEFB16
:102030004FF416510120FEF705FC07A0FFF748FDFD
:102040004FF416510220FEF7FDFB07A0FFF740FDFD
:10205000FEF7F4FA00BFFEE77573617274315F69D1
:102060006E69740D0A0000007573617274325F69E5
:102070006E69740D0A00000010B5FEF7C7FF4FF43B
:102080008030FFF785F80020FFF776F80020FFF793
:10209000B1F84FF48060FFF7A1F84FF4E0114FF46E
:1020A0008030FFF7B9F80120FFF7B0F8FFF7CEF85E
:1020B000012801D0002010BD00BF3920FFF736F8FD
:1020C0000028FAD00220FFF7B5F800BFFFF74CF860
:1020D0000828FBD10120EEE700B589B00120FFF709
:1020E0008DF988B1FFF700F93B4880783A49497883
:1020F000394A1278CDE9002102903748C3798279B4
:10210000818836A0FFF7E4FC334882883BA104A80D
:10211000FFF7EEFC04A810210B466422CDE9001065
:102120004FF496711E20FEF72BFE2B48827933A1C7
:1021300004A8FFF7DDFC04A810210B466422CDE9BA
:1021400000104FF496715020FEF71AFE2248C27913
:102150002BA104A8FFF7CCFC04A810210B46642295
:10216000CDE900104FF496718220FEF709FE1A485F
:10217000027824A104A8FFF7BBFC04A810210B4699
:102180006422CDE900104FF4AA711E20FEF7F8FD7D
:10219000114842781BA104A8FFF7AAFC04A810214B
:1021A0000B466422CDE900104FF4AA715020FEF7CF
:1021B000E7FD0948827812A104A8FFF799FC04A85A
:1021C00010210B466422CDE900104FF4AA71822041
:1021D000FEF7D6FD09B000BD5886002052544320BA
:1021E00054696D653A25642D25642D256420256488
:1021F0003A25643A25640D0A0000000025642F008A
:102200002564000025643A00000000000000000082
:102210000000000000000000003F4000000000003F
:102220000000003000400030004000000009000BBA
:10223000C03D000BC03D00090018C024407FE022D3
:102240004031800000180024C01B000D8032400186
:102250008003801C4027401C800740004010006025
:102260000000000000000000000000000000001F4F
:1022700080204040200000402020401F80000000BF
:1022800000090006001F8006000900000004000489
:10229000003F800400040000000010006000000007
:1022A000000000000004000400040004000400001A
:1022B00000000000400000000000000000002001BD
:1022C000C006003800400000001F80204020402051
:1022D000401F800000000010403FC0004000000090
:1022E0000018C021402240244018400000108020E7
:1022F00040244024401B80000002000D0011003FDC
:10230000C0014000003C8024402440244023800041
:10231000001F80244024403440038000003000200F
:102320000027C03800200000001B802440244024E7
:10233000401B8000001C0022C0224022401F800061
:102340000000000000084000000000000000000045
:10235000000460000000000000000004000A0011FA
:102360000020804040090009000900090009000020
:102370000000004040208011000A000400180020E6
:102380000023402400180000001F8020402740291F
:10239000401F400000004007C039000F0001C0008E
:1023A0004020403FC0244024401B8000001F80206C
:1023B00040204020403080000020403FC02040208E
:1023C000401F80000020403FC024402E4030C0000D
:1023D0000020403FC024402E00300000000F0010BD
:1023E00080204022403380020020403FC00400048F
:1023F000003FC02040204020403FC02040204000FF
:10240000000060202020203FC02000200020403F0E
:10241000C024400B0030C0204020403FC02040007E
:1024200040004000C03FC03C0003C03C003FC00033
:102430000020403FC00C4023003FC020001F8020F0
:1024400040204020401F80000020403FC024402406
:1024500000180000001F802140214020E01FA00044
:102460000020403FC02440260019C0004018C0246E
:10247000402440224031800000300020403FC020F6
:10248000403000000020003F80004000403F80209E
:102490000020003E0001C00700380020003800077F
:1024A000C03C0007C038000000204039C006003999
:1024B000C0204000002000384007C0384020000005
:1024C00000304021C02640384020C00000000000FD
:1024D000007FE0402040200000000070000C00035E
:1024E00080004000000000402040207FE00000000D
:1024F000000000200040002000000000000010004C
:10250000100010001000100010000000004000003B
:102510000000000000000002800540054003C000EC
:102520004020003FC004400440038000000000033E
:102530008004400440064000000000038004402462
:10254000403FC000400000038005400540034000BC
:1025500000000004401FC02440244020000000026E
:10256000E0055005500650042020403FC0044004C0
:102570000003C000400000044027C00040000000ED
:102580000000100010041027E00000000020403F71
:10259000C00140070004C00440204020403FC0006C
:1025A000400040000007C0040007C0040003C00052
:1025B00000044007C00440040003C00040000003C2
:1025C000800440044003800000041007F00450041D
:1025D0004003800000000003800440045007F00026
:1025E00010044007C0024004000400000000000680
:1025F000400540054004C00000000004001F8004A6
:102600004000400000040007800040044007C00074
:10261000400400070004C001800600040006000119
:10262000C0070001C006000000044006C00100060B
:10263000C0044000000410071004E00180060004FC
:10264000000000044005C0064004400000000000F7
:102650000004007BE040200000000000000000FFBC
:10266000F000000000000040207BE00400000000BB
:1026700000400080004000200020004000000303D4
:102680000601040602050003051F1C1F1E1F1E1F56
:102690001F1E1F1E1F0000000000000000000000A1
:1026A0000000000000003F400000000000000000AB
:1026B0003000400030004000000009000BC03D0029
:1026C0000BC03D00090018C024407FE0224031804B
:1026D0000000180024C01B000D80324001800380E0
:1026E0001C4027401C800740004010006000000094
:1026F0000000000000000000000000001F802040DB
:1027000040200000402020401F8000000000090001
:1027100006001F80060009000000040004003F803E
:102720000400040000000010006000000000000031
:102730000000040004000400040004000000000085
:1027400000400000000000000000002001C0060062
:102750003800400000001F802040204020401F80A3
:102760000000000010403FC000400000000018C002
:102770002140224024401840000010802040244086
:1027800024401B80000002000D0011003FC00140EA
:1027900000003C80244024402440238000001F800F
:1027A000244024403440038000003000200027C033
:1027B0003800200000001B802440244024401B805F
:1027C00000001C0022C0224022401F8000000000A8
:1027D000000008400000000000000000000004604D
:1027E000000000000000000004000A00110020802A
:1027F000404009000900090009000900000000002C
:102800004040208011000A000400180020002340EE
:102810002400180000001F802040274029401F404E
:102820000000004007C039000F0001C000402040F8
:102830003FC0244024401B8000001F8020402040D7
:1028400020403080000020403FC0204020401F80BA
:10285000000020403FC024402E4030C000002040F7
:102860003FC024402E00300000000F0010802040A8
:1028700022403380020020403FC0040004003FC0DB
:102880002040204020403FC0204020400000006009
:10289000202020203FC02000200020403FC02440B6
:1028A0000B0030C0204020403FC02040004000408E
:1028B00000C03FC03C0003C03C003FC000002040BF
:1028C0003FC00C4023003FC020001F80204020401C
:1028D00020401F80000020403FC0244024001800FA
:1028E00000001F802140214020E01FA00000204068
:1028F0003FC02440260019C0004018C02440244096
:10290000224031800000300020403FC02040300095
:10291000000020003F80004000403F802000200059
:102920003E0001C0070038002000380007C03C000E
:1029300007C038000000204039C0060039C02040E0
:1029400000002000384007C0384020000000304020
:1029500021C02640384020C00000000000007FE079
:10296000402040200000000070000C000380004068
:1029700000000000402040207FE000000000000038
:102980002000400020000000000000100010001097
:1029900000100010001000000000400000000000C7
:1029A0000000000002800540054003C000402000F8
:1029B0003FC0044004400380000000000380044046
:1029C00004400640000000000380044024403FC053
:1029D0000040000003800540054003400000000067
:1029E00004401FC0244024402000000002E00550A5
:1029F00005500650042020403FC00440040003C09E
:102A000000400000044027C000400000000000100B
:102A10000010041027E00000000020403FC00140EB
:102A2000070004C00440204020403FC00040004058
:102A3000000007C0040007C0040003C000000440F9
:102A400007C00440040003C00040000003800440AD
:102A5000044003800000041007F004500440038089
:102A60000000000003800440045007F00010044000
:102A700007C00240040004000000000006400540BA
:102A8000054004C00000000004001F800440004016
:102A90000000040007800040044007C0004004001C
:102AA000070004C0018006000400060001C0070002
:102AB00001C006000000044006C0010006C004403A
:102AC00000000410071004E001800600040000006C
:102AD000044005C00640044000000000000004005F
:102AE0007BE040200000000000000000FFF000003C
:102AF0000000000040207BE00400000000004000D7
:102B00008000400020002000400000002C2B000826
:102B100000000020D88500001C050008E4400008E3
:102B2000D885002090040000281B00081200012016
:102B3000050102030404201306070809020406081D
:102B4000007E3130303133303430010007144644D8
:102B500042370D000160051FCC000C0C5006080028
:102B60003000600660090000022003FC1E200621E0
:102B70002C200B0E1811043FFF10840C783A200E05
:102B80000F0010840F3800C0077818840012F01569
:102B9000780F8410C411240E9800E4008400080803
:102BA0000068007070200907E01818200440027CBB
:102BB000400940022004181807E01A200B024002C6
:102BC0004001800FF001800A1150228002430FF86B
:102BD0000821E5B005000D000EBDB280021200CA4A
:102BE000B20C6D2008060018006001800721C1307A
:102BF0000D07F0080810041004080807F0F010088A
:102C00000408041FFC000402350C340C0E0C1014D4
:102C10001024104411840E1410060C181004110214
:102C2000400412880CC91008E0032004240824344E
:102C300036243C2004981084203004108810201181
:102C400060228830431888F930081C00100010FCFE
:102C50001308354010063811441084343404440EEF
:102C6000380C400A00088C1044104408889021B3A6
:102C7000A004030C03C4A004010106F026013322C2
:102C800010C625A0A102217021DA34070410022009
:102C9000014030152D200A1200100C106C10800F0E
:102CA0005A140EE00C1813E4142417C4082807D093
:102CB0001E140A04003C03C41C400740B0171C004B
:102CC00018231FFCEE300411040EC02130252E11F4
:102CD0000213081CC121204110454061301317C464
:102CE0001272181018050017C01044914050064485
:102CF0001C780040402684D42310844A2152615419
:102D000041FB10040001100234041FFE103041503A
:102D1000400703801464181C2E31364102420C8097
:102D200010041F000004614E14061FFC0C0403A6CF
:102D30001310186075EEA1B0157E228002460FAE0A
:102D40001618EE800824101C080A07F2C018051196
:102D5000C011300011A0170E1CDC15B011C215B047
:102D60002618CE41B0110C156E4004001FF89011CA
:102D70007A22F8B414051E0011E0F52404701380C3
:102D8000FA10071FC0103C00E0A22006E0103C1F14
:102D9000C0A0200D180C163401C001C01634180C48
:102DA0004648091C00130400FC13042015BB100640
:102DB0001C10641084106804041018E31F7FFE17B1
:102DC000034E0230031A30E11F0380A303161C2CAC
:102DD0003D400321028F7FFE110316206921023D31
:102DE000AF03D20102811A695020069801240144E0
:102DF000021E00060311D05809FC008801040104DA
:102E000000C019063110311291103F1108360340ED
:102E1000040000F83E11403EC88604111C4A0F44CD
:102E20003522300500D60129022AC9C625A0330063
:102E3000849511F625609C06010419041980032964
:102E40000230060101190119D2313038092400403D
:102E500001B4010C012249306DB003118A12FC9CAF
:102E600042000622000CD16011A05204C02EF84B83
:102E70000300051301FF0085E012051A32010A2143
:102E8000A221543D40031700CC20410266985132E4
:102E90000754510E4AF88E1301087A31361F01701B
:102EA00084041F10017404111E1008F0010C00307E
:102EB00001C004120C0C41B220088C007401700196
:102EC0008CD011901C04810171A50342183015109B
:102ED00012842A16345411089D03046804003EFC31
:102EE000022D85046BFFFF1C291A7C043EFC010F98
:102EF000053E602B054900033120000110070F80BB
:102F0000380FFE380601101B193F15C41D77031D2D
:102F10000A0392310C7E308D05200961800067F82C
:102F200007F98009710371127DD1045C17C0E003B9
:102F3000E0F00630080418081FFFFE040E0807879B
:102F4000F0038104061C0501F000067B032C090434
:102F500008060C7001F9C0EF051C073BE000EC18F7
:102F600007D9041F0C18930431251EE0CA051C184C
:102F700003F818041C0804170807E1D003C0E00098
:102F800023B0003C08002079047210B111A82E3241
:102F900086050124FD54117F0001FFC00780F00C5D
:102FA00000181000042000711109110F1115111BD8
:102FB0001121112701113C300542000066032E3C0F
:102FC000280412032732180C41155E425E07A10344
:102FD000214BC1120126B6021B08038194623803FB
:102FE0000116493206662A70ED320E2F1EC0920677
:102FF000211385D41C097F8001FFE00380704907FD
:103000001E042F0713000809110F1115111B99A297
:1030100042080300071003FFF807FFF88E1416019B
:10302000C03802C0580400980401180402180404AF
:1030300018061C18C2B80401E0F81923C0F0661580
:10304000EC240C080806180803F41801E7F0EF71E7
:10305000B31DDE051DC9081A116D10080000810896
:103060000301086F120F72160151716F1006E0070D
:10307000FCD0064262100384091838060FF00607D8
:10308000C0B0323FD81C0684300208184F074103F5
:103090009008071810030FF0002736031119EB50A2
:1030A0000C0600F80607F806180006E01259AF1CD7
:1030B00008E1E003F7F00634DB0529D023040C0314
:1030C000600906161803F3F001C1B7500CF80003AD
:1030D000FC3003063804020803080518041003082E
:1030E0004C537038030919AC080617301A00301C0D
:1030F0001F1C081400002200004130081D87041D19
:103100006B09740620040010088F021B21038D0C2C
:103110000A15EF12103C11421148214E32225A86F4
:10312000081D1204032D360A1C0D38080F38080834
:10313000380810000C30E109211B75683A00403056
:1031400019020F1006708804C088048308047F8861
:1031500002C09003012000FE40AF2E1849051C0D4F
:103160003E0801C20007020007E20000FF052F1F12
:10317000C85E052D610429763A0758491909171FB9
:1031800045D4116C69AC39B22007100600200780C5
:10319000918148811EA80518020010D001136C5BB4
:1031A000043EFA3E01180BC1245200034A3E286D2A
:1031B0003A0691905D3C0335FE2C070203F007832D
:1031C000F05B04B20248AD1A042D5F0961A84DA955
:1031D0000371B1D1C0CDCC0319991DA907410314C6
:1031E000080307FFFE07FFFC9E610365442F0C08E0
:1031F0009B0418093E0004C7800503C8D9140404C1
:10320000003808B5680D116304113491FC1C058069
:103210000807FC9B082C05C00003F8300323780046
:1032200012955C21241D0E041DF5083EE025064282
:103230001E9E3005C00400F0D80D185C041D310737
:1032400005108C1DA70B1D660961031D2106117752
:103250000F1001F0A4041E88DA07130400D5040B34
:10326000113C03003E01FFE6007F84B01D60065C58
:103270000E0F00040BC00610F003F03801E07D05CE
:103280001D8C04BC0603F0300630CC033C0802065B
:10329000180207F0079F061D27050610065025890E
:1032A0002D060345FB1D0F03440707FFE007FFF052
:1032B00053ADF2051D8403111B712D1D2703580703
:1032C00007FE00041FE0E81B01E043154C71632179
:1032D000211FFFC05A0A15621207052005FF80044E
:1032E0003F0C1604735E00B20C4D9105140707C025
:1032F0007805F1C8D4440A001F800463E80780F809
:103300005372006C1E80770D1C0508047C08B20AFD
:103310001DC1081E00AD044FE008DA046E04C105AB
:103320002A06072007F80403E8040F2A100605F010
:103330000807C02419BB0E1060EF061C043FFFFEF7
:103340001707A103AD9E0619891D4B062DBC032549
:10335000153EC050063E0E42087DA60AB13C114EF5
:103360000D16CA0432103D322006BE10E0060221BE
:103370000103716F21037E101A08EDF9071010F098
:103380000019F8001B180022080026080024031763
:1033900010006B6B1FF8FA45D71D69061C04F0007E
:1033A00018060C3D670811036C083018001FF00068
:1033B0000FED041D0903110F5318301E11211D912B
:1033C000082D390D954141247338182450040410F8
:1033D000105AA19E414B300512300022961199904F
:1033E000093208001E10000E20D3213F1C0401FFEB
:1033F000F8740712064831034F0720190C5DCF0EF1
:10340000300C000E6E001FF30031B10020034C0C95
:103410003191001F13002E1E00200EE4074D1704EB
:103420002D410721D5615781FC7D570C51AE100409
:10343000063FF8030D136E083D9C072E032F06214F
:1034400003AC0803063FFE063FFC6E08816C2F01AB
:1034500088C8073C092FC00038F8002038B409A2FA
:1034600008277DEC040E100F4C08419F623FB1010C
:10347000100C4D3405A127021510D81565360FB074
:103480007630D11D1C05AF300004081DFE06233F19
:10349000FF0364061011002009F8061138F885D4DE
:1034A00022092D321F3649F4791041931D19115903
:1034B0004339DD8D410B1D7110100D78001E180071
:1034C00033080023080021031007880021980030EA
:1034D0005DBA60CB11F917FFF0F8896AA146250B98
:1034E0007C06F0007FF80083043A20D09A7F644184
:1034F0007B3E3CA1071E23CC0F1DBF112005700091
:10350000238012623063211E1D580B1D9E042C0463
:10351000E000273306210F1E217A0522E00C9A20B5
:1035200019200F3838003E680027800003C8002C9F
:10353000F80F3A20E2816C140403003C4A800583B2
:103540000023EC69BF20008D0E3B38080D1C08F8E5
:103550000023E8002F88100831121D78060E16701F
:10356000E508AC071FF7FC3000067D04DDD9038EAB
:10357000FF2B0DBD3E091D74041139113FADD0085C
:10358000AD15134DEE063240036E207A044D9705BB
:103590000E170C47040182011D98113C08C007FF5B
:1035A000E1E007F01709025FC0714E20E2051D62DD
:1035B000061E00EA102DE9070312001C1401527CBC
:1035C00053180C042F0FE0BB10900403F80C1401E7
:1035D000191C054C721C0480007803091C06FC06AB
:1035E00040010EF8041C1A070020020380200FFF80
:1035F000FFFC0201C0200200E0600130704001F0D9
:103600000A0B0748F01F781D230B1DB4101F000381
:1036100074081C0B02008060030181C001FFBE0D15
:103620002EFE9A121D75091F03BF4E041DAE0E1CFF
:103630000671806001C190051B0180D11D730E07CA
:1036400045003FF925EE1D010A13FCC07811801CCE
:103650000B03E0200202782002061E30161207F04B
:103660001DA8121E01230C1C04011C605A091E20F7
:10367000C5102104AE40200B09427C115E1F001CC6
:10368000A5031A1F6C0E870F85031D33052DFD053D
:1036900019181DFE111EE092142E30270D2D430423
:1036A0001DC4080A4602FF214C2154215C216421DB
:1036B0006C398C217C036407F8EC1D95111DD7161D
:1036C00041041E06E8091A03671F6143F60D1EFF39
:1036D000F611424310211861240F4D0C1881040289
:1036E00014800403187FFF1C0D48FD032DB5131231
:1036F000E3041DB40E1D72143D4707096A690235C3
:103700008004054B813EC091130E65007006D97E82
:103710004DE7123DF1043E80650C011D0F094E7E00
:103720001E009F1A396C1C04F0078047131EC07ED0
:10373000181E60DD0F622004211021181D3A1A3274
:1037400080280E510F98031E80F71781041C046017
:1037500001FFDB1211043D11164DA9096104095046
:10376000831E7874041E98C016130002F812040415
:103770001208041210041220041C044060039C066A
:103780001301839412FE280B4F7C077D35781EF0C1
:1037900068052D4D1C25748201041E0388071C0634
:1037A0000186804001A4062F0078DF110A4D1E7F9C
:1037B0005A08611E48F1081D21191D771D1F000CB4
:1037C00005131230041404400810881DA50B410491
:1037D0001DFF058210040D4D800810061F86400352
:1037E000E1F01DE913D30304041C090600400303A0
:1037F00001C003A5070C045103007EEC064EFCEC4F
:10380000061C0970C380008180C00123132188A297
:1038100002041E03C4191EC183131EC01406014EE8
:10382000843EF089143DE0032D131B1E03E9101E96
:1038300003B70C11F31200FC4C040003188306615B
:10384000200D4CFD0A1DDC1B1E78E214200BFC60D1
:10385000C0018EC040030780EC197C5280041EC05A
:1038600078091C06E04001867028091D000A0F4CEB
:10387000781F7C032DCB091EFFF8091FC0C1000370
:103880001E606C0AA220042D800311182C06C18032
:1038900000C18F471C1DEB1F0E60F0810C2E0345ED
:1038A000181D2F1321040E6F0310062DAA171E6674
:1038B000AE170E6B7884072DED0C6DE8082D1009FE
:1038C0002D940C1E305D191DFE043F00C0DA1B3D17
:1038D0009C040E4E043A0E2D4E0A013204014A8316
:1038E0001D75202DF0063D5D1E11EC31F421FC2DDF
:1038F0006C0D2D1C0A6D140A25240D507C083DB951
:10390000102D28184F0238590B1D27201D65161E33
:103910007967151F81E01B1E2EC00F201D8C043DF2
:103920000C041DA41D2D8D190D4CFC071E3F5803C2
:103930001E70040E1DDE041C040101F804041C0AA0
:10394000FC20021E04200230083A231C0A30200208
:103950003FFC20013F04D8221E0C04081E31AC0598
:103960000E49C27A0F2DA5102D131D1E3EF7131DF3
:10397000640D51071DF7061D97052D06122D080E23
:1039800052FE093DA0090D4B08087DE4085D700852
:10399000AD7C078D84071D411A1E86840E2D840779
:1039A0005FF87F12100D4D680D65801D11219E037B
:1039B0007C0961042D1C083D9C0929A00404573092
:1039C000060000D17C3DFC09517C2D200A3D840578
:1039D0000D49000A0522802D8C103C04020FE0885E
:1039E0000A1DCE1C3EE0A003016080B200041DB39E
:1039F000221E0387113DA0070C0412C000005118BD
:103A00000938004D80032D56230912001D8B162105
:103A1000041C044003C080071E30ED140D45030351
:103A20000510FC1DF4071104AD840E6114E9200D8E
:103A30004E7307F9780915900D5182132D530D52CD
:103A40000F04830102041D030A1F0006FC0A12FC76
:103A50000443F802A471040D5880033AC0803D79F4
:103A60001419701C040030F8960C1C063E200380CC
:103A70000F00032E03A0030F49E002040505167092
:103A8000021400045E608A0E0D507C0422E0081DC2
:103A9000F3232DE0091DE80B41FD5E1E1B06111CE2
:103AA0000B4FE00084B1801D780E1F03F07C0E5E8A
:103AB000FC17142D3E193D9F1D1E7C04031F1F8003
:103AC000D41F6D0003094B007D80075D7C0F7D04D2
:103AD0000E0D11FC052E0090140E5D3F80055DF06B
:103AE000034E02FC0371042DA4151D040F3DB415F3
:103AF00015130D517C101E037C102D00051E06ECC5
:103B0000211D7C0831041206081F03E018271EF847
:103B100096091E5C80101E8CB61D0C06600C000FF2
:103B2000FC1800081D94161DA4251E0215271F034E
:103B30000396211C048607E058271EE009230D5038
:103B400088101E78680B1C06FE01E00186E0071D48
:103B5000680EED800D2D14042E0184170C074C8087
:103B600070C003E03F80089D580E0E1C0210083DF7
:103B70009C0A2D840E0F4700E0F40541541D0D28CA
:103B80001DEC114FC002640CEDF011522018228080
:103B9000280D51800541842D800F1D071023023F01
:103BA000092DD1252D6C112DD62D2D161A1E78001C
:103BB000084C05C000023CA80F0D46040671781D94
:103BC00067161E0204041C0402007FF4041E0F0C7E
:103BD000195005F00003EF182E0F71032D050B2C63
:103BE000041F0002962486F8AC0D4B84051E805EEF
:103BF000034C0BF0032002FC0C20021F3000051DBB
:103C0000891B1F021800051F601F80060D507C06CF
:103C1000750465802D040D1DEC051C04020FC068A1
:103C2000192DFC1315102DFC09121C144E700011D7
:103C30000D4F80052D6F2C2E60DA141E0374111C9D
:103C4000040FA002880C1C040200F8001B1D0C1AB3
:103C5000120F7C21903E7880062660240E5102824D
:103C600011FDCE301D74080D1AFE0E0D53741D6D1E
:103C7000D80A5E78ED1C310D5EF0FA1C3DF4142D6F
:103C80000D079F3C0039280D49041A0D1706102511
:103C90000C0D6677115D7C0F3D12154D1C2F4108F0
:103CA0005D3D23094E786D7C19013A04054A847103
:103CB000045618040E6304ED122D641D1E8F852713
:103CC0001C078C6000061820C23151042220041EFB
:103CD0004003083E408B2C3D10047D880A0E4FC0E7
:103CE00000061D00081E0784061DFF2E1DE9051D88
:103CF00041341D352A1D5C3281041D84163D181483
:103D00003D9C0A0E4DFE041B4E7EF40A2303817C6B
:103D100011F4F17C1D15111FC0405E2C0D530216CD
:103D200081801DE0161E063D3591F81F02049008A3
:103D30003E027C0745203D4F2231040151801E1177
:103D400065071B1040008A6008190C12060C12034C
:103D5000181F01F08D290E507170152DF503A5EC7B
:103D60002C047FFFE0801A5E0188188202043D80E7
:103D7000062D2B150E4C0196221DC32E1FE33E0966
:103D8000091C06C200020CC33B30B2C1041C04066D
:103D90000CC119221C06C30005F062C62D1A7E8CC8
:103DA0000E523C000B1D00033EE0E42029FC760689
:103DB000188A008421200F53FFE08C1BCE0470036F
:103DC0001F0387140E4E8F980D0D5F001C7D7E2CF7
:103DD0003D07074D94057204041E03BB2C12069088
:103DE00012FC900C0454F80380F81075802F000822
:103DF000E7294D2D2A2D8F1F1F058E7F071C0507D4
:103E0000A0000631321E04C5260E5404081D0D12F2
:103E100080114190055D802D70031D532C13000F00
:103E2000044D74058114021503140D4A800D6DF4C0
:103E30000361846D00030E6A0200032D501C0D1DEA
:103E40000006211821200E4D01801C69E81DDD05AA
:103E500015841D42361F00C10007EE4190034D003E
:103E60000702500180ED8006CE02800631042190C9
:103E70001203982D290E21A80D4A0009E1E85A0FD6
:103E8000081D740F9D0C0569845D290B0D4F0409F5
:103E90001D412F1DFF351F03E0F0081E30F80821DB
:103EA000049218041E0CC0351F0C6011311D981CA3
:103EB0000F55838000074DFD0A2D8E221E1FF8240A
:103EC0002D0C09F6048C0D4CFC26A17C1D1B301515
:103ED000780E11C0F02141781E0422224DA4030D5A
:103EE0004C840871802DEF0F1DE3201E0460132EFB
:103EF00004EA3A5E0390231D4B36430460200E4DC6
:103F000006150B6E0476064EC084202E04DC111DAF
:103F10000A151F040FA63142F090251843040F8C98
:103F20004F043C980F014C8865DC1E60CB3D1D950D
:103F3000381E83791B16E6084EF8EF0D6C07045EF9
:103F40002000058780060E4F6080064D7C091DF31A
:103F5000203DF7201D700712F804471F02112D7A2B
:103F6000332D2832C238F80D4E020F1E07582A2E64
:103F7000065C07257C1D6C071E04A33013043C045B
:103F80001270FC1D941C1D1421151C2D180B5D8630
:103F9000250D6918271D073F6C0507FE3FF8782996
:103FA0000E5310870E0D177A2E0E62FF022861D86D
:103FB0002D5C2A21EC21F40D55E8270D12252F3D0B
:103FC0006A099240045220149E08F80F6D280E0EC4
:103FD000520C80270DFFD4420DFFD4420DFFD44276
:103FE0000DFFD4420DFFD4420DFFD4420DFFD44249
:103FF0000DFFD4420DFFD4420DFFD4420DFFD44239
:104000000DFFD4420DFFD4420DFFD4420DFFD44228
:104010000DFFD4420DFFD4420DFFD4420DFFD44218
:104020000DFFD4420DFFD4420DFFD4420DFFD44208
:104030000DFFD4420DFFD4420DFFD4420DFFD442F8
:104040000DFFD4420DFFD4420DFFD4420DFFD442E8
:104050000DFFD4420DFFD4420DFFD4420DFFD442D8
:104060000DFFD4420DFFD4420DFFD4420DFFD442C8
:104070000DFFD4420DFFD4420DFFD4420DFFD442B8
:104080000DFFD4420DFFD4420DFFD4420DFFD442A8
:104090000DFFD4420DFFD4420DFFD4420DFFD44298
:1040A0000DFFD4420DFFD4420DFFD4420DFFD44288
:1040B0000DFFD4420DFFD4420DFFD4420DFFD44278
:1040C0000DFFD4420DFFD4420DFFD4420DFFD44268
:1040D0000DFFD4420DFFD4420DFFD4420D89D442CE
:0440E000C5600000B7
:0400000508000131BD
:00000001FF
