:020000040800F2
:1000000008050020450100084D0100084F010008C7
:1000100051010008530100085501000800000000CC
:100020000000000000000000000000005701000870
:1000300059010008000000005B0100085D01000894
:100040005F0100085F0100085F0100085F01000810
:100050005F0100085F010008590700085F01000800
:10006000690700088D070008B90700085F0100084C
:100070005F0100085F0100085F0100085F010008E0
:100080005F0100085F0100085F0100085F010008D0
:100090005F0100085F0100085F0100085F010008C0
:1000A0005F0100085F0100085F0100085F010008B0
:1000B0005F0100085F0100085F0100085F010008A0
:1000C0005F0100085F0100085F0100085F01000890
:1000D0005F010008911000085F0100085F0100083F
:1000E0005F0100085F0100085F0100085F01000870
:1000F0005F0100085F0100085F0100085F01000860
:100100005F0100085F0100085F0100085F0100084F
:100110005F0100085F010008E90F00085F010008A7
:100120005F0100085F0100085F0100085F0100082F
:10013000DFF80CD000F082F800480047F9150008FD
:10014000080500200648804706480047FEE7FEE70E
:10015000FEE7FEE7FEE7FEE7FEE7FEE7FEE7FEE777
:10016000890F000831010008C10F80EAE0700844DF
:10017000CA079623002100F033B820F00040C10DDB
:10018000C0F3160040F400007F2901DA0020704718
:10019000962903DCC1F19601C84070479639884022
:1001A000704730B50B46014600202022012409E0AB
:1001B00021FA02F59D4205D303FA02F5491B04FA20
:1001C00002F52844151EA2F10102F1DC30BD002920
:1001D000A8BF7047401C490008BF20F001007047CD
:1001E00010B4B0FA80FC00FA0CF050EA010404BF2D
:1001F00010BC704749B1CCF1200421FA04F411FA83
:100200000CF118BF012121430843A3EB0C01CB1DC6
:100210004FEA00614FEA102042BF002010BC704737
:1002200000EBC35010440029A4BF10BC7047401C11
:10023000490008BF20F0010010BC7047064C074D74
:1002400006E0E06840F0010394E8070098471034A6
:10025000AC42F6D3FFF770FF90160008B016000806
:1002600010B5012200210C2000F05EFA01220021CD
:100270000F2000F059FA002211460F2000F054FA26
:10028000002211460E2000F04FFA002211461020E5
:1002900000F04AFA002211460F2000F045FA002231
:1002A00011460C2000F040FA002211460A2000F00E
:1002B0003BFA022200210D2000F036FA0122002133
:1002C0000B2000F031FA00221146104600F02CFA03
:1002D000002211460D2000F027FA012200211020F3
:1002E00000F022FA012200210F2000F01DFA002266
:1002F00011460E2000F018FA002211460D2000F0E1
:1003000013FA002211460C2000F00EFA00221146CA
:100310000B2000F009FA022200210A2000F004FA62
:10032000012200210A2000F0FFF9012200210C2007
:1003300000F0FAF9012200210F2000F0F5F9012266
:1003400000210E2000F0F0F900221146102000F0EC
:10035000EBF9002211460F2000F0E6F900221146C9
:100360000C2000F0E1F9002211460A2000F0DCF92F
:10037000022200210D2000F0D7F9002211460B20A7
:1003800000F0D2F9002211460D2000F0CDF9002234
:100390001146102000F0C8F9002211460F2000F08D
:1003A000C3F9012200210E2000F0BEF90122002134
:1003B000102000F0B9F901220021122000F0B4F958
:1003C000012200210E2000F0AFF9022200210F20AF
:1003D00000F0AAF9002211460F2000F0A5F9002232
:1003E0001146104600F0A0F900221146112000F03D
:1003F0009BF900221146102000F096F902220021FC
:100400000E2000F091F9002211460D2000F08CF929
:10041000002211460E2000F087F9002211460F201D
:1004200000F082F9002211460D2000F07DF9022231
:1004300000210E2000F078F9002211460C2000F077
:1004400073F9002211460C2000F06EF900221146CB
:100450000B2000F069F9002211460C2000F064F92D
:10046000012200210D2000F05FF9012200210D2062
:1004700000F05AF901220021102000F055F9012264
:1004800000210F2000F050F9022200210E2000F080
:100490004BF9002211460E2000F046F900221146C9
:1004A000104600F041F901220021102000F03CF933
:1004B00001220021102000F037F9012200210E2036
:1004C00000F032F9002211460C2000F02DF9002234
:1004D00011460C2000F028F9002211460B2000F0F4
:1004E00023F9002211460C2000F01EF902220021FF
:1004F000112000F019F9002211460F2000F014F924
:10050000002211460D2000F00FF9002211460E20A6
:1005100000F00AF9002211460F2000F005F901222F
:1005200000210E2000F000F901220021102000F02F
:10053000FBF8012200210F2000F0F6F80122002133
:100540000D2000F0F1F8022200210C2000F0ECF860
:10055000002211460C2000F0E7F800221146104658
:1005600000F0E2F800221146112000F0DDF8002230
:100570001146102000F0D8F8022200210F2000F0D0
:10058000D3F8012200210C2000F0CEF80122002136
:100590000A2000F0C9F8022200210D2000F0C4F862
:1005A000002211460B2000F0BFF800221146104631
:1005B00000F0BAF800221146102000F0B5F8002231
:1005C00011460F2000F0B0F802220021152000F0A3
:1005D000ABF8012200210D2000F0A6F80122002135
:1005E0000C2000F0A1F8022200210C2000F09CF861
:1005F000002211460C2000F097F800221146104608
:1006000000F092F8012200210C2000F08DF8022267
:100610000021112000F088F801220021102000F0B4
:1006200083F8012200210C2000F07EF80222002134
:100630000F2000F079F8012200210E2000F074F85C
:10064000012200210E2000F06FF8012200210D2070
:1006500000F06AF8012200210C2000F065F8012268
:1006600000210D2000F060F801220021102000F090
:100670005BF802220021102000F056F800221146FB
:10068000102000F051F800221146104600F04CF8FE
:1006900000221146112000F047F8002211461020D8
:1006A00000F042F8022200210F2000F03DF8012264
:1006B00000210C2000F038F8012200210A2000F06F
:1006C00033F8022200210D2000F02EF800221146FE
:1006D0000B2000F029F800221146104600F024F803
:1006E00000221146102000F01FF8002211460F20B2
:1006F00000F01AF8022200210E2000F015F8012265
:1007000000210D2000F010F8012200210A2000F045
:100710000BF802220021112000F006F8022200212D
:10072000112000F001F810BD70B504460E461546C4
:10073000074951F8240000F00DFC064931F8251056
:1007400088B200F023FF002000F004FC70BD000020
:10075000000000205800002010B5012000F048F8EB
:10076000012000F03FF810BD10B5042000F040F863
:1007700048B10421044800F0FEF808B1FFF770FD0D
:10078000042000F02FF810BD0018014010B508201B
:1007900000F02EF860B10821064800F0ECF820B116
:1007A000012200210C20FFF7BFFF082000F01AF8FB
:1007B00010BD00000018014010B5102000F018F81E
:1007C00060B11021064800F0D6F820B101220021C6
:1007D0000820FFF7A9FF102000F004F810BD00006A
:1007E00000180140014908607047000014040140EE
:1007F000014600200022074B1B6803EA0102054B5B
:1008000014331B680B4013B10AB1012000E0002033
:10081000704700000004014010B50446204600F077
:100820005DFC00F0FBF8012240F22551014800F088
:1008300042FD10BD003801402DE9F041024600257F
:100840000026002000230024002791F803C00CF0AC
:100850000F0591F803C00CF0100CBCF1000F03D091
:1008600091F802C04CEA050591F800C0BCF1000FF8
:1008700031D0146800202BE04FF0010C0CFA00F38B
:10088000B1F800C00CEA03069E4220D183004FF06D
:100890000F0C0CFA03F7BC4305FA03FC4CEA040402
:1008A00091F803C0BCF1280F06D14FF0010C0CFAEF
:1008B00000FCC2F814C00AE091F803C0BCF1480F74
:1008C00005D14FF0010C0CFA00FCC2F810C0401C1E
:1008D0000828D1D31460B1F800C0BCF1FF0F34DD9B
:1008E000546800202EE000F1080C4FF0010808FACF
:1008F0000CF3B1F800C00CEA03069E4221D183003C
:100900004FF00F0C0CFA03F7BC4305FA03FC4CEA5A
:10091000040491F803C0BCF1280F05D100F1080CC4
:1009200008FA0CF8C2F8148091F803C0BCF1480F23
:1009300007D100F1080C4FF0010808FA0CF8C2F8D2
:100940001080401C0828CED35460BDE8F0810246D8
:10095000002093680B400BB1012000E0002070479D
:1009600002460020D3680B400BB1012000E00020BC
:1009700070474161704770B504460D4629462046D0
:10098000FFF7EEFF01281BD10F2000F0FFFD2946E5
:100990002046FFF7E5FF012808D129462046FFF74A
:1009A000D6FF08B9012070BD0020FCE7294620468B
:1009B000FFF7D6FF20B929462046FFF7C8FFF2E728
:1009C0000020F0E708B50121482000F0D5F82020EC
:1009D000ADF8000010208DF8030003208DF8020010
:1009E00069460C48FFF728FF20210A48FFF7C1FF9E
:1009F0002020ADF8000010208DF8030003208DF8B2
:100A0000020069460448FFF717FF20210248FFF75C
:100A1000B0FF08BD000C01400018014008B54FF4BC
:100A2000A06000F08FF80A208DF8000002208DF8F9
:100A300001008DF8020001208DF80300684600F0E7
:100A400049F809208DF8000002208DF801008DF88A
:100A5000020001208DF80300684600F03BF80820F2
:100A60008DF8000002208DF801008DF802000120B1
:100A70008DF80300684600F02DF806208DF8000080
:100A800002208DF801008DF8020001208DF803008E
:100A9000684600F01FF825208DF8000003208DF82F
:100AA00001008DF8020001208DF80300684600F077
:100AB00011F836208DF8000002208DF80100032087
:100AC0008DF8020001208DF80300684600F002F85E
:100AD00008BD000070B5002100230F22C47804B3C4
:100AE000154C246804F4E064C4F5E064210AC1F103
:100AF0000403CA40447804FA03F184781440214383
:100B000009010E4C0678A155047804F01F05012454
:100B1000AC4005786D11AD0005F1E025C5F8004148
:100B200009E0047804F01F050124AC40044D067868
:100B3000761145F8264070BD0CED00E000E400E0C1
:100B400080E100E002490143024A11607047000061
:100B50000000FA050CED00E029B1064A12690243D3
:100B6000044B1A6104E0034A12698243014B1A6183
:100B7000704700000010024029B1064A9269024302
:100B8000044B9A6104E0034A92698243014B9A61E3
:100B9000704700000010024029B1064AD2680243A3
:100BA000044BDA6004E0034AD2688243014BDA6006
:100BB00070470000001002400F48006840F001003C
:100BC0000D490860084640680C4908400A494860D9
:100BD000084600680A490840074908600846006856
:100BE00020F4802008600846406820F4FE00486039
:100BF0004FF41F0088607047001002400000FFF8AB
:100C0000FFFFF6FE30B500210022002400232D4D09
:100C10006D6805F00C0121B1042905D0082923D104
:100C200005E0294D056022E0274D05601FE0254DB8
:100C30006D6805F47012234D6D6805F4803402254B
:100C400005EB92421CB9214D554305600BE01D4D4B
:100C50006D6805F400351DB11C4D5543056002E07B
:100C6000194D5543056002E0174D056000BF00BFF8
:100C7000144D6D6805F0F0010909154D6B5C0568B0
:100C8000DD4045600F4D6D6805F4E061090A104DC7
:100C90006B5C4568DD4085600A4D6D6805F4605108
:100CA000C90A0B4D6B5C4568DD40C560054D6D683C
:100CB00005F44041890B074D6B5CC568B5FBF3F546
:100CC000056130BD0010024000127A0000093D00AD
:100CD000680000207800002010B5014600220023A3
:100CE00000204A11012A02D1094C236806E0022A99
:100CF00002D1074C236A01E0054C636A01F01F0230
:100D0000012494401C400CB1012000E0002010BDE3
:100D1000001002400248406800F00C0070470000DC
:100D20000010024001460020034A506820F0F00005
:100D300008435060704700000010024011490968E4
:100D400021F480310F4A11601146096821F4802195
:100D50001160B0F5803F03D0B0F5802F0ED106E0D2
:100D60000849096841F48031064A116007E00549E5
:100D7000096841F4A021034A116000E000BF00BFF0
:100D8000704700000010024001460020034A5068EE
:100D900020F4E060084350607047000000100240FB
:100DA00001460020034A506820F4605040EAC10028
:100DB000506070470010024001490866704700000B
:100DC0000000424202460020044B586820F47C1088
:100DD00042EA01031843014B58607047001002407B
:100DE00001460020034A506820F003000843506089
:100DF000704700000010024038B500200090002429
:100E0000002500BF3120FFF767FF05460098401C12
:100E100000900098B0F5A06F01D0002DF2D03120E5
:100E2000FFF75AFF08B1012400E00024204638BD36
:100E3000FEB504460B4890FBF4F63046FFF794F9F4
:100E400005462846FFF799F980B2ADF8040047201F
:100E5000ADF800000020ADF802006946024800F03D
:100E6000C5F8FEBD40420F000008004010B500F07C
:100E700001F810BD0CB500200190009033480068C7
:100E800040F480303149086000BF3048006800F409
:100E9000003000900198401C0190009818B901980A
:100EA000B0F5A06FF1D12948006800F4003010B10E
:100EB0000120009001E0002000900098012843D11B
:100EC0002348006840F01000214908600846006887
:100ED00020F0030008600846006840F00200086047
:100EE0001A48406819494860084640684860084602
:100EF000406840F4806048600846406820F47C10F8
:100F000048600846406840F4E810486008460068B9
:100F100040F08070086000BF0C48006800F000706E
:100F20000028F9D00948406820F0030007494860CC
:100F30000846406840F00200486000BF034840682F
:100F400000F00C000828F9D10CBD00000010024090
:100F50000020024010B504462046FFF769FF10BD8F
:100F6000042808D14FF0E021096941F004014FF055
:100F7000E022116107E04FF0E021096921F004014E
:100F80004FF0E0221161704710B51348006840F03F
:100F900001001149086008464068104908400E49A0
:100FA0004860084600680E4908400B49086008463A
:100FB000006820F4802008600846406820F4FE00A5
:100FC00048604FF41F008860FFF750FF4FF000604B
:100FD0000449086010BD0000001002400000FFF846
:100FE000FFFFF6FE08ED00E07047000000220288D7
:100FF0001D4B98420ED01D4B98420BD0B0F1804F44
:1010000008D01B4B984205D01A4B984202D01A4B7D
:10101000984204D14FF68F731A404B881A43174BEE
:10102000984207D0164B984204D04FF6FF431A401F
:10103000CB881A4302808B8883850B8803850A4BF3
:1010400098420BD0094B984208D00E4B984205D0DD
:101050000D4B984202D00D4B984201D10B7A03867A
:101060000123838270470000002C014000340140BE
:101070000004004000080040000C00400010004048
:10108000001400400040014000440140004801407D
:1010900010B540F225510E4800F0E3F8B8B10C4805
:1010A00000F09AF9C1B20B4802880088401C094B35
:1010B00018800948815440F22551054800F05BF83A
:1010C00004480088802802DB00200249088010BD07
:1010D000003801407C0000208400002010B586B05C
:1010E00004461E4800F062F8012144F20400FFF7B4
:1010F00043FD4FF40070ADF8140003208DF8160086
:1011000018208DF8170005A91548FFF795FB4FF437
:101110008060ADF8140004208DF8170005A9104870
:10112000FFF78AFB01940020ADF80800ADF80A0033
:10113000ADF80C00ADF810000C20ADF80E0001A9C0
:10114000064800F0DDF80121044800F023F84021B2
:10115000024800F007F806B010BD0000003801405A
:101160000008014001F40072B2F5007F00D100BF19
:10117000CA430280704710B50022002340F66A146B
:10118000A14200D100BF0A1201249440A3B2DC4363
:10119000048010BD21B1828942F40052828104E0B2
:1011A00082894DF6FF731A408281704710B504465C
:1011B0002048844209D101218803FFF7EDFC00217A
:1011C0004FF48040FFF7E8FC32E01B48844209D12D
:1011D00001214804FFF7C0FC00214FF40030FFF765
:1011E000BBFC25E01548844209D101218804FFF7A2
:1011F000B3FC00214FF48020FFF7AEFC18E010484C
:10120000844209D10121C804FFF7A6FC00214FF454
:101210000020FFF7A1FC0BE00A48844208D101211D
:101220000805FFF799FC00214FF48010FFF794FCAC
:1012300010BD00000038014000440040004800405C
:10124000004C00400050004002460020B1F5007FF5
:1012500000D100BF13880B400BB1012000E000203B
:10126000704770B50246002400230025002040F698
:101270006A16B14200D100BFC1F3421501F01F034D
:10128000012606FA03F3012D02D19689334006E0C8
:10129000022D02D1168A334001E0968A33400C12A7
:1012A000012606FA04F41688344013B10CB101206B
:1012B00000E0002070BDF0B50346002400260025A4
:1012C000002040F66A17B94200D100BF1846C1F3AA
:1012D000421401F01F06012707FA06F5012C01D17F
:1012E0000C3004E0022C01D1103000E014301AB1AF
:1012F00007682F43076002E00768AF430760F0BD4F
:101300002DE9F04786B005460E460024A24600BFF0
:10131000A1460027B08900B100BF2F462C8A4CF6A9
:10132000FF700440F08804432C82AC894EF6F31021
:101330000440B08831890843718908430443AC8173
:10134000AC8A4FF6FF400440B0890443AC8201A848
:10135000FFF758FC1F48874202D1DDF810A001E0DA
:10136000DDF80CA0A88900F4004040B10AEBCA00E7
:1013700000EB0A1031684900B0FBF1F807E00AEB16
:10138000CA0000EB0A1031688900B0FBF1F8642054
:10139000B8FBF0F004012009642101FB1089A88941
:1013A00000F4004040B1322000EBC900B0FBF1F086
:1013B00000F00700044308E0322000EB091064212C
:1013C000B0FBF1F000F00F0004432C8106B0BDE843
:1013D000F08700000038014001468888C0F308000B
:1013E0007047C1F308028280704700000FB4054BBC
:1013F00010B503A9044A029800F018F810BC5DF873
:1014000014FB0000D51500088000002002E008C889
:10141000121F08C1002AFAD170477047002001E06E
:1014200001C1121F002AFBD1704700002DE9FF4FB8
:1014300089B09B460446002506E025280BD05A4675
:101440000B999047641C6D1C20780028F5D10DB0D5
:101450002846BDE8F08F0027B8460122474900E042
:10146000074314F8013F203B02FA03F00842F7D18A
:1014700020782E2819D114F8010F47F004072A28E4
:101480000ED06FF02F022078A0F1300109290CD87E
:1014900008EB880102EB410100EB0108641CF2E754
:1014A0000A98641C50F8048B0A9020780028CED04B
:1014B000642808D0692806D075281ED05A460B9992
:1014C00090476D1C58E00A994FF00A0901C90A912A
:1014D000002802DA40422D2102E0390504D52B21F3
:1014E0008DF82010012103E0F90704D02021F7E74F
:1014F0008A4608AE0DE00021FAE70A994FF00A0982
:1015000001C90A91F7E74946FEF74BFE303106F86C
:10151000011D0028F7D1ADEB060000F12009780786
:1015200001D44FF00108C84502DDA8EB090000E036
:1015300000208046002706E008A85A46C05D0B99A7
:1015400090476D1C7F1C5745F6DB04E030205A465F
:101550000B9990476D1CB8F10001A8F10108F5DC6A
:1015600005E016F8010B5A460B9990476D1CB9F12E
:101570000001A9F10109F4DC641C65E709280100F8
:1015800010B56FF00400FFF7EBFC10BD014642F20E
:1015900028324A434FF0E0235A6100229A611A46EA
:1015A000126942F001021A6100BF4FF0E022106997
:1015B00000F001021AB100F48032002AF5D04FF099
:1015C000E022126922F001024FF0E0231A610022AA
:1015D0009A61704770B504460D46E1B20548FFF7C1
:1015E00000FF00BF80210348FFF72EFE0028F9D03E
:1015F000204670BD0038014000F01AF8FFF7E2F90C
:10160000FFF7BEFF4FF4E130FFF706F940F2D24496
:1016100006E0214603A0FFF7E9FEC820FFF7B6FF6A
:10162000F7E70000646174613D25640D0A00000065
:1016300010B5FFF7C1FA4FF48030FFF77FFB0020B1
:10164000FFF770FB0020FFF7ABFB4FF48060FFF764
:101650009BFB4FF4E0114FF48030FFF7B3FB012008
:10166000FFF7AAFBFFF7C8FB012801D0002010BD3F
:1016700000BF3920FFF730FB0028FAD00220FFF727
:10168000AFFB00BFFFF746FB0828FBD10120EEE7C8
:10169000B016000800000020840000000C140008B0
:1016A0003417000884000020840400001C14000883
:1016B0000000000006010000260100004A010000B1
:1016C0005D01000088010000B8010000EE0100008B
:1016D0000B0200004B02000093020000BA0200005F
:1016E0001003000070030000DC030000160400007B
:1016F0009704000027050000750500002006000083
:10170000E0060000B807000032010000640200009B
:10171000C80400002C0700000000000001020304C0
:10172000010203040607080902040608000000007D
:0417300000000000B5
:0400000508000131BD
:00000001FF
