:020000040800F2
:10000000888E002045010008C9160008C9130008A1
:10001000C516000825100008132400080000000081
:10002000000000000000000000000000351B000878
:10003000291000080000000021180008911C000889
:100040005F0100085F0100085F0100085F01000810
:100050005F0100085F0100082B1000085F01000825
:100060003D100008611000088D1000085F010008B5
:100070005F0100085F0100085F0100085F010008E0
:100080005F0100085F010008550800085F010008D3
:100090005F0100085F0100085F0100085F010008C0
:1000A0005F0100085F0100085F0100085F010008B0
:1000B0005F0100085F0100085F0100085F010008A0
:1000C0005F0100085F0100085F0100085F01000890
:1000D0005F010008B92000085F0100085F01000807
:1000E0005F0100085F0100085F0100085F01000870
:1000F0005F0100085F0100085F0100085F01000860
:100100005F0100085F0100085F0100085F0100084F
:100110005F0100085F010008112000085F0100086E
:100120005F0100085F0100085F0100085F0100082F
:10013000DFF80CD000F04CFB0048004741280008D5
:10014000888E00200648804706480047FEE7FEE705
:10015000FEE7FEE7FEE7FEE7FEE7FEE7FEE7FEE777
:10016000951C00083101000830B480EA010202F059
:10017000004530F0004221F0004013D090B1C30D93
:10018000D40DC2F31601C0F31600E41A41F40001C5
:1001900040F400027D34914201D3641C00E0490028
:1001A000002C02DA30BC002070474FF4000000231E
:1001B000914201D3891A034340084FEA4101F7D124
:1001C00051B1914202D14FF0004105E002D24FF00F
:1001D000010101E06FF0010103EBC450284430BC81
:1001E00000F061BA2DE9FE4F804681EA0300C00F9E
:1001F0000C46009021F0004123F00045B8EB0200CE
:10020000A94105D24046214690461C460B4602466F
:1002100023F00040104347D0270DC7F30A00C3F373
:100220000A510290401A019040286BDAC3F3130080
:1002300040F4801B0098924620B10023D2EB030AC1
:1002400063EB0B0B01985946C0F14002504600F099
:10025000F9F906460D4650465946019A00F011FA42
:1002600010EB08006141002487EA115284EAE77329
:100270001A4340D0009A62B3019A012A4FEA07520A
:1002800015DC001B61EB02014FF0004202EA07524D
:10029000CDE90042001C41F5801132462B4600F0AA
:1002A00048FA03B0BDE8F08F40462146F9E7001B4D
:1002B00061EB0201001C41F5801300185B4120181E
:1002C000A2F5001747EB030140EAD570B6196D415E
:1002D00011E06D084FEA360645EAC0754FEA07524D
:1002E000001B61EB0201001C41F5801149084FEA37
:1002F00030000019514132462B4603B0BDE8F04FA3
:1003000000F008BA0098012240000023D0EB02025E
:1003100063EBE073009821464FEAE074B8EB00000D
:1003200061EB0401E9E783F000435BE781F0004102
:1003300058E72DE9FE4F81EA030404F0004421F060
:10034000004100944FF0000B23F0004350EA0104F9
:100350005ED052EA03045BD0C3F30A54C1F30A55DA
:100360002C44A4F2F3340194A0FB0254C1F3130112
:1003700041F48011C3F3130343F4801301FB0244DF
:1003800000FB034E840A970A44EA815447EA8357E4
:10039000A4FB076802958D0A05FB07854FEA932C9D
:1003A00004FB0C542705029D4FEA065847EA16370E
:1003B000B5EB08056EEB070C870E920E47EA811726
:1003C00042EA8312A7FB0201B6EB0B0164EB0004C7
:1003D0002B0D43EA0C335E1844EB1C50DA465146B1
:1003E000E7FB0201C5F313044FEA0B3343EA14534E
:1003F0004FEA0432019C43EA0603A4F10C04029480
:10040000009CCDE900B400F094F903B0BDE8F08F92
:1004100000200146F9E72DE9F04D81EA030404F0DC
:10042000004B21F0004514464FF0000A23F0004134
:1004300050EA050220D054EA01021DD0C5F30A5744
:100440000246C5F31303C1F31300C1F30A5640F487
:10045000801543F48013A7EB0608101BD64608F25C
:10046000FD3873EB050002D308F1010801E0921892
:100470005B41B8F1000F03DA00200146BDE8F08DC2
:1004800000204FF48011064684460EE0171B73EBE4
:10049000050705D3121B63EB050306434CEA010C69
:1004A00049084FEA300092185B4150EA0107EDD14C
:1004B00052EA030012D082EA040083EA05010843ED
:1004C00005D0101BAB4106D20122002306E000221A
:1004D0004FF0004302E06FF0010253101AEB0600E8
:1004E0004CEB085110EB0A0041EB0B01BDE8F04D5D
:1004F00000F010B9C10F80EAE0700844CA079623E3
:10050000002100F0D9B896230022114600F0D4B89B
:100510000EB540F2334102910021CDE900110A46A7
:100520000B4600F006F903B000BD20F00040C10DFD
:10053000C0F3160040F400007F2901DA0020704764
:10054000962903DCC1F19601C8407047963988406E
:100550007047C1F30A5210B5C1F3130140F2FF33E3
:1005600041F480119A4201DA002010BD40F2334379
:100570009A42A2F2334203DC524200F072F810BDFC
:10058000904010BD00F0004230F000400AD0C10D94
:1005900001F56071C0F3160042EA0151C20840073C
:1005A0001143704700200146704701F0004330B40A
:1005B00021F0004150EA010206D00A0DA2F5607256
:1005C000C1F31301002A02DC30BC00207047440F45
:1005D00044EAC104C100E01830BC00EBC25000F096
:1005E00062B82DE9F05F0546002092469B4688469A
:1005F0000646814640241BE028464146474622469F
:1006000000F02FF853465A46C01A914110D31146B4
:100610001846224600F016F82D1A67EB01084F46DF
:1006200022460120002100F00DF817EB00094E4191
:10063000201EA4F10104DFDC484631462A46434629
:10064000BDE8F09F202A04DB203A00FA02F10020E6
:1006500070479140C2F1200320FA03F31943904000
:100660007047202A04DB203A21FA02F0002170476B
:1006700021FA02F3D040C2F120029140084319460A
:100680007047202A06DBCB17203A41FA02F043EAF2
:10069000E07306E041FA02F3D040C2F1200291403B
:1006A0000843194670470029A8BF7047401C4900FD
:1006B00008BF20F00100704710B4B0FA80FC00FAC7
:1006C0000CF050EA010404BF10BC704749B1CCF1F2
:1006D000200421FA04F411FA0CF118BF012121437E
:1006E0000843A3EB0C01CB1D4FEA00614FEA102039
:1006F00042BF002010BC704700EBC35010440029DB
:10070000A4BF10BC7047401C490008BF20F0010086
:1007100010BC704710B5141E73F1000408DA401CB9
:1007200041F1000192185B411A4301D120F0010010
:1007300010BD2DE9F04D92469B4611B1B1FA81F200
:1007400002E0B0FA80F220329046FFF77BFF0446C9
:100750000F4640EA0A0041EA0B0153465A46084355
:1007600013D0114653EA010019D0C8F14002504697
:10077000FFF777FF05460E46504659464246FFF7BB
:1007800061FF084305D0012004E020463946BDE85A
:10079000F08D0020054346EAE0762C4337430A9863
:1007A0006305E40AA0EB08000022FD0A44EA47546E
:1007B0000A3002D500200146E9E701051019694118
:1007C000DDE9084500196941BDE8F04DA2E70000E8
:1007D000064C074D06E0E06840F0010394E807008E
:1007E00098471034AC42F6D3FFF7A6FCDC2B000888
:1007F000FC2B000870B58D1810F8014B14F00302A3
:1008000001D110F8012B231106D110F8013B03E0B0
:1008100010F8016B01F8016B521EF9D1ABB110F861
:10082000012B04F00C048A1A0C2C03D0A2EB8412C6
:100830009B1C08E010F8014BA2EB0422F8E712F829
:10084000014B01F8014B5B1EF9D5A942D4D300201E
:1008500070BD00002DE9F0474FF40871134800F017
:1008600049F801281AD1114800F040F8814648465D
:10087000FFF749FE82464FF08B41FFF775FC0446B7
:10088000FFF780FE07464FF06632094BFFF751FD38
:100890000546FFF78AFE0749086000BF4FF408715C
:1008A000024800F009F8BDE8F0870000002401408C
:1008B00066660A408000002000220A12D3430360CB
:1008C000704721B1826842F00102826003E08268D1
:1008D00022F0010282607047014600208A6802F01F
:1008E00004020AB1012000E0002070470146C86CF4
:1008F00080B2704770B502460020002300240B121E
:100900005568CEB205EA060415681D4015B10CB154
:10091000012000E0002070BD014600208A6802F03E
:1009200008020AB1012000E00020704710B5002342
:10093000CBB21AB144681C43446002E044689C4353
:10094000446010BD30B502460020002350680F4CB3
:1009500020400D790C6844EA0524204350609068DB
:100960000B4C2040D1E902542C434D7944EA450414
:1009700020439060D06A20F470000C7C641EE4B2C6
:10098000234340EA0350D06230BD0000FFFEF0FF79
:10099000FDF7F1FFF0B504460D4600200021092DBA
:1009A00011DDE068A5F10A0606EB4607072606FA00
:1009B00007F18843A5F10A0606EB460603FA06F19D
:1009C0000843E0600CE0206905EB4507072606FABE
:1009D00007F1884305EB450603FA06F10843206159
:1009E000072A0FDA606B561E06EB86071F2606FAEB
:1009F00007F18843561E06EB860605FA06F1084302
:100A0000606322E00D2A0FDA206BD61F06EB860703
:100A10001F2606FA07F18843D61F06EB860605FA5D
:100A200006F10843206310E0E06AA2F10D0606EB30
:100A300086071F2606FA07F18843A2F10D0606EB8A
:100A4000860605FA06F10843E062F0BD816841F0D0
:100A500008018160704721B1826842F4A00282607F
:100A600003E0826822F4A00282607047816841F04E
:100A7000040181607047000008B50121042000F0E6
:100A8000FDFE0220ADF8000000208DF8030069464D
:100A9000014800F0F5FB08BD0008014000B585B035
:100AA0000121480200F0EAFE002000908DF80400C9
:100AB00001208DF805004FF4602002900020039083
:100AC00001208DF8100069461748FFF73BFF4FF4EF
:100AD000404000F0A7FE0523012211461248FFF70F
:100AE00059FF01224FF408710F48FFF71FFF012142
:100AF0000D48FFF7E6FE0C48FFF7A8FF00BF0A48C5
:100B0000FFF70AFF0028FAD10748FFF7AFFF00BF41
:100B10000548FFF7E1FE0028FAD101210248FFF75E
:100B20009AFF05B000BD00000024014010B501226D
:100B300000210C2000F05EFA012200210F2000F0BD
:100B400059FA002211460F2000F054FA00221146F3
:100B50000E2000F04FFA00221146102000F04AFA51
:100B6000002211460F2000F045FA002211460C2009
:100B700000F040FA002211460A2000F03BFA02225F
:100B800000210D2000F036FA012200210B2000F098
:100B900031FA00221146104600F02CFA00221146CC
:100BA0000D2000F027FA01220021102000F022FA87
:100BB000012200210F2000F01DFA002211460E2014
:100BC00000F018FA002211460D2000F013FA00225E
:100BD00011460C2000F00EFA002211460B2000F006
:100BE00009FA022200210A2000F004FA0122002161
:100BF0000A2000F0FFF9012200210C2000F0FAF990
:100C0000012200210F2000F0F5F9012200210E2021
:100C100000F0F0F900221146102000F0EBF900225C
:100C200011460F2000F0E6F9002211460C2000F0DA
:100C3000E1F9002211460A2000F0DCF9022200212D
:100C40000D2000F0D7F9002211460B2000F0D2F958
:100C5000002211460D2000F0CDF90022114610208F
:100C600000F0C8F9002211460F2000F0C3F901225C
:100C700000210E2000F0BEF901220021102000F01A
:100C8000B9F901220021122000F0B4F9012200215B
:100C90000E2000F0AFF9022200210F2000F0AAF987
:100CA000002211460F2000F0A5F90022114610463F
:100CB00000F0A0F900221146112000F09BF900225B
:100CC0001146102000F096F9022200210E2000F0BB
:100CD00091F9002211460D2000F08CF900221146F6
:100CE0000E2000F087F9002211460F2000F082F953
:100CF000002211460D2000F07DF9022200210E2075
:100D000000F078F9002211460C2000F073F900225F
:100D100011460C2000F06EF9002211460B2000F065
:100D200069F9002211460C2000F064F9012200212B
:100D30000D2000F05FF9012200210D2000F05AF98A
:100D400001220021102000F055F9012200210F207E
:100D500000F050F9022200210E2000F04BF9002291
:100D600011460E2000F046F900221146104600F010
:100D700041F901220021102000F03CF9012200215C
:100D8000102000F037F9012200210E2000F032F986
:100D9000002211460C2000F02DF9002211460C20F3
:100DA00000F028F9002211460B2000F023F9002260
:100DB00011460C2000F01EF902220021112000F043
:100DC00019F9002211460F2000F014F900221146F3
:100DD0000D2000F00FF9002211460E2000F00AF954
:100DE000002211460F2000F005F9012200210E20FB
:100DF00000F000F901220021102000F0FBF8012290
:100E000000210F2000F0F6F8012200210D2000F053
:100E1000F1F8022200210C2000F0ECF8002211462B
:100E20000C2000F0E7F800221146104600F0E2F82E
:100E300000221146112000F0DDF80022114610209A
:100E400000F0D8F8022200210F2000F0D3F8012290
:100E500000210C2000F0CEF8012200210A2000F031
:100E6000C9F8022200210D2000F0C4F8002211462A
:100E70000B2000F0BFF800221146104600F0BAF82F
:100E800000221146102000F0B5F8002211460F2074
:100E900000F0B0F802220021152000F0ABF801228A
:100EA00000210D2000F0A6F8012200210C2000F006
:100EB000A1F8022200210C2000F09CF8002211462B
:100EC0000C2000F097F800221146104600F092F82E
:100ED000012200210C2000F08DF8022200211120B7
:100EE00000F088F801220021102000F083F8012290
:100EF00000210C2000F07EF8022200210F2000F0DB
:100F000079F8012200210E2000F074F8012200215E
:100F10000E2000F06FF8012200210D2000F06AF889
:100F2000012200210C2000F065F8012200210D2093
:100F300000F060F801220021102000F05BF802228E
:100F40000021102000F056F800221146102000F079
:100F500051F800221146104600F04CF800221146CC
:100F6000112000F047F800221146102000F042F84E
:100F7000022200210F2000F03DF8012200210C2068
:100F800000F038F8012200210A2000F033F8022294
:100F900000210D2000F02EF8002211460B2000F059
:100FA00029F800221146104600F024F800221146CC
:100FB000102000F01FF8002211460F2000F01AF850
:100FC000022200210E2000F015F8012200210D2040
:100FD00000F010F8012200210A2000F00BF8022294
:100FE0000021112000F006F802220021112000F05B
:100FF00001F810BD70B504460E461546074951F874
:10100000240000F02BFE064931F8251088B201F0CB
:1010100089FB002000F022FE70BD000018000020B7
:101020007000002000BFFEE7704710B5012000F0FF
:1010300049F8012000F040F810BD000010B5042070
:1010400000F040F848B10421044800F0BFF908B1AD
:10105000FFF76CFD042000F02FF810BD00180140D0
:1010600010B5082000F02EF860B10821064800F005
:10107000ADF920B1012200210C20FFF7BBFF0820B1
:1010800000F01AF810BD00000018014010B5102043
:1010900000F018F860B11021064800F097F920B16F
:1010A000012200210820FFF7A5FF102000F004F81E
:1010B00010BD0000001801400149086070470000A1
:1010C00014040140014600200022074B1B6803EA7C
:1010D0000102054B14331B680B4013B10AB1012008
:1010E00000E00020704700000004014010B501211D
:1010F000412000F0C3FB0421084600F0A1F800F0F5
:10110000E4FA10BD10B50446204600F0FBFF00F0E5
:10111000DCFA012240F22551014801F0E0F810BD4F
:101120000038014051B18200A2F1C042126842F081
:1011300001038200A2F1C042136009E08200A2F123
:10114000C0421268034B1A408300A3F1C0431A60E7
:1011500070470000FEFF0F00D0E901121143C26882
:101160001143026911434269114382691143C26903
:101170001143026A1143426A1143826A1143C26AEF
:101180001143026B114302689200A2F1C042116048
:10119000816808290BD101688900A1F1C041096863
:1011A00041F0400201688900A1F1C0410A60416B31
:1011B0000968426B526841EA0211426B926841EA47
:1011C0000221426B928941EA0241426B128A41EA52
:1011D0000251426B127D41EA0261426B92691143F6
:1011E0000268521C9200A2F1C0421160C16AB1F5BE
:1011F000804F1BD1816B0968826B526841EA0211F2
:10120000826B926841EA0221826B128A41EA0251A2
:10121000826B127D41EA0261826B9269114302681E
:101220009200A2F1C042C2F8041107E06FF07042D0
:1012300001688900A1F1C041C1F804217047000094
:1012400030B500228B071C0F0F2303FA04F20B4B5F
:101250008C1053F824309343084C8D1044F82530FB
:1012600023468C1053F824308C07240F00FA04F422
:101270002343024C8D1044F8253030BD0800014056
:101280002DE9F0410246002500260020002300241D
:10129000002791F803C00CF00F0591F803C00CF083
:1012A000100CBCF1000F03D091F802C04CEA050508
:1012B00091F800C0BCF1000F31D0146800202BE081
:1012C0004FF0010C0CFA00F3B1F800C00CEA030671
:1012D0009E4220D183004FF00F0C0CFA03F7BC4361
:1012E00005FA03FC4CEA040491F803C0BCF1280F92
:1012F00006D14FF0010C0CFA00FCC2F814C00AE051
:1013000091F803C0BCF1480F05D14FF0010C0CFA65
:1013100000FCC2F810C0401C0828D1D31460B1F8FA
:1013200000C0BCF1FF0F34DD546800202EE000F156
:10133000080C4FF0010808FA0CF3B1F800C00CEAF1
:1013400003069E4221D183004FF00F0C0CFA03F7E5
:10135000BC4305FA03FC4CEA040491F803C0BCF159
:10136000280F05D100F1080C08FA0CF8C2F8148017
:1013700091F803C0BCF1480F07D100F1080C4FF001
:10138000010808FA0CF8C2F81080401C0828CED3D7
:101390005460BDE8F0810246002093680B400BB119
:1013A000012000E00020704702460020D3680B4077
:1013B0000BB1012000E000207047000001480068E8
:1013C000704700008000002000BFFEE770B50446B3
:1013D0000D4629462046FFF7E7FF01281BD10F20C5
:1013E00001F0A0F929462046FFF7DEFF012808D1C9
:1013F00029462046FFF7CFFF08B9012070BD002025
:10140000FCE729462046FFF7CFFF20B929462046B2
:10141000FFF7C1FFF2E70020F0E7000070B50646D5
:101420000F484088401E83B20D480088401E82B29B
:101430000021084600F0D4F800240CE0002504E068
:10144000304600F037F9681C85B205484088A8424C
:10145000F6DC601C84B202480088A042EEDC70BD5D
:101460005443002010B50446134884715CB9082128
:10147000362000F00FF94FF4F0700F4948804FF418
:10148000A070088016E02821362000F003F9B6206D
:1014900000F0FAF8002000F007F9022000F004F94B
:1014A0003B2000F001F94FF4A070034948804FF44D
:1014B000F070088010BD00005443002070B5044651
:1014C0000D4616462B4622462946204600F088F84F
:1014D000304600F0EFF870BD2DE9FF4F84B0814633
:1014E0008A460020029083460698A0EB09050798DB
:1014F000A0EB0A06CDF80490CDF800A0002D01DD88
:10150000012705E00DB9002702E04FF0FF376D42DB
:10151000002E02DD4FF0010806E016B94FF000087A
:1015200002E04FF0FF387642B54201DD2C4600E084
:101530003446002003901EE0009A91B2019A90B2C6
:10154000119AFFF7BBFF029828440290B344029817
:10155000A04205DD0298001B0290019838440190DA
:10156000A34504DDABEB040B0098404400900398C6
:10157000401C80B20390611C03988842DCDD08B0F7
:10158000BDE8F08F2DE9F04304460D4616461F4690
:10159000DDF81C80B44201DCBD4201DDBDE8F08312
:1015A0003B4632462946204600F01AF8301B401CC4
:1015B00084B2781B401C85B20BE0A94602E040468D
:1015C00000F078F8B9F10000A9F101011FFA81F9E2
:1015D000F5D1201EA4F101018CB2EED100BFDDE7F0
:1015E00070B504460D462A2000F04EF82646E11755
:1015F00004EB1161C1F30F2000F056F8E11704EB82
:1016000011610912A4EB012188B200F04DF81646D1
:10161000D11702EB1161C1F30F2000F045F8164617
:10162000D11702EB11610912A2EB012188B200F07F
:101630003BF82B2000F028F82E46E91705EB116146
:10164000C1F30F2000F030F8E91705EB1161091222
:10165000A5EB012188B200F027F81E46D91703EB4D
:101660001161C1F30F2000F01FF81E46D91703EBDC
:1016700011610912A3EB012188B200F015F82C20AA
:1016800000F002F870BD00000149088070470000BA
:10169000FE07006C00B503460A461846FFF7F4FF44
:1016A000104600F001F800BD0149088070470000B5
:1016B0000008006C0112024A1180C1B2118070470B
:1016C0000008006C00BFFEE7704708B54FF4A0604B
:1016D00000F09CF80A208DF8000002208DF801002F
:1016E0008DF8020001208DF80300684600F056F8DE
:1016F00009208DF8000002208DF801008DF802000D
:1017000001208DF80300684600F048F808208DF8A5
:10171000000002208DF801008DF8020001208DF8F4
:101720000300684600F03AF806208DF80000022019
:101730008DF801008DF8020001208DF80300684645
:1017400000F02CF825208DF8000003208DF8010012
:101750008DF8020001208DF80300684600F01EF8A5
:1017600036208DF8000002208DF8010003208DF84E
:10177000020001208DF80300684600F00FF81220E7
:101780008DF8000001208DF801008DF802008DF821
:101790000300684600F002F808BD000070B50021A3
:1017A00000230F22C47804B3154C246804F4E064C9
:1017B000C4F5E064210AC1F10403CA40447804FA84
:1017C00003F184781440214309010E4C0678A15599
:1017D000047804F01F050124AC4005786D11AD00BC
:1017E00005F1E025C5F8004109E0047804F01F0583
:1017F0000124AC40044D0678761145F8264070BDB2
:101800000CED00E000E400E080E100E0024901436B
:10181000024A1160704700000000FA050CED00E07C
:101820007047000001460020034A506820F4404001
:1018300008435060704700000010024029B1064A7A
:1018400052690243044B5A6104E0034A52698243DD
:10185000014B5A61704700000010024029B1064A4E
:1018600012690243044B1A6104E0034A126982437D
:10187000014B1A61704700000010024029B1064A6E
:1018800092690243044B9A6104E0034A92698243DD
:10189000014B9A61704700000010024029B1064ACE
:1018A000D2680243044BDA6004E0034AD268824300
:1018B000014BDA6070470000001002400F480068DA
:1018C00040F001000D490860084640680C49084096
:1018D0000A494860084600680A4908400749086004
:1018E0000846006820F4802008600846406820F41C
:1018F000FE0048604FF41F008860704700100240EF
:101900000000FFF8FFFFF6FE30B5002100220024A2
:1019100000232D4D6D6805F00C0121B1042905D07F
:10192000082923D105E0294D056022E0274D0560F7
:101930001FE0254D6D6805F47012234D6D6805F4A8
:101940008034022505EB92421CB9214D55430560B8
:101950000BE01D4D6D6805F400351DB11C4D554360
:10196000056002E0194D5543056002E0174D056022
:1019700000BF00BF144D6D6805F0F0010909154D59
:101980006B5C0568DD4045600F4D6D6805F4E061F6
:10199000090A104D6B5C4568DD4085600A4D6D6835
:1019A00005F46051C90A0B4D6B5C4568DD40C560AC
:1019B000054D6D6805F44041890B074D6B5CC568AA
:1019C000B5FBF3F5056130BD0010024000127A004E
:1019D00000093D00000000201000002010B5014665
:1019E0000022002300204A11012A02D1094C236859
:1019F00006E0022A02D1074C236A01E0054C636A23
:101A000001F01F02012494401C400CB1012000E0B1
:101A1000002010BD001002400248406800F00C0099
:101A2000704700000010024001460020034A506841
:101A300020F0F000084350607047000000100240A2
:101A40001149096821F480310F4A11601146096873
:101A500021F480211160B0F5803F03D0B0F5802FD4
:101A60000ED106E00849096841F48031064A116048
:101A700007E00549096841F4A021034A116000E02C
:101A800000BF00BF70470000001002400146002068
:101A9000034A506820F4E06008435060704700003B
:101AA0000010024001460020034A506820F46050B4
:101AB00040EAC100506070470010024001490866CA
:101AC000704700000000424202460020044B586864
:101AD00020F47C1042EA01031843014B5860704720
:101AE0000010024001460020034A506820F0030025
:101AF00008435060704700000010024038B50020D5
:101B000000900024002500BF3120FFF767FF054645
:101B10000098401C00900098B0F5A06F01D0002DF7
:101B2000F2D03120FFF75AFF08B1012400E0002471
:101B3000204638BD70470000FEB504460B4890FBB8
:101B4000F4F63046FEF7D6FC05462846FEF7EDFCD7
:101B500080B2ADF804004720ADF800000020ADF8D9
:101B600002006946024800F055FAFEBD40420F00EF
:101B70000008004010B500F001F810BD0CB50020C1
:101B8000019000903348006840F48030314908608B
:101B900000BF3048006800F4003000900198401CFD
:101BA0000190009818B90198B0F5A06FF1D12948BB
:101BB000006800F4003010B10120009001E0002026
:101BC00000900098012843D12348006840F010009D
:101BD000214908600846006820F0030008600846B4
:101BE000006840F0020008601A48406819494860DF
:101BF0000846406848600846406840F48060486095
:101C00000846406820F47C1048600846406840F46C
:101C1000E81048600846006840F08070086000BF27
:101C20000C48006800F000700028F9D009484068AE
:101C300020F00300074948600846406840F0020071
:101C4000486000BF0348406800F00C000828F9D144
:101C50000CBD0000001002400020024010B50446F8
:101C60002046FFF769FF10BD042808D14FF0E0219E
:101C7000096941F004014FF0E022116107E04FF0E3
:101C8000E021096921F004014FF0E0221161704761
:101C90007047000010B51348006840F0010011497A
:101CA000086008464068104908400E4948600846E8
:101CB00000680E4908400B4908600846006820F497
:101CC000802008600846406820F4FE0048604FF419
:101CD0001F008860FFF74EFF4FF000600449086066
:101CE00010BD0000001002400000FFF8FFFFF6FEEC
:101CF00008ED00E000B59DB001210802FFF79EFD50
:101D000001200790002008900F20099000200A90E1
:101D10000B900C900D9015200090019005200290E2
:101D20000020039004900590069006200E9000205D
:101D30000F9010901020119000201290149013908A
:101D4000159016904FF480501790002018904FF483
:101D50008040199000201A9007A81B90CDF870D0F1
:101D60000EA8FFF7F9F901210620FFF7DBF91DB0F6
:101D700000BD000008B501214FF4B470FFF77EFDEF
:101D80004CF23370ADF8000018208DF803000320EA
:101D90008DF8020069461648FFF772FA4FF6807018
:101DA000ADF8000018208DF8030003208DF8020024
:101DB00069461048FFF764FA41F20100ADF80000EF
:101DC00018208DF8030003208DF8020069460A48A8
:101DD000FFF756FA0120ADF8000010208DF803003F
:101DE00003208DF8020069460448FFF749FA08BD50
:101DF000001401400018014000200140000C014087
:101E000010B5FFF7B7FFFFF775FF322000F08AFC2F
:101E1000DA20FFF739FC78480088784988807648CE
:101E200000884FF6FF7101EA002074498880DB20AA
:101E3000FFF72AFC714880886F49098808436F4979
:101E40008880084680886C49098808436B498880E7
:101E5000084681886AA000F0DFFAE020FFF714FC52
:101E60000020FFF721FC1320FFF71EFC1820FFF7CE
:101E70001BFC0420FFF718FC0F20FFF715FC0620C1
:101E8000FFF712FC3A20FFF70FFC5620FFF70CFC7F
:101E90004D20FFF709FC0320FFF706FC0A20FFF79F
:101EA00003FC0620FFF700FC3020FFF7FDFB3E207F
:101EB000FFF7FAFB0F20FFF7F7FBE120FFF7E4FB4A
:101EC0000020FFF7F1FB1320FFF7EEFB1820FFF7D0
:101ED000EBFB0120FFF7E8FB1120FFF7E5FB0620F5
:101EE000FFF7E2FB3820FFF7DFFB3420FFF7DCFBD6
:101EF0004D20FFF7D9FB0620FFF7D6FB0D20FFF79B
:101F0000D3FB0B20FFF7D0FB3120FFF7CDFB3720B1
:101F1000FFF7CAFB0F20FFF7C7FBC020FFF7B4FB9A
:101F20001820FFF7C1FB1720FFF7BEFBC120FFF70A
:101F3000ABFB4120FFF7B8FBC520FFF7A5FB002056
:101F4000FFF7B2FB1A20FFF7AFFB8020FFF7ACFBD7
:101F50003620FFF799FB0820FFF7A6FB3A20FFF792
:101F600093FB5520FFF7A0FBB020FFF78DFB00206F
:101F7000FFF79AFBB120FFF787FBA020FFF794FB48
:101F8000B420FFF781FB0220FFF78EFBB620FFF79E
:101F90007BFB0020FFF788FB2220FFF785FB3B201F
:101FA000FFF782FBE920FFF76FFB0020FFF77CFBC8
:101FB000F720FFF769FBA920FFF776FB5120FFF719
:101FC00073FB2C20FFF770FB8220FFF76DFB1120C5
:101FD000FFF75AFB782000F0A5FB2920FFF754FB00
:101FE0002C20FFF751FB0020FFF73CFA4FF6FF7063
:101FF000FFF714FA10BD00000008006C54430020E5
:10200000204C43442049443A25780D0A0000000042
:1020100070470000002202881D4B98420ED01D4BD5
:1020200098420BD0B0F1804F08D01B4B984205D09E
:102030001A4B984202D01A4B984204D14FF68F7334
:102040001A404B881A43174B984207D0164B9842B8
:1020500004D04FF6FF431A40CB881A4302808B8886
:1020600083850B8803850A4B98420BD0094B984215
:1020700008D00E4B984205D00D4B984202D00D4B24
:10208000984201D10B7A03860123838270470000B6
:10209000002C0140003401400004004000080040D2
:1020A000000C0040001000400014004000400140BF
:1020B000004401400048014010B540F225510E484F
:1020C00000F0E3F8B8B10C4800F09AF9C1B20B483F
:1020D00002880088401C094B18800948815440F24E
:1020E0002551054800F05BF804480088802802DB91
:1020F00000200249088010BD003801401400002073
:102100004486002010B586B004461E4800F062F8F0
:10211000012144F20400FFF7B1FB4FF40070ADF869
:10212000140003208DF8160018208DF8170005A95B
:102130001548FFF7A5F84FF48060ADF814000420AF
:102140008DF8170005A91048FFF79AF801940020B0
:10215000ADF80800ADF80A00ADF80C00ADF81000BD
:102160000C20ADF80E0001A9064800F0DDF80121B1
:10217000044800F023F84021024800F007F806B0B8
:1021800010BD0000003801400008014001F4007259
:10219000B2F5007F00D100BFCA430280704710B57E
:1021A0000022002340F66A14A14200D100BF0A12A7
:1021B00001249440A3B2DC43048010BD21B1828984
:1021C00042F40052828104E082894DF6FF731A4086
:1021D0008281704710B504462048844209D101210C
:1021E0008803FFF75BFB00214FF48040FFF756FBAD
:1021F00032E01B48844209D101214804FFF72EFB3D
:1022000000214FF40030FFF729FB25E015488442F8
:1022100009D101218804FFF721FB00214FF4802020
:10222000FFF71CFB18E01048844209D10121C804C3
:10223000FFF714FB00214FF40020FFF70FFB0BE02A
:102240000A48844208D101210805FFF707FB002155
:102250004FF48010FFF702FB10BD00000038014072
:102260000044004000480040004C00400050004046
:1022700002460020B1F5007F00D100BF13880B405B
:102280000BB1012000E00020704770B50246002429
:1022900000230025002040F66A16B14200D100BF9D
:1022A000C1F3421501F01F03012606FA03F3012DC5
:1022B00002D19689334006E0022D02D1168A3340BE
:1022C00001E0968A33400C12012606FA04F41688BF
:1022D000344013B10CB1012000E0002070BDF0B516
:1022E0000346002400260025002040F66A17B94264
:1022F00000D100BF1846C1F3421401F01F060127A8
:1023000007FA06F5012C01D10C3004E0022C01D1B2
:10231000103000E014301AB107682F43076002E064
:102320000768AF430760F0BD2DE9F04786B005466A
:102330000E460024A24600BFA1460027B08900B186
:1023400000BF2F462C8A4CF6FF700440F0880443EF
:102350002C82AC894EF6F3100440B08831890843D2
:10236000718908430443AC81AC8A4FF6FF400440B6
:10237000B0890443AC8201A8FFF7C6FA1F48874220
:1023800002D1DDF810A001E0DDF80CA0A88900F46E
:10239000004040B10AEBCA0000EB0A103168490066
:1023A000B0FBF1F807E00AEBCA0000EB0A10316855
:1023B0008900B0FBF1F86420B8FBF0F004012009BB
:1023C000642101FB1089A88900F4004040B132204B
:1023D00000EBC900B0FBF1F000F00700044308E097
:1023E000322000EB09106421B0FBF1F000F00F0087
:1023F00004432C8106B0BDE8F0870000003801409E
:1024000001468888C0F308007047C1F30802828043
:10241000704700BFFEE700000FB4054B10B503A9DD
:10242000044A029800F018F810BC5DF814FB000094
:102430001D2800084086002002E008C8121F08C1BD
:10244000002AFAD170477047002001E001C1121F35
:10245000002AFBD1704700002DE9FF4F8DB09B464D
:102460000F460446002606E025280BD05A460F9951
:102470009047641C761C20780028F5D111B03046B6
:10248000BDE8F08F0025A8460122984900E00543E9
:1024900014F8013F203B02FA03F00842F7D12078FC
:1024A0002E2817D114F8010F45F004052A280ED064
:1024B0006FF02F022078A0F1300109290AD808EB2B
:1024C000880102EB410100EB0108641CF2E757F8B8
:1024D000048B641C20786C280DD004DC4C2812D0AE
:1024E0006A2811D104E074280DD07A280CD10AE0B2
:1024F00045F4001507E0617845F48015814202D16A
:10250000641C05F58015641C2278692A45D008DC16
:10251000002AB3D0582A69D0632A10D0642A08D17F
:102520003BE0702A67D0732A13D0752A5CD0782AD2
:102530005CD010465A460F999047761CD3E017F8A6
:10254000040B8DF8000000208DF80100E946012001
:1025500003E057F8049B4FF0FF3069074FF0000588
:1025600001D40AE06D1C45450DDA8542FADB19F805
:1025700005100029F6D106E06D1C8542FCDB19F838
:1025800005100029F8D12E4404E019F8010B5A4631
:102590000F9990476D1EF8D2A5E00A200021CDE9E1
:1025A0000801C5F3025002280DD001CFC117031E48
:1025B00071F100030DDA4FF0000CD0EB0C006CEB66
:1025C00001012D2308E0FF1D27F00707F7E80201AE
:1025D000EDE72B0504D52B238DF8283001233BE0B4
:1025E000EB0739D02023F7E70A2000E01020002174
:1025F000CDE9080107E01020002145F00405CDE9F0
:1026000008014FF00808C5F3025002280FD001CF8F
:1026100000214FF0000A2B071FD5702A0DD0DDE9ED
:1026200008C38CF0100C5CEA030C0CD015E0FF1D05
:1026300027F00707F7E80201EBE740228DF8282092
:102640004FF0010A0BE050EA010306D030238DF869
:1026500028308DF8292002239A46582A04D024A233
:102660000DF120090B9209E026A2F9E7DDE9082324
:10267000FDF7B7FF0B9B9B5C09F8013D50EA010297
:10268000F4D1ADEB090020300890680701D44FF079
:1026900001080899884502DDA8EB010000E0002050
:1026A0008046002506E00AA85A46405D0F999047EB
:1026B0006D1C761C5545F6DB04E030205A460F9918
:1026C0009047761CB8F10001A8F10108F5DC05E09F
:1026D00019F8010B5A460F999047761C0899481E25
:1026E00008900029F4DC641CC5E6000009280100FC
:1026F0003031323334353637383961626364656678
:102700000000000030313233343536373839414239
:10271000434445460000000010B56FF00400FFF789
:10272000A3FA10BD014642F228324A434FF0E0239B
:102730005A6100229A611A46126942F001021A6136
:1027400000BF4FF0E022106900F001021AB100F45E
:102750008032002AF5D04FF0E022126922F0010207
:102760004FF0E0231A6100229A61704708B50020FB
:10277000B4234FF49672062100900846FEF702FF3C
:1027800008BD000008B51948008819490880A12033
:10279000184908804FF6E0700090084603881448F6
:1027A00002881548018811480088FEF795FE1048F8
:1027B0000088124908800F480088114908800F4896
:1027C0000088F0300A4908800A48008809490880D2
:1027D0004FF6E070009008460388054802880848D4
:1027E000018806480088FEF777FE08BD3486002081
:1027F000388600203A860020368600202C8600206D
:102800002E86002008B54EF65B70C8234FF4A072E8
:10281000012100900846FEF7B5FE08BD70B50446DC
:102820000D46E1B20548FFF7F0FD00BF80210348E7
:10283000FFF71EFD0028F9D0204670BD003801408A
:1028400000F09CF9FEF718F9FFF766FFFEF74EFC63
:102850004FF4E130FEF756FCFEF720F9FFF7D0FA0F
:10286000FFF7D0FFFFF782FFFFF78CFF06E00124A0
:1028700002E000F005F8641C0A2CFADDF7E700001E
:102880002DE9F04F87B0B148007800287ED1B048DC
:102890000068002837D1AF480088401CAE49088046
:1028A000AE480088FDF734FE04460D46FEF786FD6F
:1028B0000190FDF767FE82464FF06632A84BFDF7A8
:1028C000AAFD0022A74BCDE90201FDF72FFD8046AE
:1028D0000022A54BFDF72DFD064622462B46FDF7AF
:1028E00081FCCDE90401FDF734FEA04908809A4837
:1028F00000889F4908809D4800889E4908800120E3
:10290000934908601FE192480068EE2856DA924821
:102910000088401C9049088090480088FDF7F8FD29
:1029200004460D46FEF74AFD0190FDF72BFE824658
:102930004FF066328A4BFDF76EFD0022894BCDE9E0
:102940000201FDF7F3FC80460022874BFDF7F1FC06
:10295000064622462B46FDF745FCCDE90401FDF76E
:10296000F8FD824908807C4800888149784A1268CD
:1029700021F812007D4800887E49754A126821F8C6
:1029800012004FF47840724A009000E070E0126844
:10299000521E0B4633F812106D4A1268521E744BC9
:1029A00033F81200714A13886B4A1288FEF794FDBF
:1029B00067480068401C66490860C4E064480068D5
:1029C000EE289FD164480088401C63490880634812
:1029D0000088FDF79DFD04460D46FEF7EFFC0190D3
:1029E000FDF7D0FD82464FF066325D4BFDF713FDDB
:1029F00000225C4BCDE90201FDF798FC064600225F
:102A0000594BFDF796FC22462B46CDE90401FDF714
:102A1000E9FB8046FDF79DFD544908804E4800883B
:102A200053494B4A126821F8120050480088514916
:102A3000474A126821F812004FF47840444A009047
:102A40001268521E0B4633F81210414A1268521E89
:102A5000474B33F81200454A13883F4A1288FEF765
:102A60003BFD0120394908700020394908606AE0BF
:102A7000414800883849088038480088FDF748FDFB
:102A800006460F46FEF79AFC0190FDF77BFD824655
:102A90004FF06632324BFDF7BEFC0022314BCDE9E0
:102AA0000201FDF743FC00222F4BCDE90401FDF7A5
:102AB00040FC804632463B46FDF794FB0446FDF75A
:102AC00048FD2A490880244800882949A1F8DE01E8
:102AD000264800882749A1F8DE0101242BE00020C8
:102AE000244D009035F81430214D35F81420651E22
:102AF000204E36F815101E4E36F81500FEF7ECFC89
:102B00004FF478401B4E651C009036F81530184D78
:102B100035F81420354635F81410651E144E36F875
:102B20001500FEF7D9FC134830F81410601E114A46
:102B300022F81010641CEF2CD1DB0E48B0F8DE0137
:102B40000C49A1F8DC0107B0BDE8F08F3C860020FD
:102B5000288600202C860020308600203686002023
:102B600066660A400000F03F00C05E4032860020EA
:102B7000C4860020A48800203886002010B5FEF707
:102B80009DFE4FF48030FEF75BFF0020FEF74CFF08
:102B90000020FEF787FF4FF48060FEF777FF4FF4C9
:102BA000E0114FF48030FEF78FFF0120FEF786FF23
:102BB000FEF7A4FF012801D0002010BD00BF39207E
:102BC000FEF70CFF0028FAD00220FEF78BFF00BFB3
:102BD000FEF722FF0828FBD10120EEE7FC2B0008BE
:102BE0000000002044860000F40700080C420008A2
:102BF00044860020440800004824000812000120F8
:102C0000050102030404500A060708090204060825
:102C100000011006060100002604124A04125D0499
:102C200012880412B80412EE1810060B0200004BB2
:102C30000412930412BA0C10061003000070041260
:102C4000DC08100616040000970410062705000093
:102C50007504100620060000E0041006B807000006
:102C6000324812643412C8240004192C0700016091
:102C7000051FCC000C0C50060800300060066009EF
:102C80000000022003FC1E2006212C200B0E181130
:102C9000043FFF10840C783A200E0F0010840F3888
:102CA00000C0077818840012F015780F8410C41142
:102CB000240E9800E400840008080068007070107A
:102CC0000807E01818200440CC440B000040022004
:102CD00004181807E008200B0240024001800FF0A2
:102CE00001800A1150228002430FF8082541B005E7
:102CF000000D000EBDB280021200CAB20C6D200899
:102D0000060018006001800721C1300D07F0080897
:102D100010041004080807F0F010080408041FFC51
:102D2000000402350C340C0E0C1014102410441145
:102D3000840E1410060C1810041102400412880CA2
:102D4000C91008E00320042408243436243C20045D
:102D5000981084203004108810201160228830439D
:102D60001888F930081C00100010FC1308354010BA
:102D7000063811441084343404440E380C400A00E0
:102D8000088C1044104408889021B3A004030C035D
:102D9000C4A004010106F02601332210C625A0A11B
:102DA00002217021DA340704100220014030152D71
:102DB000200A1200100C106C10800F5A140EE00C38
:102DC0001813E4142417C4082807D01E140A04009A
:102DD0003C03C41C400740B0171C0018231FFCEE26
:102DE000300411040EC02130252E110213081CC11D
:102DF00021204110454061301317C4127218101879
:102E0000050017C0104491405006441C7800404013
:102E10002684D42310844A2152615441FB100400BB
:102E200001100234041FFE1030415040070380148B
:102E300064181C2E31364102420C8010041F000021
:102E400004614E1C051FFC0C041D031004E0101847
:102E50006075EEA1B0157E228002460FAE1618EE08
:102E6000800824101C080A07F2C0180511C0113090
:102E70000011A0170E1CDC15B011C215B02618CE1B
:102E800041B0110C1D8C034004001FF890117A22F0
:102E9000F8B414051E0011E0F52404701380FA1034
:102EA000071FC0103C00E0A22006E0103C1FC0A09D
:102EB000200D180C163401C001C01634180C4648F9
:102EC000091C00130400FC13042015BB10061C1081
:102ED000641084106804041018E31F7FFE17034E6B
:102EE0000230031A30E11F0380A303161C2C3D405F
:102EF0000321028F7FFE110316206921023DAF03DB
:102F0000D20102811A695020069801240144021E50
:102F100000060311D01EFC7D04580504010400C006
:102F200019063110311291103F1108360340040088
:102F300000F83E11403EC8E204111C4A0F443522FD
:102F4000300500D60129022AC9C625A03300849580
:102F500011F625609C06010419041980032902302A
:102F6000060101190119D23130380924004001B499
:102F7000010C012249306DB003118A12FC9C420001
:102F80000622000CD16011A05204C02EF84B0300A1
:102F9000051301FF0085E012051A32010A21A22162
:102FA000543D40031700CC2041026698513207542B
:102FB000510E4AF88E1301087A31361F01708404CD
:102FC0001F10017404111E1008F0010C003001C024
:102FD00004120C0C41B220088C00740170018CD0DA
:102FE00011901C04810171A5034218301510128440
:102FF0002A16345411089D03046804003EFC022D77
:1030000085046BFFFF1C291A7C043EFC010F053E62
:10301000602B054900033120000110070F80380F95
:10302000FE380601101B1D8D0615C41D77031D0AF1
:103030000392310C7E308D05200961800067F8070E
:10304000F98009710371127DD1045C17C0E003E0BF
:10305000F00630080418081FFFFE040E080787F06A
:10306000038104061C0501F000067B032C090408FB
:10307000060C7001F9C0EF051C073BE000EC1807D7
:10308000D9041F0C18930431251EE0CA051C18032F
:10309000F818041C0804170807E1D003C0E0002357
:1030A000B0003C08002079047210B111A82E3286BD
:1030B000050124FD54117F0001FFC00780F00C00C2
:1030C000181000042000711109110F1115111B11A6
:1030D00021112701113C300542000066032E3C28D7
:1030E0000412032732180C41155E425E07A103212A
:1030F0004BC1120126B6021B0803819462380301FA
:1031000016493206662A70ED320E2F1EC092062135
:103110001385D41C097F8001FFE003807049071EDE
:10312000042F0713000809110F1115111B99A24252
:10313000080300071003FFF807FFF88E141601C0FC
:103140003802C05804009804011804021804041836
:10315000061C18C2B80401E0F81923C0F06615EC8B
:10316000240C080806180803F41801E7F0EF71B3FF
:103170001DF70818050D0000116D100800008108EA
:103180000301086F120F721601517D51091006E0FC
:1031900007FCD0064262100384091838060FF006B7
:1031A00007C0B0323FD81C0684300208184F0741D0
:1031B000039008071810030FF0002736031119EBCE
:1031C000500C0600F80607F806180006E01259AF82
:1031D0001C08E1E003F7F00634DB0529D023040CDA
:1031E00003600906161803F3F001C1B7500CF8008C
:1031F00003FC300306380402080308051804100312
:10320000084C537038030919AC080617301A0030FF
:103210001C1F1C081400002200004130081D8704F8
:103220001D6B09740620040010088F021B21038DFA
:103230000C0A15EF12103C11421148214E32225A4D
:1032400086081D1204032D360A1C0D38080F380895
:1032500008380810000C30E109211B75683A00405D
:103260003019020F1006708804C088048308047F98
:103270008802C09003012000FE40AF2E1849051CB3
:103280000D3E0801C20007020007E20000FF052F03
:103290001FC85E052D610429763A07584919091798
:1032A0001F45D4116C69AC39B22007100600200705
:1032B00080918148811E1F1802530B99D001136C15
:1032C0005B043EFA3E01180BC1245200034A3E281B
:1032D0006D3A0691905D3C0335FE2C070203F00722
:1032E00083F05B04B20248AD1A042D5F0961A84D5A
:1032F000A90371B1D1C0CDCC0319991DA907410310
:1033000014080307FFFE07FFFC9E610365442F0CB2
:10331000089B0418093E0004C7800503C8D914049B
:1033200004003808B5680D116304113491FC1C05C4
:10333000800807FC9B082C05C00003F830032378A5
:103340000012955C21241D0E041DF5083EE02506A3
:10335000421E9E3005C00400F0D80D185C041D31DB
:103360000705108C1DA70B1D660961031D210611A1
:10337000770F1001F0A4041E88DA07130400D504A7
:103380000B113C03003E01FFE6007F84B01D600688
:103390005C0E0F00040BC00610F003F03801E07D56
:1033A000051D8C04BC0603F0300630CC033C08023B
:1033B00006180207F0079F061D2705061006502570
:1033C000892D060345FB1D0F03440707FFE007FF98
:1033D000F053ADF2051D8403111B712D1D270358F9
:1033E0000707FE00041FE0E81B01E043154C716372
:1033F00021211FFFC05A0A15621207052005FF8010
:10340000043F0C1604735E00B20C4D9105140707BF
:10341000C07805F1C8D4440A001F800463E807801F
:10342000F85372006C1E80770D1C0508047C08B2EE
:103430000A1DC1081E00AD044FE008DA046E04C185
:10344000052A06072007F80403E8040F2A100605DA
:10345000F00807C02419BB0E1060EF061C043FFFE4
:10346000FE1707A103AD9E062D700E3EC0BC0325BE
:10347000153EC050063E0E42087DA60AB13C114ED4
:103480000D16CA0432103D322006BE10E00602219D
:103490000103716F21037E101A08EDF9071010F077
:1034A0000019F8001B180022080026080024031742
:1034B00010006B6B1FF8FA45D71D69061C04F0005D
:1034C00018060C3D670811036C083018001FF00047
:1034D0000FED041D0903110F5318301E11211D910A
:1034E000082D390D954141247338182450040410D7
:1034F000105AA19E414B300512300022961199902E
:10350000093208001E10000E20D3213F1C0401FFC9
:10351000F8740712064831034F0720190C5DCF0ECF
:10352000300C000E6E001FF30031B10020034C0C74
:103530003191001F13002E1E00200EE4074D1704CA
:103540002D410721D5615781FC7D570C51AE1004E8
:10355000063FF8030D136E083D9C072E032F06212E
:1035600003AC0803063FFE063FFC6E08816C2F018A
:1035700088C8073C092FC00038F8002038B409A2D9
:1035800008277DEC040E100F4C08419F623FB101EB
:10359000100C4D3405A127021510D81565360FB053
:1035A0007630D11D1C05AF300004081DFE06233FF8
:1035B000FF0364061011002009F8061138F885D4BD
:1035C00022092D321F3649F4791041931D191159E2
:1035D0004339DD8D410B1D7110100D78001E180050
:1035E00033080023080021031007880021980030C9
:1035F0005DBA60CB11F917FFF0F8896AA146250B77
:103600007C06F0007FF80083043A20D09A7F644162
:103610007B3E3CA1071E23CC0F1DBF11200570006F
:10362000238012623063211E1D580B1D9E042C0442
:10363000E000273306210F1E217A0522E00C9A2094
:1036400019200F3838003E680027800003C8002C7E
:10365000F80F3A20E2816C140403003C4A80058391
:103660000023EC69BF20008D0E3B38080D1C08F8C4
:103670000023E8002F88100831121D78060E1670FE
:10368000E508AC071FF7FC3000067D04DDD9038E8A
:10369000FF2B0DBD3E091D74041139113FADD0083B
:1036A000AD15134DEE063240036E207A044D97059A
:1036B0000E170C47040182011D98113C08C007FF3A
:1036C000E1E007F01709025FC0714E20E2051D62BC
:1036D000061E00EA102DE9070312001C1401527C9B
:1036E00053180C042F0FE0BB10900403F80C1401C6
:1036F000191C054C721C0480007803091C06FC068A
:1037000040010EF8041C1A070020020380200FFF5E
:10371000FFFC0201C0200200E0600130704001F0B7
:103720000A0B0748F01F781D230B1DB4101F000360
:1037300074081C0B02008060030181C001FFF915B1
:103740002EFE9A121D75091F03BF4E041DAE0E1CDE
:103750000671806001C190051B0180D11D730E07A9
:1037600045003FF925EE1D010A13FCC07811801CAD
:103770000B03E0200202782002061E30161207F02A
:103780001DA8121E01230C1C04011C605A091E20D6
:10379000C5102104AE40200B09427C115E1F001CA5
:1037A000A5031A1F6C0E870F85031D33052DFD051C
:1037B00019181DFE111EE0B3172E30270D2D4304DE
:1037C0001DC4080A4602FF214C2154215C216421BA
:1037D0006C398C217C036407F8EC1D95111DD716FC
:1037E00041041E06E8091A03671F6143F60D1EFF18
:1037F000F611424310211861240F4D0C1881040268
:1038000014800403187FFF1C0D48FD032DB513120F
:10381000E3041DB40E1D72143D4707096A690235A1
:103820008004054B813EC091130E65007006D97E61
:103830004DE7123DF1043E80650C011D0F094E7EDF
:103840001E009F1A396C1C04F0078047131EC09F8E
:103850001B1E60B31B622004211021181D3A1A326E
:1038600080280E510F98031E80F71781041C0460F6
:1038700001FFDB1211043D11164DA9096104095025
:10388000831E7874041E98C016130002F8120404F4
:103890001208041210041220041C044060039C0649
:1038A0001301839412FE280B4F7C077D35781EF0A0
:1038B00068052D4D1C25748201041E0388071C0613
:1038C0000186804001A4062F0078DF110A4D1E7F7B
:1038D0005A08611E48F1081D21192DD31D1E0C0523
:1038E000131230041404400810881DA50B41041D58
:1038F000FF058210040D4D800810061F864003E16D
:10390000F01DE913D30304041C090600400303015E
:10391000C003A5070C045103007EEC064EFCEC0628
:103920001C0970C380008180C00123132188A2027A
:10393000041E03C4191EC183131EC01406014E8445
:103940003EF089143DE0032D131B1E03E9101E03F6
:10395000B70C11F31200FC4C04000318830661201D
:103960000D4CFD0A1DDC1B1E78E214200BFC60C010
:10397000018EC040030780EC197C5280041EC07881
:10398000091C06E04001867028091D000A0F4C78CA
:103990001F7C032DCB091EFFF8091FC0C100031EA9
:1039A000606C0AA220042D800311182C06C180002F
:1039B000C18F471C1DEB1F0E60F0810C2E034518B4
:1039C0001D2F1321040E6F0310062DAA171E66AEBD
:1039D000170E6B7884072DED0C6DE8082D10092D5E
:1039E000940C1E3089211DFE043F00C0DA1B3D9C53
:1039F000040E4E043A0E2D4E0A013204014A831D74
:103A000093222DF0063D5D1E11EC31F421FC2D6C4E
:103A10000D2D1C0A6D140A25240D507C083DB9108B
:103A20002D28184F0238590B1D13231D65161E79BA
:103A300067151F81E01B1E2EC00F201D8C043D0C3E
:103A4000041DA41D2D8D190D4CFC071E3F58031E8F
:103A500070040E1DDE041C040101F804041C0AFCA1
:103A600020021E04200230083A231C0A3020023FA4
:103A7000FC20013F04D8221E0C04081E31AC050EA8
:103A800049C27A0F2DA5102D131D1E3EF7131D647C
:103A90000D51071DF7061D97052D06122D080E5214
:103AA000FE093DA0090D4B08087DE4085D7008ADD6
:103AB0007C078D84071D411A1E86840E2D84075FA6
:103AC000F87F12100D4D680D65801D11219E037C3D
:103AD0000961042D1C083D9C0929A00404573006E7
:103AE0000000D17C3DFC09517C2D200A3D84050D50
:103AF00049000A0522802D8C103C04020FE0880A40
:103B00001DCE1C3EE0A003016080B200041DB32264
:103B10001E0387113DA0070C0412C00000511809B4
:103B200038004D80032D56230912001D8B162104E9
:103B30001C044003C080071E30ED140D450303052F
:103B400010FC1DF4071104AD840E6114E9200D4E24
:103B50007307F9780915900D5182132D530D520FEB
:103B600004830102041D030A1F0006FC0A12FC0460
:103B700043F802A471040D5880033AC0803D7914C3
:103B800019701C040030F8960C1C063E2003800FB0
:103B900000032E03A0030F49E0020405051670027E
:103BA0001400045E608A0E0D507C0422E0081DF3B0
:103BB000232DE0091DE80B41FD5E1E1B06111C0BA9
:103BC0004FE00084B1801D780E1F03F07C0E5EFC78
:103BD00017142D3E193D9F1D1E7C04031F1F80D40A
:103BE0001F6D0003094B007D80075D7C0F7D040E77
:103BF0000D11FC052E0090140E5D3F80055DF00355
:103C00004E02FC0371042DA4151D040F3DB41515BF
:103C1000130D517C101E037C102D00051E06EC2197
:103C20001D7C0831041206081F03E018271EF896B1
:103C3000091E5C80101E8CB61D0C06600C000FFC6B
:103C40001800081D94161DA4251E0215271F030326
:103C500096211C048607E058271EE009230D508892
:103C6000101E78F52C1C06FE01E00186E0071D6899
:103C70000EED800D2D14042E0184170C074C80705E
:103C8000C003E03F80089D580E0E1C0210083D9CAA
:103C90000A2D840E0F4700E0F40541541D0D281D28
:103CA000EC114FC002640CEDF01152201822802854
:103CB0000D51800541842D800F1D071023023F09FF
:103CC0002DD1252D6C112DD62D2D161A1E780008FC
:103CD0004C05C000023CA80F0D46040671781D6714
:103CE000161E0204041C0402007FF4041E0F0C19AB
:103CF0005005F00003EF182E0F71032D050B2C0457
:103D00001F0002962486F8AC0D4B84051E805E03CE
:103D10004C0BF0032002FC0C20021F3000051D8913
:103D20001B1F021800051F601F80060D507C0675C2
:103D30000465802D040D1DEC051C04020FC06819DC
:103D40002DFC1315102DFC09121C144E7000110DC2
:103D50004F80052D6F2C2E60DA141E0374111C0485
:103D60000FA002880C1C040200F8001B1D0C1A1284
:103D70000F7C21903E7880062660240E510282112D
:103D8000FDCE301D74080D1AFE0E0D53741D6DD836
:103D90000A5E78ED1C310D5EF0FA1C3DF4142D0D19
:103DA000079F3C0039280D49041A0D170610250CF1
:103DB0000D6677115D7C0F3D12154D1C2F41085D7E
:103DC0003D23094E786D7C19013A04054A8471043B
:103DD0005618040E6304ED122D641D1E8F85271CDA
:103DE000078C6000061820C23151042220041E40B6
:103DF00003083E408B2C3D10047D880A0E4FC00006
:103E0000061D00081E0784061DFF2E1DE9051D4125
:103E1000341D352A1D5C3281041D84163D18143D65
:103E20009C0A0E4DFE041B4E7EF40A2303817C1176
:103E3000F4F17C1D15111FC0405E2C0D530216813C
:103E4000801DE0161E063D3591F81F020490083EC5
:103E5000027C0745203D4F2231040151801E11652F
:103E6000071B1040008A6008190C12060C12031878
:103E70001F01F08D290E507170152DF503A5EC2C46
:103E8000047FFFE0801A5E0188188202043D8006EC
:103E90002D2B150E4C0196221DC32E1FE33E090942
:103EA0001C06C200020CC33B30B2C1041C04060C49
:103EB000C119221C06C30005F062C62D1A7E8C0EA5
:103EC000523C000B1D00033EE0E42029FC7606185E
:103ED0008A008421200F53FFE08C1BCE0470031F47
:103EE0000387140E4E8F980D0D5F001C7D7E2C3DB8
:103EF00007074D94057204041E03BB2C1206901292
:103F0000FC900C0454F80380F81075802F0008E72B
:103F1000294D2D2A2D8F1F1F058E7F071F07A0619A
:103F2000391EE0EC3621040D53081D0D128011419D
:103F300090055D802D70031D532C13000F044D74EC
:103F4000058114021503140D4A800D6DF40361847C
:103F50006D00030E6A0200032D501C0D1D0006218A
:103F60001821200E4D01801C69E81DDD0515841DFA
:103F700042361F00C10007EE4190034D000702507A
:103F80000180ED8006CE0280063104219012039854
:103F90002D290E21A80D4A0009E1E85A0F081D74C9
:103FA0000F9D0C0569845D290B0D4F04091D412FE0
:103FB0001DFF351F03E0F0081E30F8082104921899
:103FC000041E0CC0351F0C6011311D981C0F558349
:103FD0008000074DFD0A2D8E221E1FF8242D0C098E
:103FE000F6048C0D4CFC26A17C1D1B3015780E119F
:103FF000C0F02141781E0422224DA4030D4C8408F8
:1040000071802DEF0F1DE3201E0460132E04EA3A89
:104010005E0390231D4B36430460200E4D06150BA6
:104020006E0476064EC084202E04DC111D0A151F76
:10403000040FA63142F090251843040F8C4F043C26
:10404000980F014C8865DC1E60CB3D1D95381E83A2
:10405000791B16E6084EF8EF0D6C07045E2000058C
:104060008780060E4F6080064D7C091DF3203DF7CA
:10407000201D700712F804471F02112D7A332D28D6
:1040800032C238F80D4E020F1E07582A2E065C0762
:10409000257C1D6C071E04A33013043C041270FC25
:1040A0001D941C1D1421151C2D180B5D86250D69F2
:1040B00018271D073F6C0507FE3FF878290E53109F
:1040C000870E0D177A2E0E62FF022861D82D5C2A0A
:1040D00021EC21F40D55E8270D12252F3D6A099298
:1040E00040045220149E08F80F6D280E0E4B0C80D1
:1040F00027051E600DFFD8420DFFD8420DFFD842A4
:104100000DFFD8420DFFD8420DFFD8420DFFD84217
:104110000DFFD8420DFFD8420DFFD8420DFFD84207
:104120000DFFD8420DFFD8420DFFD8420DFFD842F7
:104130000DFFD8420DFFD8420DFFD8420DFFD842E7
:104140000DFFD8420DFFD8420DFFD8420DFFD842D7
:104150000DFFD8420DFFD8420DFFD8420DFFD842C7
:104160000DFFD8420DFFD8420DFFD8420DFFD842B7
:104170000DFFD8420DFFD8420DFFD8420DFFD842A7
:104180000DFFD8420DFFD8420DFFD8420DFFD84297
:104190000DFFD8420DFFD8420DFFD8420DFFD84287
:1041A0000DFFD8420DFFD8420DFFD8420DFFD84277
:1041B0000DFFD8420DFFD8420DFFD8420DFFD84267
:1041C0000DFFD8420DFFD8420DFFD8420DFFD84257
:1041D0000DFFD8420DFFD8420DFFD8420DFFD84247
:1041E0000DFFD8420DFFD8420DFFD8420DFFD84237
:1041F0000DFFD8420DFFD8420DFFD8420D74D842B2
:0C4200009D0C394D8D4171010000000043
:0400000508000131BD
:00000001FF
