:020000040800F2
:1000000020040020450100084D0100084F010008B0
:1000100051010008530100085501000800000000CC
:100020000000000000000000000000005701000870
:1000300059010008000000005B0100085D01000894
:100040005F0100085F0100085F0100085F01000810
:100050005F0100085F010008350200085F01000829
:100060006D02000895020008D50200085F01000833
:100070005F0100085F0100085F0100085F010008E0
:100080005F0100085F0100085F0100085F010008D0
:100090005F0100085F0100085F0100085F010008C0
:1000A0005F0100085F0100085F0100085F010008B0
:1000B0005F0100085F0100085F0100085F010008A0
:1000C0005F0100085F0100085F0100085F01000890
:1000D0005F0100080D1000085F0100085F010008C3
:1000E0005F0100085F0100085F0100085F01000870
:1000F0005F0100085F0100085F0100085F01000860
:100100005F0100085F0100085F0100085F0100084F
:100110005F0100085F010008150E00085F0100087C
:100120005F0100085F0100085F0100085F0100082F
:10013000DFF80CD000F018F8004800470113000861
:10014000200400200648804706480047FEE7FEE7F7
:10015000FEE7FEE7FEE7FEE7FEE7FEE7FEE7FEE777
:10016000B50D000831010008064C074D06E0E068B7
:1001700040F0010394E8070098471034AC42F6D3EE
:10018000FFF7DAFF98130008B81300080EB5012135
:10019000102000F009FC4FF48060ADF80400472007
:1001A000ADF800006946044800F080FE01221146C7
:1001B000014800F071FE0EBD0010004008B501219D
:1001C000082000F001FC4FF48070ADF80000102012
:1001D0008DF8030003208DF802006946014800F005
:1001E00029F908BD000C014010B54FF48071024898
:1001F00000F0BDF910BD0000000C014010B54FF437
:100200008071024800F0B5F910BD0000000C0140FB
:1002100010B50446054804600121054800F01CFEA5
:100220000121034800F01BFE10BD00000400002067
:100230000010004010B5012000F066F888B1FFF70B
:10024000DDFFC82001F038F8FFF7CEFF2021054878
:1002500000F08DF92021044800F089F9012000F018
:100260004DF810BD000C01400018014010B50420ED
:1002700000F04AF850B10421054800F081F910B1AE
:10028000002000F09FFE042000F038F810BD0000B0
:100290000018014010B5082000F036F8B0B1082170
:1002A0000B4800F06DF970B1FFF7A8FFC82001F00E
:1002B00003F8FFF799FF0121002000F0D1FC012194
:1002C000084600F0CDFC082000F018F810BD000032
:1002D0000018014010B5102000F016F850B11021A0
:1002E000054800F04DF910B1012000F06BFE102020
:1002F00000F004F810BD000000180140014908603A
:100300007047000014040140014600200022074B02
:100310001B6803EA0102054B14331B680B4013B141
:100320000AB1012000E000207047000000040140F5
:10033000002123498279002A3AD00A4612680368CC
:100340009A430B461A600A1D126803689A430B1DF4
:100350001A60027911440A6803681A430A60184A4D
:100360000832126803689A43154B08331A601A1D45
:10037000126803689A43124B0C331A604279102AB0
:100380000ED11A1F126803681A430D4B08331A6006
:100390001A1D126803681A43094B0C331A600DE0EA
:1003A0000749427911440A6803681A430A6005E064
:1003B000027911440A6803689A430A607047000092
:1003C0000004014010B50121412000F0FDFA042194
:1003D000084600F00FF800F04DFA10BD10B500F01F
:1003E00049FA012240F22551014800F0B9FE10BD42
:1003F0000038014030B500228B071C0F0F2303FA91
:1004000004F20B4B8C1053F824309343084C8D109E
:1004100044F8253023468C1053F824308C07240FE1
:1004200000FA04F42343024C8D1044F8253030BD0B
:10043000080001402DE9F041024600250026002079
:1004400000230024002791F803C00CF00F0591F859
:1004500003C00CF0100CBCF1000F03D091F802C0E7
:100460004CEA050591F800C0BCF1000F31D01468CA
:1004700000202BE04FF0010C0CFA00F3B1F800C0A3
:100480000CEA03069E4220D183004FF00F0C0CFAB9
:1004900003F7BC4305FA03FC4CEA040491F803C0DB
:1004A000BCF1280F06D14FF0010C0CFA00FCC2F889
:1004B00014C00AE091F803C0BCF1480F05D14FF019
:1004C000010C0CFA00FCC2F810C0401C0828D1D363
:1004D0001460B1F800C0BCF1FF0F34DD5468002097
:1004E0002EE000F1080C4FF0010808FA0CF3B1F807
:1004F00000C00CEA03069E4221D183004FF00F0C8E
:100500000CFA03F7BC4305FA03FC4CEA040491F827
:1005100003C0BCF1280F05D100F1080C08FA0CF853
:10052000C2F8148091F803C0BCF1480F07D100F164
:10053000080C4FF0010808FA0CF8C2F81080401CB3
:100540000828CED35460BDE8F081024600209368AD
:100550000B400BB1012000E0002070470246002054
:10056000D3680B400BB1012000E0002070474161CF
:100570007047016170470AB1016100E04161704755
:1005800070B504460D4629462046FFF7E7FF0128CF
:100590001BD10F2000F090FE29462046FFF7DEFF1A
:1005A000012808D129462046FFF7CFFF08B90120CE
:1005B00070BD0020FCE729462046FFF7CFFF20B999
:1005C00029462046FFF7C1FFF2E70020F0E70000D0
:1005D00008B50121102000F0F7F90120ADF8000066
:1005E00010208DF8030003208DF8020069463F4873
:1005F000FFF720FF01213D48FFF7B9FF0220ADF8CA
:10060000000010208DF8030003208DF802006946D9
:100610003648FFF70FFF02213448FFF7A8FF0420F8
:10062000ADF8000010208DF8030003208DF80200C3
:1006300069462E48FFF7FEFE04212C48FFF797FF7E
:100640000820ADF8000010208DF8030003208DF87D
:10065000020069462548FFF7EDFE08212348FFF711
:1006600086FF1020ADF800008DF8030003208DF800
:10067000020069461D48FFF7DDFE10211B48FFF709
:1006800076FF2020ADF8000010208DF80300032035
:100690008DF8020069461548FFF7CCFE202113486B
:1006A000FFF765FF4020ADF8000010208DF8030033
:1006B00003208DF8020069460C48FFF7BBFE40217D
:1006C0000A48FFF754FF8020ADF8000010208DF895
:1006D000030003208DF8020069460448FFF7AAFED4
:1006E00080210248FFF743FF08BD000000100140D1
:1006F0000EB50121452000F067F91020ADF8080083
:1007000048208DF80B0003208DF80A0002A941480B
:10071000FFF790FE012210213E48FFF72CFF042135
:100720000846FFF767FE1020009000208DF80400B7
:100730000C208DF8050001208DF806006846FFF7B3
:10074000F7FD0820ADF8080048208DF80B000320C5
:100750008DF80A0002A92F48FFF76CFE012208213C
:100760002C48FFF708FF03210420FFF743FE082071
:10077000009000208DF804000C208DF80500012069
:100780008DF806006846FFF7D3FD0420ADF8080099
:1007900048208DF80B0003208DF80A0002A91D489F
:1007A000FFF748FE012204211A48FFF7E4FE022168
:1007B0000420FFF71FFE0420009000208DF80400A5
:1007C0000C208DF8050001208DF806006846FFF723
:1007D000AFFD0120ADF8080028208DF80B000320A4
:1007E0008DF80A0002A90C48FFF724FE00210846F4
:1007F000FFF700FE0120009000208DF80400082083
:100800008DF8050001208DF806006846FFF790FD81
:100810000EBD0000001801400008014008B501218C
:10082000482000F0D1F82020ADF8000010208DF80D
:10083000030003208DF8020069460C48FFF7FAFD1B
:1008400020210A48FFF793FE2020ADF80000102079
:100850008DF8030003208DF8020069460448FFF775
:10086000E9FD20210248FFF782FE08BD000C01408F
:100870000018014008B54FF4A06000F08BF80A2082
:100880008DF8000001208DF801008DF802008DF830
:100890000300684600F046F809208DF800000120AA
:1008A0008DF801008DF802008DF80300684600F015
:1008B00039F808208DF8000001208DF801008DF82E
:1008C00002008DF80300684600F02CF806208DF831
:1008D000000001208DF801008DF802008DF8030062
:1008E000684600F01FF825208DF8000003208DF8E1
:1008F00001008DF8020001208DF80300684600F029
:1009000011F836208DF8000002208DF80100032038
:100910008DF8020001208DF80300684600F002F80F
:1009200008BD000070B5002100230F22C47804B375
:10093000154C246804F4E064C4F5E064210AC1F1B4
:100940000403CA40447804FA03F184781440214334
:1009500009010E4C0678A155047804F01F05012406
:10096000AC4005786D11AD0005F1E025C5F80041FA
:1009700009E0047804F01F050124AC40044D06781A
:10098000761145F8264070BD0CED00E000E400E073
:1009900080E100E002490143024A11607047000013
:1009A0000000FA050CED00E029B1064AD2690243C5
:1009B000044BDA6104E0034AD2698243014BDA61F5
:1009C000704700000010024029B1064A92690243B4
:1009D000044B9A6104E0034A92698243014B9A6195
:1009E00070470000001002400F48006840F001000E
:1009F0000D490860084640680C4908400A494860AB
:100A0000084600680A490840074908600846006827
:100A100020F4802008600846406820F4FE0048600A
:100A20004FF41F0088607047001002400000FFF87C
:100A3000FFFFF6FE30B500210022002400232D4DDB
:100A40006D6805F00C0121B1042905D0082923D1D6
:100A500005E0294D056022E0274D05601FE0254D8A
:100A60006D6805F47012234D6D6805F4803402251D
:100A700005EB92421CB9214D554305600BE01D4D1D
:100A80006D6805F400351DB11C4D5543056002E04D
:100A9000194D5543056002E0174D056000BF00BFCA
:100AA000144D6D6805F0F0010909154D6B5C056882
:100AB000DD4045600F4D6D6805F4E061090A104D99
:100AC0006B5C4568DD4085600A4D6D6805F46051DA
:100AD000C90A0B4D6B5C4568DD40C560054D6D680E
:100AE00005F44041890B074D6B5CC568B5FBF3F518
:100AF000056130BD0010024000127A0000093D007F
:100B0000080000201800002010B501460022002334
:100B100000204A11012A02D1094C236806E0022A6A
:100B200002D1074C236A01E0054C636A01F01F0201
:100B3000012494401C400CB1012000E0002010BDB5
:100B4000001002400248406800F00C0070470000AE
:100B50000010024001460020034A506820F0F000D7
:100B600008435060704700000010024011490968B6
:100B700021F480310F4A11601146096821F4802167
:100B80001160B0F5803F03D0B0F5802F0ED106E0A4
:100B90000849096841F48031064A116007E00549B7
:100BA000096841F4A021034A116000E000BF00BFC2
:100BB000704700000010024001460020034A5068C0
:100BC00020F4E060084350607047000000100240CD
:100BD00001460020034A506820F4605040EAC100FA
:100BE00050607047001002400149086670470000DD
:100BF0000000424202460020044B586820F47C105A
:100C000042EA01031843014B58607047001002404C
:100C100001460020034A506820F00300084350605A
:100C2000704700000010024038B5002000900024FA
:100C3000002500BF3120FFF767FF05460098401CE4
:100C400000900098B0F5A06F01D0002DF2D03120B7
:100C5000FFF75AFF08B1012400E00024204638BD08
:100C60002DE9F04107460E4617B1012F06D102E0EB
:100C70000A4C202504E00A4C202501E0BDE8F08163
:100C800000BF26B129462046FFF773FC03E0294642
:100C90002046FFF76CFC00BFF0E70000000C0140AD
:100CA0000018014010B500F001F810BD0CB500208F
:100CB000019000903348006840F48030314908606A
:100CC00000BF3048006800F4003000900198401CDC
:100CD0000190009818B90198B0F5A06FF1D129489A
:100CE000006800F4003010B10120009001E0002005
:100CF00000900098012843D12348006840F010007C
:100D0000214908600846006820F003000860084692
:100D1000006840F0020008601A48406819494860BD
:100D20000846406848600846406840F48060486073
:100D30000846406820F47C1048600846406840F44B
:100D4000E81048600846006840F08070086000BF06
:100D50000C48006800F000700028F9D0094840688D
:100D600020F00300074948600846406840F0020050
:100D7000486000BF0348406800F00C000828F9D123
:100D80000CBD00000010024000200240042808D1E1
:100D90004FF0E021096941F004014FF0E0221161B8
:100DA00007E04FF0E021096921F004014FF0E02253
:100DB0001161704710B51348006840F001001149F7
:100DC000086008464068104908400E4948600846D7
:100DD00000680E4908400B4908600846006820F486
:100DE000802008600846406820F4FE0048604FF408
:100DF0001F008860FFF756FF4FF00060044908604D
:100E000010BD0000001002400000FFF8FFFFF6FEDA
:100E100008ED00E010B501210C4800F02CF880B17D
:100E20000B480068401C0A490860084600680949E8
:100E30000968884205DB002005490860012000F0B0
:100E4000C1F80121014800F007F810BD0010004072
:100E50000000002004000020CA430282704721B134
:100E6000028842F00102028004E002884FF6FE731D
:100E70001A400280704730B502460020002300244B
:100E8000158A05EA0103958905EA010413B10CB13D
:100E9000012000E0002030BD1AB183890B4383811B
:100EA00002E083898B43838170470000002202881F
:100EB0001D4B98420ED01D4B98420BD0B0F1804F85
:100EC00008D01B4B984205D01A4B984202D01A4BBF
:100ED000984204D14FF68F731A404B881A43174B30
:100EE000984207D0164B984204D04FF6FF431A4061
:100EF000CB881A4302808B8883850B8803850A4B35
:100F000098420BD0094B984208D00E4B984205D01E
:100F10000D4B984202D00D4B984201D10B7A0386BB
:100F20000123838270470000002C014000340140FF
:100F30000004004000080040000C00400010004089
:100F400000140040004001400044014000480140BE
:100F50002DE9F0410646092E1ED2DFE806F01D05F8
:100F6000080B0E1114171A00154C012516E0144C2D
:100F7000022513E0124C042510E0114C08250DE069
:100F80000F4C10250AE00E4C202507E00C4C4025A4
:100F900004E00B4C802501E0BDE8F08100BF29464C
:100FA0002046FFF7DBFA08B9012000E000200746E1
:100FB0003A4629462046FFF7DEFA00BFECE700007C
:100FC000001001402DE9F041064616B1012E06D170
:100FD00002E00C4C202504E00B4C202501E0BDE88C
:100FE000F08100BF29462046FFF7B8FA08B9012072
:100FF00000E0002007463A4629462046FFF7BBFAA4
:1010000000BFECE7000C01400018014070B540F251
:1010100025510C4800F07AF890B10A4800F032F9F6
:10102000C4B2002C06DB082C04DC25462846FFF75A
:101030008FFF00BF40F22551024800F04CF800BF7E
:1010400070BD00000038014010B586B00446012193
:1010500044F20400FFF7B8FC0420ADF814000320AC
:101060008DF8160018208DF8170005A91348FFF712
:10107000E1F90820ADF8140004208DF8170005A947
:101080000E48FFF7D7F901940020ADF80800ADF83D
:101090000A00ADF80C00ADF810000C20ADF80E0001
:1010A00001A9074800F082F80121054800F022F864
:1010B0004021034800F006F806B010BD00080140CA
:1010C0000038014001F40072B2F5007F00D100BF8A
:1010D000CA430280704710B50022002340F66A140C
:1010E000A14200D100BF0A1201249440A3B2DC4304
:1010F000048010BD21B1828942F40052828104E053
:1011000082894DF6FF731A408281704770B502469E
:10111000002400230025002040F66A16B14200D1C9
:1011200000BFC1F3421501F01F03012606FA03F3C5
:10113000012D02D19689334006E0022D02D1168A94
:10114000334001E0968A33400C12012606FA04F47B
:101150001688344013B10CB1012000E0002070BDAE
:10116000F0B50346002400260025002040F66A174B
:10117000B94200D100BF1846C1F3421401F01F0666
:10118000012707FA06F5012C01D10C3004E0022CEE
:1011900001D1103000E014301AB107682F43076006
:1011A00002E00768AF430760F0BD00002DE9F0479B
:1011B00086B005460E460024A24600BFA146002781
:1011C000B08900B100BF2F462C8A4CF6FF70044056
:1011D000F08804432C82AC894EF6F3100440B088AA
:1011E00031890843718908430443AC81AC8A4FF6C6
:1011F000FF400440B0890443AC8201A8FFF71AFC09
:101200001F48874202D1DDF810A001E0DDF80CA0F4
:10121000A88900F4004040B10AEBCA0000EB0A10B4
:1012200031684900B0FBF1F807E00AEBCA0000EBB7
:101230000A1031688900B0FBF1F86420B8FBF0F0C7
:1012400004012009642101FB1089A88900F40040F1
:1012500040B1322000EBC900B0FBF1F000F0070014
:10126000044308E0322000EB09106421B0FBF1F0E8
:1012700000F00F0004432C8106B0BDE8F0870000A9
:101280000038014001468888C0F30800704702E03A
:1012900008C8121F08C1002AFAD170477047002001
:1012A00001E001C1121F002AFBD1704710B56FF099
:1012B0000400FFF76BFD10BD014642F228324A439D
:1012C0004FF0E0235A6100229A611A46126942F0F7
:1012D00001021A6100BF4FF0E022106900F0010224
:1012E0001AB100F48032002AF5D04FF0E0221269E2
:1012F00022F001024FF0E0231A6100229A61704748
:1013000000F01AF8FFF7D2FFFFF788FAFFF760F94D
:10131000FFF7EEF94FF49640FFF796FEFEF74EFF0B
:10132000FFF750F8FFF75AF8FEF730FF4FF4FA7066
:10133000FEF76EFF00BFFEE710B5FFF755FB4FF459
:101340008030FFF713FC0020FFF704FC0020FFF7BC
:101350003FFC4FF48060FFF72FFC4FF4E0114FF497
:101360008030FFF747FC0120FFF73EFCFFF75CFCF5
:10137000012801D0002010BD00BF3920FFF7C4FBB9
:101380000028FAD00220FFF743FC00BFFFF7DAFB8A
:101390000828FBD10120EEE7B81300080000002068
:1013A0001C0000008E120008D41300081C0000204E
:1013B000040400009E12000800000000000000006D
:1013C00000000000010203040102030406070809EB
:0413D0000204060805
:0400000508000131BD
:00000001FF
