:020000040800F2
:1000000080CD00204501000861180008FD1100089E
:100010005D180008B10B0008392900080000000035
:10002000000000000000000000000000851F000824
:100030008D0C000800000000B91900080521000817
:100040005F0100085F0100085F010008C11E000891
:100050005F0100085F010008910C00085F010008C3
:10006000C10C0008110D0008590D00085F010008BF
:100070005F0100085F0100085F0100085F010008E0
:100080005F0100085F0100085F0100085F010008D0
:100090005F0100085F0100085F0100085F010008C0
:1000A0005F0100085F0100085F0100085F010008B0
:1000B0005F0100085F010008852400085F01000857
:1000C0005F0100085F0100085F0100085F01000890
:1000D0005F010008D9250008292600085F010008F3
:1000E0005F0100085F0100085F0100085F01000870
:1000F0005F0100085F0100085F0100085F01000860
:100100005F0100085F0100085F0100085F0100084F
:100110005F0100085F0100085F0100085F0100083F
:100120005F0100085F0100085F0100085F0100082F
:10013000DFF80CD000F0C6FB004800475133000840
:1001400080CD00200648804706480047FEE7FEE7CE
:10015000FEE7FEE7FEE7FEE7FEE7FEE7FEE7FEE777
:100160000921000831010008F0B480EA0102D40F2F
:100170004200B2EB410F02D20246084611464A0045
:1001800042D0C30DDDB2C1F3C752AD1A202D35DA0E
:10019000C1F3160141F4000204B15242C5F1200638
:1001A00002FA06F12A411044B3EBD05F23D0C4B168
:1001B000012DA0EBC35009DCF0BC4FF0004202EA75
:1001C000C352DBB200F5000000F0C1BA400000F1FC
:1001D000807000EBC350A0F1807040EAD1704900FC
:1001E00009E0490841EAC071A0EBC35000F50000E6
:1001F000400800EBC350F0BC00F0A0BA61420122FD
:1002000002EB4101001BF6E7F0BC704781F00041B2
:10021000AAE780F00040A7E72DE9FE4F804681EA7B
:100220000300C00F0C46009021F0004123F0004570
:10023000B8EB0200A94105D24046214690461C4633
:100240000B46024623F00040104347D0270DC7F36A
:100250000A00C3F30A510290401A019040286BDA59
:10026000C3F3130040F4801B0098924620B1002392
:10027000D2EB030A63EB0B0B01985946C0F1400225
:10028000504600F02AFA06460D4650465946019A55
:1002900000F042FA10EB08006141002487EA115295
:1002A00084EAE7731A4340D0009A62B3019A012AA4
:1002B0004FEA075215DC001B61EB02014FF00042D0
:1002C00002EA0752CDE90042001C41F58011324696
:1002D0002B4600F079FA03B0BDE8F08F4046214686
:1002E000F9E7001B61EB0201001C41F580130018C7
:1002F0005B412018A2F5001747EB030140EAD570D7
:10030000B6196D4111E06D084FEA360645EAC07531
:100310004FEA0752001B61EB0201001C41F58011FE
:1003200049084FEA30000019514132462B4603B0CC
:10033000BDE8F04F00F039BA0098012240000023D8
:10034000D0EB020263EBE073009821464FEAE074C1
:10035000B8EB000061EB0401E9E783F000435BE7E1
:1003600081F0004158E72DE9FE4F81EA030404F0D3
:10037000004421F0004100944FF0000B23F00043B3
:1003800050EA01045ED052EA03045BD0C3F30A547E
:10039000C1F30A552C44A4F2F3340194A0FB025497
:1003A000C1F3130141F48011C3F3130343F4801329
:1003B00001FB024400FB034E840A970A44EA81547D
:1003C00047EA8357A4FB076802958D0A05FB07855A
:1003D0004FEA932C04FB0C542705029D4FEA065864
:1003E00047EA1637B5EB08056EEB070C870E920E41
:1003F00047EA811742EA8312A7FB0201B6EB0B0121
:1004000064EB00042B0D43EA0C335E1844EB1C50E4
:10041000DA465146E7FB0201C5F313044FEA0B33FA
:1004200043EA14534FEA0432019C43EA0603A4F161
:100430000C040294009CCDE900B400F0C5F903B0AF
:10044000BDE8F08F00200146F9E72DE9F04D81EA83
:10045000030404F0004B21F0004514464FF0000A5D
:1004600023F0004150EA050220D054EA01021DD0D9
:10047000C5F30A570246C5F31303C1F31300C1F3D2
:100480000A5640F4801543F48013A7EB0608101BAE
:10049000D64608F2FD3873EB050002D308F10108D7
:1004A00001E092185B41B8F1000F03DA0020014629
:1004B000BDE8F08D00204FF48011064684460EE022
:1004C000171B73EB050705D3121B63EB05030643EC
:1004D0004CEA010C49084FEA300092185B4150EA9F
:1004E0000107EDD152EA030012D082EA040083EA48
:1004F0000501084305D0101BAB4106D201220023A1
:1005000006E000224FF0004302E06FF001025310BA
:100510001AEB06004CEB085110EB0A0041EB0B0103
:10052000BDE8F04D00F041B996230022114600F0DD
:100530000EB90EB5C10F80EAE0700844CA07002169
:1005400040F233438DE80E000A460B4600F03CF9BA
:1005500003B000BD70B5C1F30A5201F0004500249C
:10056000C1F3130140F2FF3341F480119A4201DAE2
:10057000002070BD40F233439A42A2F2334203DCC2
:10058000524200F0B9F800E090402C43F1D04042D4
:1005900070BDC1F30A5210B5C1F3130140F2FF332D
:1005A00041F480119A4201DA002010BD40F2334339
:1005B0009A42A2F2334203DC524200F09DF810BD91
:1005C000904010BD00F0004230F000400AD0C10D54
:1005D00001F56071C0F3160042EA0151C2084007FC
:1005E0001143704700200146704701F0004330B4CA
:1005F00021F0004150EA010206D00A0DA2F5607216
:10060000C1F31301002A02DC30BC00207047440F04
:1006100044EAC104C100E01830BC00EBC25000F055
:100620008DB80000002801DBC0F10040002901DB8B
:10063000C1F1004181427047002801DBC0F1004058
:10064000002901DBC1F100418842704730B50B46FB
:10065000014600202022012409E021FA02F59D42F2
:1006600005D303FA02F5491B04FA02F52844151EC6
:10067000A2F10102F1DC30BD2DE9F05F054600205A
:1006800092469B4688460646814640241BE0284603
:1006900041464746224600F02FF853465A46C01AB4
:1006A000914110D311461846224600F016F82D1A33
:1006B00067EB01084F4622460120002100F00DF8AB
:1006C00017EB00094E41201EA4F10104DFDC48466F
:1006D00031462A464346BDE8F09F202A04DB203AF3
:1006E00000FA02F1002070479140C2F1200320FA85
:1006F00003F3194390407047202A04DB203A21FA83
:1007000002F00021704721FA02F3D040C2F120022A
:100710009140084319467047202A06DBCB17203A40
:1007200041FA02F043EAE07306E041FA02F3D040F6
:10073000C2F1200291400843194670470029A8BF22
:100740007047401C490008BF20F00100704710B4FA
:10075000B0FA80FC00FA0CF050EA010404BF10BCAF
:10076000704749B1CCF1200421FA04F411FA0CF1DC
:1007700018BF012121430843A3EB0C01CB1D4FEA15
:1007800000614FEA102042BF002010BC704700EB10
:10079000C35010440029A4BF10BC7047401C49003E
:1007A00008BF20F0010010BC704710B5141E73F193
:1007B000000408DA401C41F1000192185B411A4321
:1007C00001D120F0010010BD2DE9F04D92469B466D
:1007D00011B1B1FA81F202E0B0FA80F22032904613
:1007E000FFF77BFF04460F4640EA0A0041EA0B018F
:1007F00053465A46084313D0114653EA010019D014
:10080000C8F140025046FFF777FF05460E465046B6
:1008100059464246FFF761FF084305D0012004E036
:1008200020463946BDE8F08D0020054346EAE076D3
:100830002C4337430A986305E40AA0EB0800002222
:10084000FD0A44EA47540A3002D500200146E9E790
:10085000010510196941DDE9084500196941BDE844
:10086000F04DA2E7C1F30A52C1F3130140F2FF3386
:1008700041F480119A4202DA00200146704740F2AA
:1008800033439A42A2F2334202DC5242FFF734BFB2
:10089000FFF723BF30B5041E71F1000404DB4FF0F5
:1008A0000044404264EB0101141E73F1000405DBB7
:1008B0001C464FF00043524263EB0403994208BFC9
:1008C000904230BD064C074D06E0E06840F0010361
:1008D00094E8070098471034AC42F6D3FFF72CFC9D
:1008E000484000086840000870B58D1810F8014BAA
:1008F00014F0030201D110F8012B231106D110F8D6
:10090000013B03E010F8016B01F8016B521EF9D1B5
:10091000ABB110F8012B04F00C048A1A0C2C03D094
:10092000A2EB84129B1C08E010F8014BA2EB0422FE
:10093000F8E712F8014B01F8014B5B1EF9D5A9420B
:10094000D4D3002070BD21B1826842F001028260E0
:1009500003E0826822F001028260704701460020B5
:100960008A6802F004020AB1012000E0002070470A
:100970000146C86C80B270470246002013680B40E5
:100980000BB1012000E000207047014600208A687A
:1009900002F008020AB1012000E0002070470000C8
:1009A00030B502460020002350680F4C20400D79DE
:1009B0000C6844EA05242043506090680B4C2040AA
:1009C000D1E902542C434D7944EA45042043906018
:1009D000D06A20F470000C7C641EE4B2234340EA29
:1009E0000350D06230BD0000FFFEF0FFFDF7F1FFC5
:1009F000F0B504460D4600200021092D11DDE06808
:100A0000A5F10A0606EB4607072606FA07F1884312
:100A1000A5F10A0606EB460603FA06F10843E06074
:100A20000CE0206905EB4507072606FA07F1884325
:100A300005EB450603FA06F108432061072A0FDAA1
:100A4000606B561E06EB86071F2606FA07F18843E1
:100A5000561E06EB860605FA06F10843606322E09F
:100A60000D2A0FDA206BD61F06EB86071F2606FA23
:100A700007F18843D61F06EB860605FA06F1084300
:100A8000206310E0E06AA2F10D0606EB86071F2640
:100A900006FA07F18843A2F10D0606EB860605FA71
:100AA00006F10843E062F0BD816841F00801816011
:100AB000704721B1826842F4A002826003E082683C
:100AC00022F4A00282607047816841F004018160D5
:100AD0007047000030B10749096841F40001054A38
:100AE000116005E00349096821F40001014A116021
:100AF000704700000824014000B585B0012148027C
:100B000000F088FF4FF4004000F058FF0120FFF78D
:100B1000E1FF002000908DF804008DF805004FF4EF
:100B2000602002900020039001208DF8100069469B
:100B30000F48FFF735FF01210D48FFF704FF0C4870
:100B4000FFF7B2FF00BF0A48FFF71FFF0028FAD1E6
:100B50000748FFF7B9FF00BF0548FFF7FFFE002871
:100B6000FAD101210248FFF7A4FF05B000BD000043
:100B7000002401400EB50121042000F03BFF0020BD
:100B8000ADF804004720ADF800000020ADF80200E9
:100B90006946064801F0CEFC00220121034801F01D
:100BA000BFFC0121014801F09EFC0EBD0008004081
:100BB00000BFFEE700B585B00121042000F02AFF48
:100BC0000121480700F016FF1020ADF810000320A7
:100BD0008DF8120000208DF8130004A90B4800F0D6
:100BE000FBF90020009001900290022003906946DA
:100BF000002000F021F80021084600F037F801211C
:100C0000002000F005F805B000BD0000000801401C
:100C100039B1084A1268012383401A43054B1A6010
:100C200006E0044A1268012383409A43014B1A608C
:100C3000704700000074004030B5002200230A4CC9
:100C4000226840F6FE748440A243D1E900452C435B
:100C50008D682C43CD6844EA050303FA00F422436F
:100C6000014C226030BD00000074004008B5002235
:100C70000092054A009200F10802009B1A4400927B
:100C8000009A116008BD0000007400407047000029
:100C900010B5012000F080F858B102200549087015
:100CA0000548007810B9012004490870012000F0BF
:100CB0006DF810BDE3420020E1420020E242002036
:100CC00010B5042000F068F8C8B104210C4800F009
:100CD00097FA88B10B48007838B909210A4800F022
:100CE000F5FF01200749087006E00921074800F0D8
:100CF000EDFF002003490870042000F047F810BD04
:100D000000180140E3420020144300201C4300204F
:100D100010B5082000F040F890B108210A4800F012
:100D20006FFA68B10821084800F06AFA40B1022061
:100D3000064908700648007810B900200549087077
:100D4000082000F023F810BD00180140E342002005
:100D5000E1420020E242002010B5102000F01CF813
:100D600060B11021074800F04BFA38B1064800780E
:100D700008B9012000E0002003490870102000F0AD
:100D800005F810BD00180140E1420020014908604B
:100D90007047000014040140014600200022074B68
:100DA0001B6803EA0102054B14331B680B4013B1A7
:100DB0000AB1012000E0002070470000000401405B
:100DC000002123498279002A3AD00A461268036832
:100DD0009A430B461A600A1D126803689A430B1D5A
:100DE0001A60027911440A6803681A430A60184AB3
:100DF0000832126803689A43154B08331A601A1DAB
:100E0000126803689A43124B0C331A604279102A15
:100E10000ED11A1F126803681A430D4B08331A606B
:100E20001A1D126803681A43094B0C331A600DE04F
:100E30000749427911440A6803681A430A6005E0C9
:100E4000027911440A6803689A430A6070470000F7
:100E50000004014010B50121412000F0DBFD042118
:100E6000084600F099F800F0FCFC10BD70B504468F
:100E70000D462946204601F0C3FC70BD51B18200E9
:100E8000A2F1C042126842F001038200A2F1C04206
:100E9000136009E08200A2F1C0421268034B1A40BD
:100EA0008300A3F1C0431A6070470000FEFF0F00EB
:100EB000D0E901121143C26811430269114342692A
:100EC000114382691143C2691143026A1143426AA4
:100ED0001143826A1143C26A1143026B11430268D3
:100EE0009200A2F1C0421160816808290BD101680B
:100EF0008900A1F1C041096841F040020168890000
:100F0000A1F1C0410A60416B0968426B526841EA35
:100F10000211426B926841EA0221426B928941EAD6
:100F20000241426B128A41EA0251426B127D41EA50
:100F30000261426B926911430268521C9200A2F155
:100F4000C0421160C16AB1F5804F1BD1816B096845
:100F5000826B526841EA0211826B926841EA022177
:100F6000826B128A41EA0251826B127D41EA026170
:100F7000826B9269114302689200A2F1C042C2F8EA
:100F8000041107E06FF0704201688900A1F1C041CF
:100F9000C1F804217047000030B500228B071C0FF8
:100FA0000F2303FA04F20B4B8C1053F824309343B5
:100FB000084C8D1044F8253023468C1053F824300B
:100FC0008C07240F00FA04F42343024C8D1044F8DC
:100FD000253030BD080001402DE9F04102460025D2
:100FE0000026002000230024002791F803C00CF005
:100FF0000F0591F803C00CF0100CBCF1000F03D0EA
:1010000091F802C04CEA050591F800C0BCF1000F50
:1010100031D0146800202BE04FF0010C0CFA00F3E3
:10102000B1F800C00CEA03069E4220D183004FF0C5
:101030000F0C0CFA03F7BC4305FA03FC4CEA04045A
:1010400091F803C0BCF1280F06D14FF0010C0CFA47
:1010500000FCC2F814C00AE091F803C0BCF1480FCC
:1010600005D14FF0010C0CFA00FCC2F810C0401C76
:101070000828D1D31460B1F800C0BCF1FF0F34DDF3
:10108000546800202EE000F1080C4FF0010808FA27
:101090000CF3B1F800C00CEA03069E4221D1830094
:1010A0004FF00F0C0CFA03F7BC4305FA03FC4CEAB3
:1010B000040491F803C0BCF1280F05D100F1080C1D
:1010C00008FA0CF8C2F8148091F803C0BCF1480F7C
:1010D00007D100F1080C4FF0010808FA0CF8C2F82B
:1010E0001080401C0828CED35460BDE8F081024631
:1010F000002093680B400BB1012000E000207047F6
:1011000002460020D3680B400BB1012000E0002014
:10111000704741617047016170470AB1016100E0A9
:10112000416170472DE9F04105460C460026072332
:10113000012229460F48FFF75BFC002713E001213D
:101140000C48FFF7B6FC00BF02210A48FFF714FC69
:101150000028F9D00748FFF70BFC0644052002F0F1
:1011600085F8781CC7B2A742E9DBB6FBF4F080B281
:10117000BDE8F081002401402DE9F05F0A21102034
:10118000FFF7D0FF83465846FFF7CEF98046FFF7BA
:1011900019FA06464FF06632114BFFF7E4F80446A1
:1011A0000D4622462B460F480F49FFF7D6F88046DA
:1011B0000E4A0F4BFFF749F9064600220D4BFFF789
:1011C0002BF804460D4600220B4B20462946FFF71C
:1011D000CAF80646FFF7BEF982465046BDE8F09FC2
:1011E00066664A3FE17A14AE47E1F63F22FDF675A6
:1011F000E09C713F000039400000594000BFFEE70D
:1012000070B504460D4629462046FFF779FF0128B0
:101210001BD1502002F02AF829462046FFF770FF24
:10122000012808D129462046FFF761FF08B90120AF
:1012300070BD0020FCE729462046FFF761FF20B97A
:1012400029462046FFF753FFF2E70020F0E701466A
:10125000CA1701EB92729210A1EB820292B964203C
:1012600091FBF0F200FB121050B94FF4C87091FBE3
:10127000F0F200FB121008B9012070470020FCE7D3
:101280000120FAE70020F8E708B50121102000F05E
:10129000C1FB0120ADF8000010208DF803000320F1
:1012A0008DF8020069463F48FFF796FE01213D4850
:1012B000FFF72FFF0220ADF8000010208DF803008B
:1012C00003208DF8020069463648FFF785FE0221AB
:1012D0003448FFF71EFF0420ADF8000010208DF801
:1012E000030003208DF8020069462E48FFF774FEC4
:1012F00004212C48FFF70DFF0820ADF80000102056
:101300008DF8030003208DF8020069462548FFF799
:1013100063FE08212348FFF7FCFE1020ADF8000013
:101320008DF8030003208DF8020069461D48FFF781
:1013300053FE10211B48FFF7ECFE2020ADF8000003
:1013400010208DF8030003208DF80200694615482F
:10135000FFF742FE20211348FFF7DBFE4020ADF8E7
:10136000000010208DF8030003208DF8020069466C
:101370000C48FFF731FE40210A48FFF7CAFE8020E3
:10138000ADF8000010208DF8030003208DF8020056
:1013900069460448FFF720FE80210248FFF7B9FEA6
:1013A00008BD0000001001400EB50121452000F0ED
:1013B00031FB1020ADF8080048208DF80B00032009
:1013C0008DF80A0002A94148FFF706FE012210210C
:1013D0003E48FFF7A2FE04210846FFF7DDFD10207E
:1013E000009000208DF804000C208DF805000120ED
:1013F0008DF806006846FFF7E3FC0820ADF808000A
:1014000048208DF80B0003208DF80A0002A92F4810
:10141000FFF7E2FD012208212C48FFF77EFE0321A1
:101420000420FFF7B9FD0820009000208DF804008B
:101430000C208DF8050001208DF806006846FFF7A6
:10144000BFFC0420ADF8080048208DF80B000320F5
:101450008DF80A0002A91D48FFF7BEFD01220421F4
:101460001A48FFF75AFE02210420FFF795FD0420D9
:10147000009000208DF804000C208DF8050001205C
:101480008DF806006846FFF79BFC0120ADF80800C8
:1014900028208DF80B0003208DF80A0002A90C48C3
:1014A000FFF79AFD00210846FFF776FD0120009026
:1014B00000208DF8040008208DF8050001208DF82B
:1014C00006006846FFF77CFC0EBD000000180140D6
:1014D0000008014070B506460F484088401E83B2A0
:1014E0000D480088401E82B20021084600F050F8E6
:1014F00000240CE0002504E0304600F07BF9681C75
:1015000085B205484088A842F6DC601C84B20248D7
:101510000088A042EEDC70BDE4C8002010B504468F
:10152000134884715CB90821362000F053F94FF458
:10153000F0700F4948804FF4A070088016E0282111
:10154000362000F047F9B62000F03EF9002000F008
:101550004BF9022000F048F93B2000F045F94FF428
:10156000A070034948804FF4F070088010BD00005F
:10157000E4C8002070B504460D4616462B462246A8
:101580002946204600F004F8304600F033F970BDDB
:1015900070B504460D462A2000F016F92646E117DC
:1015A00004EB1161C1F30F2000F01EF9E11704EB09
:1015B00011610912A4EB012188B200F015F9164659
:1015C000D11702EB1161C1F30F2000F00DF916469F
:1015D000D11702EB11610912A2EB012188B200F0D0
:1015E00003F92B2000F0F0F82E46E91705EB116106
:1015F000C1F30F2000F0F8F8E91705EB11610912AB
:10160000A5EB012188B200F0EFF81E46D91703EBD5
:101610001161C1F30F2000F0E7F81E46D91703EB64
:1016200011610912A3EB012188B200F0DDF82C2032
:1016300000F0CAF870BD00002DE9F84F80460E4654
:1016400017461C46B3462046E31704EB5373DB10E2
:1016500021464FEAE47C04EB5C7C4FEAEC0CA4EB03
:10166000CC0CBCF1000F02D04FF0010C01E04FF0A8
:10167000000C6344224604EBD27C4FEA6C0C03FB63
:101680000CF3DBB20093A7F12000C7B2002556E0AF
:101690000C2C07D107EB47002B4901EB800010F819
:1016A000059013E0102C05D1284800EB071010F826
:1016B00005900BE0182C07D107EBC700244901EB7C
:1016C000800010F8059001E0BDE8F88F4FF0000AA7
:1016D0002FE009F0800030B11E48028831464046B4
:1016E000FFF748FF07E00A9828B91B4802883146EF
:1016F0004046FFF73FFF4FEA49604FEA1069701C10
:1017000086B216484088B04200DCDDE7A6EB0B004D
:10171000A0420AD15E4608F101001FFA80F80F4886
:101720000088404500DCCFE706E00AF1010000F048
:10173000FF0ABAF1080FCCDB00BF681CC5B20098E5
:101740008542A5DB00BFBFE7D23B0008148600201E
:10175000048C0020E0C80020E2C80020E4C800207B
:101760002DE9F84704460D4690469946DDE909679C
:1017700004F0FF0A08EB04001FFA80F809EB0500EB
:101780001FFA80F916E0444502DB5446A81985B2D9
:101790004D4500DB14E0002000903A78334629469E
:1017A0002046FFF749FF304606EBD07104EB61019C
:1017B0008CB27F1C38787E2802DC38782028E2DA68
:1017C00000BFBDE8F88700000149088070470000AD
:1017D000FE07006C00B503460A461846FFF7F4FF03
:1017E000104600F001F800BD014908807047000074
:1017F0000008006C0112024A1180C1B211807047CA
:101800000008006C08B50121482000F003F92020F1
:10181000ADF8000010208DF8030003208DF80200C1
:1018200069460C48FFF7D8FB20210A48FFF771FCF6
:101830002020ADF8000010208DF8030003208DF863
:10184000020069460448FFF7C7FB20210248FFF762
:1018500060FC08BD000C01400018014000BFFEE71D
:10186000704708B54FF4A06000F09CF80A208DF88E
:10187000000002208DF801008DF8020001208DF893
:101880000300684600F056F809208DF80000022099
:101890008DF801008DF8020001208DF803006846E4
:1018A00000F048F808208DF8000002208DF80100B3
:1018B0008DF8020001208DF80300684600F03AF828
:1018C00006208DF8000003208DF8010002208DF81D
:1018D000020001208DF80300684600F02BF8252057
:1018E0008DF8000001208DF801008DF802008DF8C0
:1018F0000300684600F01EF826208DF80000012045
:101900008DF8010002208DF8020001208DF80300FF
:10191000684600F00FF81E208DF8000003208DF8B7
:1019200001008DF8020001208DF80300684600F0E8
:1019300001F808BD70B5002100230F22C47804B35C
:10194000154C246804F4E064C4F5E064210AC1F194
:101950000403CA40447804FA03F184781440214314
:1019600009010E4C0678A155047804F01F050124E6
:10197000AC4005786D11AD0005F1E025C5F80041DA
:1019800009E0047804F01F050124AC40044D0678FA
:10199000761145F8264070BD0CED00E000E400E053
:1019A00080E100E002490143024A116070470000F3
:1019B0000000FA050CED00E0704700000146002031
:1019C000034A506820F440400843506070470000CC
:1019D0000010024029B1064A52690243044B5A6181
:1019E00004E0034A52698243014B5A617047000088
:1019F0000010024029B1064AD2690243044BDA6161
:101A000004E0034AD2698243014BDA617047000067
:101A10000010024029B1064A92690243044B9A61C0
:101A200004E0034A92698243014B9A6170470000C7
:101A3000001002400F48006840F001000D490860A6
:101A4000084640680C4908400A4948600846006852
:101A50000A490840074908600846006820F48020C9
:101A600008600846406820F4FE0048604FF41F00FC
:101A700088607047001002400000FFF8FFFFF6FE8C
:101A800030B500210022002400232D4D6D6805F0A3
:101A90000C0121B1042905D0082923D105E0294DE5
:101AA000056022E0274D05601FE0254D6D6805F4B7
:101AB0007012234D6D6805F48034022505EB9242C7
:101AC0001CB9214D554305600BE01D4D6D6805F4B3
:101AD00000351DB11C4D5543056002E0194D5543BD
:101AE000056002E0174D056000BF00BF144D6D6832
:101AF00005F0F0010909154D6B5C0568DD40456096
:101B00000F4D6D6805F4E061090A104D6B5C456886
:101B1000DD4085600A4D6D6805F46051C90A0B4DC2
:101B20006B5C4568DD40C560054D6D6805F440415E
:101B3000890B074D6B5CC568B5FBF3F5056130BDDE
:101B40000010024000127A0000093D000000002051
:101B50001000002010B501460022002300204A1189
:101B6000012A02D1094C236806E0022A02D1074C5F
:101B7000236A01E0054C636A01F01F0201249440CE
:101B80001C400CB1012000E0002010BD00100240FC
:101B90000248406800F00C0070470000001002404E
:101BA00001460020034A506820F0F00008435060CE
:101BB00070470000001002401149096821F480318B
:101BC0000F4A11601146096821F480211160B0F5B7
:101BD000803F03D0B0F5802F0ED106E00849096898
:101BE00041F48031064A116007E00549096841F473
:101BF000A021034A116000E000BF00BF7047000051
:101C00000010024001460020034A506820F4E060C2
:101C10000843506070470000001002400146002059
:101C2000034A506820F4605040EAC1005060704799
:101C3000001002400149086670470000000042425F
:101C400002460020044B586820F47C1042EA01034D
:101C50001843014B586070470010024001460020B5
:101C6000034A506820F003000843506070470000AA
:101C70000010024038B5002000900024002500BF6D
:101C80003120FFF767FF05460098401C0090009840
:101C9000B0F5A06F01D0002DF2D03120FFF75AFF30
:101CA00008B1012400E00024204638BD10B50446E8
:101CB00024B180210448FFF72EFA03E08021024876
:101CC000FFF727FA10BD0000001401402DE9F04194
:101CD00005460E4600240DE02F5D00BF4021074859
:101CE00000F0E6FC0028F9D03946044800F083FDF6
:101CF000601CC4B2B442EFDBBDE8F0810044004098
:101D0000024909888143014A118070470428004034
:101D100070B500260024002500F07AF80646384801
:101D2000B6FBF0F437480088A0423CD035490C801F
:101D300040F2B27510E02846FFF789FA40B1B4F5D9
:101D4000B77F02D3A4F5B77404E0681C85B206E03F
:101D5000A4F26D14681C85B2B4F5B67FEBD800BF51
:101D600029488580002516E027498888FFF76FFA03
:101D700030B1012D04D11D2C01D31D3C09E00CE034
:101D80002248405DA04203D82048405D241A00E06C
:101D900003E0681C85B21C2CE6D200BF681C1A49FF
:101DA0008871601CC8711648B6FBF0F100FB116425
:101DB0004FF46160B4FBF0F0134908704FF46160B8
:101DC000B4FBF0F100FB11403C21B0FBF1F00E49F7
:101DD00048704FF46160B4FBF0F100FB11403C210E
:101DE000B0FBF1F201FB1200074988700B46DA796B
:101DF0009979988800F028F803490872002070BD8E
:101E0000805101001286002070C90020C53B0008E7
:101E1000002103480188001F008841EA0040704704
:101E20001C28004001460020064A12880A40D0B211
:101E3000044A121F12880A4012B108B1012000E0C2
:101E40000020704704280040F0B503460C461546B4
:101E5000642093FBF0F0C6B2642093FBF0F700FB24
:101E60001730C1B2132E02DD01F16400C1B2084681
:101E7000CF1701EB977701EBA707BAB2072092FBC8
:101E8000F0F700FB172082B25719601EDFF82CC054
:101E90001CF80000384482B2CF1701EB9777BF10CF
:101EA000A1EB87071FB9032C01DA501E82B207206D
:101EB00092FBF0F700FB1720C0B2F0BDB93B000861
:101EC0000EB50120FFF7AEFF88B1FFF721FF1748DD
:101ED000807816494978154A1278CDE90021029098
:101EE0001248C3798279818811A000F027FD022071
:101EF000FFF798FFA0B10220FFF702FFFFF708FFEE
:101F00000A48807809494978084A1278CDE90021C1
:101F100002900648C379827981880DA000F00EFDF9
:101F20000520FFF7EDFE00F023F80EBD70C900207C
:101F30005254432054696D653A25642D25642D253E
:101F4000642025643A25643A25640D0A00000000E7
:101F5000416C61726D2054696D653A25642D25646C
:101F60002D25642025643A25643A25640D0A000075
:101F700000BF0348008800F020000028F9D0704717
:101F800004280040704700002DE9F04106460F4646
:101F9000092E1ED2DFE806F01D05080B0E111417DE
:101FA0001A00134C012516E0114C022513E0104CC9
:101FB000042510E00E4C08250DE00D4C10250AE01C
:101FC0000B4C202507E00A4C402504E0084C8025F6
:101FD00001E0BDE8F08100BF27B129462046FFF7A8
:101FE0009AF803E029462046FFF793F800BFF0E790
:101FF0000010014010B500F001F810BD0CB5002034
:10200000019000903348006840F480303149086006
:1020100000BF3048006800F4003000900198401C78
:102020000190009818B90198B0F5A06FF1D1294836
:10203000006800F4003010B10120009001E00020A1
:1020400000900098012843D12348006840F0100018
:10205000214908600846006820F00300086008462F
:10206000006840F0020008601A484068194948605A
:102070000846406848600846406840F48060486010
:102080000846406820F47C1048600846406840F4E8
:10209000E81048600846006840F08070086000BFA3
:1020A0000C48006800F000700028F9D0094840682A
:1020B00020F00300074948600846406840F00200ED
:1020C000486000BF0348406800F00C000828F9D1C0
:1020D0000CBD00000010024000200240042808D17E
:1020E0004FF0E021096941F004014FF0E022116155
:1020F00007E04FF0E021096921F004014FF0E022F0
:10210000116170477047000010B51348006840F037
:1021100001001149086008464068104908400E490E
:102120004860084600680E4908400B4908600846A8
:10213000006820F4802008600846406820F4FE0013
:1021400048604FF41F008860FFF754FF4FF00060B5
:102150000449086010BD0000001002400000FFF8B4
:10216000FFFFF6FE08ED00E000B59DB0012108027A
:10217000FFF730FC01200790002008900F20099005
:1021800000200A900B900C900D901520009001906B
:1021900005200290002003900490059006900620F0
:1021A0000E9000200F90109010201190002012909F
:1021B00014901390159016904FF4805017900020B3
:1021C00018904FF48040199000201A9007A81B9097
:1021D000CDF870D00EA8FEF76BFE01210620FEF7A9
:1021E0004DFE1DB000BD000008B501214FF4B470D4
:1021F000FFF710FC4CF23370ADF8000018208DF89A
:10220000030003208DF8020069461648FEF7E4FE3D
:102210004FF68070ADF8000018208DF80300032001
:102220008DF8020069461048FEF7D6FE41F2010023
:10223000ADF8000018208DF8030003208DF802008F
:1022400069460A48FEF7C8FE0120ADF800001020DC
:102250008DF8030003208DF8020069460448FEF75C
:10226000BBFE08BD001401400018014000200140E1
:10227000000C014010B5FFF7B7FFFFF775FF3220E4
:1022800000F0F4FFDA20FFF79FFA784800887849D9
:102290008880764800884FF6FF7101EA0020744973
:1022A0008880DB20FFF790FA714880886F490988A1
:1022B00008436F498880084680886C49098808432C
:1022C0006B498880084681886AA000F037FBE020CF
:1022D000FFF77AFA0020FFF787FA1320FFF784FA56
:1022E0001820FFF781FA0420FFF77EFA0F20FFF78E
:1022F0007BFA0620FFF778FA3A20FFF775FA5620A6
:10230000FFF772FA4D20FFF76FFA0320FFF76CFA20
:102310000A20FFF769FA0620FFF766FA3020FFF778
:1023200063FA3E20FFF760FA0F20FFF75DFAE12025
:10233000FFF74AFA0020FFF757FA1320FFF754FA85
:102340001820FFF751FA0120FFF74EFA1120FFF78E
:102350004BFA0620FFF748FA3820FFF745FA3420F9
:10236000FFF742FA4D20FFF73FFA0620FFF73CFA4D
:102370000D20FFF739FA0B20FFF736FA3120FFF76F
:1023800033FA3720FFF730FA0F20FFF72DFAC0207D
:10239000FFF71AFA1820FFF727FA1720FFF724FA99
:1023A000C120FFF711FA4120FFF71EFAC520FFF701
:1023B0000BFA0020FFF718FA1A20FFF715FA802011
:1023C000FFF712FA3620FFF7FFF90820FFF70CFAA3
:1023D0003A20FFF7F9F95520FFF706FAB020FFF78A
:1023E000F3F90020FFF700FAB120FFF7EDF9A02084
:1023F000FFF7FAF9B420FFF7E7F90220FFF7F4F945
:10240000B620FFF7E1F90020FFF7EEF92220FFF7F1
:10241000EBF93B20FFF7E8F9E920FFF7D5F90020B9
:10242000FFF7E2F9F720FFF7CFF9A920FFF7DCF972
:102430005120FFF7D9F92C20FFF7D6F98220FFF7BA
:10244000D3F91120FFF7C0F9782000F00FFF292001
:10245000FFF7BAF92C20FFF7B7F90020FFF75EF875
:102460004FF6FF70FFF736F810BD00000008006C53
:10247000E4C80020204C43442049443A25780D0A02
:102480000000000010B501210F4800F038F8B0B18D
:102490000E480078401C0D49087008460078052851
:1024A0000DDD0B48007850B10AA000F047FA002279
:1024B0000121054800F034F800200449087001218A
:1024C000014800F00DF810BD000800404443002012
:1024D000E54200206E6F206563686F0D0A00000002
:1024E000CA430282704721B1028842F00102028091
:1024F00004E002884FF6FE731A400280704730B540
:102500000246002000230024158A05EA010395896C
:1025100005EA010413B10CB1012000E0002030BD38
:102520001AB183890B43838102E083898B438381C2
:1025300070470000002202881D4B98420ED01D4BB0
:1025400098420BD0B0F1804F08D01B4B984205D079
:102550001A4B984202D01A4B984204D14FF68F730F
:102560001A404B881A43174B984207D0164B984293
:1025700004D04FF6FF431A40CB881A4302808B8861
:1025800083850B8803850A4B98420BD0094B9842F0
:1025900008D00E4B984205D00D4B984202D00D4BFF
:1025A000984201D10B7A0386012383827047000091
:1025B000002C0140003401400004004000080040AD
:1025C000000C00400010004000140040004001409A
:1025D000004401400048014010B540F225510E482A
:1025E00000F066F8B0B10C4800F000F90B490C4A55
:1025F0001278885408460A490978405C09490870ED
:1026000007480078401C0649087040F225510248EE
:1026100000F033F810BD000000380140F0C8002081
:10262000E4420020E042002010B540F225510B4862
:1026300000F03EF880B1094800F0D8F80849094A8E
:102640001278885407480078401C0649087040F208
:102650002551024800F011F810BD00000044004070
:10266000F0C80020E442002001F40072B2F5007FBF
:1026700000D100BFCA430280704710B5002200237A
:1026800040F66A14A14200D100BF0A12012494400E
:10269000A3B2DC43048010BD21B1828942F4005210
:1026A000828104E082894DF6FF731A40828170476F
:1026B00002460020B1F5007F00D100BF13880B4017
:1026C0000BB1012000E000207047F0B50346002464
:1026D00000260025002040F66A17B94200D100BF4D
:1026E0001846C1F3421401F01F06012707FA06F548
:1026F000012C01D10C3004E0022C01D1103000E09B
:1027000014301AB107682F43076002E00768AF432F
:102710000760F0BD2DE9F04786B005460E4600245F
:10272000A24600BFA1460027B08900B100BF2F46D6
:102730002C8A4CF6FF700440F08804432C82AC894C
:102740004EF6F3100440B08831890843718908437C
:102750000443AC81AC8A4FF6FF400440B089044387
:10276000AC8201A8FFF78CF91F48874202D1DDF83F
:1027700010A001E0DDF80CA0A88900F4004040B1F1
:102780000AEBCA0000EB0A1031684900B0FBF1F80F
:1027900007E00AEBCA0000EB0A1031688900B0FBC1
:1027A000F1F86420B8FBF0F004012009642101FB7A
:1027B0001089A88900F4004040B1322000EBC90024
:1027C000B0FBF1F000F00700044308E0322000EB1A
:1027D00009106421B0FBF1F000F00F0004432C81DC
:1027E00006B0BDE8F0870000003801400146888847
:1027F000C0F308007047C1F30802828070470000F0
:1028000030B585B005460C46012D3BD1012144F27F
:102810000400FFF7FFF86802ADF8100003208DF800
:10282000120018208DF8130004A93F48FEF7D4FBCE
:10283000A802ADF8100004208DF8130004A93A484E
:10284000FEF7CAFB00940020ADF80400ADF80600C6
:10285000ADF80800ADF80C000C20ADF80A00694690
:102860003248FFF757FF012240F225512F48FFF76A
:102870002CFF01212D48FFF70FFF40212B48FFF7C8
:10288000F3FE4EE0022D4CD101214804FFF7B2F8CF
:1028900001210420FFF7BEF801212020FFF7BAF83C
:1028A0000420ADF8100003208DF8120018208DF8D8
:1028B000130004A91C48FEF78FFB0820ADF8100098
:1028C00004208DF8130004A91748FEF785FB80202B
:1028D000ADF8100010208DF8130004A91448FEF77D
:1028E0007BFB00940020ADF80400ADF80600ADF8C5
:1028F0000800ADF80C000C20ADF80A0069460D4840
:10290000FFF708FF012240F225510A48FFF7DDFEDC
:1029100001210848FFF7C0FE40210648FFF7A4FE4A
:1029200000BF05B030BD0000000801400038014084
:10293000001401400044004000BFFEE70FB4054B07
:1029400010B503A9044A029800F0EEF810BC5DF837
:1029500014FB0000B5320008ECC800200FB4084B8F
:1029600010B504A902AA039800F0DEF8044602A9F3
:10297000002000F070FC204610BC5DF814FB000045
:102980005732000802E008C8121F08C1002AFAD115
:1029900070477047002001E001C1121F002AFBD1DF
:1029A000704700002DE9FF5F82B00021DDE90430AF
:1029B000020DDDF840B0034318D044F61050A2F2E7
:1029C000FF3242431514119801281FD0A5EB0B00CC
:1029D000401C5FEA000A4FF000064E4FDFF83891C6
:1029E000B046504615D5CAF1000413E011980124F1
:1029F0004AA3012801D16FEA0B010298119AC0E99C
:102A00000031C0E9024206B0BDE8F09FCBF1000002
:102A1000DFE704460021404A491842EB0450CDE963
:102A2000001012E0E00707D032463B4640464946D8
:102A3000FDF799FC8046894632463B4610461946CA
:102A4000FDF791FC06460F466410002CEAD1DDE943
:102A50000401DDE90023BAF1000F06DAFDF783FC7B
:102A600042464B46FDF77FFC05E0FDF7EEFC424693
:102A70004B46FDF7EAFC04460E460022284BFDF7C4
:102A800009FF03D84FF0FF30014607E00022254B35
:102A900020463146FDF7C0FBFDF7E4FE102409E0B7
:102AA000002C0ADB0A220023FDF7E6FD039B3032EF
:102AB0001A55641E50EA0102F2D1641C039AC4F153
:102AC00011031444119A012A03D0012208430DD1A5
:102AD0000AE0084304D000204FF0110B119072E778
:102AE000A3EB0B056D1E0DE05B4504DD4FF000020E
:102AF00005F1010504E003DA4FF00002A5F101053C
:102B0000002AECD002981199C0E90231C0E90045D1
:102B100079E70000000014400000F03F30000000A2
:102B20000000F0430000E03F2DE9FF4F95B09B46C9
:102B30008946064600250FE2252877D1002427463E
:102B4000F84A0121059400E0044316F8013F203BB8
:102B500001FA03F01042F7D130782A2811D06FF033
:102B60002F033078A0F13002092A16D8059A44F0D4
:102B7000020402EB820203EB42021044761C059031
:102B8000EFE759F8042B0592002A03DA504244F487
:102B90000054059044F00204761C30782E2816D19B
:102BA00016F8010F44F004042A280DD06FF02F020C
:102BB0003078A0F13003092B09D807EB870302EB2B
:102BC0004303C718761CF3E759F8047B761C30786A
:102BD0006C280FD006DC4C2817D068280DD06A2846
:102BE00014D104E0742810D07A280FD10DE044F4F9
:102BF00000140AE044F4801401E044F440147278B4
:102C0000824202D104F58014761C761C3078662846
:102C10000BD013DC582877D009DC002875D0452864
:102C2000F6D04628F4D047281AD19DE118E0632851
:102C300035D0642879D0652812D195E1702873D0F9
:102C400008DC6728F1D069286FD06E280DD06F2876
:102C500006D1B5E073282CD0752875D0782874D0AB
:102C60005A46179990476D1C75E1C4F3025002282B
:102C700009D003280DD0D9F8001004280DD00D601C
:102C800009F1040967E1D9F80010EA17C1E9005217
:102C9000F6E7D9F800100D80F2E70D70F0E719F8AB
:102CA000041B8DF8001000208DF80100EA46012079
:102CB00003E059F804AB4FF0FF3061074FF000011B
:102CC00002D40DE008F101018846B9420FDA8045CF
:102CD000F8DB1AF808100029F4D108E008F1010126
:102CE00088468142FADB1AF808100029F6D10598C7
:102CF0005B46A0EB080721463846179A00F094FA85
:102D0000284400EB080507E04DE029E10DE01AF842
:102D1000010B5A4617999047B8F10108F7D25B4664
:102D200021463846179A13E142E00A220092C4F382
:102D300002524FF0000A022A08D059F804CB032AA5
:102D40004FEAEC710AD00DE029E02AE009F1070111
:102D500021F00702F2E802C1914609E00FFA8CFC6B
:102D60004FEAEC71042A03D14FFA8CFC4FEAEC7164
:102D7000002907DA0A460021DCF1000C61EB0201B0
:102D80002D2202E0220504D52B228DF804200122F9
:102D900003E0E20701D02022F7E7904659E00A213C
:102DA00002E010220DE010214FF0000A00910BE02C
:102DB00010224FF0000A44F004040827009203E0B8
:102DC00008224FF0000A0092C4F30252022A05D0F2
:102DD00059F804CB0021032A08D009E009F10701C2
:102DE00021F00702F2E802C1914605E01FFA8CFCCF
:102DF000042A01D10CF0FF0C4FF00008220728D55F
:102E0000702806D0009B83F0100353EA0A0305D014
:102E10000EE040228DF80420012208E05CEA010265
:102E200006D030228DF804208DF80500022290464D
:102E3000009B83F0080353EA0A030AD15CEA01020B
:102E400001D1620705D530228DF804204FF001082A
:102E50007F1E582804D034A003900EA802900DE0E5
:102E600036A0F9E753466046009AFDF705FC844614
:102E70000398825C0298401E029002705CEA010096
:102E8000F0D1029806A9081A00F1200A600702D5BD
:102E900024F4803400E00127574502DDA7EB0A0047
:102EA00000E0002000EB0A01009005984144401A20
:102EB0000590E00306D45B462146179A059800F07A
:102EC000B3F90544002706E001A85A46C05D1799EA
:102ED00090476D1C7F1C4745F6DBE0030CD55B4635
:102EE0002146179A059800F09FF9054404E0302028
:102EF0005A46179990476D1C0099481E009000296A
:102F0000F5DC08E0029802995A460078491C0291C3
:102F1000179990476D1CBAF10001AAF1010AF1DC82
:102F200065E100000928010030313233343536378D
:102F30003839616263646566000000003031323305
:102F400034353637383941424344454600000000A5
:102F500000F058F90544761C307800287FF4ECAD79
:102F600019B02846BDE8F08F620700D4062709F1A2
:102F7000070222F0070CFCE80223E14603F00048B8
:102F80005FEA080C02D00FF2702C0DE05FEA045CDF
:102F900002D50FF2682C07E05FEAC47C02D00FF282
:102FA000602C01E0AFF2700C4FF0FF3823F00043CB
:102FB000CDF850C065280CD006DC452809D046283D
:102FC0001DD047283DD13DE0662818D067287ED126
:102FD00038E00021112F01DB112000E0781CCDE941
:102FE000000106A90EA8FFF7DDFCDDE90F010E9A2E
:102FF00003910021009207F1010A04914DE04FF086
:1030000000400097CDE9011006A90EA8FFF7CAFC01
:10301000DDE90F0203920E9B11990022DDF80CA04E
:103020000093049211B9791C00EB010AB7EB0A0076
:1030300004D4C0F1FF3007F1010A0490AAEB0700A5
:10304000019044E0012F00DA01270021112F01DD5A
:10305000112000E03846CDE9000106A90EA8FFF7CF
:10306000A1FCDDE90F010E9A039100210491009269
:10307000BA4621070CD40399514500DA8A46BAF1C1
:10308000010F05DD009AAAF10101515C302908D039
:10309000B84202DA10F1040F06DA0121CDE901107D
:1030A00015E0AAF10101E9E7002805DC04990144D3
:1030B0000491AAEB000102E0411C514500DD8A4663
:1030C0000499401A401C01904FF0004002902007E4
:1030D00004D40198504501DBCDF8048000208DF820
:1030E0004F0002980DF14F07B0F1004F25D02B2073
:1030F0000E9002984FF0020800280CDA404202902D
:103100002D200E9007E00A210298FDF79FFA30313A
:10311000029007F8011DB8F10001A8F10108F2DCE6
:1031200002980028EFD1791E0E980870307800F0D0
:10313000200040F0450007F8020D12A8C01B00F166
:1031400007081498007800B1012000EB0A010198EB
:1031500001EBE07105984144401A401E0590E003E0
:1031600006D45B462146179A059800F05DF80544A1
:103170001498007818B15A46179990476D1CE003CF
:1031800024D55B462146179A059800F04DF8054472
:103190001CE00498002807DBDDE90301884203DD19
:1031A0000098405C179901E0179930205A469047E3
:1031B000049805F10105401C04900198401E0190FF
:1031C00004D12E205A46179990476D1CBAF1000180
:1031D000AAF1010ADDDC05E017F8010B5A46179940
:1031E00090476D1CB8F10001A8F10108F4DC5B46C2
:1031F0002146179A0598ABE62D0000002B00000031
:10320000200000002DE9F041044600251E46174627
:10321000880404D405E039462020B0476D1C641EA4
:10322000F9D52846BDE8F0812DE9F0410446002596
:103230001E469046C80301D5302700E020278804A9
:1032400004D505E041463846B0476D1C641EF9D5EB
:103250002846BDE8F0810A68531C0B601070704767
:1032600010B56FF00400FEF739FF10BD014642F2C1
:1032700028324A434FF0E0235A6100229A611A46ED
:10328000126942F001021A6100BF4FF0E02210699A
:1032900000F001021AB100F48032002AF5D04FF09C
:1032A000E022126922F001024FF0E0231A610022AD
:1032B0009A61704770B504460D46E1B20548FFF7C4
:1032C0009AFA00BF80210348FFF7F2F90028F9D0ED
:1032D000204670BD003801402DE9FF5F8346164946
:1032E0005846FDF7A9F921D814495846FDF79AF92F
:1032F0001CD811495846FCF789FF0190FDF762F987
:103300004FF066320E4BCDE90201FDF72CF88046F6
:1033100000220C4BFDF799F8064600220A4BFCF7F9
:103320007BFF0446FDF761F9824601E0DFF81CA04F
:10333000504604B0BDE8F09F0000C8410000A04224
:103340006666024000804B400000F03F000080BFF6
:1033500090B000F0C7F9FEF755FAFDF795FFFEF7BC
:1033600023F8FDF7C9FBFFF77BFFFDF773FD4FF473
:1033700016510120FDF77AFD3220FFF777FFABA051
:10338000FFF7DCFA4FF416510220FDF76FFD012024
:10339000FEF78CFC3220FFF769FFA8A0FFF7CEFAFA
:1033A000FDF708FCFDF7E6FB00BF00BF00BFFEF71E
:1033B00061FF4FF4FC60FEF78DF835E1A3A010210A
:1033C00014238C22CDE900100A210846FEF7C8F923
:1033D000A1A0102114238C22CDE900100A21C820BD
:1033E000FEF7BEF9FDF7C8FE8046FDF7A2F80646D7
:1033F00000229C4BFDF729F80446FDF7F6F80A90E9
:103400000A98FDF7DFF8044622460B4696A10BA862
:10341000FFF7A4FA0BA8102114232822CDE90010ED
:103420000A216420FEF79CF99148027891A106A830
:10343000FFF794FA06A8102114232822CDE90010E2
:103440000A214FF49170FEF78BF98BA01021142301
:103450008C22CDE9001046210A20FEF781F9884828
:103460000078002865D187A0102114238C22CDE993
:1034700000101E210A20FEF773F98548007870B904
:1034800084A0102114238C22CDE9001032210A20BF
:10349000FEF766F900210620FEF776FD0DE07FA01D
:1034A000102114238C22CDE9001032210A20FEF7CE
:1034B00057F901210620FEF767FD7A480078D8B950
:1034C00074A0102114238C22CDE9001032210A208F
:1034D000FEF746F974A0102114238C22CDE90010C8
:1034E0005A210A20FEF73CF900210620FEF74CFD88
:1034F00000206C49087048E06A480078012844D1EF
:1035000066A0102114238C22CDE9001032210A205C
:10351000FEF726F967A0102114238C22CDE90010B4
:103520005A210A20FEF71CF901210620FEF72CFD86
:103530002BE063A0102114238C22CDE900101E2162
:103540000A20FEF70DF940F214510F9888420EDB65
:1035500052A0102114238C22CDE9001032210A2020
:10356000FEF7FEF801210620FEF70EFD0DE049A052
:10357000102114238C22CDE9001032210A20FEF7FD
:10358000EFF800210620FEF7FFFC394800781928E3
:1035900023DB3748007850281FDC35480078FCF7DB
:1035A000C3FF0446FFF798FE82465046FDF70AF82F
:1035B00080464FF06632454BFCF747FF0646002237
:1035C000434BFCF7D0FE0446FCF7E3FF1FFA80FBF9
:1035D00059460020FDF74AFB08E0254800780028FE
:1035E00004DB40F2D9410020FDF740FB39A0102157
:1035F00014238C22CDE900106E210A20FEF7B0F8CA
:10360000374802881BA102A8FFF7A8F902A81021D9
:1036100014238C22CDE900106E215A20FEF7A0F869
:103620006420FFF723FE00BFC8E6000075736172D7
:1036300074315F696E69740D0A0000007573617200
:1036400074325F696E69740D0A00000074656D70F4
:10365000657261747572650066616B655F74656D36
:103660007000000000005940252E32660000000066
:10367000E042002025640000616464722031000093
:10368000E1420020636F6D6D6F6E204D6F646500C9
:10369000E242002066756E206F66660066756E20D9
:1036A000206F6E00E34200206269646920206F662B
:1036B00066000000626964692020206F6E000000CF
:1036C0006175746F204D6F646500000066660A4086
:1036D0000000B0406461632076616C756500000095
:1036E000EA42002010B5FEF7A5F94FF48030FEF74E
:1036F00063FA0020FEF754FA0020FEF78FFA4FF429
:103700008060FEF77FFA4FF4E0114FF48030FEF74F
:1037100097FA0120FEF78EFAFEF7ACFA012801D0E5
:10372000002010BD00BF3920FEF714FA0028FAD09F
:103730000220FEF793FA00BFFEF72AFA0828FBD111
:103740000120EEE700000000000000000000000083
:1037500000000000003F40000000000000000030BA
:1037600000400030004000000009000BC03D000B8D
:10377000C03D00090018C024407FE0224031800095
:1037800000180024C01B000D803240018003801C03
:103790004027401C800740004010006000000000EF
:1037A00000000000000000000000001F80204040DA
:1037B000200000402020401F80000000000900067B
:1037C000001F80060009000000040004003F800480
:1037D0000004000000001000600000000000000075
:1037E00000040004000400040004000000000000C5
:1037F000400000000000000000002001C00600386A
:1038000000400000001F802040204020401F80001A
:1038100000000010403FC000400000000018C02120
:1038200040224024401840000010802040244024C2
:10383000401B80000002000D0011003FC00140004D
:10384000003C80244024402440238000001F80242A
:103850004024403440038000003000200027C0385E
:1038600000200000001B802440244024401B8000D6
:10387000001C0022C0224022401F800000000000E7
:10388000000840000000000000000000000460008C
:103890000000000000000004000A00110020804029
:1038A000400900090009000900090000000000406B
:1038B00040208011000A000400180020002340244A
:1038C00000180000001F802040274029401F4000B2
:1038D00000004007C039000F0001C0004020403FF9
:1038E000C0244024401B8000001F80204020402036
:1038F000403080000020403FC0204020401F80001A
:103900000020403FC024402E4030C0000020403FF7
:10391000C024402E00300000000F00108020402204
:10392000403380020020403FC0040004003FC0201C
:1039300040204020403FC020402040000000602048
:103940002020203FC02000200020403FC024400B0A
:103950000030C0204020403FC020400040004000D8
:10396000C03FC03C0003C03C003FC0000020403FBF
:10397000C00C4023003FC020001F8020402040207A
:10398000401F80000020403FC02440240018000059
:10399000001F802140214020E01FA0000020403F68
:1039A000C02440260019C0004018C02440244022F2
:1039B0004031800000300020403FC02040300000F7
:1039C0000020003F80004000403F80200020003E5B
:1039D0000001C0070038002000380007C03C000785
:1039E000C038000000204039C0060039C020400027
:1039F000002000384007C03840200000003040213F
:103A0000C02640384020C00000000000007FE04099
:103A10002040200000000070000C000380004000E7
:103A2000000000402040207FE00000000000002057
:103A300000400020000000000000100010001000F6
:103A40001000100010000000004000000000000006
:103A500000000002800540054003C0004020003FF8
:103A6000C0044004400380000000000380044004C0
:103A7000400640000000000380044024403FC00096
:103A800040000003800540054003400000000004A2
:103A9000401FC0244024402000000002E0055005E3
:103AA000500650042020403FC00440040003C000E2
:103AB000400000044027C00040000000000010004B
:103AC00010041027E00000000020403FC001400724
:103AD0000004C00440204020403FC000400040009F
:103AE0000007C0040007C0040003C0000004400732
:103AF000C00440040003C0004000000380044004F0
:103B00004003800000041007F004500440038000CC
:103B100000000003800440045007F0001004400738
:103B2000C0024004000400000000000640054005FB
:103B30004004C00000000004001F8004400040005A
:103B400000040007800040044007C0004004000754
:103B50000004C0018006000400060001C007000147
:103B6000C006000000044006C0010006C00440007A
:103B7000000410071004E0018006000400000004A7
:103B80004005C00640044000000000000004007B27
:103B9000E040200000000000000000FFF0000000F6
:103BA00000000040207BE004000000000040008096
:103BB000004000200020004000000303060104062E
:103BC00002050003051F1C1F1E1F1E1F1F1E1F1E98
:103BD0001F000000000000000000000000000000C6
:103BE00000003F40000000000000000030004000E6
:103BF00030004000000009000BC03D000BC03D003C
:103C0000090018C024407FE02240318000001800E5
:103C100024C01B000D803240018003801C402740DF
:103C20001C80074000401000600000000000000001
:103C300000000000000000001F8020404020000025
:103C4000402020401F8000000000090006001F8067
:103C5000060009000000040004003F800400040086
:103C600000000010006000000000000000000400E0
:103C700004000400040004000000000000400000F4
:103C8000000000000000002001C0060038004000D5
:103C900000001F802040204020401F8000000000C6
:103CA00010403FC000400000000018C021402240EA
:103CB00024401840000010802040244024401B80F5
:103CC000000002000D0011003FC0014000003C80D8
:103CD000244024402440238000001F8024402440AE
:103CE0003440038000003000200027C0380020004E
:103CF00000001B802440244024401B8000001C0046
:103D000022C0224022401F80000000000000084026
:103D1000000000000000000000000460000000003F
:103D20000000000004000A0011002080404009004B
:103D3000090009000900090000000000404020803F
:103D400011000A000400180020002340240018007D
:103D500000001F802040274029401F4000000040F5
:103D600007C039000F0001C0004020403FC0244080
:103D700024401B8000001F802040204020403080D5
:103D8000000020403FC0204020401F800000204015
:103D90003FC024402E4030C0000020403FC024409F
:103DA0002E00300000000F001080204022403380A1
:103DB000020020403FC0040004003FC020402040DB
:103DC00020403FC0204020400000006020202020F4
:103DD0003FC02000200020403FC024400B0030C0E6
:103DE000204020403FC020400040004000C03FC075
:103DF0003C0003C03C003FC0000020403FC00C40DE
:103E000023003FC020001F802040204020401F8012
:103E1000000020403FC024402400180000001F8004
:103E20002140214020E01FA0000020403FC024404E
:103E3000260019C0004018C0244024402240318090
:103E40000000300020403FC0204030000000200033
:103E50003F80004000403F80200020003E0001C025
:103E6000070038002000380007C03C0007C03800B9
:103E70000000204039C0060039C02040000020006A
:103E8000384007C0384020000000304021C02640A4
:103E9000384020C00000000000007FE040204020AB
:103EA0000000000070000C000380004000000000D3
:103EB000402040207FE00000000000002000400083
:103EC0002000000000000010001000100010001082
:103ED0000010000000004000000000000000000092
:103EE00002800540054003C0004020003FC0044060
:103EF00004400380000000000380044004400640AA
:103F0000000000000380044024403FC00040000047
:103F100003800540054003400000000004401FC02E
:103F2000244024402000000002E0055005500650C7
:103F3000042020403FC00440040003C000400000B3
:103F4000044027C0004000000000001000100410D2
:103F500027E00000000020403FC00140070004C0EF
:103F60000440204020403FC000400040000007C007
:103F7000040007C0040003C00000044007C0044060
:103F8000040003C00040000003800440044003809C
:103F90000000041007F004500440038000000000FB
:103FA00003800440045007F00010044007C00240A2
:103FB000040004000000000006400540054004C065
:103FC0000000000004001F800440004000000400C6
:103FD00007800040044007C000400400070004C000
:103FE000018006000400060001C0070001C00600B1
:103FF0000000044006C0010006C004400000041098
:10400000071004E00180060004000000044005C021
:104010000640044000000000000004007BE0402057
:104020000000000000000000FFF0000000000000A1
:1040300040207BE0040000000000400080004000C1
:104040002000200040000000684000080000002020
:10405000F0C80000E808000868570008F0C8002011
:1040600090040000942900081200012005010203B9
:104070000404000A13060708090204060800016088
:10408000051FCC000C0C50060800300060066009CB
:104090000000022003FC1E2006212C200B0E18110C
:1040A000043FFF10840C783A200E0F0010840F3864
:1040B00000C0077818840012F015780F8410C4111E
:1040C000240E9800E4008400080800680070702046
:1040D0000907E01818200440027C4009400220042F
:1040E000181807E01A200B0240024001800FF0016F
:1040F000800A1150228002430FF80821D1B0050038
:104100000D000EBDB280021200CAB20C6D2008066E
:104110000018006001800721C1300D07F008081069
:10412000041004080807F0F010080408041FFC003D
:104130000402350C340C0E0C10141024104411849D
:104140000E1410060C1810041102400412880CC939
:104150001008E00320042408243436243C2004986A
:1041600010842030041088102011602288304318F9
:1041700088F930081C00100010FC130835401006A8
:104180003811441084343404440E380C400A0008BA
:104190008C1044104408889021B3A004030C03C47D
:1041A000A004010106F02601332210C625A0A102B9
:1041B000217021DA340704100220014030152D202F
:1041C0000A1200100C106C10800F5A140EE00C181C
:1041D00013E4142417C4082807D01E140A04003C52
:1041E00003C41C400740B0171C0018231FFCEE300E
:1041F0000411040EC02130252E110213081CC12108
:10420000204110454061301317C412721810180570
:104210000017C0104491405006441C7800404026CE
:1042200084D42310844A2152615441FB10040001BC
:10423000100234041FFE1030415040070380146404
:10424000181C2E31364102420C8010041F0000045D
:10425000614E14061FFC0C0403A61310186075EEC3
:10426000A1B0157E228002460FAE1618EE800824FB
:10427000101C080A07F2C0180511C011300011A067
:10428000170E1CDC15B011C215B02618CE41B011A6
:104290000C156E4004001FF890117A22F8B4140532
:1042A0001E0011E0F52404701380FA10071FC010DF
:1042B0003C00E0A22006E0103C1FC0A0200D180C1E
:1042C000163401C001C01634180C4648091C0013EE
:1042D0000400FC13042015BB10061C10641084108D
:1042E0006804041018E31F7FFE17034E0230031A00
:1042F00030E11F0380A303161C2C3D400321028FD5
:104300007FFE110316206921023DAF03D201028115
:104310001A695020069801240144021E0006031168
:10432000D05809FC00880104010400C019063110AE
:10433000311291103F1108360340040000F83E117D
:10434000403EC87204111C4A0F443522300500D685
:104350000129022AC9C625A03300849511F62560DB
:104360009C06010419041980032902300601011971
:104370000119D23130380924004001B4010C012266
:1043800049306DB003118A12FC9C42000622000CD9
:10439000D16011A05204C02EF84B0300051301FF99
:1043A0000085E012051A32010A21A221543D400382
:1043B0001700CC204102669851320754510E4AF83A
:1043C0008E1301087A31361F017084041F100174A6
:1043D00004111E1008F0010C003001C004120C0C76
:1043E00041B220088C00740170018CD011901C0423
:1043F000810171A503421830151012842A16345415
:1044000011089D03046804003EFC022D85046BFF27
:10441000FF1C291A7C043EFC010F053E602B054958
:1044200000033120000110070F80380FFE3806010D
:10443000101B193F15C41D77031D0A0392310C7E12
:10444000308D05200961800067F807F98009710344
:1044500071127DD1045C17C0E003E0F0063008045F
:1044600018081FFFFE040E080787F0038104061CCE
:104470000501F000067B032C090408060C7001F905
:10448000C0EF051C073BE000EC1807D9041F0C180F
:10449000930431251EE0CA051C1803F818041C08F3
:1044A00004170807E1D003C0E00023B0003C080077
:1044B0002079047210B111A82E3286050124FD5412
:1044C000117F0001FFC00780F00C001810000420CD
:1044D00000711109110F1115111B11211127011163
:1044E0003C300542000066032E3C280412032732AC
:1044F000180C41155E425E07A103214BC112012633
:10450000B6021B080381946238030116493206661D
:104510002A70ED320E2F1EC09206211385D41C097D
:104520007F8001FFE003807049071E042F071300FE
:104530000809110F1115111B99A242080300071059
:1045400003FFF807FFF88E141601C03802C05804A4
:104550000098040118040218040418061C18C2B8B4
:104560000401E0F81923C0F06615EC240C080806D5
:10457000180803F41801E7F0EF71B31DDE05180504
:104580000D0000116D1008000081080301086F1272
:104590000F72160151716F1006E007FCD0064262DF
:1045A000100384091838060FF00607C0B0323FD850
:1045B0001C0684300208184F0741039008071810A2
:1045C000030FF0002736031119EB500C0600F80614
:1045D00007F806180006E01259AF1C08E1E003F7DF
:1045E000F00634DB0529D023040C036009061618F5
:1045F00003F3F001C1B7500CF80003FC3003063898
:1046000004020803080518041003084C537038030B
:104610000919AC080617301A00301C1F1C081400BA
:10462000002200004130081D87041D6B097406201C
:10463000040010088F021B21038D0C0A15EF1210C5
:104640003C11421148214E32225A86081D120403A1
:104650002D360A1C0D38080F380808380810000CD1
:1046600030E109211B75683A00403019020F10062D
:10467000708804C088048308047F8802C090030106
:104680002000FE40AF2E1849051C0D3E0801C20057
:1046900007020007E20000FF052F1FC85E052D611D
:1046A0000429763A0758491909171F45D4116C692E
:1046B000AC39B22007100600200780918148811E86
:1046C000A80518020010D001136C5B043EFA3E01ED
:1046D000180BC1245200034A3E286D3A0691905DA2
:1046E0003C0335FE2C070203F00783F05B04B202A3
:1046F00048AD1A042D5F0961A84DA90371B1D1C05D
:10470000CDCC0319991DA907410314080307FFFE27
:1047100007FFFC9E610365442F0C089B0418093EAB
:104720000004C7800503C8D9140404003808B5681C
:104730000D116304113491FC1C05800807FC9B08D3
:104740002C05C00003F8300323780012955C212467
:104750001D0E041DF5083EE02506421E9E3005C0D4
:104760000400F0D80D185C041D310705108C1DA73E
:104770000B1D660961031D210611770F1001F0A4BE
:10478000041E88DA07130400D5040B113C03003E15
:1047900001FFE6007F84B01D60065C0E0F00040B75
:1047A000C00610F003F03801E07D051D8C04BC0646
:1047B00003F0300630CC033C080206180207F0076D
:1047C0009F061D27050610065025892D060345FB6B
:1047D0001D0F03440707FFE007FFF053ADF2051D6F
:1047E0008403111B712D1D2703580707FE00041FAA
:1047F000E0E81B01E043154C716321211FFFC05A03
:104800000A15621207052005FF80043F0C16047389
:104810005E00B20C4D9105140707C07805F1C8D4AD
:10482000440A001F800463E80780F85372006C1E7E
:1048300080770D1C0508047C08B20A1DC1081E0003
:10484000AD044FE008DA046E04C1052A060720070C
:10485000F80403E8040F2A100605F00807C024191D
:10486000BB0E1060EF061C043FFFFE1707A103AD4F
:104870009E0619891D4B062DBC0325153EC050060A
:104880003E0E42087DA60AB13C114E0D16CA0432F6
:10489000103D322006BE10E00602210103716F2197
:1048A000037E101A08EDF9071010F00019F8001B2C
:1048B000180022080026080024031710006B6B1F45
:1048C000F8FA45D71D69061C04F00018060C3D6770
:1048D0000811036C083018001FF0000FED041D09CB
:1048E00003110F5318301E11211D91082D390D95FC
:1048F0004141247338182450040410105AA19E41D9
:104900004B30051230002296119990093208001E92
:1049100010000E20D3213F1C0401FFF8740712067B
:104920004831034F0720190C5DCF0E300C000E6E7E
:10493000001FF30031B10020034C0C3191001F1314
:10494000002E1E00200EE4074D17042D410721D52F
:10495000615781FC7D570C51AE1004063FF8030DE2
:10496000136E083D9C072E032F062103AC08030697
:104970003FFE063FFC6E08816C2F0188C8073C098A
:104980002FC00038F8002038B409A208277DEC04B5
:104990000E100F4C08419F623FB101100C4D3405C1
:1049A000A127021510D81565360FB07630D11D1C21
:1049B00005AF300004081DFE06233FFF0364061008
:1049C00011002009F8061138F885D422092D321F6C
:1049D0003649F4791041931D1911594339DD8D4140
:1049E0000B1D7110100D78001E18003308002308ED
:1049F00000210310078800219800305DBA60CB11B8
:104A0000F917FFF0F8896AA146250B7C06F0007FB4
:104A1000F80083043A20D09A7F64417B3E3CA10792
:104A20001E23CC0F1DBF11200570002380126230A1
:104A300063211E1D580B1D9E042C04E00027330625
:104A4000210F1E217A0522E00C9A2019200F3838F8
:104A5000003E680027800003C8002CF80F3A20E2CF
:104A6000816C140403003C4A8005830023EC69BF79
:104A700020008D0E3B38080D1C08F80023E8002F9D
:104A800088100831121D78060E1670E508AC071F55
:104A9000F7FC3000067D04DDD9038EFF2B0DBD3EF3
:104AA000091D74041139113FADD008AD15134DEE39
:104AB000063240036E207A044D97050E170C47040A
:104AC0000182011D98113C08C007FFE1E007F017C3
:104AD00009025FC0714E20E2051D62061E00EA1049
:104AE0002DE9070312001C1401527C53180C042FEB
:104AF0000FE0BB10900403F80C1401191C054C7254
:104B00001C0480007803091C06FC0640010EF80412
:104B10001C1A070020020380200FFFFFFC0201C0C7
:104B2000200200E0600130704001F00A0B0748F0FD
:104B30001F781D230B1DB4101F000374081C0B02EB
:104B4000008060030181C001FFBE0D2EFE9A121D80
:104B500075091F03BF4E041DAE0E1C067180600157
:104B6000C190051B0180D11D730E0745003FF9253B
:104B7000EE1D010A13FCC07811801C0B03E020021B
:104B800002782002061E30161207F01DA8121E0120
:104B9000230C1C04011C605A091E20C5102104AE00
:104BA00040200B09427C115E1F001CA5031A1F6CDC
:104BB0000E870F85031D33052DFD0519181DFE11E8
:104BC0001EE092142E30270D2D43041DC4080A4602
:104BD00002FF214C2154215C2164216C398C217C01
:104BE000036407F8EC1D95111DD71641041E06E855
:104BF000091A03671F6143F60D1EFFF611424310A9
:104C0000211861240F4D0C1881040214800403182C
:104C10007FFF1C0D48FD032DB51312E3041DB40ED8
:104C20001D72143D4707096A6902358004054B81EE
:104C30003EC091130E65007006D97E4DE7123DF11E
:104C4000043E80650C011D0F094E7E1E009F1A391F
:104C50006C1C04F0078047131EC07E181E60DD0F19
:104C6000622004211021181D3A1A3280280E510F9B
:104C700098031E80F71781041C046001FFDB1211EA
:104C8000043D11164DA90961040950831E7874046E
:104C90001E98C016130002F8120404120804121021
:104CA000041220041C044060039C06130183941228
:104CB000FE280B4F7C077D35781EF068052D4D1CB6
:104CC00025748201041E0388071C060186804001AA
:104CD000A4062F0078DF110A4D1E7F5A08611E4876
:104CE000F1081D21192D631D1E0C0513123004142B
:104CF00004400810881DA50B41041DFF0582100407
:104D00000D4D800810061F864003E1F01DE913D306
:104D10000304041C09060040030301C003A5070C9B
:104D2000045103007EEC064EFCEC061C0970C380A7
:104D3000008180C00123132188A202041E03C4192C
:104D40001EC183131EC01406014E843EF089143D1B
:104D5000E0032D131B1E03E9101E03B70C11F31201
:104D600000FC4C04000318830661200D4CFD0A1D55
:104D7000DC1B1E78E214200BFC60C0018EC04003D7
:104D80000780EC197C5280041EC078091C06E040A4
:104D900001867028091D000A0F4C781F7C032DCB5B
:104DA000091EFFF8091FC0C100031E606C0AA22083
:104DB000042D800311182C06C18000C18F471C1DD3
:104DC000EB1F0E60F0810C2E0345181D2F132104DC
:104DD0000E6F0310062DAA171E66AE170E6B788491
:104DE000072DED0C6DE8082D10092D940C1E305D7B
:104DF000191DFE043F00C0DA1B3D9C040E4E043A10
:104E00000E2D4E0A013204014A831D75202DF00635
:104E10003D5D1E11EC31F421FC2D6C0D2D1C0A6D35
:104E2000140A25240D507C083DB9102D28184F0276
:104E300038590B1D27201D65161E7967151F81E047
:104E40001B1E2EC00F201D8C043D0C041DA41D2D07
:104E50008D190D4CFC071E3F58031E70040E1DDEFD
:104E6000041C040101F804041C0AFC20021E042096
:104E70000230083A231C0A3020023FFC20013F0484
:104E8000D8221E0C04081E31AC050E49C27A0F2D23
:104E9000A5102D131D1E3EF7131D640D51071DF7A0
:104EA000061D97052D06122D080E52FE093DA0097C
:104EB0000D4B08087DE4085D7008AD7C078D840704
:104EC0001D411A1E86840E2D84075FF87F12100D77
:104ED0004D680D65801D11219E037C0961042D1C08
:104EE000083D9C0929A004045730060000D17C3DF0
:104EF000FC09517C2D200A3D84050D49000A05223C
:104F0000802D8C103C04020FE0880A1DCE1C3EE070
:104F1000A003016080B200041DB3221E0387113D6F
:104F2000A0070C0412C0000051180938004D80037E
:104F30002D56230912001D8B1621041C044003C0AA
:104F400080071E30ED140D4503030510FC1DF4070A
:104F50001104AD840E6114E9200D4E7307F9780930
:104F600015900D5182132D530D520F04830102042D
:104F70001D030A1F0006FC0A12FC0443F802A47178
:104F8000040D5880033AC0803D791419701C040048
:104F900030F8960C1C063E2003800F00032E03A061
:104FA000030F49E0020405051670021400045E6058
:104FB0008A0E0D507C0422E0081DF3232DE0091D0C
:104FC000E80B41FD5E1E1B06111C0B4FE00084B177
:104FD000801D780E1F03F07C0E5EFC17142D3E1909
:104FE0003D9F1D1E7C04031F1F80D41F6D000309FD
:104FF0004B007D80075D7C0F7D040E0D11FC052E9E
:105000000090140E5D3F80055DF0034E02FC0371BD
:10501000042DA4151D040F3DB41515130D517C105E
:105020001E037C102D00051E06EC211D7C0831049A
:105030001206081F03E018271EF896091E5C801050
:105040001E8CB61D0C06600C000FFC1800081D9489
:10505000161DA4251E0215271F030396211C048676
:1050600007E058271EE009230D5088101E78680BB2
:105070001C06FE01E00186E0071D680EED800D2D87
:1050800014042E0184170C074C8070C003E03F808D
:10509000089D580E0E1C0210083D9C0A2D840E0F10
:1050A0004700E0F40541541D0D281DEC114FC002CE
:1050B000640CEDF0115220182280280D518005411A
:1050C000842D800F1D071023023F092DD1252D6C43
:1050D000112DD62D2D161A1E7800084C05C0000281
:1050E0003CA80F0D46040671781D67161E020404C5
:1050F0001C0402007FF4041E0F0C195005F000037D
:10510000EF182E0F71032D050B2C041F000296249F
:1051100086F8AC0D4B84051E805E034C0BF003201B
:1051200002FC0C20021F3000051D891B1F02180005
:10513000051F601F80060D507C06750465802D04D8
:105140000D1DEC051C04020FC068192DFC13151071
:105150002DFC09121C144E7000110D4F80052D6F8F
:105160002C2E60DA141E0374111C040FA002880C8C
:105170001C040200F8001B1D0C1A120F7C21903E2B
:105180007880062660240E51028211FDCE301D74F7
:10519000080D1AFE0E0D53741D6DD80A5E78ED1CB5
:1051A000310D5EF0FA1C3DF4142D0D079F3C0039C3
:1051B000280D49041A0D170610250C0D6677115D90
:1051C0007C0F3D12154D1C2F41085D3D23094E7883
:1051D0006D7C19013A04054A8471045618040E6363
:1051E00004ED122D641D1E8F85271C078C600006A0
:1051F0001820C23151042220041E4003083E408B77
:105200002C3D10047D880A0E4FC000061D00081EAC
:105210000784061DFF2E1DE9051D41341D352A1D7D
:105220005C3281041D84163D18143D9C0A0E4DFE0F
:10523000041B4E7EF40A2303817C11F4F17C1D15BE
:10524000111FC0405E2C0D53021681801DE0161EFA
:10525000063D3591F81F020490083E027C07452068
:105260003D4F2231040151801E1165071B10400083
:105270008A6008190C12060C1203181F01F08D2900
:105280000E507170152DF503A5EC2C047FFFE08006
:105290001A5E0188188202043D80062D2B150E4CE3
:1052A0000196221DC32E1FE33E09091C06C20002FF
:1052B0000CC33B30B2C1041C04060CC119221C06ED
:1052C000C30005F062C62D1A7E8C0E523C000B1DE9
:1052D00000033EE0E42029FC7606188A00842120A1
:1052E0000F53FFE08C1BCE0470031F0387140E4E78
:1052F0008F980D0D5F001C7D7E2C3D07074D94059A
:105300007204041E03BB2C12069012FC900C045471
:10531000F80380F81075802F0008E7294D2D2A2DFD
:105320008F1F1F058E7F071C0507A0000631321E48
:1053300004C5260E5404081D0D1280114190055D10
:10534000802D70031D532C13000F044D7405811420
:10535000021503140D4A800D6DF40361846D000382
:105360000E6A0200032D501C0D1D0006211821207D
:105370000E4D01801C69E81DDD0515841D42361F98
:1053800000C10007EE4190034D000702500180ED7F
:105390008006CE028006310421901203982D290E3A
:1053A00021A80D4A0009E1E85A0F081D740F9D0C51
:1053B0000569845D290B0D4F04091D412F1DFF3523
:1053C0001F03E0F0081E30F80821049218041E0C98
:1053D000C0351F0C6011311D981C0F5583800007CC
:1053E0004DFD0A2D8E221E1FF8242D0C09F6048C6B
:1053F0000D4CFC26A17C1D1B3015780E11C0F02130
:1054000041781E0422224DA4030D4C840871802D86
:10541000EF0F1DE3201E0460132E04EA3A5E039092
:10542000231D4B36430460200E4D06150B6E04768B
:10543000064EC084202E04DC111D0A151F040FA681
:105440003142F090251843040F8C4F043C980F0113
:105450004C8865DC1E60CB3D1D95381E83791B167C
:10546000E6084EF8EF0D6C07045E20000587800605
:105470000E4F6080064D7C091DF3203DF7201D7006
:105480000712F804471F02112D7A332D2832C23833
:10549000F80D4E020F1E07582A2E065C07257C1DAC
:1054A0006C071E04A33013043C041270FC1D941CF2
:1054B0001D1421151C2D180B5D86250D6918271D3F
:1054C000073F6C0507FE3FF878290E5310870E0D35
:1054D000177A2E0E62FF022861D82D5C2A21EC215A
:1054E000F40D55E8270D12252F3D6A09924004520C
:1054F00020149E08F80F6D280E0E520C80272D02E6
:105500000E20093130303133303430013C0D464407
:1055100042370D7E422000FF9E01991513C40B08EF
:105520001DE0341F15CC843E1D773B33C9C8081DD0
:105530009F4242021032FB08300500083B03103343
:10554000CB2A080C04170009EA64120DFF32430D40
:10555000FF32430DFF32430DFF32430DFF32430D47
:10556000FF32430DFF32430DFF32430DFF32430D37
:10557000FF32430DFF32430DFF32430DFF32430D27
:10558000FF32430DFF32430DFF32430DFF32430D17
:10559000FF32430DFF32430DFF32430DFF32430D07
:1055A000FF32430DFF32430DFF32430DFF32430DF7
:1055B000FF32430DFF32430DFF32430DFF32430DE7
:1055C000FF32430DFF32430DFF32430DFF32430DD7
:1055D000FF32430DFF32430DFF32430DFF32430DC7
:1055E000FF32430DFF32430DFF32430DFF32430DB7
:1055F000FF32430DFF32430DFF32430DFF32430DA7
:10560000FF32430DFF32430DFF32430DFF32430D96
:10561000FF32430DFF32430DFF32430DFF32430D86
:10562000FF32430DFF32430DFF32430DFF32430D76
:10563000FF32430DFF32430DFF32430DFF32430D66
:10564000FF32430DFF32430DFF32430DFF32430D56
:10565000FF32430D7D32430DFFCE420DFFCE420D92
:10566000FFCE420DFFCE420DFFCE420DFFCE420DCA
:10567000FFCE420DFFCE420DFFCE420DFFCE420DBA
:10568000FFCE420DFFCE420DFFCE420DFFCE420DAA
:10569000FFCE420DFFCE420DFFCE420DFFCE420D9A
:1056A000FFCE420DFFCE420DFFCE420DFFCE420D8A
:1056B000FFCE420DFFCE420DFFCE420DFFCE420D7A
:1056C000FFCE420DFFCE420DFFCE420DFFCE420D6A
:1056D000FFCE420DFFCE420DFFCE420DFFCE420D5A
:1056E000FFCE420DFFCE420DFFCE420DFFCE420D4A
:1056F000FFCE420DFFCE420DFFCE420DFFCE420D3A
:10570000FFCE420DFFCE420DFFCE420DFFCE420D29
:10571000FFCE420DFFCE420DFFCE420DFFCE420D19
:10572000FFCE420DFFCE420DFFCE420DFFCE420D09
:10573000FFCE420DFFCE420DFFCE420DFFCE420DF9
:10574000FFCE420DFFCE420DFFCE420DFFCE420DE9
:10575000FFCE420DFFCE420DFFCE420DFFCE420DD9
:0857600080CE42C5600000008C
:0400000508000131BD
:00000001FF
